DEVDADDRESS1                                       0000100010SLAddress line 1 cannot be blankNE                                                                                DEM0044DC@M01    *LIBL     D000000200YY 
DEVDDATEACQ                                        0000100010DCMust be a valid date          NE                                                                                DEM0002DC@M01    *LIBL     D000000201YU 
DEVDDEPTDESC                                       0000100010SLDescription cannot be blank   NE                                                                                DEM0003DC@M01    *LIBL     D000000202YY 
DEVDDEPTMENT                                       0000100010SLDepartment cannot be blank    NE                                                                                DEM0004DC@M01    *LIBL     D000000261YY 
DEVDEMPEVTNUM                                      0000100010LVmust be > *ZERO               EN                                                                                DEM0048DC@M01    *LIBL     D000000204YU 
DEVDEMPEVTTYP                                      0000100010CLMust be valid event type      NE                                                                                DEM0054DC@M01    *LIBL     D000000205YU 
DEVDEMPNO                                          0000100010RVEmployee no. A0000 - A9999    NE                                                                                DEM0005DC@M01    *LIBL     D000000206YY 
DEVDEMPTSTASK                                      0000100010LVmust be a valid task code     NE                                                                                DEM0053DC@M01    *LIBL     D000000207YU 
DEVDEMPTSWEEK                                      0000100010RVmust be between 1 and 52      NE                                                                                DEM0052DC@M01    *LIBL     D000000208YU 
DEVDEMPTSYEAR                                      0000100010LVmust be > *ZERO               EN                                                                                DEM0051DC@M01    *LIBL     D000000209YU 
DEVDGIVENAME                                       0000100010SLGiven name(s) cannot be blank NE                                                                                DEM0006DC@M01    *LIBL     D000000262YY 
DEVDGRADE                                          0000100010LVGrade must be 'P','F','M','D' NE                                                                                DEM0007DC@M01    *LIBL     D000000211YY 
DEVDLZCOCD                                         0000000000LVmust not be blank             EN                                                                                DCM1077DC@M01    *LIBL     D000000072YY 
DEVDLZCOCDSAL                                      0000000000LVmust not be blank             EN                                                                                DCM1077DC@M01    *LIBL     D000000073YY 
DEVDLZCODS                                         0000000000LVMust not be Blank             EN                                                                                DCM1077DC@M01    *LIBL     D000000074YY 
DEVDLZDATEDAT                                      0000100000DCMust be valid Date            NE                                                                                DCM1083DC@M01    *LIBL     D000000075YY 
DEVDLZDATEINV                                      0000100000DCMust be valid Date            NE                                                                                DCM1083DC@M01    *LIBL     D000000076YY 
DEVDLZDATEPRD                                      0000100000DCMust be valid Date            NE                                                                                DCM1083DC@M01    *LIBL     D000000077YY 
DEVDLZPRCD                                         0000100010LVmust not be blank             EN                                                                                DCM1077DC@M01    *LIBL     D000000078YY 
DEVDLZPRCDSAL                                      0000100010LVmust not be blank             EN                                                                                DCM1077DC@M01    *LIBL     D000000079YY 
DEVDLZPRDS                                         0000000000LVMust not be Blank             EN                                                                                DCM1077DC@M01    *LIBL     D000000080YY 
DEVDLZPRST                                         0000100000LVOnly Open, Closed or Deleted  NECode entered is not from list of valid values for Product Status                                           D000000081YU 
DEVDLZPRWT                                         0000100010RVMore than zero is OK          NEEntered Product Weight is outside range of values.                                                         D000000082YU 
DEVDLZWHCD                                         0000000000LVmust not be blank             EN                                                                                DCM1077DC@M01    *LIBL     D000000083YY 
DEVDLZWHCDSAL                                      0000000000LVmust not be blank             EN                                                                                DCM1077DC@M01    *LIBL     D000000084YY 
DEVDLZWHDS                                         0000000000LVMust not be Blank             EN                                                                                DCM1077DC@M01    *LIBL     D000000085YY 
DEVDLZWHMG                                         0000000000LVMust not be Blank             EN                                                                                DCM1077DC@M01    *LIBL     D000000086YY 
DEVDPHONEBUS                                       0000100010SLBusiness phone cannot be blankNE                                                                                DEM0008DC@M01    *LIBL     D000000212YY 
DEVDPHONEHME                                       0000100010SLHome phone no. cannot be blankNE                                                                                DEM0009DC@M01    *LIBL     D000000213YY 
DEVDPOSTCODE                                       0000100010RVPost/zip code range 2000-7999 NE                                                                                DEM0010DC@M01    *LIBL     D000000214YY 
DEVDSALARY                                         0000100010SLSalary must be greater than 0 NE                                                                                DEM0011DC@M01    *LIBL     D000000215YY 
DEVDSECDESC                                        0000100010SLDescription cannot be blank   NE                                                                                DEM0012DC@M01    *LIBL     D000000216YY 
DEVDSECTION                                        0000100010SLSection cannot be blank       NE                                                                                DEM0013DC@M01    *LIBL     D000000263YY 
DEVDSKILCODE                                       0000100010SLSkill cannot be blank         NE                                                                                DEM0014DC@M01    *LIBL     D000000218YY 
DEVDSKILDESC                                       0000100010SLSkill desc. cannot be blank   NE                                                                                DEM0015DC@M01    *LIBL     D000000219YY 
DEVDSTARTDTE                                       0000100010DCStart date invalid or > today NE                                                                                DEM0016DC@M01    *LIBL     D000000264YY 
DEVDSTD_CENT                                       0000100010RVMust be between 19 and 21     NE                                                                                DCM1081DC@M01    *LIBL     D000000353YY 
DEVDSTD_CODE                                       0000100010LVmust not be blank             EN                                                                                DCM1077DC@M01    *LIBL     D000000354YY 
DEVDSTD_CODEL                                      0000100010LVmust not be blank             EN                                                                                DCM1077DC@M01    *LIBL     D000000355YY 
DEVDSTD_CODES                                      0000100010LVmust not be blank             EN                                                                                DCM1077DC@M01    *LIBL     D000000356YY 
DEVDSTD_DATE                                       0000100010DCMust be valid Date            NE                                                                                DCM1083DC@M01    *LIBL     D000000376YY 
DEVDSTD_DAY                                        0000100010RVMust be between 1 and 31      NE                                                                                DCM1079DC@M01    *LIBL     D000000358YY 
DEVDSTD_DESC                                       0000100010LVMust not be Blank             EN                                                                                DCM1077DC@M01    *LIBL     D000000359YY 
DEVDSTD_DESCL                                      0000100010LVMust not be Blank             EN                                                                                DCM1077DC@M01    *LIBL     D000000360YY 
DEVDSTD_DESCS                                      0000100010LVMust not be Blank             EN                                                                                DCM1077DC@M01    *LIBL     D000000361YY 
DEVDSTD_FLAG                                       0000100010LVMust be Y or N                NE                                                                                DCM1078DC@M01    *LIBL     D000000362YY 
DEVDSTD_GUID                                       0000500010TRHandleGuid                    NE                                                                                                           D000000363   
DEVDSTD_HOUR                                       0000100010RVMust be between 0 and 24      NE                                                                                DCM1085DC@M01    *LIBL     D000000364YY 
DEVDSTD_MONTH                                      0000100010RVMust be between 1 and 12      NE                                                                                DCM1080DC@M01    *LIBL     D000000365YY 
DEVDSTD_NAME                                       0000100010LVMust not be Blank             EN                                                                                DCM1077DC@M01    *LIBL     D000000366YY 
DEVDSTD_OBJ                                        0000100010LVMust not be Blank             EN                                                                                DCM1077DC@M01    *LIBL     D000000367YY 
DEVDSTD_PHONE                                      0000100010LVMust not be Blank             EN                                                                                DCM1077DC@M01    *LIBL     D000000368YY 
DEVDSTD_PRICE                                      0000100010SLMust be greater than zero     NE                                                                                DCM1082DC@M01    *LIBL     D000000369YY 
DEVDSTD_SWICH                                      0000100010LVMust be 1 or 0                NE                                                                                DCM1090DC@M01    *LIBL     D000000370YY 
DEVDSTD_TEXT                                       0000100010LVMust not be Blank             EN                                                                                DCM1077DC@M01    *LIBL     D000000371YY 
DEVDSTD_TEXTL                                      0000100010LVMust not be Blank             EN                                                                                DCM1077DC@M01    *LIBL     D000000372YY 
DEVDSTD_TEXTS                                      0000100010LVMust not be Blank             EN                                                                                DCM1077DC@M01    *LIBL     D000000373YY 
DEVDSTD_TIME                                       0000100010SLMust be valid time            EN                                                                                DCM1084DC@M01    *LIBL     D000000374YY 
DEVDSTD_ZIP                                        0000100010LVMust not be Blank             EN                                                                                DCM1077DC@M01    *LIBL     D000000375YY 
DEVDSURNAME                                        0000100010SLSurname cannot be blank       NE                                                                                DEM0017DC@M01    *LIBL     D000000265YY 
DEVDSZBOLD                                         0000100010LVMust be Y or N                NE                                                                                DCM1078DC@M01    *LIBL     D000000486YY 
DEVDSZDCARDIG                                      0000100010LVMust be Y or N                NE                                                                                DCM1078DC@M01    *LIBL     D000000487YY 
DEVDSZITALICS                                      0000100010LVMust be Y or N                NE                                                                                DCM1078DC@M01    *LIBL     D000000488YY 
DEVDSZUNDERLN                                      0000100010LVMust be Y or N                NE                                                                                DCM1078DC@M01    *LIBL     D000000489YY 
DEVDSZVBOLD                                        0000100010LVMust be Y or N                NE                                                                                DCM1078DC@M01    *LIBL     D000000490YY 
DEVDSZVITALIC                                      0000100010LVMust be Y or N                NE                                                                                DCM1078DC@M01    *LIBL     D000000491YY 
DEVDSZVLBOLD                                       0000100010LVMust be Y or N                NE                                                                                DCM1078DC@M01    *LIBL     D000000492YY 
DEVDSZVLITALC                                      0000100010LVMust be Y or N                NE                                                                                DCM1078DC@M01    *LIBL     D000000493YY 
DEVDSZVLUNDRL                                      0000100010LVMust be Y or N                NE                                                                                DCM1078DC@M01    *LIBL     D000000494YY 
DEVDSZVNAMNBR                                      0000100010LVMust be Y or N                NE                                                                                DCM1078DC@M01    *LIBL     D000000495YY 
DEVDSZVUNDRLN                                      0000100010LVMust be Y or N                NE                                                                                DCM1078DC@M01    *LIBL     D000000496YY 
DEVDTALDEPTCO           DEVMODLIB                  0000100010SLDepartment cannot be blank    NE                                                                                DEM0004DC@M01    *LIBL     D000000299YY 
DEVDTALDEPTDE           DEVMODLIB                  0000100010SLDescription cannot be blank   NE                                                                                DEM0003DC@M01    *LIBL     D000000300YY 
DEVDTERMDATE                                       0000100010SLTermination date zero         AN                                                                                DEM0018DC@M01    *LIBL     D000000266YY 
DEVDTERMDATE                                       0000100020DCValid termination date        NE                                                                                DEM0019DC@M01    *LIBL     D000000267YY 
DEVDTYPE_VAR                                       0000100500LVRUO Must be a valid type code NE                                                                                LUO3130DC@M01    *LIBL     D000000087YU 
DEVDXDEPTDESC                                      0000100010SLDescription cannot be blank   NE                                                                                DEM0003DC@M01    *LIBL     D000000247YY 
DEVFDEPTMENT  PSLMST    DEVMODLIB                  0001000010CFDepartment in DEPTAB table    NE                                                                                DEM0021DC@M01    *LIBL     D000000227YY 
DEVFEMPNO     PSLEVENT  DEVMODLIB                  0001000010CFMust exist on PSLMST          NE                                                                                DEM0047DC@M01    *LIBL     D000000225YU 
DEVFEMPNO     PSLEVENT  DEVMODLIB                  0005000020TRTrigger for all events        NE                                                                                                           D000000226   
DEVFEMPNO     PSLMST    DEVMODLIB                  0001000010CFNo entries in PSLSKL file     EN                                                                                DEM0020DC@M01    *LIBL     D000000228  Y
DEVFEMPNO     PSLSKL    DEVMODLIB                  0001000010CFEmployee on PSLMST file       NE                                                                                DEM0024DC@M01    *LIBL     D000000231YY 
DEVFEMPNO     PSLTIMES  DEVMODLIB                  0005000010TRTrigger for all events        NE                                                                                                           D000000233   
DEVFLZCOCD    LZ2C      DEVMODLIB                  0001000505CFRUOM CANNOT DELETE - LZ2W EXISEN                                                                                LUO4007DC@M01    *LIBL     D000000088  Y
DEVFLZCOCDCON LZ2W      DEVMODLIB                  0001000525CFRUOM CANNOT ADD - LZ2C DOES NONE                                                                                LUO4009DC@M01    *LIBL     D000000095YU 
DEVFLZINRP    LZ2I      DEVMODLIB                  0001000010SLReorder *GE Safety Stock      NEReorder Point must be greater than or equal to safety stock.                                               D000000091YU 
DEVFLZINSS    LZ2I      DEVMODLIB                  0001000010RVValid range for Safety Stock  NESafety Stock must be greater than 0 and less/equal to Reorder Point.                                       D000000092YU 
DEVFLZPRCDPRD LZ2I      DEVMODLIB                  0001000520CFRUOM CANNOT ADD - LZ2P DOES NONE                                                                                LUO4009DC@M01    *LIBL     D000000093YU 
DEVFLZPRCDSAL LZ2E      DEVMODLIB                  0001000010CFCannot Add unless exists      NE                                                                                LUO4009DCM01     *LIBL     D000000089YU 
DEVFLZWHCDSAL LZ2E      DEVMODLIB                  0001000010CFCannot Add unless exists      NE                                                                                LUO4009DCM01     *LIBL     D000000090YU 
DEVFLZWHCDWHS LZ2I      DEVMODLIB                  0001000515CFRUOM CANNOT ADD - LZ2W DOES NONE                                                                                LUO4009DC@M01    *LIBL     D000000094YU 
DEVFMEMAIL    MLOGIN    DEVMODLIB                  0001000010LVNeed Email                    EN                                                                                DCU0002DC@M01    *LIBL     D000000502YU 
DEVFMPASSWRD  MLOGIN    DEVMODLIB                  0001000010LVNeed password                 EN                                                                                DCU0002DC@M01    *LIBL     D000000501YU 
DEVFMUSER     MLOGIN    DEVMODLIB                  0001000010LVNeed User                     EN                                                                                DCU0002DC@M01    *LIBL     D000000500YU 
DEVFSECTION   PSLMST    DEVMODLIB                  0001000010CFSection code in SECTAB table  NE                                                                                DEM0022DC@M01    *LIBL     D000000229YY 
DEVFSKILCODE  PSLSKL    DEVMODLIB                  0001000010CFSkill code in SKLTAB table    NE                                                                                DEM0025DC@M01    *LIBL     D000000232YY 
DEVFTERMDATE  PSLMST    DEVMODLIB                  0001000010DCDeletion only after 7 years   EN                                                                                DEM0023DC@M01    *LIBL     D000000230  Y
DEVFXCITY     XEMPLOYEE DEVMODLIB                  0001000010SLCity must be entered          NECity must be entered                                                                             *LIBL     D000000248YU 
DEVFXDEPTMENT XEMPLOYEE DEVMODLIB                  0001000010CFDepartment in xDepartments    NEEnter a valid Department                                                                         *LIBL     D000000249YU 
DEVFXEMPLOYID XEMPLOYEE DEVMODLIB                  0001000010RVEmployee Id must be between 1 NEEmployee Id must be in the range 1-999999                                                        *LIBL     D000000250YU 
DEVFXGENDER   XEMPLOYEE DEVMODLIB                  0001000010LVMale, Female or Nodisclose    NEGender must be Male, Female or NoDisclose                                                        *LIBL     D000000251YU 
DEVFXGIVENAME XEMPLOYEE DEVMODLIB                  0001000010SLGiven Name(s) must be entered NEGiven Name(s) must be entered                                                                    *LIBL     D000000252YU 
DEVFXPOSTCODE XEMPLOYEE DEVMODLIB                  0001000010RVMust be in range 1000-99999   NEPostal Code must be in the range 1000-99999                                                      *LIBL     D000000253YU 
DEVFXSACCEML  XSUSRACC  DEVMODLIB                  0001000010CLNew complex logic check       NEEmail must include an @ and .                                                                    *LIBL     D000000260YY 
DEVFXSALARY   XEMPLOYEE DEVMODLIB                  0001000010SLSalary must be entered        NESalary must be entered                                                                           *LIBL     D000000254YU 
DEVFXSTARTDTE XEMPLOYEE DEVMODLIB                  0001000010SLStartDate today or later      ENStart Date must be today or later                                                                *LIBL     D000000255Y  
DEVFXSTREET   XEMPLOYEE DEVMODLIB                  0001000010SLStreet must be entered        NEStreet must be entered                                                                           *LIBL     D000000256YU 
DEVFXSURNAME  XEMPLOYEE DEVMODLIB                  0001000010SLSurname must be entered       NESurname must be entered                                                                          *LIBL     D000000257YU 
DEVFXTERMDATE XEMPLOYEE DEVMODLIB                  0001000010SLCheck value before validate   AN                                                                                DCU0004DC@M01    *LIBL     D000000258YY 
DEVFXTERMDATE XEMPLOYEE DEVMODLIB                  0001000020SLTermination date after Start  NETermination Date must be after the Start Date                                                    *LIBL     D000000259YY 
