DEVDF_DDDEP  0000000DEPARTMENTSELECTED  DepartmentSelected  1011                                        This event is signaled when a department has been selected                                                                                                                                                                                                00000000000000          
DEVDF_DLDEP  0000000DEPARTMENTSELECTED  DepartmentSelected  1011                                        This event is signaled when a department has been selected                                                                                                                                                                                                00000000000000          
DEVDF_DLSKL  0000000SKILLSELECTED       SkillSelected       1011                                        This event is signaled when a skill has been selected                                                                                                                                                                                                     00000000000000          
DEVDF_EPNL   0000000PANELSELECTED       PanelSelected       1011                                                                                                                                                                                                                                                                                                  00000000000000          
DEVDF_EPNL   0000000PANELUNSELECTED     PanelUnSelected     1011                                                                                                                                                                                                                                                                                                  00000000000000          
DEVDF_MSGQ   0000000ACTIONREQUESTED     ActionRequested     1011                                                                                                                                                                                                                                                                                                  00000000000000          
DEVDF_MSGQF  0000000ACTIONREQUESTED     ActionRequested     1011                                                                                                                                                                                                                                                                                                  00000000000000          
DEVDF_MSGQF  0000000ACTIONREQUESTEDDELAYActionRequestedDelay1011                                                                                                                                                                                                                                                                                                  00000000000000          
DEVDF_T3205  0000000CHANGED             Changed             1011                                                                                                                                                                                                                                                                                                  00000000000000          
DEVDF_TVDEP  0000000DEPTSECTSELECTED    DeptSectSelected    1011                                        This event is signaled when a department/section has been selected                                                                                                                                                                                        00000000000000          
DEVDF_TVDS   0000000DEPTSECTSELECTED    DeptSectSelected    1011                                        This event is signaled when a department/section has been selected                                                                                                                                                                                        00000000000000          
DEVFP_AC001  0000000UPAINTSCREEN        uPaintScreen        1011                                                                                                                                                                                                                                                                                                  00000000000000          
DEVFP_FCALN  0000000DATE_SELECTED       Date_Selected       1011                                        Signalled when a date is to be passed to the parent form                                                                                                                                                                                                  00000000000000          
DEVFP_VDATE  0000000UCHANGED            uChanged            1011                                                                                                                                                                                                                                                                                                  00000000000000          
DEVFP_VDATE  0000000UEXTENDEDVALIDATIONSuExtendedValidations1011                                                                                                                                                                                                                                                                                                  00000000000000          
DEVFP_VTIME  0000000UCHANGED            uChanged            1011                                                                                                                                                                                                                                                                                                  00000000000000          
DEVFP_VTIME  0000000UEXTENDEDVALIDATIONSuExtendedValidations1011                                                                                                                                                                                                                                                                                                  00000000000000          
DEVUF_VMEMO  0000000CHANGED             Changed             1011                                                                                                                                                                                                                                                                                                  00000000000000          
DEVUF_VPA    0000000EVPATHSELECTED      evPathSelected      1011                                                                                                                                                                                                                                                                                                  00000000000000          
DEVUF_VPATH  0000000PATHSELECTED        PathSelected        1011                                                                                                                                                                                                                                                                                                  00000000000000          
DEVUF_VTXT   0000000CHANGED             Changed             1011                                                                                                                                                                                                                                                                                                  00000000000000          
DEVUF_VTXT   0000000JSCRIPTEVENT        JScriptEvent        1011                                                                                                                                                                                                                                                                                                  00000000000000          
DEVVF_AC016  0000000DISABLENEXT         DisableNext         1011                                                                                                                                                                                                                                                                                                  00000000000000          
DEVVF_AC016  0000000ENABLENEXT          EnableNext          1011                                                                                                                                                                                                                                                                                                  00000000000000          
DEVVF_AC017  0000000E5250FIELDFOUND     e5250FieldFound     1011                                                                                                                                                                                                                                                                                                  00000000000000          
DEVVF_AC017  0000000E5250FIELDSET       e5250FieldSet       1011                                                                                                                                                                                                                                                                                                  00000000000000          
DEVVF_AC017  0000000UPROMPTWENTHIDING   uPromptWentHiding   1011                                                                                                                                                                                                                                                                                                  00000000000000          
DEVVF_ER001  0000000UFATALERROR         uFatalError         1011                                                                                                                                                                                                                                                                                                  00000000000000          
DEVVF_GP002  0000000UREFRESH            uRefresh            1011                                                                                                                                                                                                                                                                                                  00000000000000          
DEVVF_GP003  0000000UREFRESH            uRefresh            1011                                                                                                                                                                                                                                                                                                  00000000000000          
DEVVF_SI001  0000000BOTTOMREQUESTED     BottomRequested     1011                                                                                                                                                                                                                                                                                                  00000000000000          
DEVVF_SI001  0000000FREEZEMAINWINDOW    FreezeMainWindow    1011                                                                                                                                                                                                                                                                                                  00000000000000          
DEVVF_SI001  0000000HIDEREQUESTED       HideRequested       1011                                                                                                                                                                                                                                                                                                  00000000000000          
DEVVF_SI001  0000000LEFTREQUESTED       LeftRequested       1011                                                                                                                                                                                                                                                                                                  00000000000000          
DEVVF_SI001  0000000MAXIMIZEREQUESTED   MaximizeRequested   1011                                                                                                                                                                                                                                                                                                  00000000000000          
DEVVF_SI001  0000000MINIMIZEREQUESTED   MinimizeRequested   1011                                                                                                                                                                                                                                                                                                  00000000000000          
DEVVF_SI001  0000000RIGHTREQUESTED      RightRequested      1011                                                                                                                                                                                                                                                                                                  00000000000000          
DEVVF_SI001  0000000SHOWREQUESTED       ShowRequested       1011                                                                                                                                                                                                                                                                                                  00000000000000          
DEVVF_SI001  0000000TOPREQUESTED        TopRequested        1011                                                                                                                                                                                                                                                                                                  00000000000000          
DEVVF_SI001  0000000UNFREEZEMAINWINDOW  UnFreezeMainWindow  1011                                                                                                                                                                                                                                                                                                  00000000000000          
DEVVF_SY114  0000000ENDATTRIBUTES       EndAttributes       1011                                                                                                                                                                                                                                                                                                  00000000000000          
DEVVF_SY114  0000000ENDELEMENT          EndElement          1011                                                                                                                                                                                                                                                                                                  00000000000000          
DEVVF_SY114  0000000FOUNDATTRIBUTE      FoundAttribute      1011                                                                                                                                                                                                                                                                                                  00000000000000          
DEVVF_SY114  0000000STARTATTRIBUTES     StartAttributes     1011                                                                                                                                                                                                                                                                                                  00000000000000          
DEVVF_SY114  0000000STARTELEMENT        StartElement        1011                                                                                                                                                                                                                                                                                                  00000000000000          
DEVVF_SY130  0000000FILEFOUND           FileFound           1011                                                                                                                                                                                                                                                                                                  00000000000000          
DEVVF_SY158  0000000TABSHEETOPENING     TabSheetOpening     1011                                                                                                                                                                                                                                                                                                  00000000000000          
DEVVF_UM119  0000000NO_SELECTION        No_Selection        1011                                                                                                                                                                                                                                                                                                  00000000000000          
DEVVF_UM119  0000000SELECTION_CHANGED   Selection_Changed   1011                                                                                                                                                                                                                                                                                                  00000000000000          
DEVVF_UM710  0000000UGOTFOCUS           uGotFocus           1011                                                                                                                                                                                                                                                                                                  00000000000000          
DEVVF_UM723  0000000ITEMSELECTED        ItemSelected        1011                                                                                                                                                                                                                                                                                                  00000000000000          
DEVVF_UM803  0000000UCHANGED            uChanged            1011                                                                                                                                                                                                                                                                                                  00000000000000          
DEVVF_UM805  0000000USELFADJUSTREQUESTEDuSelfAdjustRequested1011                                                                                                                                                                                                                                                                                                  00000000000000          
DEVVF_UM805  0000000USELFVERIFYREQUESTEDuSelfVerifyRequested1011                                                                                                                                                                                                                                                                                                  00000000000000          
DEVVF_UM805  0000000UWEBVERIFYREQUESTED uWebVerifyRequested 1011                                                                                                                                                                                                                                                                                                  00000000000000          
DEVVF_UM808  0000000USELECTIONCHANGED   uSelectionChanged   1011                                                                                                                                                                                                                                                                                                  00000000000000          
DEVVF_UM814  0000000UADDFILEFIELDS      uAddFileFields      1011                                                                                                                                                                                                                                                                                                  00000000000000          
DEVVF_UM814  0000000UADDFILEKEYS        uAddFileKeys        1011                                                                                                                                                                                                                                                                                                  00000000000000          
DEVVF_UM814  0000000UVALIDFILENAMEINPUT uValidFileNameInput 1011                                                                                                                                                                                                                                                                                                  00000000000000          
DEVVF_UM817  0000000USELECTIONCHANGED   uSelectionChanged   1011                                                                                                                                                                                                                                                                                                  00000000000000          
DEVVF_UM833  0000000MYPROPERTIESCHANGED MyPropertiesChanged 1011                                                                                                                                                                                                                                                                                                  00000000000000          
DEVVF_UM839  0000000UCHANGED            uChanged            1011                                                                                                                                                                                                                                                                                                  00000000000000          
DEVVF_UM840  0000000UCHANGED            uChanged            1011                                                                                                                                                                                                                                                                                                  00000000000000          
DEVVF_UM842  0000000PATHSELECTED        PathSelected        1011                                                                                                                                                                                                                                                                                                  00000000000000          
DEVVF_UM843  0000000EVPATHSELECTED      evPathSelected      1011                                                                                                                                                                                                                                                                                                  00000000000000          
DEVVF_UM848  0000000WEBRBCLICK          WebRBClick          1011                                                                                                                                                                                                                                                                                                  00000000000000          
DEVVF_UM849  0000000WEBRBCLICK          WebRBClick          1011                                                                                                                                                                                                                                                                                                  00000000000000          
DEVVF_UM849  0000000WINRBCLICK          WinRBClick          1011                                                                                                                                                                                                                                                                                                  00000000000000          
DEVVF_UM851  0000000UCHANGED            uChanged            1011                                                                                                                                                                                                                                                                                                  00000000000000          
DEVVF_UM853  0000000UCHANGED            uChanged            1011                                                                                                                                                                                                                                                                                                  00000000000000          
