DEVDEPTAB    DEVMODLIB DEPTAB01  Personnel who work in this department   PSLMST1   *FIRST    0000009999IGNORE    
DEVDEPTAB    DEVMODLIB DEPTAB02  Sections within this department         SECTAB    *FIRST    0000000999IGNORE    
DEVLZ2C      DEVMODLIB LCL0000001is the grand-parent of country          LZ2E      *FIRST    0000009999IGNORE    
DEVLZ2C      DEVMODLIB RUO0000001is the parent of/owns (0:M)             LZ2W      *FIRST    0000009999IGNORE    
DEVLZ2E      DEVMODLIB LCL0000001is the child of / belongs to Warehouse  LZ2W      *FIRST    0000000001IGNORE    
DEVLZ2E      DEVMODLIB LCL0000002is the child of / belongs to Product    LZ2P      *FIRST    0000000001IGNORE    
DEVLZ2E      DEVMODLIB LCL0000003is the grand-child of Country           LZ2C      *FIRST    0000000001IGNORE    
DEVLZ2E      DEVMODLIB LCL0000004refers to Inventory                     LZ2I      *FIRST    0000000001IGNORE    
DEVLZ2I      DEVMODLIB LCL0000001refers to Sales History                 LZ2E      *FIRST    0000009999IGNORE    
DEVLZ2I      DEVMODLIB LCL0000002refers to sales history by product      LZ2EPRD   *FIRST    0000009999IGNORE    
DEVLZ2I      DEVMODLIB RUO0000003is a child of/belongs to (1:1)          LZ2W      *FIRST    0000000001IGNORE    
DEVLZ2I      DEVMODLIB RUO0000004is a child of/belongs to (1:1)          LZ2P      *FIRST    0000000001IGNORE    
DEVLZ2P      DEVMODLIB LCL0000001is the parent of / owns Sales History   LZ2EPRD   *FIRST    0000009999IGNORE    
DEVLZ2W      DEVMODLIB LCL0000001is the parent of / owns                 LZ2E      *FIRST    0000009999IGNORE    
DEVLZ2W      DEVMODLIB RUO0000003is the parent of/owns (0:M)             LZ2I      *FIRST    0000009999IGNORE    
DEVLZ2W      DEVMODLIB RUO0000005is a child of/belongs to (1:1)          LZ2C      *FIRST    0000000001IGNORE    
DEVPSLEVENT  DEVMODLIB PSLMST01  PSLMST                                  PSLMST    *FIRST    0000000001IGNORE    
DEVPSLMST    DEVMODLIB PSLMST01  Associated skill details                PSLSKL    *FIRST    0000000999IGNORE    
DEVPSLMST    DEVMODLIB PSLMST02  Associated department details           DEPTAB    *FIRST    0000000001IGNORE    
DEVPSLMST    DEVMODLIB PSLMST03  Associated section details              SECTAB    *FIRST    0000000001IGNORE    
DEVPSLSKL    DEVMODLIB PSLSKL01  Skill codes from Skills table           SKLTAB    *FIRST    0000000001IGNORE    
DEVPSLSKL    DEVMODLIB PSLSKL02  Personnel details for this skill        PSLMST    *FIRST    0000000001ABORT     
DEVSECTAB    DEVMODLIB SECTAB01  People who work in this section         PSLMST1   *FIRST    0000009999IGNORE    
DEVSECTAB    DEVMODLIB SECTAB02  Associated department details           DEPTAB    *FIRST    0000000001ABORT     
DEVXEMPLOYEE DEVMODLIB XEMPDEPT  Lookup xEmployeeDepartment xDepartments XDEPTMENTS*FIRST    0000000001IGNORE    
