DEVDF_EPNL   0000000GETMONTH            GetMonth            00000012000                                                                                                                                                                                                                                                                                                  00000000000000          
DEVDF_EPNL   0000000GETYEAR             GetYear             00000012000                                                                                                                                                                                                                                                                                                  00000000000000          
DEVDF_EPNL   0000000SETMONTH            SetMonth            00000012000                                                                                                                                                                                                                                                                                                  00000000000000          
DEVDF_EPNL   0000000SETSELECTED         SetSelected         00000012000                                                                                                                                                                                                                                                                                                  00000000000000          
DEVDF_EPNL   0000000SETYEAR             SetYear             00000012000                                                                                                                                                                                                                                                                                                  00000000000000          
DEVDF_MSGQF  0000000GET_ACTIONQUEUE     Get_ActionQueue     00000012000                                                                                                                                                                                                                                                                                                  00000000000000          
DEVDF_MSGQF  0000000GET_CHATQUEUE       Get_ChatQueue       00000012000                                                                                                                                                                                                                                                                                                  00000000000000          
DEVDF_T3205  0000000SET_UPRIORITY       Set_uPriority       00000012000                                                                                                                                                                                                                                                                                                  00000000000000          
DEVFP_AC001  0000000GET_UCAPTION        Get_uCaption        00000012000                                                                                                                                                                                                                                                                                                  00000000000000          
DEVFP_AC001  0000000SET_UCAPTION        Set_uCaption        00000012000                                                                                                                                                                                                                                                                                                  00000000000000          
DEVFP_AC001  0000000SET_UCAPTIONHEIGHT  Set_uCaptionHeight  00000012000                                                                                                                                                                                                                                                                                                  00000000000000          
DEVFP_AC001  0000000SET_UCAPTIONPOSITIONSet_uCaptionPosition00000012000                                                                                                                                                                                                                                                                                                  00000000000000          
DEVFP_AC001  0000000SET_UCAPTIONWIDTH   Set_uCaptionWidth   00000012000                                                                                                                                                                                                                                                                                                  00000000000000          
DEVFP_IN001  0000000GET_SELECTED        Get_Selected        00000012000                                                                                                                                                                                                                                                                                                  00000000000000          
DEVFP_IN001  0000000GET_UALPHAVALUE     Get_uAlphaValue     00000012000                                                                                                                                                                                                                                                                                                  00000000000000          
DEVFP_IN001  0000000GET_UBUTTONENABLED  Get_uButtonEnabled  00000012000                                                                                                                                                                                                                                                                                                  00000000000000          
DEVFP_IN001  0000000GET_UBUTTONVISIBLE  Get_uButtonVisible  00000012000                                                                                                                                                                                                                                                                                                  00000000000000          
DEVFP_IN001  0000000GET_UCHANGED        Get_uChanged        00000012000                                                                                                                                                                                                                                                                                                  00000000000000          
DEVFP_IN001  0000000GET_UCHECKED        Get_uChecked        00000012000                                                                                                                                                                                                                                                                                                  00000000000000          
DEVFP_IN001  0000000GET_UCLICKEDONID    Get_uClickedOnID    00000012000                                                                                                                                                                                                                                                                                                  00000000000000          
DEVFP_IN001  0000000GET_UCLICKEDONIDNUM Get_uClickedOnIDnum 00000012000                                                                                                                                                                                                                                                                                                  00000000000000          
DEVFP_IN001  0000000GET_UCOLUMN         Get_uColumn         00000012000                                                                                                                                                                                                                                                                                                  00000000000000          
DEVFP_IN001  0000000GET_UCOLUMNCOUNT    Get_uColumnCount    00000012000                                                                                                                                                                                                                                                                                                  00000000000000          
DEVFP_IN001  0000000GET_UHIDDENKEY1     Get_uHiddenKey1     00000012000                                                                                                                                                                                                                                                                                                  00000000000000          
DEVFP_IN001  0000000GET_UHIDDENKEY1N    Get_uHiddenKey1N    00000012000                                                                                                                                                                                                                                                                                                  00000000000000          
DEVFP_IN001  0000000GET_UHIDDENKEY2     Get_uHiddenKey2     00000012000                                                                                                                                                                                                                                                                                                  00000000000000          
DEVFP_IN001  0000000GET_UHIDDENKEY2N    Get_uHiddenKey2N    00000012000                                                                                                                                                                                                                                                                                                  00000000000000          
DEVFP_IN001  0000000GET_UHIDDENKEY3     Get_uHiddenKey3     00000012000                                                                                                                                                                                                                                                                                                  00000000000000          
DEVFP_IN001  0000000GET_UHIDDENKEY3N    Get_uHiddenKey3N    00000012000                                                                                                                                                                                                                                                                                                  00000000000000          
DEVFP_IN001  0000000GET_UHIDDENKEY4     Get_uHiddenKey4     00000012000                                                                                                                                                                                                                                                                                                  00000000000000          
DEVFP_IN001  0000000GET_UHIDDENKEY4N    Get_uHiddenKey4N    00000012000                                                                                                                                                                                                                                                                                                  00000000000000          
DEVFP_IN001  0000000GET_UHIDDENKEY5     Get_uHiddenKey5     00000012000                                                                                                                                                                                                                                                                                                  00000000000000          
DEVFP_IN001  0000000GET_UHIDDENKEY5N    Get_uHiddenKey5N    00000012000                                                                                                                                                                                                                                                                                                  00000000000000          
DEVFP_IN001  0000000GET_UHOVERCOLOR     Get_uHoverColor     00000012000                                                                                                                                                                                                                                                                                                  00000000000000          
DEVFP_IN001  0000000GET_UINITIALIZED    Get_uInitialized    00000012000                                                                                                                                                                                                                                                                                                  00000000000000          
DEVFP_IN001  0000000GET_UITEMCHANGED    Get_uItemChanged    00000012000                                                                                                                                                                                                                                                                                                  00000000000000          
DEVFP_IN001  0000000GET_UITEMCOUNT      Get_UitemCount      00000012000                                                                                                                                                                                                                                                                                                  00000000000000          
DEVFP_IN001  0000000GET_ULINE           Get_uLine           00000012000                                                                                                                                                                                                                                                                                                  00000000000000          
DEVFP_IN001  0000000GET_ULINKCAPTION    Get_uLinkCaption    00000012000                                                                                                                                                                                                                                                                                                  00000000000000          
DEVFP_IN001  0000000GET_ULINKHINT       Get_uLinkHint       00000012000                                                                                                                                                                                                                                                                                                  00000000000000          
DEVFP_IN001  0000000GET_ULINKURL        Get_uLinkURL        00000012000                                                                                                                                                                                                                                                                                                  00000000000000          
DEVFP_IN001  0000000GET_UNEWLINE        Get_uNewLine        00000012000                                                                                                                                                                                                                                                                                                  00000000000000          
DEVFP_IN001  0000000GET_UNUMERICVALUE   Get_UNumericValue   00000012000                                                                                                                                                                                                                                                                                                  00000000000000          
DEVFP_IN001  0000000GET_USELECT         Get_uSelect         00000012000                                                                                                                                                                                                                                                                                                  00000000000000          
DEVFP_IN001  0000000GET_USELECTITEM     Get_UselectItem     00000012000                                                                                                                                                                                                                                                                                                  00000000000000          
DEVFP_IN001  0000000GET_USELHIDDENKEY1  Get_uSelHiddenKey1  00000012000                                                                                                                                                                                                                                                                                                  00000000000000          
DEVFP_IN001  0000000GET_USELHIDDENKEY1N Get_uSelHiddenKey1N 00000012000                                                                                                                                                                                                                                                                                                  00000000000000          
DEVFP_IN001  0000000GET_USELHIDDENKEY2  Get_uSelHiddenKey2  00000012000                                                                                                                                                                                                                                                                                                  00000000000000          
DEVFP_IN001  0000000GET_USELHIDDENKEY2N Get_uSelHiddenKey2N 00000012000                                                                                                                                                                                                                                                                                                  00000000000000          
DEVFP_IN001  0000000GET_USELHIDDENKEY3  Get_uSelHiddenKey3  00000012000                                                                                                                                                                                                                                                                                                  00000000000000          
DEVFP_IN001  0000000GET_USELHIDDENKEY3N Get_uSelHiddenKey3N 00000012000                                                                                                                                                                                                                                                                                                  00000000000000          
DEVFP_IN001  0000000GET_USELHIDDENKEY4  Get_uSelHiddenKey4  00000012000                                                                                                                                                                                                                                                                                                  00000000000000          
DEVFP_IN001  0000000GET_USELHIDDENKEY4N Get_uSelHiddenKey4N 00000012000                                                                                                                                                                                                                                                                                                  00000000000000          
DEVFP_IN001  0000000GET_USELHIDDENKEY5  Get_uSelHiddenKey5  00000012000                                                                                                                                                                                                                                                                                                  00000000000000          
DEVFP_IN001  0000000GET_USELHIDDENKEY5N Get_uSelHiddenKey5N 00000012000                                                                                                                                                                                                                                                                                                  00000000000000          
DEVFP_IN001  0000000GET_USIGNALCHANGED  Get_uSignalChanged  00000012000                                                                                                                                                                                                                                                                                                  00000000000000          
DEVFP_IN001  0000000GET_UTRAILINGBLANKS Get_uTrailingBlanks 00000012000                                                                                                                                                                                                                                                                                                  00000000000000          
DEVFP_IN001  0000000GET_UVALUE          Get_uValue          00000012000                                                                                                                                                                                                                                                                                                  00000000000000          
DEVFP_IN001  0000000GETUSELECTOCCURRENCEGetUSelectOccurrence00000012000                                                                                                                                                                                                                                                                                                  00000000000000          
DEVFP_IN001  0000000S_COLUMNHEADERHEIGHTS_ColumnHeaderHeight00000012000                                                                                                                                                                                                                                                                                                  00000000000000          
DEVFP_IN001  0000000S_UCUSTOMBUTTON1TEXTS_uCustomButton1Text00000012000                                                                                                                                                                                                                                                                                                  00000000000000          
DEVFP_IN001  0000000S_UCUSTOMBUTTON2TEXTS_uCustomButton2Text00000012000                                                                                                                                                                                                                                                                                                  00000000000000          
DEVFP_IN001  0000000S_UDECIMALSEPARATOR S_uDecimalSeparator 00000012000                                                                                                                                                                                                                                                                                                  00000000000000          
DEVFP_IN001  0000000S_UDOWNLOADBTNCAPT  S_uDownloadBtnCapt  00000012000                                                                                                                                                                                                                                                                                                  00000000000000          
DEVFP_IN001  0000000S_UTHOUSANDSEPARATORS_uThousandSeparator00000012000                                                                                                                                                                                                                                                                                                  00000000000000          
DEVFP_IN001  0000000S_UUPLOADBTNCAPTION S_uUploadBtnCaption 00000012000                                                                                                                                                                                                                                                                                                  00000000000000          
DEVFP_IN001  0000000S_UWEBPAGESOURCEURL S_uWebPageSourceURL 00000012000                                                                                                                                                                                                                                                                                                  00000000000000          
DEVFP_IN001  0000000SET_SELECTED        Set_Selected        00000012000                                                                                                                                                                                                                                                                                                  00000000000000          
DEVFP_IN001  0000000SET_UACTION         Set_uAction         00000012000                                                                                                                                                                                                                                                                                                  00000000000000          
DEVFP_IN001  0000000SET_UALLOWNULL      Set_UallowNull      00000012000                                                                                                                                                                                                                                                                                                  00000000000000          
DEVFP_IN001  0000000SET_UALPHAVALUE     Set_uAlphaValue     00000012000                                                                                                                                                                                                                                                                                                  00000000000000          
DEVFP_IN001  0000000SET_UAPPENDDATA     Set_uAppendData     00000012000                                                                                                                                                                                                                                                                                                  00000000000000          
DEVFP_IN001  0000000SET_UARRANGE        Set_uArrange        00000012000                                                                                                                                                                                                                                                                                                  00000000000000          
DEVFP_IN001  0000000SET_UARRANGECAPTIONSSet_uArrangeCaptions00000012000                                                                                                                                                                                                                                                                                                  00000000000000          
DEVFP_IN001  0000000SET_UARRANGEVALUES  Set_uArrangeValues  00000012000                                                                                                                                                                                                                                                                                                  00000000000000          
DEVFP_IN001  0000000SET_UBARHEIGHT      Set_UbarHeight      00000012000                                                                                                                                                                                                                                                                                                  00000000000000          
DEVFP_IN001  0000000SET_UBARWIDTH       Set_UbarWidth       00000012000                                                                                                                                                                                                                                                                                                  00000000000000          
DEVFP_IN001  0000000SET_UBORDER         Set_uBorder         00000012000                                                                                                                                                                                                                                                                                                  00000000000000          
DEVFP_IN001  0000000SET_UBORDERWIDTH    Set_uBorderWidth    00000012000                                                                                                                                                                                                                                                                                                  00000000000000          
DEVFP_IN001  0000000SET_UBUTTONCAPTION  Set_uButtonCaption  00000012000                                                                                                                                                                                                                                                                                                  00000000000000          
DEVFP_IN001  0000000SET_UBUTTONENABLED  Set_uButtonEnabled  00000012000                                                                                                                                                                                                                                                                                                  00000000000000          
DEVFP_IN001  0000000SET_UBUTTONVISIBLE  Set_uButtonVisible  00000012000                                                                                                                                                                                                                                                                                                  00000000000000          
DEVFP_IN001  0000000SET_UCALCULATORIMAGESet_uCalculatorImage00000012000                                                                                                                                                                                                                                                                                                  00000000000000          
DEVFP_IN001  0000000SET_UCALENDARIMAGE  Set_uCalendarImage  00000012000                                                                                                                                                                                                                                                                                                  00000000000000          
DEVFP_IN001  0000000SET_UCAPTION        Set_uCaption        00000012000                                                                                                                                                                                                                                                                                                  00000000000000          
DEVFP_IN001  0000000SET_UCAPTIONHEIGHT  Set_uCaptionHeight  00000012000                                                                                                                                                                                                                                                                                                  00000000000000          
DEVFP_IN001  0000000SET_UCAPTIONPOSITIONSet_uCaptionPosition00000012000                                                                                                                                                                                                                                                                                                  00000000000000          
DEVFP_IN001  0000000SET_UCAPTIONWIDTH   Set_uCaptionWidth   00000012000                                                                                                                                                                                                                                                                                                  00000000000000          
DEVFP_IN001  0000000SET_UCHANGED        Set_uChanged        00000012000                                                                                                                                                                                                                                                                                                  00000000000000          
DEVFP_IN001  0000000SET_UCHECKED        Set_uChecked        00000012000                                                                                                                                                                                                                                                                                                  00000000000000          
DEVFP_IN001  0000000SET_UCOLUMNCOUNT    Set_uColumnCount    00000012000                                                                                                                                                                                                                                                                                                  00000000000000          
DEVFP_IN001  0000000SET_UCOLUMNHEADERS  Set_uColumnHeaders  00000012000                                                                                                                                                                                                                                                                                                  00000000000000          
DEVFP_IN001  0000000SET_UCOLUMNWIDTHUNITSet_uColumnWidthUnit00000012000                                                                                                                                                                                                                                                                                                  00000000000000          
DEVFP_IN001  0000000SET_UCUSTOMBUTTON1  Set_uCustomButton1  00000012000                                                                                                                                                                                                                                                                                                  00000000000000          
DEVFP_IN001  0000000SET_UCUSTOMBUTTON2  Set_uCustomButton2  00000012000                                                                                                                                                                                                                                                                                                  00000000000000          
DEVFP_IN001  0000000SET_UDATEFORMAT     Set_UdateFormat     00000012000                                                                                                                                                                                                                                                                                                  00000000000000          
DEVFP_IN001  0000000SET_UDDISPLAYFORMAT set_uDDisplayFormat 00000012000                                                                                                                                                                                                                                                                                                  00000000000000          
DEVFP_IN001  0000000SET_UDEBUG          set_uDebug          00000012000                                                                                                                                                                                                                                                                                                  00000000000000          
DEVFP_IN001  0000000SET_UDENTRYFORMAT   set_uDEntryFormat   00000012000                                                                                                                                                                                                                                                                                                  00000000000000          
DEVFP_IN001  0000000SET_UDISPLAYPAGESIZEset_uDisplayPageSize00000012000                                                                                                                                                                                                                                                                                                  00000000000000          
DEVFP_IN001  0000000SET_UDOWNLOADBUTTON Set_uDownloadButton 00000012000                                                                                                                                                                                                                                                                                                  00000000000000          
DEVFP_IN001  0000000SET_UENABLED        Set_uEnabled        00000012000                                                                                                                                                                                                                                                                                                  00000000000000          
DEVFP_IN001  0000000SET_UEVENTINTERVAL  Set_uEventInterval  00000012000                                                                                                                                                                                                                                                                                                  00000000000000          
DEVFP_IN001  0000000SET_UEXECUTE        Set_Uexecute        00000012000                                                                                                                                                                                                                                                                                                  00000000000000          
DEVFP_IN001  0000000SET_UEXECUTELINKURL set_uExecuteLinkUrl 00000012000                                                                                                                                                                                                                                                                                                  00000000000000          
DEVFP_IN001  0000000SET_UFILEFORMAT     Set_uFileFormat     00000012000                                                                                                                                                                                                                                                                                                  00000000000000          
DEVFP_IN001  0000000SET_UFIXEDFONT      Set_uFixedFont      00000012000                                                                                                                                                                                                                                                                                                  00000000000000          
DEVFP_IN001  0000000SET_UGROUPBOX       set_uGroupBox       00000012000                                                                                                                                                                                                                                                                                                  00000000000000          
DEVFP_IN001  0000000SET_UGROUPCAPTION   Set_uGroupCaption   00000012000                                                                                                                                                                                                                                                                                                  00000000000000          
DEVFP_IN001  0000000SET_UHEIGHT         Set_uHeight         00000012000                                                                                                                                                                                                                                                                                                  00000000000000          
DEVFP_IN001  0000000SET_UHEIGHTUNIT     Set_uHeightUnit     00000012000                                                                                                                                                                                                                                                                                                  00000000000000          
DEVFP_IN001  0000000SET_UHIDDENKEY1     Set_uHiddenKey1     00000012000                                                                                                                                                                                                                                                                                                  00000000000000          
DEVFP_IN001  0000000SET_UHIDDENKEY1N    Set_uHiddenKey1N    00000012000                                                                                                                                                                                                                                                                                                  00000000000000          
DEVFP_IN001  0000000SET_UHIDDENKEY2     Set_uHiddenKey2     00000012000                                                                                                                                                                                                                                                                                                  00000000000000          
DEVFP_IN001  0000000SET_UHIDDENKEY2N    Set_uHiddenKey2N    00000012000                                                                                                                                                                                                                                                                                                  00000000000000          
DEVFP_IN001  0000000SET_UHIDDENKEY3     Set_uHiddenKey3     00000012000                                                                                                                                                                                                                                                                                                  00000000000000          
DEVFP_IN001  0000000SET_UHIDDENKEY3N    Set_uHiddenKey3N    00000012000                                                                                                                                                                                                                                                                                                  00000000000000          
DEVFP_IN001  0000000SET_UHIDDENKEY4     Set_uHiddenKey4     00000012000                                                                                                                                                                                                                                                                                                  00000000000000          
DEVFP_IN001  0000000SET_UHIDDENKEY4N    Set_uHiddenKey4N    00000012000                                                                                                                                                                                                                                                                                                  00000000000000          
DEVFP_IN001  0000000SET_UHIDDENKEY5     Set_uHiddenKey5     00000012000                                                                                                                                                                                                                                                                                                  00000000000000          
DEVFP_IN001  0000000SET_UHIDDENKEY5N    Set_uHiddenKey5N    00000012000                                                                                                                                                                                                                                                                                                  00000000000000          
DEVFP_IN001  0000000SET_UHINT           Set_uHint           00000012000                                                                                                                                                                                                                                                                                                  00000000000000          
DEVFP_IN001  0000000SET_UHOVERCOLOR     set_uHoverColor     00000012000                                                                                                                                                                                                                                                                                                  00000000000000          
DEVFP_IN001  0000000SET_UHTMLSTRING     set_uHTMLString     00000012000                                                                                                                                                                                                                                                                                                  00000000000000          
DEVFP_IN001  0000000SET_UHTMLSTRINGCOUNTset_uHTMLStringCount00000012000                                                                                                                                                                                                                                                                                                  00000000000000          
DEVFP_IN001  0000000SET_UIDISPLAYFORMAT set_uIDisplayFormat 00000012000                                                                                                                                                                                                                                                                                                  00000000000000          
DEVFP_IN001  0000000SET_UIENTRYFORMAT   set_uIEntryFormat   00000012000                                                                                                                                                                                                                                                                                                  00000000000000          
DEVFP_IN001  0000000SET_UIMAGE          Set_uImage          00000012000                                                                                                                                                                                                                                                                                                  00000000000000          
DEVFP_IN001  0000000SET_UIMAGECAPTION   Set_UImageCaption   00000012000                                                                                                                                                                                                                                                                                                  00000000000000          
DEVFP_IN001  0000000SET_UIMAGECAPTIONPOSSet_UImageCaptionPos00000012000                                                                                                                                                                                                                                                                                                  00000000000000          
DEVFP_IN001  0000000SET_UIMAGEHINT      Set_UImageHint      00000012000                                                                                                                                                                                                                                                                                                  00000000000000          
DEVFP_IN001  0000000SET_UIMAGESOURCEURL Set_UImageSourceURL 00000012000                                                                                                                                                                                                                                                                                                  00000000000000          
DEVFP_IN001  0000000SET_UIMAGESPERROW   Set_uImagesPerRow   00000012000                                                                                                                                                                                                                                                                                                  00000000000000          
DEVFP_IN001  0000000SET_UIMAGETARGETURL Set_UImageTargetURL 00000012000                                                                                                                                                                                                                                                                                                  00000000000000          
DEVFP_IN001  0000000SET_UINITIALIZED    Set_uInitialized    00000012000                                                                                                                                                                                                                                                                                                  00000000000000          
DEVFP_IN001  0000000SET_UINPUTAMPMTIME  set_uInputAMPMTime  00000012000                                                                                                                                                                                                                                                                                                  00000000000000          
DEVFP_IN001  0000000SET_UINPUTFORMAT    Set_uInputformat    00000012000                                                                                                                                                                                                                                                                                                  00000000000000          
DEVFP_IN001  0000000SET_UINPUTSIZE      set_uINPUTSize      00000012000                                                                                                                                                                                                                                                                                                  00000000000000          
DEVFP_IN001  0000000SET_UITEMCAPTION    Set_uItemCaption    00000012000                                                                                                                                                                                                                                                                                                  00000000000000          
DEVFP_IN001  0000000SET_UITEMCELLCOUNT  Set_uItemCellCount  00000012000                                                                                                                                                                                                                                                                                                  00000000000000          
DEVFP_IN001  0000000SET_UITEMCHANGED    Set_uItemChanged    00000012000                                                                                                                                                                                                                                                                                                  00000000000000          
DEVFP_IN001  0000000SET_UITEMCOLOR      Set_uItemColor      00000012000                                                                                                                                                                                                                                                                                                  00000000000000          
DEVFP_IN001  0000000SET_UITEMCOUNT      Set_UitemCount      00000012000                                                                                                                                                                                                                                                                                                  00000000000000          
DEVFP_IN001  0000000SET_UITEMHINT       Set_uItemHint       00000012000                                                                                                                                                                                                                                                                                                  00000000000000          
DEVFP_IN001  0000000SET_UITEMIMAGE      Set_uItemImage      00000012000                                                                                                                                                                                                                                                                                                  00000000000000          
DEVFP_IN001  0000000SET_UITEMIMGCAPTION Set_uItemImgCaption 00000012000                                                                                                                                                                                                                                                                                                  00000000000000          
DEVFP_IN001  0000000SET_UITEMSMALLIMAGE Set_uItemSmallImage 00000012000                                                                                                                                                                                                                                                                                                  00000000000000          
DEVFP_IN001  0000000SET_UITEMVALUE      Set_UitemValue      00000012000                                                                                                                                                                                                                                                                                                  00000000000000          
DEVFP_IN001  0000000SET_ULINE           Set_uLine           00000012000                                                                                                                                                                                                                                                                                                  00000000000000          
DEVFP_IN001  0000000SET_ULINETERMINATOR Set_uLineTerminator 00000012000                                                                                                                                                                                                                                                                                                  00000000000000          
DEVFP_IN001  0000000SET_ULINKCAPTION    set_uLinkCaption    00000012000                                                                                                                                                                                                                                                                                                  00000000000000          
DEVFP_IN001  0000000SET_ULINKHINT       set_uLinkHint       00000012000                                                                                                                                                                                                                                                                                                  00000000000000          
DEVFP_IN001  0000000SET_ULINKURL        set_uLinkURL        00000012000                                                                                                                                                                                                                                                                                                  00000000000000          
DEVFP_IN001  0000000SET_UMARGINWIDTH    Set_UmarginWidth    00000012000                                                                                                                                                                                                                                                                                                  00000000000000          
DEVFP_IN001  0000000SET_UMAXFILESIZE    Set_uMaxFileSize    00000012000                                                                                                                                                                                                                                                                                                  00000000000000          
DEVFP_IN001  0000000SET_UMAXLINELENGTH  Set_uMaxLineLength  00000012000                                                                                                                                                                                                                                                                                                  00000000000000          
DEVFP_IN001  0000000SET_UMESSAGETEXT    set_uMessageText    00000012000                                                                                                                                                                                                                                                                                                  00000000000000          
DEVFP_IN001  0000000SET_UNEWLINE        Set_uNewLine        00000012000                                                                                                                                                                                                                                                                                                  00000000000000          
DEVFP_IN001  0000000SET_UNNAMED         Set_Unnamed         00000012000                                                                                                                                                                                                                                                                                                  00000000000000          
DEVFP_IN001  0000000SET_UNUMERICVALUE   Set_UNumericValue   00000012000                                                                                                                                                                                                                                                                                                  00000000000000          
DEVFP_IN001  0000000SET_UOPENURL        Set_uOpenUrl        00000012000                                                                                                                                                                                                                                                                                                  00000000000000          
DEVFP_IN001  0000000SET_UOUTPUTAMPMTIME set_uOutputAMPMTime 00000012000                                                                                                                                                                                                                                                                                                  00000000000000          
DEVFP_IN001  0000000SET_UOUTPUTISAMORPM Set_uOutputIsAMorPM 00000012000                                                                                                                                                                                                                                                                                                  00000000000000          
DEVFP_IN001  0000000SET_UPADDINGWIDTH   Set_uPaddingWidth   00000012000                                                                                                                                                                                                                                                                                                  00000000000000          
DEVFP_IN001  0000000SET_UPARENTITEM     Set_uParentItem     00000012000                                                                                                                                                                                                                                                                                                  00000000000000          
DEVFP_IN001  0000000SET_UPOPUPFORMAT    set_uPOPUPFormat    00000012000                                                                                                                                                                                                                                                                                                  00000000000000          
DEVFP_IN001  0000000SET_UPRECISION      Set_uPrecision      00000012000                                                                                                                                                                                                                                                                                                  00000000000000          
DEVFP_IN001  0000000SET_UREADONLY       Set_UreadOnly       00000012000                                                                                                                                                                                                                                                                                                  00000000000000          
DEVFP_IN001  0000000SET_UREPLACECR      Set_uReplaceCR      00000012000                                                                                                                                                                                                                                                                                                  00000000000000          
DEVFP_IN001  0000000SET_UREPLACELF      Set_uReplaceLF      00000012000                                                                                                                                                                                                                                                                                                  00000000000000          
DEVFP_IN001  0000000SET_URETURNFORMAT   Set_uReturnFormat   00000012000                                                                                                                                                                                                                                                                                                  00000000000000          
DEVFP_IN001  0000000SET_UROWPIXELHEIGHT Set_uRowPixelHeight 00000012000                                                                                                                                                                                                                                                                                                  00000000000000          
DEVFP_IN001  0000000SET_USELECT         Set_uSelect         00000012000                                                                                                                                                                                                                                                                                                  00000000000000          
DEVFP_IN001  0000000SET_USELECTIONSTYLE Set_uSelectionStyle 00000012000                                                                                                                                                                                                                                                                                                  00000000000000          
DEVFP_IN001  0000000SET_USELECTITEM     Set_UselectItem     00000012000                                                                                                                                                                                                                                                                                                  00000000000000          
DEVFP_IN001  0000000SET_USELHIDDENKEY1  Set_uSelHiddenKey1  00000012000                                                                                                                                                                                                                                                                                                  00000000000000          
DEVFP_IN001  0000000SET_USELHIDDENKEY1N Set_uSelHiddenKey1N 00000012000                                                                                                                                                                                                                                                                                                  00000000000000          
DEVFP_IN001  0000000SET_USELHIDDENKEY2  Set_uSelHiddenKey2  00000012000                                                                                                                                                                                                                                                                                                  00000000000000          
DEVFP_IN001  0000000SET_USELHIDDENKEY2N Set_uSelHiddenKey2N 00000012000                                                                                                                                                                                                                                                                                                  00000000000000          
DEVFP_IN001  0000000SET_USELHIDDENKEY3  Set_uSelHiddenKey3  00000012000                                                                                                                                                                                                                                                                                                  00000000000000          
DEVFP_IN001  0000000SET_USELHIDDENKEY3N Set_uSelHiddenKey3N 00000012000                                                                                                                                                                                                                                                                                                  00000000000000          
DEVFP_IN001  0000000SET_USELHIDDENKEY4  Set_uSelHiddenKey4  00000012000                                                                                                                                                                                                                                                                                                  00000000000000          
DEVFP_IN001  0000000SET_USELHIDDENKEY4N Set_uSelHiddenKey4N 00000012000                                                                                                                                                                                                                                                                                                  00000000000000          
DEVFP_IN001  0000000SET_USELHIDDENKEY5  Set_uSelHiddenKey5  00000012000                                                                                                                                                                                                                                                                                                  00000000000000          
DEVFP_IN001  0000000SET_USELHIDDENKEY5N Set_uSelHiddenKey5N 00000012000                                                                                                                                                                                                                                                                                                  00000000000000          
DEVFP_IN001  0000000SET_USENDAINFO1     Set_uSendAInfo1     00000012000                                                                                                                                                                                                                                                                                                  00000000000000          
DEVFP_IN001  0000000SET_USENDAINFO2     Set_uSendAInfo2     00000012000                                                                                                                                                                                                                                                                                                  00000000000000          
DEVFP_IN001  0000000SET_USENDAINFO3     Set_uSendAInfo3     00000012000                                                                                                                                                                                                                                                                                                  00000000000000          
DEVFP_IN001  0000000SET_USENDAINFO4     Set_uSendAInfo4     00000012000                                                                                                                                                                                                                                                                                                  00000000000000          
DEVFP_IN001  0000000SET_USENDAINFO5     Set_uSendAInfo5     00000012000                                                                                                                                                                                                                                                                                                  00000000000000          
DEVFP_IN001  0000000SET_USENDNINFO1     Set_uSendNInfo1     00000012000                                                                                                                                                                                                                                                                                                  00000000000000          
DEVFP_IN001  0000000SET_USENDNINFO2     Set_uSendNInfo2     00000012000                                                                                                                                                                                                                                                                                                  00000000000000          
DEVFP_IN001  0000000SET_USENDNINFO3     Set_uSendNInfo3     00000012000                                                                                                                                                                                                                                                                                                  00000000000000          
DEVFP_IN001  0000000SET_USENDNINFO4     Set_uSendNInfo4     00000012000                                                                                                                                                                                                                                                                                                  00000000000000          
DEVFP_IN001  0000000SET_USENDNINFO5     Set_uSendNInfo5     00000012000                                                                                                                                                                                                                                                                                                  00000000000000          
DEVFP_IN001  0000000SET_USENDTO         Set_USendTo         00000012000                                                                                                                                                                                                                                                                                                  00000000000000          
DEVFP_IN001  0000000SET_USEPARATEWINDOW Set_uSeparateWindow 00000012000                                                                                                                                                                                                                                                                                                  00000000000000          
DEVFP_IN001  0000000SET_USEPARATOR      set_uSeparator      00000012000                                                                                                                                                                                                                                                                                                  00000000000000          
DEVFP_IN001  0000000SET_USHAREDITEMS    Set_uSharedItems    00000012000                                                                                                                                                                                                                                                                                                  00000000000000          
DEVFP_IN001  0000000SET_USHOWEXPANDED   Set_uShowExpanded   00000012000                                                                                                                                                                                                                                                                                                  00000000000000          
DEVFP_IN001  0000000SET_USHOWLINES      Set_uShowLines      00000012000                                                                                                                                                                                                                                                                                                  00000000000000          
DEVFP_IN001  0000000SET_USHOWVALUE      Set_uShowValue      00000012000                                                                                                                                                                                                                                                                                                  00000000000000          
DEVFP_IN001  0000000SET_USIGNALCANCELED set_uSignalCanceled 00000012000                                                                                                                                                                                                                                                                                                  00000000000000          
DEVFP_IN001  0000000SET_USIGNALCHANGED  Set_uSignalChanged  00000012000                                                                                                                                                                                                                                                                                                  00000000000000          
DEVFP_IN001  0000000SET_USIGNALCLICK    Set_UsignalClick    00000012000                                                                                                                                                                                                                                                                                                  00000000000000          
DEVFP_IN001  0000000SET_USIGNALCLICKED  set_uSignalClicked  00000012000                                                                                                                                                                                                                                                                                                  00000000000000          
DEVFP_IN001  0000000SET_USIGNALEVENTID  Set_uSignalEventId  00000012000                                                                                                                                                                                                                                                                                                  00000000000000          
DEVFP_IN001  0000000SET_USIGNALSELECTIONSet_uSignalSelection00000012000                                                                                                                                                                                                                                                                                                  00000000000000          
DEVFP_IN001  0000000SET_USINGINSTANCE   Set_UsingInstance   00000012000                                                                                                                                                                                                                                                                                                  00000000000000          
DEVFP_IN001  0000000SET_USINGNAME       Set_UsingName       00000012000                                                                                                                                                                                                                                                                                                  00000000000000          
DEVFP_IN001  0000000SET_USINGOCCURRENCE Set_UsingOccurrence 00000012000                                                                                                                                                                                                                                                                                                  00000000000000          
DEVFP_IN001  0000000SET_USTACKTABLESHOW Set_UStackTableShow 00000012000                                                                                                                                                                                                                                                                                                  00000000000000          
DEVFP_IN001  0000000SET_USWITCHTO       Set_USwitchTo       00000012000                                                                                                                                                                                                                                                                                                  00000000000000          
DEVFP_IN001  0000000SET_UTABLENAME      Set_UTableName      00000012000                                                                                                                                                                                                                                                                                                  00000000000000          
DEVFP_IN001  0000000SET_UTARGETFILE     Set_uTargetFile     00000012000                                                                                                                                                                                                                                                                                                  00000000000000          
DEVFP_IN001  0000000SET_UTIMEISAMORPM   set_uTimeIsAMorPM   00000012000                                                                                                                                                                                                                                                                                                  00000000000000          
DEVFP_IN001  0000000SET_UTIMESEPARATOR  set_uTimeSeparator  00000012000                                                                                                                                                                                                                                                                                                  00000000000000          
DEVFP_IN001  0000000SET_UTRAILINGBLANKS Set_uTrailingBlanks 00000012000                                                                                                                                                                                                                                                                                                  00000000000000          
DEVFP_IN001  0000000SET_UUPDATEINTERVAL Set_uUpdateInterval 00000012000                                                                                                                                                                                                                                                                                                  00000000000000          
DEVFP_IN001  0000000SET_UUPLOADBUTTON   Set_uUploadButton   00000012000                                                                                                                                                                                                                                                                                                  00000000000000          
DEVFP_IN001  0000000SET_UUSECALENDAR    Set_UuseCalendar    00000012000                                                                                                                                                                                                                                                                                                  00000000000000          
DEVFP_IN001  0000000SET_UVALUE          Set_uValue          00000012000                                                                                                                                                                                                                                                                                                  00000000000000          
DEVFP_IN001  0000000SET_UVALUECAPTION   Set_uValueCaption   00000012000                                                                                                                                                                                                                                                                                                  00000000000000          
DEVFP_IN001  0000000SET_UVALUECOLOR     Set_uValueColor     00000012000                                                                                                                                                                                                                                                                                                  00000000000000          
DEVFP_IN001  0000000SET_UVALUECOUNT     Set_uValueCount     00000012000                                                                                                                                                                                                                                                                                                  00000000000000          
DEVFP_IN001  0000000SET_UVISDATEINPFMT  Set_uVisDateInpFmt  00000012000                                                                                                                                                                                                                                                                                                  00000000000000          
DEVFP_IN001  0000000SET_UVISDATEOUTFMT  Set_uVisDateOutFmt  00000012000                                                                                                                                                                                                                                                                                                  00000000000000          
DEVFP_IN001  0000000SET_UVISIBLE        Set_uVisible        00000012000                                                                                                                                                                                                                                                                                                  00000000000000          
DEVFP_IN001  0000000SET_UVISIBLELINES   Set_uVisibleLines   00000012000                                                                                                                                                                                                                                                                                                  00000000000000          
DEVFP_IN001  0000000SET_UVISUALIZELISTASSet_uVisualizeListAs00000012000                                                                                                                                                                                                                                                                                                  00000000000000          
DEVFP_IN001  0000000SET_UWAMHELPFIELD   Set_uWAMHelpField   00000012000                                                                                                                                                                                                                                                                                                  00000000000000          
DEVFP_IN001  0000000SET_UWHENTOCOPY     Set_uWhenToCopy     00000012000                                                                                                                                                                                                                                                                                                  00000000000000          
DEVFP_IN001  0000000SET_UWHENTODOWNLOAD Set_uWhenToDownload 00000012000                                                                                                                                                                                                                                                                                                  00000000000000          
DEVFP_IN001  0000000SET_UWIDTH          Set_uWidth          00000012000                                                                                                                                                                                                                                                                                                  00000000000000          
DEVFP_IN001  0000000SET_UWIDTHUNIT      Set_uWidthUnit      00000012000                                                                                                                                                                                                                                                                                                  00000000000000          
DEVFP_IN001  0000000SET_UWINDOWFEATURES Set_uWindowFeatures 00000012000                                                                                                                                                                                                                                                                                                  00000000000000          
DEVFP_IN001  0000000SET_UZOOMFACTOR     Set_uZoomFactor     00000012000                                                                                                                                                                                                                                                                                                  00000000000000          
DEVFP_IN001  0000000SETUSELECTOCCURRENCESetUSelectOccurrence00000012000                                                                                                                                                                                                                                                                                                  00000000000000          
DEVFP_IN001  0000000SUSTACKTABLELOCATIONsUStackTableLocation00000012000                                                                                                                                                                                                                                                                                                  00000000000000          
DEVFP_IN002  0000000GET_UCAPTION        Get_uCaption        00000012000                                                                                                                                                                                                                                                                                                  00000000000000          
DEVFP_IN002  0000000GET_UCELLALPHAVALUE Get_uCellAlphaValue 00000012000                                                                                                                                                                                                                                                                                                  00000000000000          
DEVFP_IN002  0000000GET_UCELLNUMBERVALUEGet_uCellNumberValue00000012000                                                                                                                                                                                                                                                                                                  00000000000000          
DEVFP_IN002  0000000SET_BLANKZERO       Set_BlankZero       00000012000                                                                                                                                                                                                                                                                                                  00000000000000          
DEVFP_IN002  0000000SET_READONLY        Set_ReadOnly        00000012000                                                                                                                                                                                                                                                                                                  00000000000000          
DEVFP_IN002  0000000SET_TYPE            Set_Type            00000012000                                                                                                                                                                                                                                                                                                  00000000000000          
DEVFP_IN002  0000000SET_UALIGN          Set_uAlign          00000012000                                                                                                                                                                                                                                                                                                  00000000000000          
DEVFP_IN002  0000000SET_UCAPTION        Set_uCaption        00000012000                                                                                                                                                                                                                                                                                                  00000000000000          
DEVFP_IN002  0000000SET_UCAPTIONALIGN   Set_uCaptionAlign   00000012000                                                                                                                                                                                                                                                                                                  00000000000000          
DEVFP_IN002  0000000SET_UCELLALPHAVALUE Set_uCellAlphaValue 00000012000                                                                                                                                                                                                                                                                                                  00000000000000          
DEVFP_IN002  0000000SET_UCELLNUMBERVALUESet_uCellNumberValue00000012000                                                                                                                                                                                                                                                                                                  00000000000000          
DEVFP_IN002  0000000SET_UCHECKBOXES     Set_uCheckboxes     00000012000                                                                                                                                                                                                                                                                                                  00000000000000          
DEVFP_IN002  0000000SET_UCOLUMNWIDTH    Set_uColumnWidth    00000012000                                                                                                                                                                                                                                                                                                  00000000000000          
DEVFP_IN002  0000000SET_UINPUTATTRIBUTESSet_uInputAttributes00000012000                                                                                                                                                                                                                                                                                                  00000000000000          
DEVFP_IN002  0000000SET_UPRECISION      Set_uPrecision      00000012000                                                                                                                                                                                                                                                                                                  00000000000000          
DEVFP_IN002  0000000SET_USORTONCLICK    Set_uSortOnClick    00000012000                                                                                                                                                                                                                                                                                                  00000000000000          
DEVFP_VDATE  0000000GET_UALPHAVALUE     Get_uAlphaValue     00000012000                                                                                                                                                                                                                                                                                                  00000000000000          
DEVFP_VDATE  0000000GET_UINERROR        Get_uInError        00000012000                                                                                                                                                                                                                                                                                                  00000000000000          
DEVFP_VDATE  0000000GET_UNOREADONLYSTYLEGet_uNoReadOnlyStyle00000012000                                                                                                                                                                                                                                                                                                  00000000000000          
DEVFP_VDATE  0000000GET_UNUMERICVALUE   Get_uNumericValue   00000012000                                                                                                                                                                                                                                                                                                  00000000000000          
