DEVDEPTAB    DEVMODLIB DEPTAB01  0000000001DEPTMENT             
DEVDEPTAB    DEVMODLIB DEPTAB02  0000000001DEPTMENT             
DEVLZ2C      DEVMODLIB LCL00000010000000001LZCOCD               
DEVLZ2C      DEVMODLIB RUO00000010000000001LZCOCD               
DEVLZ2E      DEVMODLIB LCL00000010000000001LZCOCDSAL            
DEVLZ2E      DEVMODLIB LCL00000010000000002LZWHCDSAL            
DEVLZ2E      DEVMODLIB LCL00000020000000001LZPRCDSAL            
DEVLZ2E      DEVMODLIB LCL00000030000000001LZCOCDSAL            
DEVLZ2E      DEVMODLIB LCL00000040000000001LZCOCDSAL            
DEVLZ2E      DEVMODLIB LCL00000040000000002LZWHCDSAL            
DEVLZ2E      DEVMODLIB LCL00000040000000003LZPRCDSAL            
DEVLZ2I      DEVMODLIB LCL00000010000000001LZCOCDWHS            
DEVLZ2I      DEVMODLIB LCL00000010000000002LZWHCDWHS            
DEVLZ2I      DEVMODLIB LCL00000010000000003LZPRCDPRD            
DEVLZ2I      DEVMODLIB LCL00000020000000001LZPRCDPRD            
DEVLZ2I      DEVMODLIB RUO00000030000000001LZCOCDWHS            
DEVLZ2I      DEVMODLIB RUO00000030000000002LZWHCDWHS            
DEVLZ2I      DEVMODLIB RUO00000040000000001LZPRCDPRD            
DEVLZ2P      DEVMODLIB LCL00000010000000001LZPRCD               
DEVLZ2W      DEVMODLIB LCL00000010000000001LZCOCDCON            
DEVLZ2W      DEVMODLIB LCL00000010000000002LZWHCD               
DEVLZ2W      DEVMODLIB RUO00000030000000001LZCOCDCON            
DEVLZ2W      DEVMODLIB RUO00000030000000002LZWHCD               
DEVLZ2W      DEVMODLIB RUO00000050000000001LZCOCDCON            
DEVPSLEVENT  DEVMODLIB PSLMST01  0000000001EMPNO                
DEVPSLMST    DEVMODLIB PSLMST01  0000000001EMPNO                
DEVPSLMST    DEVMODLIB PSLMST02  0000000001DEPTMENT             
DEVPSLMST    DEVMODLIB PSLMST03  0000000001DEPTMENT             
DEVPSLMST    DEVMODLIB PSLMST03  0000000002SECTION              
DEVPSLSKL    DEVMODLIB PSLSKL01  0000000001SKILCODE             
DEVPSLSKL    DEVMODLIB PSLSKL02  0000000001EMPNO                
DEVSECTAB    DEVMODLIB SECTAB01  0000000001DEPTMENT             
DEVSECTAB    DEVMODLIB SECTAB01  0000000002SECTION              
DEVSECTAB    DEVMODLIB SECTAB02  0000000001DEPTMENT             
DEVXEMPLOYEE DEVMODLIB XEMPDEPT  0000000001XDEPTMENT            
