DEVBLOBS     DEVMODLIB 0000000001SURNAME   00001AU    
DEVCRASHFILE DEVMODLIB 0000000001TALDEPTCO 00001AU    
DEVDC@F23    DC@MODLIB 0000000001F23P#I    00001AU    
DEVDC@F23    DC@MODLIB 0000000002F23MOD    00002AU    
DEVDC@F23    DC@MODLIB 0000000003F23FMT    00003AU    
DEVDC@F26    DC@MODLIB 0000000001F26VAR    00001AU    
DEVDC@F60    DC@MODLIB 0000000001F60P#I    00001AU    
DEVDC@F60    DC@MODLIB 0000000002F60PLN    00002AU    
DEVDC@W06    DC@MODLIB 0000000001W06NAM    00001AU    
DEVDC@W09    DC@MODLIB 0000000001W09P#I    00001AU    
DEVDC@W09    DC@MODLIB 0000000002W09MOD    00002AU    
DEVDC@W10    DC@MODLIB 0000000001W10P#I    00001AU    
DEVDC@W10    DC@MODLIB 0000000002W10CMP    00002AU    
DEVDC@W11    DC@MODLIB 0000000001W11P#I    00001AU    
DEVDC@W11    DC@MODLIB 0000000002W11CMP    00002AU    
DEVDC@W11    DC@MODLIB 0000000003W11SET    00003AS    
DEVDC@W14    DC@MODLIB 0000000001W14P#I    00001AU    
DEVDC@W14    DC@MODLIB 0000000002W14PLN    00002AU    
DEVDC@W14    DC@MODLIB 0000000003W14PRO    00003AU    
DEVDC@W14    DC@MODLIB 0000000004W14FUN    00004AU    
DEVDC@W14    DC@MODLIB 0000000005W14KWD    00005AU    
DEVDC@X01    DC@MODLIB 0000000001X01P#I    00001AU    
DEVDC@X01    DC@MODLIB 0000000002X01PEN    00002AU    
DEVDC@X01    DC@MODLIB 0000000003X01SEN    00003AU    
DEVDC@X01    DC@MODLIB 0000000004X01PAG    00004AU    
DEVDC@X02    DC@MODLIB 0000000001X02P#I    00001AU    
DEVDC@X02    DC@MODLIB 0000000002X02PEN    00002AU    
DEVDC@X02    DC@MODLIB 0000000003X02SEN    00003AU    
DEVDC@X02    DC@MODLIB 0000000004X02PLN    00004AU    
DEVDC@X02    DC@MODLIB 0000000005X02PAG    00005AU    
DEVDC@X02    DC@MODLIB 0000000006X02SET    00006AS    
DEVDC@X02    DC@MODLIB 0000000007X02SEQ    00007AS    
DEVDC@X03    DC@MODLIB 0000000001X03P#I    00001AU    
DEVDC@X03    DC@MODLIB 0000000002X03PEN    00002AU    
DEVDC@X03    DC@MODLIB 0000000003X03CMP    00003AU    
DEVDC@X03    DC@MODLIB 0000000004X03IOV    00004AU    
DEVDC@X03    DC@MODLIB 0000000005X03SEN    00005AU    
DEVDDSERROR  DEVMODLIB 0000000001TALDEPTCO 00001AU    
DEVDELETEME  DEVMODLIB 0000000001TALDEPTCO 00001AU    
DEVDEPTAB    DEVMODLIB 0000000001DEPTMENT  00001AU    
DEVDF_T60MESODEVMODLIB 0000000001DF_T60TIM 00001AU    
DEVDF_T60MESODEVMODLIB 0000000002DF_T60SEN 00002AU    
DEVDXDOCS    DEVMODLIB 0000000001DF_ELOID  00001AU    
DEVDXDOCS    DEVMODLIB 0000000002DF_ELKEY0 00002AU    
DEVDXDOCS    DEVMODLIB 0000000003DF_ELKEY1 00003AU    
DEVDXDOCS    DEVMODLIB 0000000004DF_ELKEY2 00004AU    
DEVDXDOCS    DEVMODLIB 0000000005DF_ELKEY3 00005AU    
DEVDXDOCS    DEVMODLIB 0000000006DF_ELKEY4 00006AU    
DEVDXDOCS    DEVMODLIB 0000000007DF_ELKEY5 00007AU    
DEVDXDOCS    DEVMODLIB 0000000008DF_ELKEY6 00008AU    
DEVDXDOCS    DEVMODLIB 0000000009DF_ELKEY7 00009AU    
DEVDXDOCS    DEVMODLIB 0000000010DF_ELKEY8 00010AU    
DEVDXDOCS    DEVMODLIB 0000000011DF_ELKEY9 00011AU    
DEVDXDOCS    DEVMODLIB 0000000012DF_ELFNAM 00012AU    
DEVFPDOC     DEVMODLIB 0000000001FP_EIDN   00001AU    
DEVFPDOC     DEVMODLIB 0000000002FP_EKEY1  00002AU    
DEVFPDOC     DEVMODLIB 0000000003FP_EKEY2  00003AU    
DEVFPDOC     DEVMODLIB 0000000004FP_EKEY3  00004AU    
DEVFPDOC     DEVMODLIB 0000000005FP_EKEY4  00005AU    
DEVFPDOC     DEVMODLIB 0000000006FP_EKEY5  00006AU    
DEVFPDOC     DEVMODLIB 0000000007FP_EKEYN1 00007AS    
DEVFPDOC     DEVMODLIB 0000000008FP_EKEYN2 00008AS    
DEVFPDOC     DEVMODLIB 0000000009FP_EKEYN3 00009AS    
DEVFPDOC     DEVMODLIB 0000000010FP_EKEYN4 00010AS    
DEVFPDOC     DEVMODLIB 0000000011FP_EKEYN5 00011AS    
DEVFPDOC     DEVMODLIB 0000000012FP_ECODE  00012AU    
DEVFPDOC     DEVMODLIB 0000000013FP_EINST  00013AS    
DEVFPDOC     DEVMODLIB 0000000014FP_EFILN  00014AU    
DEVFPNOTE    DEVMODLIB 0000000001FP_EIDN   00001AU    
DEVFPNOTE    DEVMODLIB 0000000002FP_EKEY1  00002AU    
DEVFPNOTE    DEVMODLIB 0000000003FP_EKEY2  00003AU    
DEVFPNOTE    DEVMODLIB 0000000004FP_EKEY3  00004AU    
DEVFPNOTE    DEVMODLIB 0000000005FP_EKEY4  00005AU    
DEVFPNOTE    DEVMODLIB 0000000006FP_EKEY5  00006AU    
DEVFPNOTE    DEVMODLIB 0000000007FP_EKEYN1 00007AS    
DEVFPNOTE    DEVMODLIB 0000000008FP_EKEYN2 00008AS    
DEVFPNOTE    DEVMODLIB 0000000009FP_EKEYN3 00009AS    
DEVFPNOTE    DEVMODLIB 0000000010FP_EKEYN4 00010AS    
DEVFPNOTE    DEVMODLIB 0000000011FP_EKEYN5 00011AS    
DEVFPNOTE    DEVMODLIB 0000000012FP_EINST  00012AS    
DEVLRCUST    DEVMODLIB 0000000001LR_CUSID  00001AS    
DEVLRCUST    VLFDEMOLIB0000000001LR_CUSID  00001AS    
DEVLRINCT    DEVMODLIB 0000000001LR_INUM   00001AS    
DEVLRINCT    VLFDEMOLIB0000000001LR_INUM   00001AS    
DEVLRNOTE    DEVMODLIB 0000000001LR_NKEY   00001AU    
DEVLRNOTE    DEVMODLIB 0000000002LR_NSEQ   00002AS    
DEVLRNOTE    VLFDEMOLIB0000000001LR_NKEY   00001AU    
DEVLRNOTE    VLFDEMOLIB0000000002LR_NSEQ   00002AS    
DEVLRORDH    DEVMODLIB 0000000001LR_ORDN   00001AS    
DEVLRORDH    VLFDEMOLIB0000000001LR_ORDN   00001AS    
DEVLRORDL    DEVMODLIB 0000000001LR_ORDN   00001AS    
DEVLRORDL    DEVMODLIB 0000000002LR_ORDL   00002AS    
DEVLRORDL    VLFDEMOLIB0000000001LR_ORDN   00001AS    
DEVLRORDL    VLFDEMOLIB0000000002LR_ORDL   00002AS    
DEVLRPROD    DEVMODLIB 0000000001LR_PRID   00001AS    
DEVLRPROD    VLFDEMOLIB0000000001LR_PRID   00001AS    
DEVLRSET     DEVMODLIB 0000000001LR_HKEY1  00001AU    
DEVLRSET     DEVMODLIB 0000000002LR_HKEY2  00002AU    
DEVLRSET     DEVMODLIB 0000000003LR_HKEY3  00003AS    
DEVLRSET     VLFDEMOLIB0000000001LR_HKEY1  00001AU    
DEVLRSET     VLFDEMOLIB0000000002LR_HKEY2  00002AU    
DEVLRSET     VLFDEMOLIB0000000003LR_HKEY3  00003AS    
DEVLW3FRM05  DEVMODLIB 0000000001LW3BASEFN 00001AU                                                                                                       
DEVLZ2C      DEVMODLIB 0000000001LZCOCD    00001AURUO 
DEVLZ2E      DEVMODLIB 0000000001LZCOCDSAL 00001AU    
DEVLZ2E      DEVMODLIB 0000000002LZWHCDSAL 00002AU    
DEVLZ2E      DEVMODLIB 0000000003LZPRCDSAL 00003AU    
DEVLZ2I      DEVMODLIB 0000000001LZCOCDWHS 00001AURUO 
DEVLZ2I      DEVMODLIB 0000000002LZWHCDWHS 00002AURUO 
DEVLZ2I      DEVMODLIB 0000000003LZPRCDPRD 00003AURUO 
DEVLZ2P      DEVMODLIB 0000000001LZPRCD    00001AURUO 
DEVLZ2W      DEVMODLIB 0000000001LZCOCDCON 00001AURUO 
DEVLZ2W      DEVMODLIB 0000000002LZWHCD    00002AURUO 
DEVMECHFILE  DEVMODLIB 0000000001MNAME     00001AU    
DEVMECHWEAPONDEVMODLIB 0000000001MWEAPON   00001AU    
DEVMLOGIN    DEVMODLIB 0000000001MUSER     00001AU    
DEVMRANKXP   DEVMODLIB 0000000001MRANKVAL  00001AS    
DEVPSLDSE    DEVMODLIB 0000000001DSEEID    00001AS    
DEVPSLEVENT  DEVMODLIB 0000000001EMPNO     00001AU    
DEVPSLEVENT  DEVMODLIB 0000000002EMPEVTNUM 00002AS    
DEVPSLIMG    DEVMODLIB 0000000001EMPNO     00001AU    
DEVPSLMST    DEVMODLIB 0000000001EMPNO     00001AU    
DEVPSLSKL    DEVMODLIB 0000000001EMPNO     00001AU    
DEVPSLSKL    DEVMODLIB 0000000002SKILCODE  00002AU    
DEVPSLTIMES  DEVMODLIB 0000000001EMPNO     00001AU    
DEVPSLTIMES  DEVMODLIB 0000000002EMPTSYEAR 00002AS    
DEVPSLTIMES  DEVMODLIB 0000000003EMPTSWEEK 00003AS    
DEVPSLTIMES  DEVMODLIB 0000000004EMPTSTASK 00004AU    
DEVSECTAB    DEVMODLIB 0000000001DEPTMENT  00001AU    
DEVSECTAB    DEVMODLIB 0000000002SECTION   00002AU    
DEVSKLTAB    DEVMODLIB 0000000001SKILCODE  00001AU    
DEVVFPPF06   DEVMODLIB 0000000001VF_ELUSET 00001AU    
DEVVFPPF06   DEVMODLIB 0000000002VF_ELIDN  00002AU    
DEVVFPPF07   DEVMODLIB 0000000001VF_ELUSET 00001AU    
DEVVFPPF07   DEVMODLIB 0000000002VF_ELIDN  00002AU    
DEVVFPPF07   DEVMODLIB 0000000003VF_ELPTYT 00003AU    
DEVVFPPF07   DEVMODLIB 0000000004VF_ELPTYN 00004AU    
DEVVFPPF07   DEVMODLIB 0000000005VF_ELPTYL 00005AU    
DEVVFPPF07   DEVMODLIB 0000000006VF_ELPTYI 00006AS    
DEVVFPPF07   DEVMODLIB 0000000007VF_ELFRID 00007AU    
DEVVFXPF04   DEVMODLIB 0000000001VF_FRAMEW 00001AU                                                                                                       
DEVVFXPF04   DEVMODLIB 0000000002VF_ELXTOF 00002AS                                                                                                       
DEVVFXPF04   VFTDEMOLIB0000000001VF_FRAMEW 00001AU    
DEVVFXPF04   VFTDEMOLIB0000000002VF_ELXTOF 00002AS    
DEVXDEPTMENTSDEVMODLIB 0000000001XDEPTMENT 00001AU    
DEVXEMPIMAGE DEVMODLIB 0000000001XEMPLOYID 00001AU    
DEVXEMPLOYEE DEVMODLIB 0000000001XEMPLOYID 00001AU    
DEVXSCOUNTRY DEVMODLIB 0000000001XSCNTRYNM 00001AU    
DEVXSORDER   DEVMODLIB 0000000001XSORDERID 00001AU    
DEVXSPRDCT   DEVMODLIB 0000000001XSPRDCTID 00001AU    
DEVXSPRDLNE  DEVMODLIB 0000000001XSPRDLNID 00001AU    
DEVXSPRODUCT DEVMODLIB 0000000001XSPRDID   00001AU    
DEVXSSHPCRT  DEVMODLIB 0000000001XSCRTID   00001AU    
DEVXSSHPITM  DEVMODLIB 0000000001XSCRTID   00001AU    
DEVXSSHPITM  DEVMODLIB 0000000002XSPRDID   00002AU    
DEVXSSTATE   DEVMODLIB 0000000001XSSTATEID 00001AU    
DEVXSUSRACC  DEVMODLIB 0000000001XSACCID   00001AS    
