DEVD000000226PSLTRG1OPNCLSREDINSUPDDLT                Y       Y       0000000000                                                                                                                                                                                                                                                                                                                                                                                                                                                                                                                                         
DEVD000000233PSLTRG2OPNCLSREDINSUPDDLT               YY               0000000000                                                                                                                                                                                                                                                                                                                                                                                                                                                                                                                                         
DEVD000000363STDGUD OPNCLSREDINSUPDDLT               YY               0000000000                                                                                                                                                                                                                                                                                                                                                                                                                                                                                                                                         
