ACCESS_FILE         A001001AAction (OPEN, CLOSE, READ)              RA         4         50000000000         500000          
ACCESS_FILE         A002002BFile name                               RA         1        100000000000        1000000          
ACCESS_FILE         A003003CLibrary                                 OA         1        100000000000        1000000'*LIBL'   
ACCESS_FILE         A004004DMember                                  OA         1        100000000000        1000000*BLANKS   
ACCESS_FILE         R001005EReturn Code (OK, ER, EF)                OA         2         20000000000         200000          
ACCESS_FILE         R002006FData block 1                            OA         1       2560000000000       25600000          
ACCESS_FILE         R003007GData Block 2                            OA         1       2560000000000       25600000          
ACCESS_FILE         R004008HData Block 3                            OA         1       2560000000000       25600000          
ACCESS_FILE         R005009IData Block 4                            OA         1       2560000000000       25600000          
ACCESS_FILE         R006010JData Block 5                            OA         1       2560000000000       25600000          
ACCESS_FILE         R007011KData Block 6                            OA         1       2560000000000       25600000          
ACCESS_FILE         R008012LData Block 7                            OA         1       2560000000000       25600000          
ACCESS_FILE         R009013MData Block 9                            OA         1       2560000000000       25600000          
ACCESS_RTE          A001001AName of access route                    RA         1        100000000000        1000000          
ACCESS_RTE          A002002BDescription of access route             RA         1        400000000000        4000000          
ACCESS_RTE          A003003CFile to be accessed via this route      RA         1        100000000000        1000000          
ACCESS_RTE          A004004DLibrary in which file resides           RA         1        100000000000        1000000          
ACCESS_RTE          A005005EMaximum records expected                RN         1         40000000000         400000          
ACCESS_RTE          A006006FAction to take if no records found      OA         1        100000000000        1000000'IGNORE'  
ACCESS_RTE          R001007GReturn code (OK/ER)                     RA         2         20000000000         200000          
ACCESS_RTE_KEY      A001001AAccess route name                       RA         1        100000000000        1000000          
ACCESS_RTE_KEY      A002002BField or literal to be used as key      RA         1        200000000000        2000000          
ACCESS_RTE_KEY      A003003COptional sequencing number              ON         1         50000000000         5000000         
ACCESS_RTE_KEY      R001004DReturn code (OK/ER)                     RA         2         20000000000         200000          
ADD_DD_VALUES       A001001ADropdown list name                      RA         4         40000000000         400000          
ADD_DD_VALUES       A002003CSeparator character                     RA         1         10000000000         100000*BLANK    
ADD_DD_VALUES       A003004DDropdown value text                     RA         1       2560000000000       25600000          
ADD_DD_VALUES       R001002BReturn code                             RA         2         20000000000         200000          
ALLOW_EXTRA_USER_KEYA001001ANumber of key to be enabled             RN         1         20000000000         200000          
ALLOW_EXTRA_USER_KEYA002002BDescription of extra key                OA         1        100000000000        1000000*BLANKS   
BCONCAT             A001001AFirst string to concatenate             Ru         121474836470000000000       25600000          
BCONCAT             A002002BSecond string to concatenate            Ru         121474836470000000000       25600000          
BCONCAT             A003003CThird string to concatenate             Ou         121474836470000000000       25600000*BLANKS   
BCONCAT             A004004DFourth string to concatenate            Ou         121474836470000000000       25600000*BLANKS   
BCONCAT             A005005EFifth string to concatenate             Ou         121474836470000000000       25600000*BLANKS   
BCONCAT             R001006FReturned concatenation of strings 1 - 5 Ru         121474836470000000000       25600000          
BCONCAT             R002007GComputed length of returned string      ON         1        150000000000        1500000          
BINTOHEX            A001001ASOURCE - Binary value                   Rw         121474836400000000000214748364000000          
BINTOHEX            A002004DNumber of bytes to be converted         ON         1        110000000000        11000000         
BINTOHEX            R001002BReturned Hex value                      RA         221474836400000000000214748364000000          
BINTOHEX            R002003CReturn code OK/ER                       OA         2         20000000000         200000*BLANKS   
BUILD_WORK_OPTIONS  A001001AList of all functions to be enabled     RL        50        500000000000        5000000          
BUILD_WORK_OPTIONS  A002002BLength of Option Lines for Output       RN         1        150000000000        1500000          
BUILD_WORK_OPTIONS  R001003CComposed Option Lines for Display       RL         1        800000000000        8000000          
BUILD_WORK_OPTIONS  R002004DReturned Valid Options                  RL         2         20000000000         200000          
CALL_SERVER_FUNCTIONA001001AServer Symbolic Name (SSN)              RA         1        100000000000        1000000          
CALL_SERVER_FUNCTIONA002002BName of RDML function to be called      RA         1         70000000000         700000          
CALL_SERVER_FUNCTIONA003003CPass Current Exchange List to Server    OA         1         10000000000         100000'N'       
CALL_SERVER_FUNCTIONA004004DReceive Exchange List back from Server  OA         1         10000000000         100000'N'       
CALL_SERVER_FUNCTIONA005005EWorking List 1                          OL         1         10000000000         100000          
CALL_SERVER_FUNCTIONA006006FWorking List 2                          OL         1         10000000000         100000          
CALL_SERVER_FUNCTIONA007007GWorking List 3                          OL         1         10000000000         100000          
CALL_SERVER_FUNCTIONA008008HWorking List 4                          OL         1         10000000000         100000          
CALL_SERVER_FUNCTIONA009009IWorking List 5                          OL         1         10000000000         100000          
CALL_SERVER_FUNCTIONA010010JWorking List 6                          OL         1         10000000000         100000          
CALL_SERVER_FUNCTIONA011011KWorking List 7                          OL         1         10000000000         100000          
CALL_SERVER_FUNCTIONA012012LWorking List 8                          OL         1         10000000000         100000          
CALL_SERVER_FUNCTIONA013013MWorking List 9                          OL         1         10000000000         100000          
CALL_SERVER_FUNCTIONA014014NWorking List 10                         OL         1         10000000000         100000          
CALL_SERVER_FUNCTIONR001015OReturn Code ("OK" or "ER")              RA         2         20000000000         200000          
CENTRE              A001001AString to be centred                    RA         1       2560000000000       25600000          
CENTRE              A002002BRemove imbedded blanks (Y/N)            OA         1         10000000000         100000'N'       
CENTRE              R001003CReturn string                           RA         1       2560000000000       25600000          
CHANGE_IBMI_SIGNON  A001001AIBM i Server Name                       RA         1       2560000000000       25600000          
CHANGE_IBMI_SIGNON  A002002BSSL REquired (Y/N)                      RA         1         10000000000         100000          
CHANGE_IBMI_SIGNON  A003003CUser name (signon) to be changed        RA         1        100000000000        1000000          
CHANGE_IBMI_SIGNON  A004004DPassword for the user to be changed     RA         1       1280000000000       12800000          
CHANGE_IBMI_SIGNON  A005005ENew password for the User Name          RA         1       1280000000000       12800000          
CHANGE_IBMI_SIGNON  A006006FEncrypt Password (Y/N)                  RA         1         10000000000         100000          
CHANGE_IBMI_SIGNON  A007007GServer Mapper Port                      ON         1         50000000000         500000449       
CHANGE_IBMI_SIGNON  R001008HReturn Code                             RA         2         20000000000         200000          
CHECK_AUTHORITY     A001001AObject name                             RA         1        100000000000        1000000*BLANKS   
CHECK_AUTHORITY     A002002BObject name extension                   RA         1        100000000000        1000000*BLANKS   
CHECK_AUTHORITY     A003003CObject type                             RA         2         20000000000         200000'FD'      
CHECK_AUTHORITY     A004004DAccess required to object               RA         2         20000000000         200000'UD'      
CHECK_AUTHORITY     R001005EAccess granted                          RA         1         10000000000         100000'N'       
CHECK_IBMI_SIGNON   A001001AIBM i Server Name                       RA         1       2560000000000       25600000          
CHECK_IBMI_SIGNON   A002002BSSL Required (Y/N)                      RA         1         10000000000         100000          
CHECK_IBMI_SIGNON   A003003CUser name (signon) to be checked        RA         1        100000000000        1000000          
CHECK_IBMI_SIGNON   A004004DPassword for the user to be checked     RA         1       1280000000000       12800000          
CHECK_IBMI_SIGNON   A005005EEncrypt Password (Y/N)                  RA         1         10000000000         100000          
CHECK_IBMI_SIGNON   A006006FServer Mapper Port                      ON         1         50000000000         500000449       
CHECK_IBMI_SIGNON   R001007GReturn Code                             RA         2         20000000000         200000          
CHECK_IBMI_SIGNON   R002008HDate Password Expires (CCYYMMDD)        RA         8         80000000000         800000          
CHECKNUMERIC        A001001AAlpha string to be converted to numeric RA         1       2560000000000       25600000          
CHECKNUMERIC        A002002BMaximum number of integers allowed      ON         121474836470000000000         30000015        
CHECKNUMERIC        A003003CMaximum number of decimals allowed      ON         1         30000000000         3000009         
CHECKNUMERIC        A004004DList of characters to be ignored        OA         1        500000000000        5000000*BLANKS   
CHECKNUMERIC        R001005EReturn integer portion of number        RN         121474836470000000000        3000000          
CHECKNUMERIC        R002006FReturn decimal portion of number        ON         121474836470000132767         900009          
CHECKNUMERIC        R003007GReturn code (Y/N)                       OA         1         10000000000         100000          
CHECKNUMERIC        R004008HReturn sign of number (+/-)             OA         1         10000000000         100000          
CHECKNUMERIC        R005009IReturn number of integers               ON         1         30000000000         300000          
CHECKNUMERIC        R006010JReturn number of decimals               ON         1         30000000000         300000          
CHECKSTRING         A001001AString to be checked                    RA         121474836470000000000       25600000          
CHECKSTRING         A002002BList of allowable characters in string  RA         1       2560000000000       25600000          
CHECKSTRING         R001003CReturn code (Y/N)                       RA         1         10000000000         100000          
CLR_MESSAGES        A001001AClear event log messages Y/N            OA         1         10000000000         100000'Y'       
COMPARE_FILE_DEF    A001001ALANSA file name                         RA         1        100000000000         000000          
COMPARE_FILE_DEF    A002002BPath for current CTD                    RA         1       2560000000000         000000          
COMPARE_FILE_DEF    A003003CPath for new CTD                        RA         1       2560000000000         000000          
COMPARE_FILE_DEF    A004005ELibrary Name                            OA         1       1280000000000         000000          
COMPARE_FILE_DEF    R001004DReturn code                             RA         2         20000000000         000000          
COMPILE_COMPONENT   A001001AList of components to be compiled       RL         1         90000000000         900000          
COMPILE_COMPONENT   A002002BForce compile                           OA         2         30000000000         300000'*N'      
COMPILE_COMPONENT   A003003CKeep generated source code              OA         2         30000000000         300000'*N'      
COMPILE_COMPONENT   A004004DCompile for debug                       OA         2         30000000000         300000'*N'      
COMPILE_COMPONENT   A005006FWeb services to compile                 OA         1         10000000000         100000'N'       
COMPILE_COMPONENT   A006007GList of technology services             OL         1        200000000000        2000000          
COMPILE_COMPONENT   R001005EReturn code OK/ER                       OA         2         20000000000         200000          
COMPILE_PROCESS     A001001AName of process to be compiled          RA         1        100000000000        1000000          
COMPILE_PROCESS     A002002BList of functions to be compiled        RL         1         70000000000         700000          
COMPILE_PROCESS     A003003CName of batch job                       OA         1        100000000000        1000000'*PROCESS'
COMPILE_PROCESS     A004004DName of job description                 OA         1        210000000000        2100000'*N'      
COMPILE_PROCESS     A005005EName of job queue                       OA         1        210000000000        2100000'*N'      
COMPILE_PROCESS     A006006FName of output queue                    OA         1        210000000000        2100000'*N'      
COMPILE_PROCESS     A007007GCompile process as well as functions    OA         2         30000000000         300000'*N'      
COMPILE_PROCESS     A008008HProduce RDML source listings            OA         2         30000000000         300000'*N'      
COMPILE_PROCESS     A009009IProduce RPG and DDS source listings     OA         2         30000000000         300000'*N'      
COMPILE_PROCESS     A010010JOptimise compiled program(s)            OA         2         30000000000         300000'*N'      
COMPILE_PROCESS     A011011KIgnore decimal data errors in program(s)OA         2         30000000000         300000'*N'      
COMPILE_PROCESS     A012012LAllow debug / Program Observability     OA         6         60000000000         600000'*N'      
COMPILE_PROCESS     A013013MDump code generator work areas          OA         2         30000000000         300000'*N'      
COMPILE_PROCESS     A014015OProduce Documentor Details              OA         2         30000000000         300000'*N'      
COMPILE_PROCESS     A015016PGenerate HTML Pages                     OA         2         30000000000         300000'*N'      
COMPILE_PROCESS     A016017QGenerate HTML editor extension details  OA         2         30000000000         300000'*N'      
COMPILE_PROCESS     A017018RGenerate XML                            OA         2         30000000000         300000'*N'      
COMPILE_PROCESS     R001014NSuccessfull submit return code "OK"/"ER"RA         2         20000000000         200000          
COMPOSER_CALLF      A001001ALANSA Composer server symbolic name     RA         1        100000000000        1000000          
COMPOSER_CALLF      A002002BLANSA process name                      RA         1        100000000000        1000000          
COMPOSER_CALLF      A003003CLANSA function name                     RA         1         70000000000         700000          
COMPOSER_CALLF      A004004DNumber of exchange variables            ON         1         50000000000         5000000         
COMPOSER_CALLF      A005005EValue of exchange variable EXCH01       OA         1       2560000000000       25600000*BLANK    
COMPOSER_CALLF      A006006FValue of exchange variable EXCH02       OA         1       2560000000000       25600000*BLANK    
COMPOSER_CALLF      A007007GValue of exchange variable EXCH03       OA         1       2560000000000       25600000*BLANK    
COMPOSER_CALLF      A008008HValue of exchange variable EXCH04       OA         1       2560000000000       25600000*BLANK    
COMPOSER_CALLF      A009009IValue of exchange variable EXCH05       OA         1       2560000000000       25600000*BLANK    
COMPOSER_CALLF      A010010JValue of exchange variable EXCH06       OA         1       2560000000000       25600000*BLANK    
COMPOSER_CALLF      A011011KValue of exchange variable EXCH07       OA         1       2560000000000       25600000*BLANK    
COMPOSER_CALLF      A012012LSynchronous call?                       OA         1         10000000000         100000'Y'       
COMPOSER_CALLF      A013013MSynchronous time out (seconds)          ON         1         50000000000         50000030        
COMPOSER_CALLF      A014014NRequest expires (seconds)               ON         1         50000000000         5000000         
COMPOSER_CALLF      R001015OReturn code                             OA         2         20000000000         200000          
COMPOSER_CALLF      R002016PValue of exchange variable EXCH01       OA         1       2560000000000       25600000          
COMPOSER_CALLF      R003017QValue of exchange variable EXCH02       OA         1       2560000000000       25600000          
COMPOSER_CALLF      R004018RValue of exchange variable EXCH03       OA         1       2560000000000       25600000          
COMPOSER_CALLF      R005019SValue of exchange variable EXCH04       OA         1       2560000000000       25600000          
COMPOSER_CALLF      R006020TValue of exchange variable EXCH05       OA         1       2560000000000       25600000          
COMPOSER_CALLF      R007021UValue of exchange variable EXCH06       OA         1       2560000000000       25600000          
COMPOSER_CALLF      R008022VValue of exchange variable EXCH07       OA         1       2560000000000       25600000          
COMPOSER_RUN        A001001ALANSA Composer server symbolic name     RA         1        100000000000        1000000          
COMPOSER_RUN        A002002BProcessing sequence identifier          RA         1        320000000000        3200000          
COMPOSER_RUN        A003003CParameter name 01                       OA         1        200000000000        2000000'*NONE'   
COMPOSER_RUN        A004004DParameter value 01                      OA         1       2000000000000       20000000'*NONE'   
COMPOSER_RUN        A005005EParameter name 02                       OA         1        200000000000        2000000'*NONE'   
COMPOSER_RUN        A006006FParameter value 02                      OA         1       2000000000000       20000000'*NONE'   
COMPOSER_RUN        A007007GParameter name 03                       OA         1        200000000000        2000000'*NONE'   
COMPOSER_RUN        A008008HParameter value 03                      OA         1       2000000000000       20000000'*NONE'   
COMPOSER_RUN        A009009IParameter name 04                       OA         1        200000000000        2000000'*NONE'   
COMPOSER_RUN        A010010JParameter value 04                      OA         1       2000000000000       20000000'*NONE'   
COMPOSER_RUN        A011011KParameter name 05                       OA         1        200000000000        2000000'*NONE'   
COMPOSER_RUN        A012012LParameter value 05                      OA         1       2000000000000       20000000'*NONE'   
COMPOSER_RUN        A013013MSynchronous call?                       OA         1         10000000000         100000'Y'       
COMPOSER_RUN        A014014NTimeout (secs) for synchronous request  ON         1         50000000000         50000030        
COMPOSER_RUN        A015015ORequest expires (secs)                  ON         1         50000000000         5000000         
COMPOSER_RUN        R001016PReturn code                             OA         2         20000000000         200000          
COMPOSER_USE        A001001ALANSA Composer server symbolic name     RA         1        100000000000        1000000          
COMPOSER_USE        A002002BPartition name                          OA         3         30000000000         300000'LIC'     
COMPOSER_USE        A003003CLANSA program library name (IBM i only) OA         1        100000000000        1000000*BLANK    
COMPOSER_USE        A004004DReserved for future use. Must be blank  OA         1       2560000000000       25600000*BLANK    
COMPOSER_USE        A005005EReserved for future use. Must be blank. OA         1       2560000000000       25600000*BLANK    
COMPOSER_USE        A006006FLANSA system path (Windows only)        OA         1       2560000000000       25600000*BLANK    
COMPOSER_USE        A007007GUser name (Windows only)                OA         1       2560000000000       25600000*BLANK    
COMPOSER_USE        A008008HPassword (Windows only)                 OA         1       2560000000000       25600000*BLANK    
COMPOSER_USE        A009009IDatabase name (Windows only)            OA         1        320000000000        3200000*BLANK    
COMPOSER_USE        A010010JDatabase type (Windows only)            OA         1        200000000000        2000000*BLANK    
COMPOSER_USE        A011011KDatabase user (Windows only)            OA         1       2560000000000       25600000*BLANK    
COMPOSER_USE        A012012LDatabase password (Windows only)        OA         1       2560000000000       25600000*BLANK    
COMPOSER_USE        A013013MLANSA system overrides (Windows only)   OA         1       1280000000000       12800000*BLANK    
COMPOSER_USE        A014014NLANSA Composer Request Server Log? (W o)OA         1         10000000000         100000'N'       
COMPOSER_USE        R001015OReturn code                             OA         2         20000000000         200000          
CONCAT              A001001AFirst string to concatenate             Ru         121474836470000000000       25600000          
CONCAT              A002002BSecond string to concatenate            Ru         121474836470000000000       25600000          
CONCAT              A003003CThird string to concatenate             Ou         121474836470000000000       25600000*BLANKS   
CONCAT              A004004DFourth string to concatenate            Ou         121474836470000000000       25600000*BLANKS   
CONCAT              A005005EFifth string to concatenate             Ou         121474836470000000000       25600000*BLANKS   
CONCAT              R001006FReturned concatenation of strings 1 - 5 Ru         121474836470000000000       25600000          
CONCAT              R002007GComputed length of returned string      ON         1        150000000000        1500000          
CONNECT_FILE        A001001APhysical File or SQL Table Name         RA         1        100000000000        1000000          
CONNECT_FILE        A002002BSSN (Server Symbolic Name) of Server    RA         1        100000000000        1000000          
CONNECT_FILE        A003003CSelect Blocking Size                    ON         1        100000000000        100000050        
CONNECT_FILE        A004004DSelection Limit                         ON         1        100000000000        100000010000     
CONNECT_SERVER      A001001AServer Symbolic Name (SSN)              RA         1        100000000000        1000000          
CONNECT_SERVER      A002002BPassword to be Used for Connect         OA         1       2560000000000       25600000' '       
CONNECT_SERVER      A003003FUse Kerberose authentication            OA         1         10000000000         100000'N'       
CONNECT_SERVER      A004007GUser Name                               OA         1       2560000000000       25600000*BLANKS   
CONNECT_SERVER      A005008HHandle Server Error                     OA         1         10000000000         100000'N'       
CONNECT_SERVER      R001004CReturn Code ("OK" or "ER")              RA         2         20000000000         200000          
CONNECT_SERVER      R002005DServer Type                             OA         3        150000000000        1500000'UNKNOWN' 
CONNECT_SERVER      R003006EError code                              ON        10        100000000000        1000000*ZERO     
CONVERT_STRING      A001001AData string to be converted             RA         121474836470000000000       25600000          
CONVERT_STRING      A002002Bcodepage to be converted to             RN         1         50000000000         500000          
CONVERT_STRING      A003003Ccodepage to be converted from           ON         1         50000000000         5000000         
CONVERT_STRING      R001004DConverted data string                   RA         121474836470000000000       25600000          
CONVERT_STRING      R002005Ereturn code                             OA         2         20000000000         200000          
CONVERTDATE         A001001ADate that is to be converted            RA         1        200000000000        2000000          
CONVERTDATE         A002002BFormat of date that is to be converted  RA         1         10000000000         100000          
CONVERTDATE         A003003CFormat required for returned date       RA         1         10000000000         100000          
CONVERTDATE         R001004DReturned converted date                 RA         1        200000000000        2000000          
CONVERTDATE         R002005EReturn code (Y/N)                       OA         1         10000000000         100000          
CONVERTDATE_NUMERIC A001001ADate that is to be converted            RN         1         80000000000         800000          
CONVERTDATE_NUMERIC A002002BFormat of date that is to be converted  RA         1         10000000000         100000          
CONVERTDATE_NUMERIC A003003CFormat required for returned date       RA         1         10000000000         100000          
CONVERTDATE_NUMERIC R001004DReturned converted date                 RN         4         80000000000         800000          
CONVERTDATE_NUMERIC R002005EReturn code (Y/N)                       OA         1         10000000000         100000          
CREATE_PROMPT_FILE  A001001AImporting Package Folder                RA         1       2560000000000         000000          
CREATE_PROMPT_FILE  A002002BRequested File Type                     RA         1        200000000000         000000          
CREATE_PROMPT_FILE  R001003CReturn code                             RA         2         20000000000         000000          
CREATE_PROMPT_FILE  R002004Dthe newly created file                  OA         1       2560000000000         000000          
CREATE_SPACE        A001001ASpace Object Name                       RA         1       2560000000000       25600000          
CREATE_SPACE        R001002BReturn Code (OK or ER)                  OA         2         20000000000         200000          
DATEDIFFERENCE      A001001AStart/First date                        RN         1         80000000000         800000          
DATEDIFFERENCE      A002002BFormat of start/first date              RA         1         10000000000         100000          
DATEDIFFERENCE      A003003CEnd/second date                         RN         1         80000000000         800000          
DATEDIFFERENCE      A004004DFormat of End/Second date               RA         1         10000000000         100000          
DATEDIFFERENCE      R001005EDifference (start-end date) in days     RN         3         80000000000         800000          
DATEDIFFERENCE      R002006FSign of difference (+ or - )            OA         1         10000000000         100000          
DATEDIFFERENCE      R003007GReturn code (Y/N)                       OA         1         10000000000         100000          
DATEDIFFERENCE_ALPHAA001001AStart/First date                        RA         1        100000000000        1000000          
DATEDIFFERENCE_ALPHAA002002BFormat of start/first date              RA         1         10000000000         100000          
DATEDIFFERENCE_ALPHAA003003CEnd/second date                         RA         1        100000000000        1000000          
DATEDIFFERENCE_ALPHAA004004DFormat of End/Second date               RA         1         10000000000         100000          
DATEDIFFERENCE_ALPHAR001005EDifference (start-end date) in days     RN         3         80000000000         800000          
DATEDIFFERENCE_ALPHAR002006FSign of difference (+ or - )            OA         1         10000000000         100000          
DATEDIFFERENCE_ALPHAR003007GReturn code (Y/N)                       OA         1         10000000000         100000          
DECRYPT             A001001AText to be decrypted                    RA         821474836470000000000       25600000          
DECRYPT             A002002BLength of text to be decrypted          RN         1        110000000000        1100000          
DECRYPT             A003003CKey to be used to decrypt               Ru        16        320000000000        3200000          
DECRYPT             A004006FEncrypted data is in HEX format         OA         2         30000000000         000000'NO'      
DECRYPT             R001004DReturned decrypted text                 Ru         121474836400000000000       25600000          
DECRYPT             R002005EReturn code (OK,ER)                     OA         2         20000000000         200000*BLANKS   
DEFINE_ANY_SERVER   A001001AServer symbolic name ( SSN )            RA         1        100000000000        1000000          
DEFINE_ANY_SERVER   A002002BLU partner name                         RA         1        200000000000        2000000          
DEFINE_ANY_SERVER   A003003CStart commitment control                RA         1         10000000000         100000          
DEFINE_ANY_SERVER   A004004DX_RUN arguments                         OA         1       2560000000000       25600000*BLANKS   
DEFINE_ANY_SERVER   A005005EDivert LOCK_OBJECT requests             OA         1         10000000000         100000'Z'       
DEFINE_ANY_SERVER   A006006FShow "Please Wait" message              OA         1         10000000000         100000'Y'       
DEFINE_ANY_SERVER   A007007GExecution priority                      OA         1         20000000000         200000'20'      
DEFINE_ANY_SERVER   A008008HClient to server conversion table       OA         1        100000000000        1000000'*JOB'    
DEFINE_ANY_SERVER   A009009IServer to client conversion table       OA         1        100000000000        1000000'*JOB'    
DEFINE_ANY_SERVER   R001010JReturn code                             RA         2         20000000000         200000          
DEFINE_DB_SERVER    A001001ASSN (Server Symbolic Name)              RA         1        100000000000        1000000          
DEFINE_DB_SERVER    A002002BDatabase identifier                     RA         1        320000000000        3200000          
DEFINE_DB_SERVER    A003003CConnection parameter overrides          OA         1       2560000000000       25600000*BLANKS   
DEFINE_DB_SERVER    A004004DRRN path override                       OA         1       2560000000000       25600000*BLANKS   
DEFINE_DB_SERVER    A005005EDatabase type override                  OA         1        320000000000        3200000*BLANKS   
DEFINE_DB_SERVER    A006006FODBI= Override trans isolation level    OA         1         10000000000         100000*BLANK    
DEFINE_DB_SERVER    A007007GODBA= Override connection method        OA         1         10000000000         100000*BLANK    
DEFINE_DB_SERVER    R001008HReturn code, OK Server defined, ER errorRA         2         20000000000         200000          
DEFINE_OS_400_SERVERA001001AServer Symbolic Name (SSN)              RA         1        100000000000        1000000          
DEFINE_OS_400_SERVERA002002BNetwork Name of Server                  RA         1        200000000000        2000000          
DEFINE_OS_400_SERVERA003003CCommitment Control Enabled              RA         1         10000000000         100000          
DEFINE_OS_400_SERVERA004004DDBCS Capable Server                     OA         1         10000000000         100000'N'       
DEFINE_OS_400_SERVERA005005EDivert LOCK_OBJECTs to Server           OA         1         10000000000         100000'N'       
DEFINE_OS_400_SERVERA006006FShow Startup / Connection Wait Message  OA         1         10000000000         100000'Y'       
DEFINE_OS_400_SERVERA007007GOS/400 Execution Priority               OA         2         20000000000         200000'20'      
DEFINE_OS_400_SERVERA008008HClient to Server Conversion Table Name  OA         1        100000000000        1000000'QEBCDIC' 
DEFINE_OS_400_SERVERA009009IServer to Client Conversion Table Name  OA         1        100000000000        1000000'QASCII'  
DEFINE_OS_400_SERVERR001010JReturn Code ("OK" or "ER")              RA         2         20000000000         200000          
DEFINE_OTHER_SERVER A001001AServer Symbolic Name (SSN)              RA         1        100000000000        1000000          
DEFINE_OTHER_SERVER A002002BNetwork Name of Server                  RA         1        200000000000        2000000          
DEFINE_OTHER_SERVER A003003CDivert LOCK_OBJECTs to Server           OA         1         10000000000         100000'N'       
DEFINE_OTHER_SERVER A004004DShow Startup / Connection Wait Message  OA         1         10000000000         100000'Y'       
DEFINE_OTHER_SERVER A005005EServer X_RUN Exceptional Arguments      OA         1       2560000000000       25600000'*N'      
DEFINE_OTHER_SERVER A006006FServer Dependent Exceptional Argumemts  OA         1       2560000000000       25600000'*N'      
DEFINE_OTHER_SERVER A007007GFuture Expansion 1 (not implemented)    OA         1       2560000000000       25600000'*N'      
DEFINE_OTHER_SERVER A008008HFuture Expansion 2 (not implemented)    OA         1       2560000000000       25600000'*N'      
DEFINE_OTHER_SERVER R001010IReturn Code ("OK" or "ER")              RA         2         20000000000         200000          
DEFINE_OVERRIDE_FILEA001001AFile Library Name                       OA         1        100000000000         000000*BLANKS   
DEFINE_OVERRIDE_FILEA002002BFile Name                               OA         1        100000000000         000000*BLANKS   
DEFINE_OVERRIDE_FILEA003003COverride Database Table Owner           OA         1       1280000000000         000000*BLANKS   
DEFINE_OVERRIDE_FILEA004004DOverride Database Table Name            OA         1       1280000000000         000000*BLANKS   
DEFINE_OVERRIDE_FILER001005EReturn code                             RA         2         20000000000         000000          
DEFINE_SPACE_CELL   A001001ASpace Object Name                       RA         1       2560000000000       25600000          
DEFINE_SPACE_CELL   A002002BName of prototype field (without # sign)RA         1        100000000000        1000000          
DEFINE_SPACE_CELL   A003003CCell attributes (eg KEY DESCEND NOCASE) OA         1       2560000000000       25600000*BLANKS   
DEFINE_SPACE_CELL   R001004DReturn Code (OK or ER)                  OA         2         20000000000         200000          
DELETE_CHECKS       A001001ALevel of validation checks ("D" or "F") RA         1         10000000000         100000          
DELETE_CHECKS       A002002BName of field in dictionary or file     RA         1        100000000000        1000000          
DELETE_CHECKS       A003003CSequence number to control deletion     RN         1         30000000000         300000          
DELETE_CHECKS       A004004DGeneric description of check            RA         1        300000000000        3000000          
DELETE_CHECKS       R001005EReturn code ("OK" or "ER")              RA         2         20000000000         200000          
DELETE_FUNCTION     R001001AReturn Code                             RA         2         20000000000         200000          
DELETE_IN_SPACE     A001001ASpace Object Name                       RA         1       2560000000000       25600000*BLANKS   
DELETE_IN_SPACE     A002002BKey Value 1                             Ow         121474836470000032767       25600000*BLANKS   
DELETE_IN_SPACE     A003003CKey Value 2                             Ow         121474836470000032767       25600000*BLANKS   
DELETE_IN_SPACE     A004004DKey Value 3                             Ow         121474836470000032767       25600000*BLANKS   
DELETE_IN_SPACE     A005005DKey Value 4                             Ow         121474836470000032767       25600000*BLANKS   
DELETE_IN_SPACE     A006006DKey Value 5                             Ow         121474836470000032767       25600000*BLANKS   
DELETE_IN_SPACE     A007007DKey Value 6                             Ow         121474836470000032767       25600000*BLANKS   
DELETE_IN_SPACE     A008008DKey Value 7                             Ow         121474836470000032767       25600000*BLANKS   
DELETE_IN_SPACE     A009009DKey Value 8                             Ow         121474836470000032767       25600000*BLANKS   
DELETE_IN_SPACE     A010010DKey Value 9                             Ow         121474836470000032767       25600000*BLANKS   
DELETE_IN_SPACE     A011011DKey Value 10                            Ow         121474836470000032767       25600000*BLANKS   
DELETE_IN_SPACE     A012012DKey Value 11                            Ow         121474836470000032767       25600000*BLANKS   
DELETE_IN_SPACE     A013013DKey Value 12                            Ow         121474836470000032767       25600000*BLANKS   
DELETE_IN_SPACE     A014014DKey Value 13                            Ow         121474836470000032767       25600000*BLANKS   
DELETE_IN_SPACE     A015015DKey Value 14                            Ow         121474836470000032767       25600000*BLANKS   
DELETE_IN_SPACE     A016016DKey Value 15                            Ow         121474836470000032767       25600000*BLANKS   
DELETE_IN_SPACE     A017017DKey Value 16                            Ow         121474836470000032767       25600000*BLANKS   
DELETE_IN_SPACE     A018018DKey Value 17                            Ow         121474836470000032767       25600000*BLANKS   
DELETE_IN_SPACE     A019019DKey Value 18                            Ow         121474836470000032767       25600000*BLANKS   
DELETE_IN_SPACE     A020020DKey Value 19                            Ow         121474836470000032767       25600000*BLANKS   
DELETE_IN_SPACE     R001021DReturn Code (OK or ER)                  OA         2         20000000000       25600000*BLANKS   
DELETE_LANSA_OBJECT A001001AObject Name                             RA         1       2560000000000       25600000          
DELETE_LANSA_OBJECT A002002BObject Extension                        RA         1        100000000000        1000000          
DELETE_LANSA_OBJECT A003003CLANSA Object Type                       RA         1         20000000000         200000          
DELETE_LANSA_OBJECT A004004DPrimary Extension Name                  OA         1         30000000000         300000*BLANKS   
DELETE_LANSA_OBJECT A005005EInput or Ouput Visual                   OA         1         10000000000         100000*BLANKS   
DELETE_LANSA_OBJECT A006006FSecondary Extension Name                OA         1         50000000000         500000*BLANKS   
DELETE_LANSA_OBJECT A007007GComponent type                          OA        10        100000000000        1000000*BLANKS   
DELETE_LANSA_OBJECT R001008HReturn Code                             RA         2         20000000000         200000          
DELETE_PROCESS      A001001AName of process to be deleted           RA         1        100000000000        1000000          
DELETE_PROCESS      A002002BName of batch job                       OA         1        100000000000        1000000'*PROCESS'
DELETE_PROCESS      A003003CName of job description                 OA         1        210000000000        2100000'*N'      
DELETE_PROCESS      A004004DName of job queue                       OA         1        210000000000        2100000'*N'      
DELETE_PROCESS      A005005EName of output queue                    OA         1        210000000000        2100000'*N'      
DELETE_PROCESS      R001006FSuccessful submit return code 'OK'/'ER' RA         2         20000000000         200000          
DELETE_SAVED_LIST   A001001AName of previously saved list           RA         1        100000000000        1000000          
DELETE_TRIGGERS     A001001ALevel of trigger ("D" or "F")           RA         1         10000000000         100000          
DELETE_TRIGGERS     A002002BName of field in dictionary or file     RA         1        100000000000        1000000          
DELETE_TRIGGERS     A003003CSequence number to control deletion     RN         1         30000000000         300000          
DELETE_TRIGGERS     A004004DGeneric description of trigger          RA         1        300000000000        3000000          
DELETE_TRIGGERS     R001005EReturn Code ("OK" or "ER")              RA         2         20000000000         200000          
DELETE_WEB_COMPONENTA001001AWeb component                           RA         1        200000000000        2000000          
DELETE_WEB_COMPONENTA002002BMode                                    RA         1         10000000000         100000          
DELETE_WEB_COMPONENTA003003CLanguage                                OA         1         40000000000         400000'*DFT'    
DELETE_WEB_COMPONENTR001004DReturn code                             OA         2         20000000000         200000          
DESTROY_SPACE       A001001ASpace Object Name                       RA         1       2560000000000       25600000          
DESTROY_SPACE       R001002BReturn Code (OK or ER)                  OA         2         20000000000         200000          
DISCONNECT_FILE     A001001APhysical File or SQL Table Name         RA         1        100000000000        1000000          
DISCONNECT_FILE     A002002BSSN (Server Symbolic Name) of Server    RA         1        100000000000        1000000          
DISCONNECT_SERVER   A001001AServer Symbolic Name (SSN)              RA         1        100000000000        1000000          
DISCONNECT_SERVER   R001002BReturn Code ("OK" or "ER")              RA         2         20000000000         200000          
DLL                 A001001ADLL Alias Name         (in X_USEDLL.DAT)RA         1        500000000000        5000000          
DLL                 A002002BEntry Point Alias Name (in X_USEDLL.DAT)RA         1        500000000000        5000000          
DLL                 A003003CEntry Point Logical Parameter 1         Ow         121474836470000000000        3000000*LOVAL    
DLL                 A004004DEntry Point Logical Parameter 2         Ow         121474836470000000000        3000000*LOVAL    
DLL                 A005005EEntry Point Logical Parameter 3         OX         121474836470000000000        3000000*LOVAL    
DLL                 A006006FEntry Point Logical Parameter 4         OX         121474836470000000000        3000000*LOVAL    
DLL                 A007007GEntry Point Logical Parameter 5         OX         121474836470000000000        3000000*LOVAL    
DLL                 A008008HEntry Point Logical Parameter 6         OX         121474836470000000000        3000000*LOVAL    
DLL                 A009009IEntry Point Logical Parameter 7         OX         121474836470000000000        3000000*LOVAL    
DLL                 A010010JEntry Point Logical Parameter 8         OX         121474836470000000000        3000000*LOVAL    
DLL                 A011011KEntry Point Logical Parameter 9         OX         121474836470000000000        3000000*LOVAL    
DLL                 A012012LEntry Point Logical Parameter 10        OX         121474836470000000000        3000000*LOVAL    
DLL                 A013013MEntry Point Logical Parameter 11        OX         121474836470000000000        3000000*LOVAL    
DLL                 A014014NEntry Point Logical Parameter 12        OX         121474836470000000000        3000000*LOVAL    
DLL                 A015015OEntry Point Logical Parameter 12A       OX         121474836470000000000        3000000*LOVAL    
DLL                 A016016PEntry Point Logical Parameter 14        OX         121474836470000000000        3000000*LOVAL    
DLL                 A017017QEntry Point Logical Parameter 15        OX         121474836470000000000        3000000*LOVAL    
DLL                 A018018REntry Point Logical Parameter 16        OX         121474836470000000000        3000000*LOVAL    
DLL                 A019019SEntry Point Logical Parameter 17        OX         121474836470000000000        3000000*LOVAL    
DLL                 A020020TEntry Point Logical Parameter 18        OX         121474836470000000000        3000000*LOVAL    
DLL                 R001021UReturn Code (OK=Okay, ER=Error)         OA         2         20000000000         200000*BLANKS   
DLL                 R002022VEntry Point Logical Return Value 1      OX         1        300000000000        3000000*LOVAL    
DLL                 R003023WEntry Point Logical Return Value 2      OX         121474836470000000000        3000000*LOVAL    
DLL                 R004024XEntry Point Logical Return Value 3      OX         121474836470000000000        3000000*LOVAL    
DLL                 R005025YEntry Point Logical Return Value 4      OX         121474836470000000000        3000000*LOVAL    
DLL                 R006026ZEntry Point Logical Return Value 5      OX         121474836470000000000        3000000*LOVAL    
DLL                 R0070270Entry Point Logical Return Value 6      OX         121474836470000000000        3000000*LOVAL    
DLL                 R0080281Entry Point Logical Return Value 7      OX         121474836470000000000        3000000*LOVAL    
DLL                 R0090292Entry Point Logical Return Value 8      OX         121474836470000000000        3000000*LOVAL    
DLL                 R0100303Entry Point Logical Return Value 9      OX         121474836470000000000        3000000*LOVAL    
DLL                 R0110314Entry Point Logical Return Value 10     OX         121474836470000000000        3000000*LOVAL    
DLL                 R0120325Entry Point Logical Return Value 11     OX         121474836470000000000        3000000*LOVAL    
DLL                 R0130336Entry Point Logical Return Value 12     OX         121474836470000000000        3000000*LOVAL    
DLL                 R0140347Entry Point Logical Return Value 12A    OX         121474836470000000000        3000000*LOVAL    
DLL                 R0150358Entry Point Logical Return Value 14     OX         121474836470000000000        3000000*LOVAL    
DLL                 R0160369Entry Point Logical Return Value 15     OX         121474836470000000000        3000000*LOVAL    
DLL                 R017037$Entry Point Logical Return Value 16     OX         121474836470000000000        3000000*LOVAL    
DLL                 R018038#Entry Point Logical Return Value 17     OX         121474836470000000000        3000000*LOVAL    
DLL                 R019039@Entry Point Logical Return Value 18     OX         121474836470000000000        3000000*LOVAL    
DLL                 R020040 Entry Point Logical Return Value 19     OX         121474836470000000000        3000000*LOVAL    
DLT_FIELD           A001001AField name                              RA         1        100000000000        1000000          
DLT_FIELD           R001002BReturn code                             RA         2         20000000000         200000          
DLT_FILE            A001001AName of file to be deleted              RA         1        100000000000        1000000          
DLT_FILE            A002002BFile library                            RA         1        100000000000        1000000          
DLT_FILE            A003003CBatch job name                          OA         1        100000000000        1000000'*FILE'   
DLT_FILE            A004004DJob description name                    OA         1        210000000000        2100000'*N'      
DLT_FILE            A005005EJob queue name                          OA         1        210000000000        2100000'*N'      
DLT_FILE            A006006FOutput queue name                       OA         1        210000000000        2100000'*N'      
DLT_FILE            R001007GSuccessful submit return code "OK"/"ER" RA         2         20000000000         200000          
DLT_PROCESS_ATTACH  A001001ALowest Sequencing Number to Delete      RN         1         30000000000         300000          
DLT_PROCESS_ATTACH  R001002BReturn Code                             RA         2         20000000000         200000          
DOM_ADD_FIELD       A001001ADocument/Data Note Handle               RA         4         40000000000         400000          
DOM_ADD_FIELD       A002002BItem/Field to be added to note          RA         1        650000000000        6500000          
DOM_ADD_FIELD       A003003CItem Type in note                       RN         1         70000000000         700000          
DOM_ADD_FIELD       A004004DAlphanumeric field value                OA         1       2560000000000       25600000*BLANKS   
DOM_ADD_FIELD       A005005ENumeric field value                     ON         1        150000000009        3000009*ZERO     
DOM_ADD_FIELD       R001006FReturn Code                             RA         2         20000000000         200000          
DOM_ADD_ITEM        A001001ADocument/Data Note Handle               RA         4         40000000000         400000          
DOM_ADD_ITEM        A002002BItem/Field to be added to note          RA         1        650000000000        6500000          
DOM_ADD_ITEM        A003003CItem Type in note                       RN         1         70000000000         700000          
DOM_ADD_ITEM        A004004DAlphanumeric field value                OA         121474836470000000000       25600000*BLANKS   
DOM_ADD_ITEM        A005005ENumeric field value                     ON         1        150000000009        3000009*ZERO     
DOM_ADD_ITEM        R001006FReturn Code                             RA         2         20000000000         200000          
DOM_CLOSE_DATABASE  A001001ADatabase Handle                         RA         4         40000000000         400000          
DOM_CLOSE_DATABASE  R001002BReturn Code                             RA         2         20000000000         200000          
DOM_CLOSE_DOCUMENT  A001001ANote Handle                             RA         4         40000000000         400000          
DOM_CLOSE_DOCUMENT  R001002BReturn Code                             RA         2         20000000000         200000          
DOM_CLOSE_FILE      A001001ADatabase Handle                         RA         4         40000000000         400000          
DOM_CLOSE_FILE      R001002BReturn Code                             RA         2         20000000000         200000          
DOM_CREATE_DOCUMENT A001001ADatabase Handle                         RA         4         40000000000         400000          
DOM_CREATE_DOCUMENT R001002BReturn Code                             RA         2         20000000000         200000          
DOM_CREATE_DOCUMENT R002003CDocument/Note Handle                    RA         4         40000000000         400000          
DOM_DELETE_DOCUMENT A001001ADatabase Handle                         RA         4         40000000000         400000          
DOM_DELETE_DOCUMENT A002002BNote ID                                 RN         1        150000000000        1500000          
DOM_DELETE_DOCUMENT R001003CReturn Code                             RA         2         20000000000         200000          
DOM_DELETE_FIELD    A001001ADocument/Note Handle                    RA         4         40000000000         400000          
DOM_DELETE_FIELD    A002002BItem/Field to be deleted                RA         1        650000000000        6500000          
DOM_DELETE_FIELD    R001003CReturn Code                             RA         2         20000000000         200000          
DOM_DELETE_ITEM     A001001ADocument/Note Handle                    RA         4         40000000000         400000          
DOM_DELETE_ITEM     A002002BItem/Field to be deleted                RA         1        650000000000        6500000          
DOM_DELETE_ITEM     R001003CReturn Code                             RA         2         20000000000         200000          
DOM_END_SEARCH_DOCS A001001AID Table Handle                         RA         4         40000000000         400000          
DOM_END_SEARCH_DOCS R001002BReturn Code                             RA         2         20000000000         200000          
DOM_EXECUTE_AGENT   A001001ADatabase Handle                         RA         4         40000000000         400000          
DOM_EXECUTE_AGENT   A002002BAgent Name                              RA         1       1280000000000       12800000          
DOM_EXECUTE_AGENT   R001003CReturn Code                             RA         2         20000000000         200000          
DOM_GET_FIELD       A001001ADocument/Note Handle                    RA         4         40000000000         400000          
DOM_GET_FIELD       A002002BItem/Field whose value is to be returnedRA         1        650000000000        6500000          
DOM_GET_FIELD       A003003CItem Type in note                       RN         1         70000000000         700000          
DOM_GET_FIELD       A004004DEntry position for text list item       ON         1        150000000000        1500000*ZERO     
DOM_GET_FIELD       R001005EReturn Code                             RA         2         20000000000         200000          
DOM_GET_FIELD       R002006FAlphanumeric field value                OA         1       2560000000000       25600000*BLANKS   
DOM_GET_FIELD       R003007GNumeric field value                     ON         1        150000000009        3000009*ZERO     
DOM_GET_ITEM        A001001ADocument/Note Handle                    RA         4         40000000000         400000          
DOM_GET_ITEM        A002002BItem/Field whose value is to be returnedRA         1        650000000000        6500000          
DOM_GET_ITEM        A003003CItem Type in note                       RN         1         70000000000         700000          
DOM_GET_ITEM        A004004DEntry position for text list item       ON         1        150000000000        1500000*ZERO     
DOM_GET_ITEM        R001005EReturn Code                             RA         2         20000000000         200000          
DOM_GET_ITEM        R002006FAlphanumeric field value                OA         1       2560000000000       25600000*BLANKS   
DOM_GET_ITEM        R003007GNumeric field value                     ON         1        150000000009        3000009*ZERO     
DOM_GET_NXT_DOCUMENTA001001AID Table Handle                         RA         4         40000000000         400000          
DOM_GET_NXT_DOCUMENTA002002BPrevious Note ID                        RN         1        150000000000        1500000          
DOM_GET_NXT_DOCUMENTR001003CReturn Code                             RA         2         20000000000         200000          
DOM_GET_NXT_DOCUMENTR002004DNote ID returned                        RN         1        150000000000        1500000          
DOM_OPEN_DATABASE   A001001ADomino/Notes database file name         RA         1       2550000000000       25500000          
DOM_OPEN_DATABASE   A002002BNetwork Port Name                       OA         1        320000000000        3200000*BLANKS   
DOM_OPEN_DATABASE   A003003CDomino Server Name                      OA         1       2550000000000       25500000*BLANKS   
DOM_OPEN_DATABASE   R001004DReturn Code                             RA         2         20000000000         200000          
DOM_OPEN_DATABASE   R002005EDatabase Handle                         RA         4         40000000000         400000          
DOM_OPEN_DOCUMENT   A001001ADatabase Handle                         RA         4         40000000000         400000          
DOM_OPEN_DOCUMENT   A002002BNote ID                                 RN         1        150000000000        1500000          
DOM_OPEN_DOCUMENT   R001003CReturn Code                             RA         2         20000000000         200000          
DOM_OPEN_DOCUMENT   R002004DNote Handle                             RA         4         40000000000         400000          
DOM_OPEN_FILE       A001001ADomino/Notes database file name         RA         1       2550000000000       25500000          
DOM_OPEN_FILE       A002002BNetwork Port Name                       OA         1        320000000000        3200000*BLANKS   
DOM_OPEN_FILE       A003003CDomino Server Name                      OA         1       2550000000000       25500000*BLANKS   
DOM_OPEN_FILE       R001004DReturn Code                             RA         2         20000000000         200000          
DOM_OPEN_FILE       R002005EDatabase Handle                         RA         4         40000000000         400000          
DOM_SEARCH_DOCUMENTSA001001ADatabase Handle                         RA         4         40000000000         400000          
DOM_SEARCH_DOCUMENTSA002002BSearch Type - View/Criteria/None        RA         1         10000000000         100000          
DOM_SEARCH_DOCUMENTSA003003CView Name                               OA         1       1280000000000       12800000*BLANKS   
DOM_SEARCH_DOCUMENTSA004004DSearch Criteria                         OA         1       2550000000000       25500000*BLANKS   
DOM_SEARCH_DOCUMENTSR001005EReturn Code                             RA         2         20000000000         200000          
DOM_SEARCH_DOCUMENTSR002006FID Table Handle                         RA         4         40000000000         400000          
DOM_SEARCH_DOCUMENTSR003007GNo. Note IDs in the ID Table            ON         1        150000000000        1500000*ZERO     
DOM_UPDATE_DOCUMENT A001001ADocument/Note Handle                    RA         4         40000000000         400000          
DOM_UPDATE_DOCUMENT R001002BReturn Code                             RA         2         20000000000         200000          
DOM_UPDATE_FIELD    A001001ADocument/Note Handle                    RA         4         40000000000         400000          
DOM_UPDATE_FIELD    A002002BItem/Field whose value is to be updated RA         1        650000000000        6500000          
DOM_UPDATE_FIELD    A003003CItem Type in note                       RN         1         70000000000         700000          
DOM_UPDATE_FIELD    A004004DAlphanumeric field value                OA         1       2560000000000       25600000*BLANKS   
DOM_UPDATE_FIELD    A005005ENumeric field value                     ON         1        150000000009        3000009*ZERO     
DOM_UPDATE_FIELD    R001006FReturn Code                             RA         2         20000000000         200000          
DOM_UPDATE_ITEM     A001001ADocument/Note Handle                    RA         4         40000000000         400000          
DOM_UPDATE_ITEM     A002002BItem/Field whose value is to be updated RA         1        650000000000        6500000          
DOM_UPDATE_ITEM     A003003CItem Type in note                       RN         1         70000000000         700000          
DOM_UPDATE_ITEM     A004004DAlphanumeric field value                OA         1       2560000000000       25600000*BLANKS   
DOM_UPDATE_ITEM     A005005ENumeric field value                     ON         1        150000000009        3000009*ZERO     
DOM_UPDATE_ITEM     R001006FReturn Code                             RA         2         20000000000         200000          
DROP_DD_VALUES      A001001ADropdown list name                      RA         4         40000000000         400000          
DROP_DD_VALUES      R001002BReturn code                             RA         2         20000000000         200000          
ENCRYPT             A001001AText to be encrypted                    Ru         821474836400000000000       25600000          
ENCRYPT             A002002BLength of text to be encrypted          RN         1        110000000000        1100000          
ENCRYPT             A003003CKey to be used for encrpytion           Ou        16        320000000000        3200000*BLANKS   
ENCRYPT             A004007GReturn encrypted value in HEX           OA         2         30000000000         000000'NO'      
ENCRYPT             R001004DReturned encrypted text                 RA         821474836400000000000       25600000          
ENCRYPT             R002005EReturn code (OK, ER)                    OA         2         20000000000         200000*BLANKS   
ENCRYPT             R003006FKey used when no key argument passed    Ou        16        320000000000        3200000*BLANKS   
END_FILE_EDIT       A001001ACommit amendments to file definiton Y/N RA         1         10000000000         100000          
END_FILE_EDIT       R001002BReturn code (OK/ER)                     RA         2         20000000000         200000          
END_FUNCTION_EDIT   R001001AReturn Code                             RA         2         20000000000         200000          
END_PROCESS_EDIT    R001001AReturn Code                             RA         2         20000000000         200000          
END_RTV_SPLF_LIST   R001001AReturn Code                             OA         2         20000000000         200000          
EXCHANGE_ALPHA_VAR  A001001AField name to be exchanged              RA         1        100000000000        1000000          
EXCHANGE_ALPHA_VAR  A002002BAlphameric value                        RA         121474836470000000000       25600000          
EXCHANGE_NUMERIC_VARA001001AField name                              RA         1        100000000000        1000000          
EXCHANGE_NUMERIC_VARA002002BNumeric Value                           RN         121474836470000032767        3000009          
EXCHANGE_VARIABLE   A001001AField Name                              RA         1        100000000000         000000          
EXCHANGE_VARIABLE   A002002BValue                                   RX         121474836400000000000         000000          
EXECUTE_TEMPLATE    A001001AName of Application Template            RA         1        100000000000        1000000          
EXECUTE_TEMPLATE    R001002BReturn Code                             RA         2         20000000000         200000          
EXECUTE_TEMPLATE    R002003CList containing RDML code               RL        72        720000000000        7200000          
EXPONENTIAL         A001001AExponent digit portion                  RN         1        150000000009        1300000          
EXPONENTIAL         A002002BExponent decimal portion                RN         1        150000000009         500005          
EXPONENTIAL         A003003CMantissa digit portion                  RN         1        150000000009        1300000          
EXPONENTIAL         A004004DMantissa decimal portion                RN         1        150000000009         500005          
EXPONENTIAL         A005005ERound the result (Y/N)                  OA         1         10000000000         100000'N'       
EXPONENTIAL         R001006FResult digit portion                    RN         1        150000000009        1300000          
EXPONENTIAL         R002007GResult decimal portion                  ON         1        150000000009         500005          
EXPONENTIAL         R003008HReturn code (Y/N)                       OA         1         10000000000         100000          
EXPORT_OBJECTS      A001001AWorking list of objects to be exported  RL        32        320000000000         000000          
EXPORT_OBJECTS      A002002BExport directory                        RA         1       2560000000000         000000          
EXPORT_OBJECTS      A003003CExport whole partition                  OA         1         10000000000         000000'N'       
EXPORT_OBJECTS      A004004DAppend to existing files                OA         1         10000000000         000000'Y'       
EXPORT_OBJECTS      A005005EExport system definition (LX_F46/LX_F96)OA         1         10000000000         000000'Y'       
EXPORT_OBJECTS      A006006FExport to development system            OA         1         10000000000         000000'N'       
EXPORT_OBJECTS      A007008HReset build status Y/N, default = N     OA         1         10000000000         100000'N'       
EXPORT_OBJECTS      A008009IImport Library Directives               OL       195       1950000000000         000000          
EXPORT_OBJECTS      A009010JSilent Mode                             OA         1         10000000000         000000'N'       
EXPORT_OBJECTS      R001007GReturn code                             RA         2         20000000000         000000          
FETCH_IN_SPACE      A001001ASpace Object Name                       RA         1       2560000000000       25600000*BLANKS   
FETCH_IN_SPACE      A002002BKey Value 1                             Ow         121474836470000032767       25600000*BLANKS   
FETCH_IN_SPACE      A003003CKey Value 2                             Ow         121474836470000032767       25600000*BLANKS   
FETCH_IN_SPACE      A004004DKey Value 3                             Ow         121474836470000032767       25600000*BLANKS   
FETCH_IN_SPACE      A005005DKey Value 4                             Ow         121474836470000032767       25600000*BLANKS   
FETCH_IN_SPACE      A006006DKey Value 5                             Ow         121474836470000032767       25600000*BLANKS   
FETCH_IN_SPACE      A007007DKey Value 6                             Ow         121474836470000032767       25600000*BLANKS   
FETCH_IN_SPACE      A008008DKey Value 7                             Ow         121474836470000032767       25600000*BLANKS   
FETCH_IN_SPACE      A009009DKey Value 8                             Ow         121474836470000032767       25600000*BLANKS   
FETCH_IN_SPACE      A010010DKey Value 9                             Ow         121474836470000032767       25600000*BLANKS   
FETCH_IN_SPACE      A011011DKey Value 10                            Ow         121474836470000032767       25600000*BLANKS   
FETCH_IN_SPACE      A012012DKey Value 11                            Ow         121474836470000032767       25600000*BLANKS   
FETCH_IN_SPACE      A013013DKey Value 12                            Ow         121474836470000032767       25600000*BLANKS   
FETCH_IN_SPACE      A014014DKey Value 13                            Ow         121474836470000032767       25600000*BLANKS   
FETCH_IN_SPACE      A015015DKey Value 14                            Ow         121474836470000032767       25600000*BLANKS   
FETCH_IN_SPACE      A016016DKey Value 15                            Ow         121474836470000032767       25600000*BLANKS   
FETCH_IN_SPACE      A017017DKey Value 16                            Ow         121474836470000032767       25600000*BLANKS   
FETCH_IN_SPACE      A018018DKey Value 17                            Ow         121474836470000032767       25600000*BLANKS   
FETCH_IN_SPACE      A019019DKey Value 18                            Ow         121474836470000032767       25600000*BLANKS   
FETCH_IN_SPACE      A020020DKey Value 19                            Ow         121474836470000032767       25600000*BLANKS   
FETCH_IN_SPACE      R001021DReturn Code (OK or ER)                  OA         2         20000000000       25600000*BLANKS   
FETCH_IN_SPACE      R002022DReturn Cell/Column 1                    Ow         121474836470000032767       25600000*BLANKS   
FETCH_IN_SPACE      R003023DReturn Cell/Column 2                    Ow         121474836470000032767       25600000*BLANKS   
FETCH_IN_SPACE      R004024DReturn Cell/Column 3                    Ow         121474836470000032767       25600000*BLANKS   
FETCH_IN_SPACE      R005025DReturn Cell/Column 4                    Ow         121474836470000032767       25600000*BLANKS   
FETCH_IN_SPACE      R006026DReturn Cell/Column 5                    Ow         121474836470000032767       25600000*BLANKS   
FETCH_IN_SPACE      R007027DReturn Cell/Column 6                    Ow         121474836470000032767       25600000*BLANKS   
FETCH_IN_SPACE      R008028DReturn Cell/Column 7                    Ow         121474836470000032767       25600000*BLANKS   
FETCH_IN_SPACE      R009029DReturn Cell/Column 8                    Ow         121474836470000032767       25600000*BLANKS   
FETCH_IN_SPACE      R010030DReturn Cell/Column 9                    Ow         121474836470000032767       25600000*BLANKS   
FETCH_IN_SPACE      R011031DReturn Cell/Column 10                   Ow         121474836470000032767       25600000*BLANKS   
FETCH_IN_SPACE      R012032DReturn Cell/Column 11                   Ow         121474836470000032767       25600000*BLANKS   
FETCH_IN_SPACE      R013033DReturn Cell/Column 12                   Ow         121474836470000032767       25600000*BLANKS   
FETCH_IN_SPACE      R014034DReturn Cell/Column 13                   Ow         121474836470000032767       25600000*BLANKS   
FETCH_IN_SPACE      R015035DReturn Cell/Column 14                   Ow         121474836470000032767       25600000*BLANKS   
FETCH_IN_SPACE      R016036DReturn Cell/Column 15                   Ow         121474836470000032767       25600000*BLANKS   
FETCH_IN_SPACE      R017037DReturn Cell/Column 16                   Ow         121474836470000032767       25600000*BLANKS   
FETCH_IN_SPACE      R018038DReturn Cell/Column 17                   Ow         121474836470000032767       25600000*BLANKS   
FETCH_IN_SPACE      R019039DReturn Cell/Column 18                   Ow         121474836470000032767       25600000*BLANKS   
FETCH_IN_SPACE      R020040DReturn Cell/Column 19                   Ow         121474836470000032767       25600000*BLANKS   
FILE_FIELD          A001001AField name                              RA         1        100000000000        1000000          
FILE_FIELD          A002002BOptional sequence number                ON         1         50000000000         5000000         
FILE_FIELD          R001003CReturn code (OK/ER)                     RA         2         20000000000         200000          
FILE_FIELD_VIRTUAL  A001001AVirtual Field Name                      RA         1        100000000000        1000000          
FILE_FIELD_VIRTUAL  A002002BOptional Sequence Number                ON         1         50000000000         5000000         
FILE_FIELD_VIRTUAL  R001003CReturn Code (OK/ER)                     RA         2         20000000000         200000          
FILLSTRING          A001001AString to be repeated                   RA         121474836470000000000       25600000          
FILLSTRING          R001002BReturned string                         RA         121474836470000000000       25600000          
FINDDATE            A001001AGiven date to be counted from           RN         1         80000000000         800000          
FINDDATE            A002002BNo. of days(+/-) after/before given dateRN         1        150000000000        1500000          
FINDDATE            A003003CDate format of given date               OA         1         10000000000         100000'A'       
FINDDATE            A004004DDate format required for return date    OA         1         10000000000         100000'A'       
FINDDATE            R001005EReturn date                             RN         6         80000000000         800000          
FINDDATE            R002006FReturn code (Y/N)                       OA         1         10000000000         100000          
FINDDATE_ALPHA      A001001AGiven date to be counted from           RA         1        100000000000        1000000          
FINDDATE_ALPHA      A002002BNo. of days(+/-) after/before given dateRN         1        150000000000        1500000          
FINDDATE_ALPHA      A003003CDate format of given date               OA         1         10000000000         100000'A'       
FINDDATE_ALPHA      A004004DDate format required for return date    OA         1         10000000000         100000'A'       
FINDDATE_ALPHA      R001005EReturn date                             RA         1        100000000000        1000000          
FINDDATE_ALPHA      R002006FReturn code (Y/N)                       OA         1         10000000000         100000          
FORMAT_STRING       A001001ASupplied string to be formatted         RA         121474836470000000000       25600000          
FORMAT_STRING       A002004DDBCS capable for iSeries                OA         3         30000000000         300000*BLANK    
FORMAT_STRING       R001002BReturned string                         RA         121474836470000000000       25600000          
FORMAT_STRING       R002003CReturn code (OK,ER)                     OA         2         20000000000         200000*BLANKS   
FP_GET              A001001AFP_Rxxxx Object Name                    RA         1        100000000000        1000000          
FP_GET              A002002BProperty Name                           RA         1        320000000000        3200000          
FP_GET              A003003CDefault value to use if not found       OA         1       2560000000000       25600000*BLANKS   
FP_GET              A004004DInstance Number (Default 1)             ON         1         70000000000         7000001         
FP_GET              A005005EOccurrence Number (Default 1)           ON         1         70000000000         7000001         
FP_GET              R001006FReturned value                          OA         1       2560000000000       25600000          
FP_GETNUM           A001001AFP_Rxxxx Object Name                    RA         1        100000000000        1000000          
FP_GETNUM           A002002BProperty Name                           RA         1        320000000000        3200000          
FP_GETNUM           A003003CDefault value to use if not found       ON         1        300000000009        30000090         
FP_GETNUM           A004004DInstance Number (Default 1)             ON         1         70000000000         7000001         
FP_GETNUM           A005005EOccurrence Number (Default 1)           ON         1         70000000000         7000001         
FP_GETNUM           R001006FReturned value                          ON         1        300000000009        3000009          
FP_SET              A001001AFP_Rxxxx Object Name                    RA         1        100000000000        1000000          
FP_SET              A002002BProperty Name                           RA         1        320000000000        3200000          
FP_SET              A003003CProperty Value                          RA         1       2560000000000       25600000          
FP_SET              A004004DInstance Number (Default 1)             ON         1         70000000000         7000001         
FP_SET              A005005EOccurrence Number (Default 1)           ON         1         70000000000         7000001         
FP_SETNUM           A001001AFP_Rxxxx Object Name                    RA         1        100000000000        1000000          
FP_SETNUM           A002002BProperty Name                           RA         1        320000000000        3200000          
FP_SETNUM           A003003CProperty Value                          RN         1        300000000009        3000009          
FP_SETNUM           A004004DInstance Number (Default 1)             ON         1         70000000000         7000001         
FP_SETNUM           A005005EOccurrence Number (Default 1)           ON         1         70000000000         7000001         
FPX_GET             A001001AFP_Rxxxx Object Name                    RA         1        100000000000        1000000*BLANKS   
FPX_GET             A002002BProperty Name                           RA         1        320000000000        3200000*BLANKS   
FPX_GET             A003003CDefault value to use if not found       OA         1       2560000000000       25600000*BLANKS   
FPX_GET             A004004DInstance Number (Default 1)             ON         1         70000000000         700000+1        
FPX_GET             A005005EOccurrence Number (Default 1)           ON         1         70000000000         700000+1        
FPX_GET             R001006FReturned value                          OA         1       2560000000000       25600000*BLANKS   
FPX_GETNUM          A001001AFP_Rxxxx Object Name                    RA         1        100000000000        1000000*BLANKS   
FPX_GETNUM          A002002BProperty Name                           RA         1        320000000000        3200000*BLANKS   
FPX_GETNUM          A003003CDefault value to use if not found       ON         1        300000000009        3000009+0        
FPX_GETNUM          A004004DInstance Number (Default 1)             ON         1         70000000000         700000+1        
FPX_GETNUM          A005005EOccurrence Number (Default 1)           ON         1         70000000000         700000+1        
FPX_GETNUM          R001006FReturned value                          ON         1        300000000009        3000009+0.0      
FPX_SET             A001001AFP_Rxxxx Object Name                    RA         1        100000000000        1000000*BLANKS   
FPX_SET             A002002BProperty Name                           RA         1        320000000000        3200000*BLANKS   
FPX_SET             A003003CProperty Value                          RA         1       2560000000000       25600000*BLANKS   
FPX_SET             A004004DInstance Number (Default 1)             ON         1         70000000000         700000+1        
FPX_SET             A005005EOccurrence Number (Default 1)           ON         1         70000000000         700000+1        
FPX_SETNUM          A001001AFP_Rxxxx Object Name                    RA         1        100000000000        1000000*BLANKS   
FPX_SETNUM          A002002BProperty Name                           RA         1        320000000000        3200000*BLANKS   
FPX_SETNUM          A003003CProperty Value                          RN         1        300000000009        30000090         
FPX_SETNUM          A004004DInstance Number (Default 1)             ON         1         70000000000         700000+1        
FPX_SETNUM          A005005EOccurrence Number (Default 1)           ON         1         70000000000         700000+1        
GET_AUTHORITIES     A001001AObject Name                             OA         1        100000000000        1000000*BLANK    
GET_AUTHORITIES     A002002BObject Extension                        OA         1        100000000000        1000000*BLANK    
GET_AUTHORITIES     A003003CObject Type                             OA         2         20000000000         200000*BLANK    
GET_AUTHORITIES     A004004DUser Name                               OA         1        100000000000        1000000*BLANK    
GET_AUTHORITIES     R001005EReturn Code                             RA         2         20000000000         200000          
GET_AUTHORITIES     R002006FWorking List of Authorities             RL        70        700000000000        7000000          
GET_BIF_LIST        A001001ASearch builtin function name            RA         1        200000000000         000000          
GET_BIF_LIST        R001002BWorking list of BIF details             RL        64        640000000000         000000          
GET_BIF_LIST        R002003CLast builtin in returned list           RA         1        200000000000         000000          
GET_BIF_LIST        R003004DReturn code                             RA         2         20000000000         000000          
GET_BUILD_STATUS    A001001AObject name                             RA         1        100000000000        1000000*BLANK    
GET_BUILD_STATUS    A002002BObject extension                        RA         1        100000000000        1000000*BLANK    
GET_BUILD_STATUS    A003003CObject type (FILE, FUNCTION or PROCESS) RA         4         80000000000         800000*BLANK    
GET_BUILD_STATUS    R001004DCreation date (YYMMDD)                  RN         6         60000000000         600000*ZERO     
GET_BUILD_STATUS    R002005ECreation time (HHMMSS)                  RN         6         60000000000         600000*ZERO     
GET_BUILD_STATUS    R003006FCreation Flags                          RA         2         20000000000         200000*BLANKS   
GET_BUILD_STATUS    R004007GReturn code (OK,ER or NR)               RA         2         20000000000         200000*BLANKS   
GET_CHAR_AREA       A001001AData area name                          RA         1        100000000000        1000000          
GET_CHAR_AREA       A002002BLibrary name                            OA         1        100000000000        1000000'*LIBL'   
GET_CHAR_AREA       A003003CLock data area                          OA         1         10000000000         100000'N'       
GET_CHAR_AREA       A004004DStart position to retrieve from         ON         1         50000000000         5000000         
GET_CHAR_AREA       A005005ELength to retrieve from                 ON         1         40000000000         4000000         
GET_CHAR_AREA       R001006FReturned data area character value      OA         1      20000000000000       25600000          
GET_COMPONENT_LIST  A001001ASearch type                             RA         3         30000000000         300000          
GET_COMPONENT_LIST  A002002BSearch component                        OA         1        100000000000        1000000*BLANKS   
GET_COMPONENT_LIST  A003003CSearch framework/group                  OA         1        200000000000        2000000*BLANKS   
GET_COMPONENT_LIST  R001004DWorking list of component details       RL        90        900000000000         000000          
GET_COMPONENT_LIST  R002005ELast component returned in list         RA         1        100000000000         000000          
GET_COMPONENT_LIST  R003006FLast framework/group in returned list   RA         1        200000000000         000000          
GET_COMPONENT_LIST  R004007GReturn code                             RA         2         20000000000         000000          
GET_COMPOSITION     A001001ALANSA object                            RA         1        200000000000         000000          
GET_COMPOSITION     A002002BObject type                             RA         2         20000000000         000000          
GET_COMPOSITION     A003005EEnvironment                             OA         1        100000000000        1000000*BLANKS   
GET_COMPOSITION     R001003CComposition list for an object          RL        27        270000000000         000000          
GET_COMPOSITION     R002004DReturn code                             RA         2         20000000000         000000          
GET_ENVIRONMENTS    R001001AWorking list containing environments    RL        76        760000000000         000000          
GET_FIELD           A001001AName of field to be retrieved           RA         1        100000000000        1000000          
GET_FIELD           A002017QName of process or *COMP (working field)OA         1        100000000000        1000000*BLANKS   
GET_FIELD           A003018RName of function/component (working fld)OA         1        100000000000        1000000*BLANKS   
GET_FIELD           R001002BReturn Code (OK/ER)                     RA         2         20000000000         200000          
GET_FIELD           R002003CField type (A/S/P)                      OA         1         10000000000         100000          
GET_FIELD           R003004DLength of field or number of digits     ON         3        150000000000        1500000          
GET_FIELD           R004005ENumber of decimal positions             ON         1        150000000000        1500000          
GET_FIELD           R005006FReference field name                    OA         1        100000000000        1000000          
GET_FIELD           R006007GField description                       OA         1        400000000000        4000000          
GET_FIELD           R007008HField label                             OA         1        150000000000        1500000          
GET_FIELD           R008009IField column headings                   OA         1        600000000000        6000000          
GET_FIELD           R009010JOutput attributes list                  OA         1        400000000000        4000000          
GET_FIELD           R010011KInput attributes list                   OA         1        400000000000        4000000          
GET_FIELD           R011012LEdit code or edit word                  OA         1        200000000000        2000000          
GET_FIELD           R012013MDefault value of field                  OA         1        200000000000        2000000          
GET_FIELD           R013014NOptional value of field                 OA         1        300000000000        3000000          
GET_FIELD           R014015OSystem flag (Y/N)                       OA         3         30000000000         300000          
GET_FIELD           R015016PKeyboard Shift                          OA         1         10000000000         100000          
GET_FIELD           R016019SComponent indicator (Y/N)               OA         1         10000000000         100000          
GET_FIELD           R017020TDefinition source (D, W)                OA         1         10000000000         100000          
GET_FIELD           R018021UPrompting process name                  OA         1        100000000000        1000000          
GET_FIELD           R019022VPrompting function name                 OA         1         70000000000         700000          
GET_FIELD           R020023WRDMLX Field (Y/N)                       OA         1         10000000000         100000          
GET_FIELD_INFO      A001001AField name                              RA         1        100000000000        1000000          
GET_FIELD_INFO      A002002BLevel of information (D or F)           RA         1         10000000000         100000          
GET_FIELD_INFO      A003003CType of field related information       RA         1        100000000000        1000000          
GET_FIELD_INFO      A004004DPhysical file name (if Level = F)       OA         1        100000000000        1000000*BLANK    
GET_FIELD_INFO      A005005EPhysical file library (if level = F)    OA         1        100000000000        1000000'*LIBL'   
GET_FIELD_INFO      R001006FReturn code (OK, OV, NR, ER)            RA         2         20000000000         200000          
GET_FIELD_INFO      R002007GHeader list of field related informationRL       100       1000000000000       10000000          
GET_FIELD_INFO      R003008HDetail list of field related informationRL       100       1000000000000       10000000          
GET_FIELD_LIST      A001001AName of field to start search after     RA         1        100000000000        1000000          
GET_FIELD_LIST      A002005EOmit components Y/N                     OA         1         10000000000         100000*BLANK    
GET_FIELD_LIST      R001002BList of fields returned to caller       RL        50        500000000000        5000000          
GET_FIELD_LIST      R002003CLast field returned in the list         OA         1        100000000000        1000000          
GET_FIELD_LIST      R003004DReturn code (OK,OV,NR,ER)               OA         2         20000000000         200000          
GET_FILE_INFO       A001001APhysical file name                      RA         1        100000000000        1000000          
GET_FILE_INFO       A002002BPhysical file library                   RA         1        100000000000        1000000          
GET_FILE_INFO       A003003CType of file related information        RA         1        100000000000        1000000          
GET_FILE_INFO       R001004DReturn code (OK, OV, NR, ER)            RA         2         20000000000         200000          
GET_FILE_INFO       R002005EHeader list of file related information RL       100       1000000000000       10000000          
GET_FILE_INFO       R003006FDetail list of file related information RL        50        500000000000        5000000          
GET_FUNCTION_ATTR   A001001AName of attribute to return             RA         1        100000000000        1000000          
GET_FUNCTION_ATTR   R001002BReturn Code                             RA         2         20000000000         200000          
GET_FUNCTION_ATTR   R002003CReturned Value of the attribute         RA         1       2560000000000       25600000          
GET_FUNCTION_INFO   A001001AProcess name                            RA         1        100000000000        1000000          
GET_FUNCTION_INFO   A002002BFunction name                           RA         1         70000000000         700000          
GET_FUNCTION_INFO   A003003CType of function related information    RA         1        100000000000        1000000          
GET_FUNCTION_INFO   R001004DReturn Code (OK, OV, NR, ER)            RA         2         20000000000         200000          
GET_FUNCTION_INFO   R002005EList of function related information    RL       132       1320000000000       13200000          
GET_FUNCTION_LIST   A001001AProcess name                            RA         1        100000000000        1000000          
GET_FUNCTION_LIST   R001002BReturned list of functions              RL        60        600000000000        6000000          
GET_FUNCTION_LIST   R002003CReturn Code (OK,OV,NR,ER)               OA         2         20000000000         200000          
GET_FUNCTION_RDML   R001001AReturn Code                             RA         2         20000000000         200000          
GET_FUNCTION_RDML   R002002BName of working list to store RDML      RL        72        720000000000        7200000          
GET_HELP            A001001AObject name - field, function or processRA         1        100000000000        1000000          
GET_HELP            A002002BObject extension - (process name)       RA         1        100000000000        1000000          
GET_HELP            A003003CObject type - "DF", "PF" or "PD"        RA         2         20000000000         200000          
GET_HELP            R001004DList of Help Text for specified object  RL         1        770000000000        7700000          
GET_HELP            R002005EHelp text return code "OK", "OV" or "ER"RA         2         20000000000         200000          
GET_ILENTRY_LIST    A001001AImpact list name                        RA         1         70000000000         700000          
GET_ILENTRY_LIST    A002002BEntry to start search after             RA         1        220000000000        2200000          
GET_ILENTRY_LIST    R001003CList of Entries returned to caller      RL        70        700000000000        7000000          
GET_ILENTRY_LIST    R002004DLast Entry in the list                  OA         1        220000000000        2200000          
GET_ILENTRY_LIST    R003005EReturn code (OK, OV, NR)                OA         2         20000000000         200000          
GET_KEYWORD_STRING  A001001AList containing ESF command string      RL         1       1000000000000       10000000          
GET_KEYWORD_STRING  A002002BLength of working list string 'lines'   RN         1         30000000000         300000          
GET_KEYWORD_STRING  A003003CTag name (command name) of ESF statementRA         1        100000000000        1000000          
GET_KEYWORD_STRING  A004004DList of valid keywords                  RL        16        160000000000        1600000          
GET_KEYWORD_STRING  R001005EList of keywords found                  RL        25        250000000000        2500000          
GET_KEYWORD_STRING  R002006FList of values found                    RL       131       1310000000000       13100000          
GET_KEYWORD_STRING  R003007GLeftovers of ESF command string         RL        22        220000000000        2200000          
GET_LICENSE_STATUS  A001001ALicense status as at Date (YYYYMMDD)    ON         8         80000000000         800000*ZERO     
GET_LICENSE_STATUS  A002002BStatus of this License code requested   OA         3         30000000000         300000*BLANKS   
GET_LICENSE_STATUS  A003005EVersion of Licensing                    OA         1         10000000000         100000'1'       
GET_LICENSE_STATUS  A004006FLong License Code to check              OA        24        240000000000        2400000*BLANK    
GET_LICENSE_STATUS  R001003CList of License with status             RL         4         40000000000         000000          
GET_LICENSE_STATUS  R002004DReturn code (OK,ER,OV)                  OA         2         20000000000         200000*BLANKS   
GET_LOGICAL_LIST    A001001APhysical file name                      RA         1        100000000000        1000000          
GET_LOGICAL_LIST    A002002BLibrary of physical file                RA         1        100000000000        1000000          
GET_LOGICAL_LIST    A003005EInclude VL Index Only logicals Y/N      OA         1         10000000000         100000'N'       
GET_LOGICAL_LIST    R001003CList of logicals                        RL        70        700000000000        7000000          
GET_LOGICAL_LIST    R002004DReturn code (OK, OV, NR, ER)            OA         2         20000000000         200000          
GET_MESSAGE         A001001ARemove message from program queue       OA         1         10000000000         100000'Y'       
GET_MESSAGE         R001002BMessage return code                     RA         2         20000000000         200000          
GET_MESSAGE         R002003CMessage text                            OA         1       1320000000000       13200000          
GET_MESSAGE         R003004DMessage number                          OA         1         70000000000         700000          
GET_MESSAGE         R004005EMessage file name                       OA         1        100000000000        1000000          
GET_MESSAGE         R005006FMessage file library                    OA         1        100000000000        1000000          
GET_MESSAGE         R006007GMessage substitution variable           OA         1       1320000000000       13200000          
GET_MESSAGE_DESC    A001001AMessage number                          RA         1         70000000000         700000          
GET_MESSAGE_DESC    A002002BMessage file name                       RA         1        100000000000        1000000          
GET_MESSAGE_DESC    A003003CMessage file library                    OA         1        100000000000        1000000'*LIBL'   
GET_MESSAGE_DESC    A004004DSubstitution variable                   OA         1       1320000000000       13200000*BLANKS   
GET_MESSAGE_DESC    R001005EMessage text                            RA         1       1320000000000       13200000          
GET_MESSAGE_LIST    A001001ASearch message file                     RA         1        100000000000        1000000          
GET_MESSAGE_LIST    A002002BLanguage code                           OA         1         40000000000         400000'*ALL'    
GET_MESSAGE_LIST    A003003CMessage identifier                      OA         1         70000000000         700000*BLANKS   
GET_MESSAGE_LIST    R001004DWorking list of message details         RL       153       1530000000000         000000          
GET_MESSAGE_LIST    R002005ELast language in returned list          RA         1         40000000000         000000          
GET_MESSAGE_LIST    R003006FLast message file in returned list      RA         1        100000000000         000000          
GET_MESSAGE_LIST    R004007GLast message identifier in returned listRA         1         70000000000         000000          
GET_MESSAGE_LIST    R005008HReturn code                             RA         2         20000000000         000000          
GET_ML_VARIABLE     A001001AMultilingual variable name              RA         5        200000000000        2000000          
GET_ML_VARIABLE     R001002BReturn code (OK, ER)                    RA         2         20000000000         200000          
GET_ML_VARIABLE     R002003CLength / Total digits                   RN         3         30000000000         300000          
GET_ML_VARIABLE     R003004DWorking list to contain ML information  RL        82        820000000000        8200000          
GET_MULTVAR_LIST    A001001AName of *MTXT variable to position from RA         1        200000000000        2000000          
GET_MULTVAR_LIST    R001002BList of returned *MTXT variables        RL       108       1080000000000       10800000          
GET_MULTVAR_LIST    R002003CLast *MTXT variable in returned list    OA         1        200000000000        2000000          
GET_MULTVAR_LIST    R003004DReturn code (OK, OV, NR, ER)            OA         2         20000000000         200000          
GET_NUM_AREA        A001001AData area name                          RA         1        100000000000        1000000          
GET_NUM_AREA        A002002BLibrary name                            OA         1        100000000000        1000000'*LIBL'   
GET_NUM_AREA        A003003CLock data area                          OA         1         10000000000         100000'N'       
GET_NUM_AREA        R001004DReturned data area numeric value        ON         1        150000000000        1500000          
GET_PHYSICAL_LIST   A001001AStart beyond file with this name        RA         1        100000000000        1000000          
GET_PHYSICAL_LIST   R001002BList of physical files                  RL        70        700000000000        7000000          
GET_PHYSICAL_LIST   R002003CLast file in list                       OA         1        100000000000        1000000          
GET_PHYSICAL_LIST   R003004DReturn Code (OK, OV, NR)                OA         2         20000000000         200000          
GET_PROCESS_ATTR    A001001AProcess Attribute Name                  RA         1        500000000000        5000000          
GET_PROCESS_ATTR    R001002BReturn Code                             RA         2         20000000000         200000          
GET_PROCESS_ATTR    R002003CReturned Value                          RA         1       2560000000000       25600000          
GET_PROCESS_INFO    A001001AProcess name                            RA         1        100000000000        1000000          
GET_PROCESS_INFO    A002002BType of process related information     RA         1        100000000000        1000000          
GET_PROCESS_INFO    R001003CReturn Code (OK, OV, NR, ER)            RA         2         20000000000         200000          
