DEVBLOBS     DEVMODLIB FFD0000000001SURNAME   00001AC        2000000                
DEVBLOBS     DEVMODLIB FFD0000000002SNDBLOB   000004C        -100000              S 
DEVCRASHFILE DEVMODLIB FFD0000000001TALDEPTCO 00001AC         300000                
DEVCRASHFILE DEVMODLIB FFD0000000002TALDEPTDE 00000AC        2000000                
DEVCRASHFILE DEVMODLIB FFD0000000003TALTOTALS 00000PC        1100002                
DEVDC@F03    DC@DTALIB FFD0000000001F03FLD    00000AC        1000000    
DEVDC@F03    DC@DTALIB FFD0000000002F03DES    00000AC        4000000    
DEVDC@F03    DC@DTALIB FFD0000000003F03TYP    00000AC         100000    
DEVDC@F03    DC@DTALIB FFD0000000004F03LEN    00000PD         500000    
DEVDC@F03    DC@DTALIB FFD0000000005F03DEC    00000PD         200000    
DEVDC@F03    DC@DTALIB FFD0000000006F03LBL    00000AC        1500000    
DEVDC@F03    DC@DTALIB FFD0000000007F03CH1    00000AC        2000000    
DEVDC@F03    DC@DTALIB FFD0000000008F03CH2    00000AC        2000000    
DEVDC@F03    DC@DTALIB FFD0000000009F03CH3    00000AC        2000000    
DEVDC@F03    DC@DTALIB FFD0000000010F03REF    00000AC        1000000    
DEVDC@F03    DC@DTALIB FFD0000000011F03IAT    00000AC        4000000    
DEVDC@F03    DC@DTALIB FFD0000000012F03OAT    00000AC        4000000    
DEVDC@F03    DC@DTALIB FFD0000000013F03EDC    00000AC         100000    
DEVDC@F03    DC@DTALIB FFD0000000014F03EDW    00000AC        2400000    
DEVDC@F03    DC@DTALIB FFD0000000015F03DFT    00000AC        2000000    
DEVDC@F03    DC@DTALIB FFD0000000016F03HLP    00000AC        1000000    
DEVDC@F03    DC@DTALIB FFD0000000017F03ALS    00000AC        3000000    
DEVDC@F03    DC@DTALIB FFD0000000018F03UDT    00000AC       20000000    
DEVDC@F03    DC@DTALIB FFD0000000019F03P#I    00000AC         300000    
DEVDC@F03    DC@DTALIB VFD0000000001F03LN2    00000PD         500000    
DEVDC@F03    DC@DTALIB VFD0000000002F03DC2    00000PD         100000    
DEVDC@F12    DC@DTALIB FFD0000000001F12PFL    00000AC        1000000    
DEVDC@F12    DC@DTALIB FFD0000000002F12PLB    00000AC        1000000    
DEVDC@F12    DC@DTALIB FFD0000000003F12AVN    00000PD         700000    
DEVDC@F12    DC@DTALIB FFD0000000004F12ATD    00000PD        1200000    
DEVDC@F12    DC@DTALIB FFD0000000005F12AUS    00000PD         700000    
DEVDC@F12    DC@DTALIB FFD0000000006F12UVM    00000PD         700000    
DEVDC@F12    DC@DTALIB FFD0000000007F12P#I    00000AC         300000    
DEVDC@F14    DC@DTALIB FFD0000000001F14PTR    00000AC        1000000    
DEVDC@F14    DC@DTALIB FFD0000000002F14SEQ    00000PD         700000    
DEVDC@F14    DC@DTALIB FFD0000000003F14TYP    00000AC         300000    
DEVDC@F14    DC@DTALIB FFD0000000004F14VAL    00000AC        2000000    
DEVDC@F14    DC@DTALIB FFD0000000005F14AKI    00000AC        2000000    
DEVDC@F14    DC@DTALIB FFD0000000006F14PFL    00000AC        1000000    
DEVDC@F14    DC@DTALIB FFD0000000007F14PLB    00000AC        1000000    
DEVDC@F14    DC@DTALIB FFD0000000008F14VER    00000PD         700000    
DEVDC@F14    DC@DTALIB FFD0000000009F14P#I    00000AC         300000    
DEVDC@F15    DC@DTALIB FFD0000000001F15PFL    00000AC        1000000    
DEVDC@F15    DC@DTALIB FFD0000000002F15PLB    00000AC        1000000    
DEVDC@F15    DC@DTALIB FFD0000000003F15VER    00000PD         700000    
DEVDC@F15    DC@DTALIB FFD0000000004F15VTP    00000AC         100000    
DEVDC@F15    DC@DTALIB FFD0000000005F15LGL    00000AC        1000000    
DEVDC@F15    DC@DTALIB FFD0000000006F15DES    00000AC        4000000    
DEVDC@F15    DC@DTALIB FFD0000000007F15APM    00000AC         100000    
DEVDC@F15    DC@DTALIB FFD0000000008F15PTR    00000AC        1000000    
DEVDC@F15    DC@DTALIB FFD0000000009F15AP1    00000AC       20000000    
DEVDC@F15    DC@DTALIB FFD0000000010F15AP2    00000AC       20000000    
DEVDC@F15    DC@DTALIB FFD0000000011F15SP1    00000AC         100000    
DEVDC@F15    DC@DTALIB FFD0000000012F15SP2    00000AC         500000    
DEVDC@F15    DC@DTALIB FFD0000000013F15SP3    00000AC        1000000    
DEVDC@F15    DC@DTALIB FFD0000000014F15SP4    00000AC        1000000    
DEVDC@F15    DC@DTALIB FFD0000000015F15SP5    00000AC        2000000    
DEVDC@F15    DC@DTALIB FFD0000000016F15SP6    00000PD         700000    
DEVDC@F15    DC@DTALIB FFD0000000017F15SP7    00000PD         700000    
DEVDC@F15    DC@DTALIB FFD0000000018F15P#I    00000AC         300000    
DEVDC@F18    DC@DTALIB FFD0000000001F18PFL    00000AC        1000000    
DEVDC@F18    DC@DTALIB FFD0000000002F18PLB    00000AC        1000000    
DEVDC@F18    DC@DTALIB FFD0000000003F18VER    00000PD         700000    
DEVDC@F18    DC@DTALIB FFD0000000004F18VTP    00000AC         100000    
DEVDC@F18    DC@DTALIB FFD0000000005F18ARN    00000AC        1000000    
DEVDC@F18    DC@DTALIB FFD0000000006F18DES    00000AC        4000000    
DEVDC@F18    DC@DTALIB FFD0000000007F18ARF    00000AC        1000000    
DEVDC@F18    DC@DTALIB FFD0000000008F18ARL    00000AC        1000000    
DEVDC@F18    DC@DTALIB FFD0000000009F18MAX    00000PD         700000    
DEVDC@F18    DC@DTALIB FFD0000000010F18NRA    00000AC        1000000    
DEVDC@F18    DC@DTALIB FFD0000000011F18PTR    00000AC        1000000    
DEVDC@F18    DC@DTALIB FFD0000000012F18P#I    00000AC         300000    
DEVDC@F23    DC@MODLIB FFD0000000001F23P#I    000001A         000300000 
DEVDC@F23    DC@MODLIB FFD0000000002F23MOD    000002A         001000000 
DEVDC@F23    DC@MODLIB FFD0000000003F23FMT    000003A         000700000 
DEVDC@F23    DC@MODLIB FFD0000000004F23TYP    000000A         000100000 
DEVDC@F23    DC@MODLIB FFD0000000005F23STY    000000A         000100000 
DEVDC@F23    DC@MODLIB FFD0000000006F23DNF    000000A         000700000 
DEVDC@F23    DC@MODLIB FFD0000000007F23ANF    000000A         004000000 
DEVDC@F23    DC@MODLIB FFD0000000008F23FID    000000A         000600000 
DEVDC@F23    DC@MODLIB FFD0000000009F23APM    000000A         000100000 
DEVDC@F23    DC@MODLIB FFD0000000010F23SP1    000000A         001000000 
DEVDC@F23    DC@MODLIB FFD0000000011F23SET    000000P         000300000 
DEVDC@F23    DC@MODLIB FFD0000000012F23CRL    000000A         000300000 
DEVDC@F23    DC@MODLIB FFD0000000013F23CPC    000000A         000200000 
DEVDC@F23    DC@MODLIB FFD0000000014F23MSQ    000000A         000500000 
DEVDC@F23    DC@MODLIB FFD0000000015F23SP2    000000A         000300000 
DEVDC@F26    DC@MODLIB FFD0000000001F26VAR    000001A         002000000 
DEVDC@F26    DC@MODLIB FFD0000000002F26DES    000000A         004000000 
DEVDC@F26    DC@MODLIB FFD0000000003F26TYP    000000A         000100000 
DEVDC@F26    DC@MODLIB FFD0000000004F26LEN    000000P         000300000 
DEVDC@F26    DC@MODLIB FFD0000000005F26DEC    000000P         000100000 
DEVDC@F26    DC@MODLIB FFD0000000006F26PGM    000000A         001000000 
DEVDC@F26    DC@MODLIB FFD0000000007F26DYN    000000A         000100000 
DEVDC@F27    DC@DTALIB FFD0000000001F27PFL    00000AC        1000000    
DEVDC@F27    DC@DTALIB FFD0000000002F27PLB    00000AC        1000000    
DEVDC@F27    DC@DTALIB FFD0000000003F27VER    00000PD         700000    
DEVDC@F27    DC@DTALIB FFD0000000004F27VTP    00000AC         100000    
DEVDC@F27    DC@DTALIB FFD0000000005F27DES    00000AC        4000000    
DEVDC@F27    DC@DTALIB FFD0000000006F27PTR    00000AC        1000000    
DEVDC@F27    DC@DTALIB FFD0000000007F27UUS    00000AC        1000000    
DEVDC@F27    DC@DTALIB FFD0000000008F27UTD    00000PD        1200000    
DEVDC@F27    DC@DTALIB FFD0000000009F27EXF    00000AC         100000    
DEVDC@F27    DC@DTALIB FFD0000000010F27AP1    00000AC       20000000    
DEVDC@F27    DC@DTALIB FFD0000000011F27AP2    00000AC       20000000    
DEVDC@F27    DC@DTALIB FFD0000000012F27SP1    00000AC         100000    
DEVDC@F27    DC@DTALIB FFD0000000013F27SP2    00000AC         500000    
DEVDC@F27    DC@DTALIB FFD0000000014F27SP3    00000AC        1000000    
DEVDC@F27    DC@DTALIB FFD0000000015F27SP4    00000AC        1000000    
DEVDC@F27    DC@DTALIB FFD0000000016F27SP5    00000AC        2000000    
DEVDC@F27    DC@DTALIB FFD0000000017F27SP6    00000PD         700000    
DEVDC@F27    DC@DTALIB FFD0000000018F27SP7    00000PD         700000    
DEVDC@F27    DC@DTALIB FFD0000000019F27P#I    00000AC         300000    
DEVDC@F60    DC@MODLIB FFD0000000001F60P#I    000001A         000300000 
DEVDC@F60    DC@MODLIB FFD0000000002F60PLN    000002A         000400000 
DEVDC@F60    DC@MODLIB FFD0000000003F60PLD    000000A         002000000 
DEVDC@F60    DC@MODLIB FFD0000000004F60DBC    000000A         000100000 
DEVDC@F60    DC@MODLIB FFD0000000005F60RLT    000000A         000100000 
DEVDC@F60    DC@MODLIB FFD0000000006F60P#D    000000A         004000000 
DEVDC@F60    DC@MODLIB FFD0000000007F60MSG    000000A         000000000 
DEVDC@F60    DC@MODLIB FFD0000000008F60CHR    000000A         002000000 
DEVDC@W06    DC@MODLIB FFD0000000001W06NAM    000001A         002000000 
DEVDC@W06    DC@MODLIB FFD0000000002W06TYP    000000A         000100000 
DEVDC@W06    DC@MODLIB FFD0000000003W06VAL    000000A         005500000 
DEVDC@W09    DC@MODLIB FFD0000000001W09P#I    000001A         000300000 
DEVDC@W09    DC@MODLIB FFD0000000002W09MOD    000002A         001000000 
DEVDC@W09    DC@MODLIB FFD0000000003W09SP1    000000A         000000000 
DEVDC@W10    DC@MODLIB FFD0000000001W10P#I    000001A         000300000 
DEVDC@W10    DC@MODLIB FFD0000000002W10CMP    000002A         002000000 
DEVDC@W10    DC@MODLIB FFD0000000003W10DES    000000A         004000000 
DEVDC@W10    DC@MODLIB FFD0000000004W10SET    000000P         000700000 
DEVDC@W10    DC@MODLIB FFD0000000005W10SP1    000000A         005000000 
DEVDC@W11    DC@MODLIB FFD0000000001W11P#I    000001A         000300000 
DEVDC@W11    DC@MODLIB FFD0000000002W11CMP    000002A         002000000 
DEVDC@W11    DC@MODLIB FFD0000000003W11SET    000003P         000700000 
DEVDC@W11    DC@MODLIB FFD0000000004W11IMG    000000A         002000000 
DEVDC@W11    DC@MODLIB FFD0000000005W11DES    000000A         004000000 
DEVDC@W11    DC@MODLIB FFD0000000006W11URL    000000A         005500000 
DEVDC@W11    DC@MODLIB FFD0000000007W11SP1    000000A         000000000 
DEVDC@W11    DC@MODLIB FFD0000000008W11CLK    000000P         000700000 
DEVDC@W12    DC@MODLIB FFD0000000001W12PRT    000000P         000500000 
DEVDC@W12    DC@MODLIB FFD0000000002W12LIB    000000A         001000000 
DEVDC@W12    DC@MODLIB FFD0000000003W12P#I    000000A         000300000 
DEVDC@W12    DC@MODLIB FFD0000000004W12RMT    000000A         000100000 
DEVDC@W12    DC@MODLIB FFD0000000005W12SYM    000000A         000800000 
DEVDC@W12    DC@MODLIB FFD0000000006W12COM    000000A         000100000 
DEVDC@W12    DC@MODLIB FFD0000000007W12USR    000000A         025600000 
DEVDC@W12    DC@MODLIB FFD0000000008W12US1    000000A         025600000 
DEVDC@W12    DC@MODLIB FFD0000000009W12US2    000000A         025600000 
DEVDC@W12    DC@MODLIB FFD0000000010W12US3    000000A         025600000 
DEVDC@W12    DC@MODLIB FFD0000000011W12HLD    000000A         000100000 
DEVDC@W12    DC@MODLIB FFD0000000012W12MSG    000000A         025600000 
DEVDC@W12    DC@MODLIB FFD0000000013W12SP1    000000A         005000000 
DEVDC@W12    DC@MODLIB FFD0000000014W12SNM    000000A         005000000 
DEVDC@W12    DC@MODLIB FFD0000000015W12EID    000000A         001000000 
DEVDC@W12    DC@MODLIB FFD0000000016W12APP    000000A         001000000 
DEVDC@W12    DC@MODLIB FFD0000000017W12DTV    000000P         000500000 
DEVDC@W14    DC@MODLIB FFD0000000001W14P#I    000001A         000300000 
DEVDC@W14    DC@MODLIB FFD0000000002W14PLN    000002A         000400000 
DEVDC@W14    DC@MODLIB FFD0000000003W14PRO    000003A         001000000 
DEVDC@W14    DC@MODLIB FFD0000000004W14FUN    000004A         000700000 
DEVDC@W14    DC@MODLIB FFD0000000005W14KWD    000005A         000800000 
DEVDC@W14    DC@MODLIB FFD0000000006W14DES    000000A         002000000 
DEVDC@W14    DC@MODLIB FFD0000000007W14LPR    000000A         001000000 
DEVDC@W14    DC@MODLIB FFD0000000008W14LFN    000000A         000700000 
DEVDC@X01    DC@MODLIB FFD0000000001X01P#I    000001A         000300000 
DEVDC@X01    DC@MODLIB FFD0000000002X01PEN    000002A         000300000 
DEVDC@X01    DC@MODLIB FFD0000000003X01SEN    000003A         000500000 
DEVDC@X01    DC@MODLIB FFD0000000004X01PAG    000004A         002000000 
DEVDC@X01    DC@MODLIB FFD0000000005X01DES    000000A         004000000 
DEVDC@X01    DC@MODLIB FFD0000000006X01SP1    000000A         002000000 
DEVDC@X02    DC@MODLIB FFD0000000001X02P#I    000001A         000300000 
DEVDC@X02    DC@MODLIB FFD0000000002X02PEN    000002A         000300000 
DEVDC@X02    DC@MODLIB FFD0000000003X02SEN    000003A         000500000 
DEVDC@X02    DC@MODLIB FFD0000000004X02PLN    000004A         000400000 
DEVDC@X02    DC@MODLIB FFD0000000005X02PAG    000005A         002000000 
DEVDC@X02    DC@MODLIB FFD0000000006X02SET    000006P         000700000 
DEVDC@X02    DC@MODLIB FFD0000000007X02SEQ    000007P         000700000 
DEVDC@X02    DC@MODLIB FFD0000000008X02TXT    000000A         005500000 
DEVDC@X02    DC@MODLIB FFD0000000009X02SP1    000000A         001000000 
DEVDC@X03    DC@MODLIB FFD0000000001X03P#I    000001A         000300000 
DEVDC@X03    DC@MODLIB FFD0000000002X03PEN    000002A         000300000 
DEVDC@X03    DC@MODLIB FFD0000000003X03CMP    000003A         002000000 
DEVDC@X03    DC@MODLIB FFD0000000004X03IOV    000004A         000100000 
DEVDC@X03    DC@MODLIB FFD0000000005X03SEN    000005A         000500000 
DEVDC@X03    DC@MODLIB FFD0000000006X03TYP    000000A         001000000 
DEVDC@X03    DC@MODLIB FFD0000000007X03DES    000000A         004000000 
DEVDC@X03    DC@MODLIB FFD0000000008X03MOD    000000A         001000000 
DEVDC@X03    DC@MODLIB FFD0000000009X03FMT    000000A         000700000 
DEVDC@X03    DC@MODLIB FFD0000000010X03PAG    000000A         002000000 
DEVDC@X03    DC@MODLIB FFD0000000011X03TXT    000000A         005500000 
DEVDC@X03    DC@MODLIB FFD0000000012X03SP1    000000A         000000000 
DEVDC@XAA    DC@MODLIB FFD0000000001XAAP#I    000000A         000300000 
DEVDC@XAA    DC@MODLIB FFD0000000002XAASEN    000000A         000500000 
DEVDC@XAA    DC@MODLIB FFD0000000003XAADES    000000A         004000000 
DEVDC@XAA    DC@MODLIB FFD0000000004XAASP1    000000A         002000000 
DEVDC@XAP    DC@MODLIB FFD0000000001XAPP#I    000000A         000300000 
DEVDC@XAP    DC@MODLIB FFD0000000002XAPSEN    000000A         000500000 
DEVDC@XAP    DC@MODLIB FFD0000000003XAPIDN    000000P         000900000 
DEVDC@XAP    DC@MODLIB FFD0000000004XAPVAL    000000A         005000000 
DEVDC@XAP    DC@MODLIB FFD0000000005XAPSP1    000000A         002000000 
DEVDC@XPR    DC@MODLIB FFD0000000001XPRP#I    000000A         000300000 
DEVDC@XPR    DC@MODLIB FFD0000000002XPRIDN    000000P         000900000 
DEVDC@XPR    DC@MODLIB FFD0000000003XPRLBL    000000A         002000000 
DEVDC@XPR    DC@MODLIB FFD0000000004XPRDES    000000A         004000000 
DEVDC@XPR    DC@MODLIB FFD0000000005XPROPT    000000A         000100000 
DEVDC@XPR    DC@MODLIB FFD0000000006XPRRST    000000A         000100000 
DEVDC@XPR    DC@MODLIB FFD0000000007XPRLEN    000000P         000300000 
DEVDC@XPR    DC@MODLIB FFD0000000008XPRSP1    000000A         002000000 
DEVDC@XPV    DC@MODLIB FFD0000000001XPVP#I    000000A         000300000 
DEVDC@XPV    DC@MODLIB FFD0000000002XPVIDN    000000P         000900000 
DEVDC@XPV    DC@MODLIB FFD0000000003XPVSEQ    000000P         000500000 
DEVDC@XPV    DC@MODLIB FFD0000000004XPVVAL    000000A         005000000 
DEVDC@XPV    DC@MODLIB FFD0000000005XPVSP1    000000A         002000000 
DEVDDSERROR  DEVMODLIB FFD0000000001TALDEPTCO 00001AC         300000                
DEVDDSERROR  DEVMODLIB FFD0000000002TALDEPTDE 00000AC        2000000                
DEVDDSERROR  DEVMODLIB FFD0000000003TALTOTALS 00000PC        1100002                
DEVDELETEME  DEVMODLIB FFD0000000001TALDEPTCO 00001AC         300000                
DEVDELETEME  DEVMODLIB FFD0000000002TALDEPTDE 00000AC        2000000                
DEVDELETEME  DEVMODLIB FFD0000000003TALTOTALS 00000PC        1100002                
DEVDEPTAB    DEVMODLIB FFD0000000001DEPTMENT  00001AC         400000    
DEVDEPTAB    DEVMODLIB FFD0000000002DEPTDESC  00000AC        2000000    
DEVDF_T60MESODEVMODLIB FFD0000000001DF_T60TIM 00001ZD        2400000    
DEVDF_T60MESODEVMODLIB FFD0000000002DF_T60SEN 000028D        3200000    
DEVDF_T60MESODEVMODLIB FFD0000000003DF_T60TEX 000009D       51200000    
DEVDXDOCS    DEVMODLIB FFD0000000001DF_ELOID  00001AC        3200000    
DEVDXDOCS    DEVMODLIB FFD0000000002DF_ELKEY0 00002AC        3200000    
DEVDXDOCS    DEVMODLIB FFD0000000003DF_ELKEY1 00003AC        3200000    
DEVDXDOCS    DEVMODLIB FFD0000000004DF_ELKEY2 00004AC        3200000    
DEVDXDOCS    DEVMODLIB FFD0000000005DF_ELKEY3 00005AC        3200000    
DEVDXDOCS    DEVMODLIB FFD0000000006DF_ELKEY4 00006AC        3200000    
DEVDXDOCS    DEVMODLIB FFD0000000007DF_ELKEY5 00007AC        3200000    
DEVDXDOCS    DEVMODLIB FFD0000000008DF_ELKEY6 00008AC        3200000    
DEVDXDOCS    DEVMODLIB FFD0000000009DF_ELKEY7 00009AC        3200000    
DEVDXDOCS    DEVMODLIB FFD0000000010DF_ELKEY8 00010AC        3200000    
DEVDXDOCS    DEVMODLIB FFD0000000011DF_ELKEY9 00011AC        3200000    
DEVDXDOCS    DEVMODLIB FFD0000000012DF_ELSEQ  00000SD         500000    
DEVDXDOCS    DEVMODLIB FFD0000000013DF_ELFNAM 00012AC       25600000    
DEVDXDOCS    DEVMODLIB FFD0000000014DF_ELFSIZ 00000SD        1500000    
DEVDXDOCS    DEVMODLIB FFD0000000015DX_ELBLOB 000004D         000000              S
DEVDXDOCS    DEVMODLIB FFD0000000016DF_ELDSTS 00000AC         400000    
DEVDXDOCS    DEVMODLIB FFD0000000017DX_ELEXPD 00000ED        1000000    
DEVDXDOCS    DEVMODLIB FFD0000000018DX_ELCRDT 00000ZD        2600000    
DEVDXDOCS    DEVMODLIB FFD0000000019DF_ELCRUS 00000AC        1000000    
DEVDXDOCS    DEVMODLIB FFD0000000020DX_ELUPDT 00000ZD        2600000    
DEVDXDOCS    DEVMODLIB FFD0000000021DF_ELUPUS 00000AC        1000000    
DEVFPDOC     DEVMODLIB FFD0000000001FP_EIDN   00001AC        3200000    
DEVFPDOC     DEVMODLIB FFD0000000002FP_EKEY1  00002AC        3200000    
DEVFPDOC     DEVMODLIB FFD0000000003FP_EKEY2  00003AC        3200000    
DEVFPDOC     DEVMODLIB FFD0000000004FP_EKEY3  00004AC        3200000    
DEVFPDOC     DEVMODLIB FFD0000000005FP_EKEY4  00005AC        3200000    
DEVFPDOC     DEVMODLIB FFD0000000006FP_EKEY5  00006AC        3200000    
DEVFPDOC     DEVMODLIB FFD0000000007FP_EKEYN1 00007PD        1500005    
DEVFPDOC     DEVMODLIB FFD0000000008FP_EKEYN2 00008PD        1500005    
DEVFPDOC     DEVMODLIB FFD0000000009FP_EKEYN3 00009PD        1500005    
DEVFPDOC     DEVMODLIB FFD0000000010FP_EKEYN4 00010PD        1500005    
DEVFPDOC     DEVMODLIB FFD0000000011FP_EKEYN5 00011PD        1500005    
DEVFPDOC     DEVMODLIB FFD0000000012FP_ECODE  00012AC        2000000    
DEVFPDOC     DEVMODLIB FFD0000000013FP_EINST  00013PD         700000    
DEVFPDOC     DEVMODLIB FFD0000000014FP_EFILN  00014AC       25600000    
DEVFPDOC     DEVMODLIB FFD0000000015FP_ESBLOB 000004D         000000              S
DEVFPDOC     DEVMODLIB FFD0000000016FP_ELDESC 00000AC       25600000    
DEVFPDOC     DEVMODLIB FFD0000000017FP_ESUPD  00000ZD        2600000    
DEVFPDOC     DEVMODLIB FFD0000000018FP_ESCRDT 00000ZD        2600000    
DEVFPDOC     DEVMODLIB FFD0000000019FP_EUSRU  00000AC        3200000    
DEVFPDOC     DEVMODLIB FFD0000000020FP_EUSRC  00000AC        3200000    
DEVFPNOTE    DEVMODLIB FFD0000000001FP_EIDN   00001AC        3200000    
DEVFPNOTE    DEVMODLIB FFD0000000002FP_EKEY1  00002AC        3200000    
DEVFPNOTE    DEVMODLIB FFD0000000003FP_EKEY2  00003AC        3200000    
DEVFPNOTE    DEVMODLIB FFD0000000004FP_EKEY3  00004AC        3200000    
DEVFPNOTE    DEVMODLIB FFD0000000005FP_EKEY4  00005AC        3200000    
DEVFPNOTE    DEVMODLIB FFD0000000006FP_EKEY5  00006AC        3200000    
DEVFPNOTE    DEVMODLIB FFD0000000007FP_EKEYN1 00007PD        1500005    
DEVFPNOTE    DEVMODLIB FFD0000000008FP_EKEYN2 00008PD        1500005    
DEVFPNOTE    DEVMODLIB FFD0000000009FP_EKEYN3 00009PD        1500005    
DEVFPNOTE    DEVMODLIB FFD0000000010FP_EKEYN4 00010PD        1500005    
DEVFPNOTE    DEVMODLIB FFD0000000011FP_EKEYN5 00011PD        1500005    
DEVFPNOTE    DEVMODLIB FFD0000000012FP_EINST  00012PD         700000    
DEVFPNOTE    DEVMODLIB FFD0000000013FP_EDESC  00000AC        6000000    
DEVFPNOTE    DEVMODLIB FFD0000000014FP_ENOTP  000001D         000000    
DEVFPNOTE    DEVMODLIB FFD0000000015FP_ENOTE  000001D         000000    
DEVFPNOTE    DEVMODLIB FFD0000000016FP_ECAT   00000AC        7000000    
DEVFPNOTE    DEVMODLIB FFD0000000017FP_ESSTS  00000AC        1000000    
DEVFPNOTE    DEVMODLIB FFD0000000018FP_ESUPD  00000ZD        2600000    
DEVFPNOTE    DEVMODLIB FFD0000000019FP_ESCRDT 00000ZD        2600000    
DEVFPNOTE    DEVMODLIB FFD0000000020FP_EUSRU  00000AC        3200000    
DEVFPNOTE    DEVMODLIB FFD0000000021FP_EUSRC  00000AC        3200000    
DEVFPTAB     DEVMODLIB FFD0000000001FP_ETABL  00000AC        2000000    
DEVFPTAB     DEVMODLIB FFD0000000002FP_EKEY1  00000AC        3200000    
DEVFPTAB     DEVMODLIB FFD0000000003FP_EKEY2  00000AC        3200000    
DEVFPTAB     DEVMODLIB FFD0000000004FP_EKEY3  00000AC        3200000    
DEVFPTAB     DEVMODLIB FFD0000000005FP_EKEY4  00000AC        3200000    
DEVFPTAB     DEVMODLIB FFD0000000006FP_EKEY5  00000AC        3200000    
DEVFPTAB     DEVMODLIB FFD0000000007FP_EKEYN1 00000PD        1500005    
DEVFPTAB     DEVMODLIB FFD0000000008FP_EKEYN2 00000PD        1500005    
DEVFPTAB     DEVMODLIB FFD0000000009FP_EKEYN3 00000PD        1500005    
DEVFPTAB     DEVMODLIB FFD0000000010FP_EKEYN4 00000PD        1500005    
DEVFPTAB     DEVMODLIB FFD0000000011FP_EKEYN5 00000PD        1500005    
DEVFPTAB     DEVMODLIB FFD0000000012FP_EPTNAM 00000AC        3200000    
DEVFPTAB     DEVMODLIB FFD0000000013FP_EPTVAL 00000AC       15000000    
DEVFPTAB     DEVMODLIB FFD0000000014FP_EPTNV  00000PD        1500005    
DEVFPTAB     DEVMODLIB FFD0000000015FP_EPVTYP 00000AC         100000    
DEVFPTAB     DEVMODLIB FFD0000000016FP_ELVL   00000SD         100000    
DEVFPTAB     DEVMODLIB FFD0000000017FP_EDLTD  00000AC         100000    
DEVFPTABU    DEVMODLIB FFD0000000001FP_ETABL  00000AC        2000000    
DEVFPTABU    DEVMODLIB FFD0000000002FP_EKEY1  00000AC        3200000    
DEVFPTABU    DEVMODLIB FFD0000000003FP_EKEY2  00000AC        3200000    
DEVFPTABU    DEVMODLIB FFD0000000004FP_EKEY3  00000AC        3200000    
DEVFPTABU    DEVMODLIB FFD0000000005FP_EKEY4  00000AC        3200000    
DEVFPTABU    DEVMODLIB FFD0000000006FP_EKEY5  00000AC        3200000    
DEVFPTABU    DEVMODLIB FFD0000000007FP_EKEYN1 00000PD        1500005    
DEVFPTABU    DEVMODLIB FFD0000000008FP_EKEYN2 00000PD        1500005    
DEVFPTABU    DEVMODLIB FFD0000000009FP_EKEYN3 00000PD        1500005    
DEVFPTABU    DEVMODLIB FFD0000000010FP_EKEYN4 00000PD        1500005    
DEVFPTABU    DEVMODLIB FFD0000000011FP_EKEYN5 00000PD        1500005    
DEVFPTABU    DEVMODLIB FFD0000000012FP_EPTNAM 00000AC        3200000    
DEVFPTABU    DEVMODLIB FFD0000000013FP_EPTUVL 000008D       25600000    
DEVLRCUST    DEVMODLIB FFD0000000001LR_CUSID  00001PD        1500000    
DEVLRCUST    DEVMODLIB FFD0000000002LR_CNAM   00000AC       10000000    
DEVLRCUST    DEVMODLIB FFD0000000003LR_ADDR1  000001D       10000000    
DEVLRCUST    DEVMODLIB FFD0000000004LR_ADDR2  000001D       10000000    
DEVLRCUST    DEVMODLIB FFD0000000005LR_PHONB  00000AC        5000000    
DEVLRCUST    DEVMODLIB FFD0000000006LR_EMAIL  00000AC        5000000    
DEVLRCUST    VLFDEMOLIBFFD0000000001LR_CUSID  00001PD        1500000    
DEVLRCUST    VLFDEMOLIBFFD0000000002LR_CNAM   00000AC       10000000    
DEVLRCUST    VLFDEMOLIBFFD0000000003LR_ADDR1  000001D       10000000    
DEVLRCUST    VLFDEMOLIBFFD0000000004LR_ADDR2  000001D       10000000    
DEVLRCUST    VLFDEMOLIBFFD0000000005LR_PHONB  00000AC        5000000    
DEVLRCUST    VLFDEMOLIBFFD0000000006LR_EMAIL  00000AC        5000000    
DEVLRHIST    DEVMODLIB FFD0000000001LR_HTYPE  00000AC        1000000    
DEVLRHIST    DEVMODLIB FFD0000000002LR_HKEY1  00000AC        3200000    
DEVLRHIST    DEVMODLIB FFD0000000003LR_HKEY2  00000AC        3200000    
DEVLRHIST    DEVMODLIB FFD0000000004LR_HKEY3  00000SD        1500000    
DEVLRHIST    DEVMODLIB FFD0000000005LR_HTIME  00000ZD        2600000    
DEVLRHIST    DEVMODLIB FFD0000000006LR_HTEXT  000001D         000000    
DEVLRHIST    VLFDEMOLIBFFD0000000001LR_HTYPE  00000AC        1000000    
DEVLRHIST    VLFDEMOLIBFFD0000000002LR_HKEY1  00000AC        3200000    
DEVLRHIST    VLFDEMOLIBFFD0000000003LR_HKEY2  00000AC        3200000    
DEVLRHIST    VLFDEMOLIBFFD0000000004LR_HKEY3  00000SD        1500000    
DEVLRHIST    VLFDEMOLIBFFD0000000005LR_HTIME  00000ZD        2600000    
DEVLRHIST    VLFDEMOLIBFFD0000000006LR_HTEXT  000001D         000000    
DEVLRINCT    DEVMODLIB FFD0000000001LR_INUM   00001PD        1000000    
DEVLRINCT    DEVMODLIB FFD0000000002LR_ITIME  00000ZD        2600000    
DEVLRINCT    DEVMODLIB FFD0000000003LR_ITYPE  00000AC        2000000    
DEVLRINCT    DEVMODLIB FFD0000000004LR_ISTS   00000AC        2000000    
DEVLRINCT    DEVMODLIB FFD0000000005LR_IDESC  000001D         000000    
DEVLRINCT    DEVMODLIB FFD0000000006LR_LNAM   00000AC        3000000    
DEVLRINCT    DEVMODLIB FFD0000000007LR_FNAM   00000AC        3000000    
DEVLRINCT    DEVMODLIB FFD0000000008LR_ADDR1  000001D       10000000    
DEVLRINCT    DEVMODLIB FFD0000000009LR_ADDR2  000001D       10000000    
DEVLRINCT    DEVMODLIB FFD0000000010LR_PHONH  00000AC        5000000    
DEVLRINCT    DEVMODLIB FFD0000000011LR_PHONB  00000AC        5000000    
DEVLRINCT    DEVMODLIB FFD0000000012LR_PHONM  00000AC        5000000    
DEVLRINCT    DEVMODLIB FFD0000000013LR_EMAIL  00000AC        5000000    
DEVLRINCT    DEVMODLIB FFD0000000014LR_LAT    00000PD        1500007    
DEVLRINCT    DEVMODLIB FFD0000000015LR_LONG   00000PD        1500007    
DEVLRINCT    DEVMODLIB FFD0000000016LR_ALT    00000PD        1500007    
DEVLRINCT    VLFDEMOLIBFFD0000000001LR_INUM   00001PD        1000000    
DEVLRINCT    VLFDEMOLIBFFD0000000002LR_ITIME  00000ZD        2600000    
DEVLRINCT    VLFDEMOLIBFFD0000000003LR_ITYPE  00000AC        2000000    
DEVLRINCT    VLFDEMOLIBFFD0000000004LR_ISTS   00000AC        2000000    
DEVLRINCT    VLFDEMOLIBFFD0000000005LR_IDESC  000001D         000000    
DEVLRINCT    VLFDEMOLIBFFD0000000006LR_LNAM   00000AC        3000000    
DEVLRINCT    VLFDEMOLIBFFD0000000007LR_FNAM   00000AC        3000000    
DEVLRINCT    VLFDEMOLIBFFD0000000008LR_ADDR1  000001D       10000000    
DEVLRINCT    VLFDEMOLIBFFD0000000009LR_ADDR2  000001D       10000000    
DEVLRINCT    VLFDEMOLIBFFD0000000010LR_PHONH  00000AC        5000000    
DEVLRINCT    VLFDEMOLIBFFD0000000011LR_PHONB  00000AC        5000000    
DEVLRINCT    VLFDEMOLIBFFD0000000012LR_PHONM  00000AC        5000000    
DEVLRINCT    VLFDEMOLIBFFD0000000013LR_EMAIL  00000AC        5000000    
DEVLRINCT    VLFDEMOLIBFFD0000000014LR_LAT    00000PD        1500007    
DEVLRINCT    VLFDEMOLIBFFD0000000015LR_LONG   00000PD        1500007    
DEVLRINCT    VLFDEMOLIBFFD0000000016LR_ALT    00000PD        1500007    
DEVLRNOTE    DEVMODLIB FFD0000000001LR_NKEY   00001AC        6400000    
DEVLRNOTE    DEVMODLIB FFD0000000002LR_NSEQ   00002SD        1500000    
DEVLRNOTE    DEVMODLIB FFD0000000003LR_NTITL  000001D        5000000    
DEVLRNOTE    DEVMODLIB FFD0000000004LR_NTEXT  000001D       51200000    
DEVLRNOTE    DEVMODLIB FFD0000000005LR_NTIME  00000ZD        2600000    
DEVLRNOTE    DEVMODLIB FFD0000000006LR_NCOLR  00000AC        1000000    
DEVLRNOTE    VLFDEMOLIBFFD0000000001LR_NKEY   00001AC        6400000    
DEVLRNOTE    VLFDEMOLIBFFD0000000002LR_NSEQ   00002SD        1500000    
DEVLRNOTE    VLFDEMOLIBFFD0000000003LR_NTITL  000001D        5000000    
DEVLRNOTE    VLFDEMOLIBFFD0000000004LR_NTEXT  000001D       51200000    
DEVLRNOTE    VLFDEMOLIBFFD0000000005LR_NTIME  00000ZD        2600000    
DEVLRNOTE    VLFDEMOLIBFFD0000000006LR_NCOLR  00000AC        1000000    
DEVLRORDH    DEVMODLIB FFD0000000001LR_ORDN   00001PD        1500000    
DEVLRORDH    DEVMODLIB FFD0000000002LR_CUSID  00000PD        1500000    
DEVLRORDH    DEVMODLIB FFD0000000003LR_OVALU  00000PD        1500002    
DEVLRORDH    DEVMODLIB FFD0000000004LR_OGST   00000PD        1500002    
DEVLRORDH    DEVMODLIB FFD0000000005LR_DATE   00000SD         800000    
DEVLRORDH    DEVMODLIB FFD0000000006LR_STATUS 00000AC        3200000    
DEVLRORDH    VLFDEMOLIBFFD0000000001LR_ORDN   00001PD        1500000    
DEVLRORDH    VLFDEMOLIBFFD0000000002LR_CUSID  00000PD        1500000    
DEVLRORDH    VLFDEMOLIBFFD0000000003LR_OVALU  00000PD        1500002    
DEVLRORDH    VLFDEMOLIBFFD0000000004LR_OGST   00000PD        1500002    
DEVLRORDH    VLFDEMOLIBFFD0000000005LR_DATE   00000SD         800000    
DEVLRORDH    VLFDEMOLIBFFD0000000006LR_STATUS 00000AC        3200000    
DEVLRORDL    DEVMODLIB FFD0000000001LR_ORDN   00001PD        1500000    
DEVLRORDL    DEVMODLIB FFD0000000002LR_ORDL   00002PD        1500000    
DEVLRORDL    DEVMODLIB FFD0000000003LR_PRID   00000PD        1500000    
DEVLRORDL    DEVMODLIB FFD0000000004LR_VALUE  00000PD        1500002    
DEVLRORDL    DEVMODLIB FFD0000000005LR_QTY    00000PD        1500000    
DEVLRORDL    DEVMODLIB FFD0000000006LR_STATUS 00000AC        3200000    
DEVLRORDL    VLFDEMOLIBFFD0000000001LR_ORDN   00001PD        1500000    
DEVLRORDL    VLFDEMOLIBFFD0000000002LR_ORDL   00002PD        1500000    
DEVLRORDL    VLFDEMOLIBFFD0000000003LR_PRID   00000PD        1500000    
DEVLRORDL    VLFDEMOLIBFFD0000000004LR_VALUE  00000PD        1500002    
DEVLRORDL    VLFDEMOLIBFFD0000000005LR_QTY    00000PD        1500000    
DEVLRORDL    VLFDEMOLIBFFD0000000006LR_STATUS 00000AC        3200000    
DEVLRPROD    DEVMODLIB FFD0000000001LR_PRID   00001PD        1500000    
DEVLRPROD    DEVMODLIB FFD0000000002LR_PNAM   00000AC       10000000    
DEVLRPROD    DEVMODLIB FFD0000000003LR_PDESC  000001D         000000    
DEVLRPROD    DEVMODLIB FFD0000000004LR_PUNIT  00000AC        3200000    
DEVLRPROD    DEVMODLIB FFD0000000005LR_PRICE  00000PD        1500002    
DEVLRPROD    VLFDEMOLIBFFD0000000001LR_PRID   00001PD        1500000    
DEVLRPROD    VLFDEMOLIBFFD0000000002LR_PNAM   00000AC       10000000    
DEVLRPROD    VLFDEMOLIBFFD0000000003LR_PDESC  000001D         000000    
DEVLRPROD    VLFDEMOLIBFFD0000000004LR_PUNIT  00000AC        3200000    
DEVLRPROD    VLFDEMOLIBFFD0000000005LR_PRICE  00000PD        1500002    
DEVLRSET     DEVMODLIB FFD0000000001LR_HKEY1  00001AC        3200000    
DEVLRSET     DEVMODLIB FFD0000000002LR_HKEY2  00002AC        3200000    
DEVLRSET     DEVMODLIB FFD0000000003LR_HKEY3  00003SD        1500000    
DEVLRSET     DEVMODLIB FFD0000000004LR_HTEXT  000001D         000000    
DEVLRSET     VLFDEMOLIBFFD0000000001LR_HKEY1  00001AC        3200000    
DEVLRSET     VLFDEMOLIBFFD0000000002LR_HKEY2  00002AC        3200000    
DEVLRSET     VLFDEMOLIBFFD0000000003LR_HKEY3  00003SD        1500000    
DEVLRSET     VLFDEMOLIBFFD0000000004LR_HTEXT  000001D         000000    
DEVLW3FRM05  DEVMODLIB FFD0000000001LW3BASEPR 00000AC        1000000                                                                                                       
DEVLW3FRM05  DEVMODLIB FFD0000000002LW3BASEFN 00001AC         700000                                                                                                       
DEVLW3FRM05  DEVMODLIB FFD0000000003LW3BASEDS 00000AC        4000000                                                                                                       
DEVLW3FRM05  DEVMODLIB FFD0000000004LW3SITEPR 00000AC        1000000                                                                                                       
DEVLW3FRM05  DEVMODLIB FFD0000000005LW3SITEFN 00000AC         700000                                                                                                       
DEVLZ2C      DEVMODLIB FFD0000000001LZCOCD    00001AC         300000RUO 
DEVLZ2C      DEVMODLIB FFD0000000002LZCODS    00000AC        2000000RUO 
DEVLZ2C      DEVMODLIB FFD0000000003LZDATEDAT 00000SD         800000RUO 
DEVLZ2E      DEVMODLIB FFD0000000001LZCOCDSAL 00001AC         300000    
DEVLZ2E      DEVMODLIB FFD0000000002LZWHCDSAL 00002AC         400000    
DEVLZ2E      DEVMODLIB FFD0000000003LZPRCDSAL 00003AC        1000000    
DEVLZ2E      DEVMODLIB FFD0000000004LZPR01    00000PD         900002    
DEVLZ2E      DEVMODLIB FFD0000000005LZPR02    00000PD         900002    
DEVLZ2E      DEVMODLIB FFD0000000006LZPR03    00000PD         900002    
DEVLZ2E      DEVMODLIB FFD0000000007LZPR04    00000PD         900002    
DEVLZ2E      DEVMODLIB FFD0000000008LZPR05    00000PD         900002    
DEVLZ2E      DEVMODLIB FFD0000000009LZPR06    00000PD         900002    
DEVLZ2E      DEVMODLIB FFD0000000010LZPR07    00000PD         900002    
DEVLZ2E      DEVMODLIB FFD0000000011LZPR08    00000PD         900002    
DEVLZ2E      DEVMODLIB FFD0000000012LZPR09    00000PD         900002    
DEVLZ2E      DEVMODLIB FFD0000000013LZPR10    00000PD         900002    
DEVLZ2E      DEVMODLIB FFD0000000014LZPR11    00000PD         900002    
DEVLZ2E      DEVMODLIB FFD0000000015LZPR12    00000PD         900002    
DEVLZ2I      DEVMODLIB FFD0000000001LZCOCDWHS 00001AC         300000RUO 
DEVLZ2I      DEVMODLIB FFD0000000002LZWHCDWHS 00002AC         400000RUO 
DEVLZ2I      DEVMODLIB FFD0000000003LZPRCDPRD 00003AC        1000000RUO 
DEVLZ2I      DEVMODLIB FFD0000000004LZDATEINV 00000SD         800000RUO 
DEVLZ2I      DEVMODLIB FFD0000000005LZINQT    00000PD         700000RUO 
DEVLZ2I      DEVMODLIB FFD0000000006LZINVL    00000PD         900002RUO 
DEVLZ2I      DEVMODLIB FFD0000000007LZINSS    00000PD         700000RUO 
DEVLZ2I      DEVMODLIB FFD0000000008LZINRP    00000PD         700000RUO 
DEVLZ2I      DEVMODLIB FFD0000000009LZINPR    00000PD         900002RUO 
DEVLZ2I      DEVMODLIB VFD0000000001LZYMD_VIR 00000SD         600000    
DEVLZ2I      DEVMODLIB VFD0000000002LZMDY_VIR 00000SD         600000    
DEVLZ2I      DEVMODLIB VFD0000000003LZDMY_VIR 00000PD         600000    
DEVLZ2P      DEVMODLIB FFD0000000001LZUNCOUNT 00000AC         300000RUO 
DEVLZ2P      DEVMODLIB FFD0000000002LZDATEPRD 00000SD         800000RUO 
DEVLZ2P      DEVMODLIB FFD0000000003LZPRCD    00001AC        1000000RUO 
DEVLZ2P      DEVMODLIB FFD0000000004LZPRDS    00000AC        2000000RUO 
DEVLZ2P      DEVMODLIB FFD0000000005LZPRST    00000AC         100000RUO 
DEVLZ2P      DEVMODLIB FFD0000000006LZPRWT    00000PD         900002RUO 
DEVLZ2P      DEVMODLIB VFD0000000001LZPRWTVIR 00000PD         900002    
DEVLZ2P      DEVMODLIB VFD0000000002LZMDY_VIR 00000SD         600000    
DEVLZ2P      DEVMODLIB VFD0000000003LZDMY_VIR 00000PD         600000    
DEVLZ2P      DEVMODLIB VFD0000000004LZYMD_VIR 00000SD         600000    
DEVLZ2W      DEVMODLIB FFD0000000001LZCOCDCON 00001AC         300000RUO 
DEVLZ2W      DEVMODLIB FFD0000000002TYPE_VAR  00000AC         500000RUO 
DEVLZ2W      DEVMODLIB FFD0000000003LZDATEDAT 00000SD         800000RUO 
DEVLZ2W      DEVMODLIB FFD0000000004LZWHCD    00002AC         400000RUO 
DEVLZ2W      DEVMODLIB FFD0000000005LZWHDS    00000AC        2000000RUO 
DEVLZ2W      DEVMODLIB FFD0000000006LZWHTS    00000PD         900002RUO 
DEVLZ2W      DEVMODLIB FFD0000000007LZWHMG    00000AC        2500000RUO 
DEVLZ2W      DEVMODLIB FFD0000000008LZWHL1    00000AC        3000000RUO 
DEVLZ2W      DEVMODLIB FFD0000000009LZWHL2    00000AC        3000000RUO 
DEVLZ2W      DEVMODLIB FFD0000000010LZWHCT    00000AC        3000000RUO 
DEVLZ2W      DEVMODLIB FFD0000000011LZWHST    00000AC        3000000RUO 
DEVLZ2W      DEVMODLIB FFD0000000012LZWHPC    00000AC         600000RUO 
DEVLZ2W      DEVMODLIB FFD0000000013LZWHPH    00000AC        1800000RUO 
DEVLZ2W      DEVMODLIB VFD0000000001LZPHCCVIR 00000AC         400000    
DEVLZ2W      DEVMODLIB VFD0000000002LZPHACVIR 00000AC         400000    
DEVLZ2W      DEVMODLIB VFD0000000003LZPHLCVIR 00000AC         800000    
DEVLZ2W      DEVMODLIB VFD0000000004LZYMD_VIR 00000SD         600000    
DEVLZ2W      DEVMODLIB VFD0000000005LZMDY_VIR 00000SD         600000    
DEVLZ2W      DEVMODLIB VFD0000000006LZDMY_VIR 00000PD         600000    
DEVMECHFILE  DEVMODLIB FFD0000000001MNAME     00001AC        2500000    
DEVMECHFILE  DEVMODLIB FFD0000000002MDESC     000001C      204800000    
DEVMECHFILE  DEVMODLIB FFD0000000003MCLASS    00000AC        1000000    
DEVMECHFILE  DEVMODLIB FFD0000000004MSPEED    00000PC         500000    
DEVMECHFILE  DEVMODLIB FFD0000000005MHEAT     00000PC         300000    
DEVMECHFILE  DEVMODLIB FFD0000000006MENERGYW  00000AC        2500000    
DEVMECHFILE  DEVMODLIB FFD0000000007MENERGYWQ 00000PC         100000    
DEVMECHFILE  DEVMODLIB FFD0000000008MKINETICW 00000AC        2500000    
DEVMECHFILE  DEVMODLIB FFD0000000009MKINETWQ  00000PC         100000    
DEVMECHFILE  DEVMODLIB FFD0000000010MRANGEDW  00000AC        2500000    
DEVMECHFILE  DEVMODLIB FFD0000000011MRANGEDWQ 00000PC         100000    
DEVMECHFILE  DEVMODLIB FFD0000000012MJUMPJETS 00000AC         300000    
DEVMECHFILE  DEVMODLIB FFD0000000013MEQUIPTME 00000AC        2500000    
DEVMECHFILE  DEVMODLIB FFD0000000014MHEALTH   00000PC         600000    
DEVMECHFILE  DEVMODLIB FFD0000000015MIMAGE    000004C        -100000              S
DEVMECHFILE  DEVMODLIB FFD0000000016MHEATTOL  00000PC         800000    
DEVMECHFILE  DEVMODLIB FFD0000000017MDAMAGE   00000PC        1200000    
DEVMECHFILE  DEVMODLIB FFD0000000018MOWNER    00000AC        2500000    
DEVMECHFILE  DEVMODLIB FFD0000000019MCBILL    00000PC        1500000    
DEVMECHWEAPONDEVMODLIB FFD0000000001MWEAPON   00001AC       12000000                
DEVMECHWEAPONDEVMODLIB FFD0000000002MWTYPE    00000AC        3000000                
DEVMECHWEAPONDEVMODLIB FFD0000000003MWEAPOND  000001C      204800000                
DEVMECHWEAPONDEVMODLIB FFD0000000004MWDAMAGE  00000PC        1000000                
DEVMECHWEAPONDEVMODLIB FFD0000000005MWHEAT    00000PC         500000                
DEVMECHWEAPONDEVMODLIB FFD0000000006MWCOST    00000PC         600000                
DEVMECHWEAPONDEVMODLIB FFD0000000007MWTON     00000PC         200000                
DEVMECHWEAPONDEVMODLIB FFD0000000008MWIMG     000004C        -100000              S 
DEVMLOGIN    DEVMODLIB FFD0000000001MUSER     00001AC        2500000                
DEVMLOGIN    DEVMODLIB FFD0000000002MPASSWRD  00000AC        2500000                
DEVMLOGIN    DEVMODLIB FFD0000000003MADMIN    00000AC         100000                
DEVMLOGIN    DEVMODLIB FFD0000000004MEMAIL    000001C       51200000                
DEVMLOGIN    DEVMODLIB FFD0000000005MCBILL    00000PC        1500000                
DEVMLOGIN    DEVMODLIB FFD0000000006MAVATAR   000004C        -100000              S 
DEVMLOGIN    DEVMODLIB FFD0000000007MRANKVAL  00000PC         300000                
DEVMLOGIN    DEVMODLIB FFD0000000008MRANK     000001C       51200000                
DEVMLOGIN    DEVMODLIB FFD0000000009MXP       00000PC        1500000                
DEVMLOGIN    DEVMODLIB FFD0000000010MXPN      00000PC        1500000                
DEVMRANKXP   DEVMODLIB FFD0000000001MRANKVAL  00001PC         300000    
DEVMRANKXP   DEVMODLIB FFD0000000002MRANK     000001C       51200000    
DEVPSLDSE    DEVMODLIB FFD0000000001DSEEID    00001PC         700000    
DEVPSLDSE    DEVMODLIB FFD0000000002DSEEVT    00000AC        1000000    
DEVPSLDSE    DEVMODLIB FFD0000000003DSEOID    00000AC        1000000    
DEVPSLDSE    DEVMODLIB FFD0000000004DSEOTP    00000AC        1000000    
DEVPSLEVENT  DEVMODLIB FFD0000000001EMPNO     00001AC         500000    
DEVPSLEVENT  DEVMODLIB FFD0000000002EMPEVTNUM 00002PC        1500000    
DEVPSLEVENT  DEVMODLIB FFD0000000003EMPEVTDAT 00000EC        1000000    
DEVPSLEVENT  DEVMODLIB FFD0000000004EMPEVTTIM 00000MC         800000    
DEVPSLEVENT  DEVMODLIB FFD0000000005EMPEVTTYP 00000AC         300000    
DEVPSLEVENT  DEVMODLIB FFD0000000006EMPEVTNTE 000001C       50000000    
DEVPSLEVENT  DEVMODLIB FFD0000000007EMPEVTUPD 00000PC        3000000    
DEVPSLEVENT  DEVMODLIB FFD0000000008EMPEVTUDT 00000ZC        2600000    
DEVPSLEVENT  DEVMODLIB FFD0000000009EMPEVTDOC 000004C        -100000              S
DEVPSLEVENT  DEVMODLIB VFD0000000010PJFGIVEN  00000AC        2000000    
DEVPSLEVENT  DEVMODLIB VFD0000000011PJFSURNAM 00000AC        2000000    
DEVPSLEVENT  DEVMODLIB VFD0000000012EMPEVTDSC 000001C        5000000    
DEVPSLEVENT  DEVMODLIB VFD0000000013EMPEVTNUP 000001C        5000000    
DEVPSLIMG    DEVMODLIB FFD0000000001EMPNO     00001AC         500000    
DEVPSLIMG    DEVMODLIB FFD0000000002EMPIMG    000004C        -100000              S
DEVPSLIMG    DEVMODLIB FFD0000000003EMPTHM    000004C        -100000              S
DEVPSLMST    DEVMODLIB FFD0000000001EMPNO     00001AC         500000    
DEVPSLMST    DEVMODLIB FFD0000000002SURNAME   00000AC        2000000    
DEVPSLMST    DEVMODLIB FFD0000000003GIVENAME  00000AC        2000000    
DEVPSLMST    DEVMODLIB FFD0000000004ADDRESS1  00000AC        2500000    
DEVPSLMST    DEVMODLIB FFD0000000005ADDRESS2  00000AC        2500000    
DEVPSLMST    DEVMODLIB FFD0000000006ADDRESS3  00000AC        2500000    
DEVPSLMST    DEVMODLIB FFD0000000007POSTCODE  00000SC         600000    
DEVPSLMST    DEVMODLIB FFD0000000008PHONEHME  00000AC        1500000    
DEVPSLMST    DEVMODLIB FFD0000000009PHONEBUS  00000AC        1500000    
DEVPSLMST    DEVMODLIB FFD0000000010STARTDTER 00000SC         600000    
DEVPSLMST    DEVMODLIB FFD0000000011TERMDATER 00000SC         600000    
DEVPSLMST    DEVMODLIB FFD0000000012DEPTMENT  00000AC         400000    
DEVPSLMST    DEVMODLIB FFD0000000013SECTION   00000AC         200000    
DEVPSLMST    DEVMODLIB FFD0000000014SALARY    00000PC        1100002    
DEVPSLMST    DEVMODLIB VFD0000000015STARTDTE  00000SC         600000    
DEVPSLMST    DEVMODLIB VFD0000000016TERMDATE  00000SC         600000    
DEVPSLMST    DEVMODLIB VFD0000000017MNTHSAL   00000PC        1100002    
DEVPSLSKL    DEVMODLIB FFD0000000001EMPNO     00001AC         500000    
DEVPSLSKL    DEVMODLIB FFD0000000002SKILCODE  00002AC        1000000    
DEVPSLSKL    DEVMODLIB FFD0000000003DATEACQR  00000SC         600000    
DEVPSLSKL    DEVMODLIB FFD0000000004GRADE     00000AC         100000    
DEVPSLSKL    DEVMODLIB FFD0000000005COMMENT   00000AC        2000000    
DEVPSLSKL    DEVMODLIB VFD0000000006DATEACQ   00000SC         600000    
DEVPSLSKL    DEVMODLIB VFD0000000007GRADEDES  00000AC        1100000    
DEVPSLTIMES  DEVMODLIB FFD0000000001EMPNO     00001AC         500000    
DEVPSLTIMES  DEVMODLIB FFD0000000002EMPTSYEAR 00002PC         400000    
DEVPSLTIMES  DEVMODLIB FFD0000000003EMPTSWEEK 00003PC         200000    
DEVPSLTIMES  DEVMODLIB FFD0000000004EMPTSTASK 00004AC         500000    
DEVPSLTIMES  DEVMODLIB FFD0000000005EMPTSWSTR 00000EC        1000000    
DEVPSLTIMES  DEVMODLIB FFD0000000006EMPTSWEND 00000EC        1000000    
DEVPSLTIMES  DEVMODLIB FFD0000000007EMPTSTSAT 00000PC        1500001    
DEVPSLTIMES  DEVMODLIB FFD0000000008EMPTSTSUN 00000PC        1500001    
DEVPSLTIMES  DEVMODLIB FFD0000000009EMPTSTMON 00000PC        1500001    
DEVPSLTIMES  DEVMODLIB FFD0000000010EMPTSTTUE 00000PC        1500001    
DEVPSLTIMES  DEVMODLIB FFD0000000011EMPTSTWED 00000PC        1500001    
DEVPSLTIMES  DEVMODLIB FFD0000000012EMPTSTTHU 00000PC        1500001    
DEVPSLTIMES  DEVMODLIB FFD0000000013EMPTSTFRI 00000PC        1500001    
DEVPSLTIMES  DEVMODLIB FFD0000000014EMPTSVSAT 00000PC        1500002    
DEVPSLTIMES  DEVMODLIB FFD0000000015EMPTSVSUN 00000PC        1500002    
DEVPSLTIMES  DEVMODLIB FFD0000000016EMPTSVMON 00000PC        1500002    
DEVPSLTIMES  DEVMODLIB FFD0000000017EMPTSVTUE 00000PC        1500002    
DEVPSLTIMES  DEVMODLIB FFD0000000018EMPTSVWED 00000PC        1500002    
DEVPSLTIMES  DEVMODLIB FFD0000000019EMPTSVTHU 00000PC        1500002    
DEVPSLTIMES  DEVMODLIB FFD0000000020EMPTSVFRI 00000PC        1500002    
DEVPSLTIMES  DEVMODLIB FFD0000000021EMPTSTOTH 00000PC        3000001    
DEVPSLTIMES  DEVMODLIB FFD0000000022EMPTSTOTV 00000PC        3000002    
DEVPSLTIMES  DEVMODLIB FFD0000000023EMPTSMAXH 00000PC        1500001    
DEVPSLTIMES  DEVMODLIB FFD0000000024EMPTSMAXD 00000AC         300000    
DEVPSLTIMES  DEVMODLIB FFD0000000025EMPTSMINH 00000PC        1500001    
DEVPSLTIMES  DEVMODLIB FFD0000000026EMPTSMIND 00000AC         300000    
DEVSECTAB    DEVMODLIB FFD0000000001DEPTMENT  00001AC         400000    
DEVSECTAB    DEVMODLIB FFD0000000002SECTION   00002AC         200000    
DEVSECTAB    DEVMODLIB FFD0000000003SECDESC   00000AC        2000000    
DEVSECTAB    DEVMODLIB FFD0000000004SECADDR1  00000AC        2500000    
DEVSECTAB    DEVMODLIB FFD0000000005SECADDR2  00000AC        2500000    
DEVSECTAB    DEVMODLIB FFD0000000006SECADDR3  00000AC        2500000    
DEVSECTAB    DEVMODLIB FFD0000000007SECPCODE  00000SC         600000    
DEVSECTAB    DEVMODLIB FFD0000000008SECPHBUS  00000AC        1500000    
DEVSKLTAB    DEVMODLIB FFD0000000001SKILCODE  00001AC        1000000    
DEVSKLTAB    DEVMODLIB FFD0000000002SKILDESC  00000AC        2000000    
DEVVFPPF06   DEVMODLIB FFD0000000001VF_ELUSET 00001AC        1000000    
DEVVFPPF06   DEVMODLIB FFD0000000002VF_ELIDN  00002AC        3200000    
DEVVFPPF06   DEVMODLIB FFD0000000003VF_ELUSRL 00000AC        3200000    
DEVVFPPF06   DEVMODLIB FFD0000000004VF_ELSXML 00000AC       25600000    
DEVVFPPF07   DEVMODLIB FFD0000000001VF_ELUSET 00001AC        1000000    
DEVVFPPF07   DEVMODLIB FFD0000000002VF_ELIDN  00002AC        3200000    
DEVVFPPF07   DEVMODLIB FFD0000000003VF_ELPTYT 00003AC         100000    
DEVVFPPF07   DEVMODLIB FFD0000000004VF_ELPTYN 00004AC        3200000    
DEVVFPPF07   DEVMODLIB FFD0000000005VF_ELPTYL 00005AC         400000    
DEVVFPPF07   DEVMODLIB FFD0000000006VF_ELPTYI 00006PD         700000    
DEVVFPPF07   DEVMODLIB FFD0000000007VF_ELPTYE 00000AC         100000    
DEVVFPPF07   DEVMODLIB FFD0000000008VF_ELAVAL 00000AC       13200000    
DEVVFPPF07   DEVMODLIB FFD0000000009VF_ELSXML 00000AC       25600000    
DEVVFPPF07   DEVMODLIB FFD0000000010VF_ELFRID 00007AC        3200000    
DEVVFXPF04   DEVMODLIB FFD0000000001VF_FRAMEW 00001AC       15000000                                                                                                       
DEVVFXPF04   DEVMODLIB FFD0000000002VF_ELXTOF 00002SD         700000                                                                                                       
DEVVFXPF04   DEVMODLIB FFD0000000003VF_ELXN01 00000AC       10800000                                                                                                       
DEVVFXPF04   DEVMODLIB FFD0000000004VF_ELXN02 00000AC       10800000                                                                                                       
DEVVFXPF04   DEVMODLIB FFD0000000005VF_ELXN03 00000AC       10800000                                                                                                       
DEVVFXPF04   DEVMODLIB FFD0000000006VF_ELXN04 00000AC       10800000                                                                                                       
DEVVFXPF04   DEVMODLIB FFD0000000007VF_ELXN05 00000AC       10800000                                                                                                       
DEVVFXPF04   DEVMODLIB FFD0000000008VF_ELXN06 00000AC       10800000                                                                                                       
DEVVFXPF04   DEVMODLIB FFD0000000009VF_ELXN07 00000AC       10800000                                                                                                       
DEVVFXPF04   DEVMODLIB FFD0000000010VF_ELXN08 00000AC       10800000                                                                                                       
DEVVFXPF04   DEVMODLIB FFD0000000011VF_ELXN09 00000AC       10800000                                                                                                       
DEVVFXPF04   DEVMODLIB FFD0000000012VF_ELXN10 00000AC       10800000                                                                                                       
DEVVFXPF04   DEVMODLIB FFD0000000013VF_ELXA01 00000AC       25600000                                                                                                       
DEVVFXPF04   DEVMODLIB FFD0000000014VF_ELXA02 00000AC       25600000                                                                                                       
DEVVFXPF04   DEVMODLIB FFD0000000015VF_ELXA03 00000AC       25600000                                                                                                       
DEVVFXPF04   DEVMODLIB FFD0000000016VF_ELXA04 00000AC       25600000                                                                                                       
DEVVFXPF04   DEVMODLIB FFD0000000017VF_ELXA05 00000AC       25600000                                                                                                       
DEVVFXPF04   DEVMODLIB FFD0000000018VF_ELXA06 00000AC       25600000                                                                                                       
DEVVFXPF04   DEVMODLIB FFD0000000019VF_ELXA07 00000AC       25600000                                                                                                       
DEVVFXPF04   DEVMODLIB FFD0000000020VF_ELXA08 00000AC       25600000                                                                                                       
DEVVFXPF04   DEVMODLIB FFD0000000021VF_ELXA09 00000AC       25600000                                                                                                       
DEVVFXPF04   DEVMODLIB FFD0000000022VF_ELXA10 00000AC       25600000                                                                                                       
DEVVFXPF04   VFTDEMOLIBFFD0000000001VF_FRAMEW 00001AC       15000000    
DEVVFXPF04   VFTDEMOLIBFFD0000000002VF_ELXTOF 00002SD         700000    
DEVVFXPF04   VFTDEMOLIBFFD0000000003VF_ELXN01 00000AC       10800000    
DEVVFXPF04   VFTDEMOLIBFFD0000000004VF_ELXN02 00000AC       10800000    
DEVVFXPF04   VFTDEMOLIBFFD0000000005VF_ELXN03 00000AC       10800000    
DEVVFXPF04   VFTDEMOLIBFFD0000000006VF_ELXN04 00000AC       10800000    
DEVVFXPF04   VFTDEMOLIBFFD0000000007VF_ELXN05 00000AC       10800000    
DEVVFXPF04   VFTDEMOLIBFFD0000000008VF_ELXN06 00000AC       10800000    
DEVVFXPF04   VFTDEMOLIBFFD0000000009VF_ELXN07 00000AC       10800000    
DEVVFXPF04   VFTDEMOLIBFFD0000000010VF_ELXN08 00000AC       10800000    
DEVVFXPF04   VFTDEMOLIBFFD0000000011VF_ELXN09 00000AC       10800000    
DEVVFXPF04   VFTDEMOLIBFFD0000000012VF_ELXN10 00000AC       10800000    
DEVVFXPF04   VFTDEMOLIBFFD0000000013VF_ELXA01 00000AC       25600000    
DEVVFXPF04   VFTDEMOLIBFFD0000000014VF_ELXA02 00000AC       25600000    
DEVVFXPF04   VFTDEMOLIBFFD0000000015VF_ELXA03 00000AC       25600000    
DEVVFXPF04   VFTDEMOLIBFFD0000000016VF_ELXA04 00000AC       25600000    
DEVVFXPF04   VFTDEMOLIBFFD0000000017VF_ELXA05 00000AC       25600000    
DEVVFXPF04   VFTDEMOLIBFFD0000000018VF_ELXA06 00000AC       25600000    
DEVVFXPF04   VFTDEMOLIBFFD0000000019VF_ELXA07 00000AC       25600000    
DEVVFXPF04   VFTDEMOLIBFFD0000000020VF_ELXA08 00000AC       25600000    
DEVVFXPF04   VFTDEMOLIBFFD0000000021VF_ELXA09 00000AC       25600000    
DEVVFXPF04   VFTDEMOLIBFFD0000000022VF_ELXA10 00000AC       25600000    
DEVXDEPTMENTSDEVMODLIB FFD0000000001XDEPTMENT 00001AC         400000    
DEVXDEPTMENTSDEVMODLIB FFD0000000002XDEPTDESC 00000AC        2000000    
DEVXEMPIMAGE DEVMODLIB FFD0000000001XEMPLOYID 00001AC        1000000    
DEVXEMPIMAGE DEVMODLIB FFD0000000002XEMPIMG   000004C        -100000              S
DEVXEMPIMAGE DEVMODLIB FFD0000000003XEMPTHM   000004C        -100000              S
DEVXEMPLOYEE DEVMODLIB FFD0000000001XEMPLOYID 00001AC        1000000    
DEVXEMPLOYEE DEVMODLIB FFD0000000002XEMPTITLE 00000AC        1000000    
DEVXEMPLOYEE DEVMODLIB FFD0000000003XSURNAME  00000AC        2000000    
DEVXEMPLOYEE DEVMODLIB FFD0000000004XGIVENAME 00000AC        2000000    
DEVXEMPLOYEE DEVMODLIB FFD0000000005XEMPDOB   00000EC        1000000    
DEVXEMPLOYEE DEVMODLIB FFD0000000006XGENDER   00000AC        1000000    
DEVXEMPLOYEE DEVMODLIB FFD0000000007XSTREET   00000AC        3000000    
DEVXEMPLOYEE DEVMODLIB FFD0000000008XCITY     00000AC        2000000    
DEVXEMPLOYEE DEVMODLIB FFD0000000009XSTATE    00000AC        2000000    
DEVXEMPLOYEE DEVMODLIB FFD0000000010XPOSTCODE 00000AC        1000000    
DEVXEMPLOYEE DEVMODLIB FFD0000000011XCOUNTRY  00000AC        2000000    
DEVXEMPLOYEE DEVMODLIB FFD0000000012XPHONEHME 00000AC        1500000    
DEVXEMPLOYEE DEVMODLIB FFD0000000013XPHONEBUS 00000AC        1500000    
DEVXEMPLOYEE DEVMODLIB FFD0000000014XPHONEMOB 00000AC        1500000    
DEVXEMPLOYEE DEVMODLIB FFD0000000015XSALARY   00000PC        1500002    
DEVXEMPLOYEE DEVMODLIB FFD0000000016XSTARTDTE 00000EC        1000000    
DEVXEMPLOYEE DEVMODLIB FFD0000000017XTERMDATE 00000EC        1000000    
DEVXEMPLOYEE DEVMODLIB FFD0000000018XDEPTMENT 00000AC         400000    
DEVXEMPLOYEE DEVMODLIB VFD0000000019XEMPDEPT  00000AC        2000000    
DEVXSCOUNTRY DEVMODLIB FFD0000000001XSCNTRYNM 00001HC       10000000    
DEVXSORDER   DEVMODLIB FFD0000000001XSORDERID 000011C         900000    
DEVXSORDER   DEVMODLIB FFD0000000002XSORDDTE  00000EC        1000000    
DEVXSORDER   DEVMODLIB FFD0000000003XSACCID   00000IC         400000    
DEVXSORDER   DEVMODLIB FFD0000000004XSINVCID  000001C         600000    
DEVXSORDER   DEVMODLIB FFD0000000005XSORDEML  00000HC       20000000    
DEVXSPRDCT   DEVMODLIB FFD0000000001XSPRDCTID 00001AC        1000000    
DEVXSPRDCT   DEVMODLIB FFD0000000002XSPRDCTDS 00000HC       10000000    
DEVXSPRDCT   DEVMODLIB FFD0000000003XSPRDLNID 00000AC        1000000    
DEVXSPRDLNE  DEVMODLIB FFD0000000001XSPRDLNID 00001AC        1000000    
DEVXSPRDLNE  DEVMODLIB FFD0000000002XSPRDLNDS 00000HC       10000000    
DEVXSPRODUCT DEVMODLIB FFD0000000001XSPRDID   00001AC        1000000    
DEVXSPRODUCT DEVMODLIB FFD0000000002XSPRDCTID 00000AC        1000000    
DEVXSPRODUCT DEVMODLIB FFD0000000003XSPRDLNID 00000AC        1000000    
DEVXSPRODUCT DEVMODLIB FFD0000000004XSPRDDSC  00000HC       10000000    
DEVXSPRODUCT DEVMODLIB FFD0000000005XSPRDMDL  00000HC       10000000    
DEVXSPRODUCT DEVMODLIB FFD0000000006XSPRDIMG  00000HC       20000000    
DEVXSPRODUCT DEVMODLIB FFD0000000007XSPRDPRC  00000SC         900002    
DEVXSPRODUCT DEVMODLIB FFD0000000008XSPRDDTL  00000HC       10000000    
DEVXSPRODUCT DEVMODLIB FFD0000000009XSPRDSHP  00000SC         900002    
DEVXSPRODUCT DEVMODLIB FFD0000000010XSPRDSTS  00000AC        1000000    
DEVXSPRODUCT DEVMODLIB FFD0000000011XSPRDTAX  00000SC         500002    
DEVXSSHPCRT  DEVMODLIB FFD0000000001XSCRTID   00001AC        1000000    
DEVXSSHPCRT  DEVMODLIB FFD0000000002XSCRTCRT  00000EC        1000000    
DEVXSSHPCRT  DEVMODLIB FFD0000000003XSCRTLST  00000EC        1000000    
DEVXSSHPCRT  DEVMODLIB FFD0000000004XSCRTEXP  00000EC        1000000    
DEVXSSHPCRT  DEVMODLIB FFD0000000005XSCRTSTS  00000AC        1000000    
DEVXSSHPCRT  DEVMODLIB FFD0000000006XSACCID   00000IC         400000    
DEVXSSHPCRT  DEVMODLIB FFD0000000007XSCRTPRC  00000SC         900002    
DEVXSSHPCRT  DEVMODLIB FFD0000000008XSCRTTAX  00000SC         900002    
DEVXSSHPCRT  DEVMODLIB FFD0000000009XSCRTSHP  00000SC         900002    
DEVXSSHPCRT  DEVMODLIB FFD0000000010XSCRTQTY  00000SC         700000    
DEVXSSHPCRT  DEVMODLIB VFD0000000011XSCRTTTL  00000SC         900002    
DEVXSSHPITM  DEVMODLIB FFD0000000001XSCRTID   00001AC        1000000    
DEVXSSHPITM  DEVMODLIB FFD0000000002XSPRDID   00002AC        1000000    
DEVXSSHPITM  DEVMODLIB FFD0000000003XSCSTPRC  00000SC         900002    
DEVXSSHPITM  DEVMODLIB FFD0000000004XSQTY     00000SC         700000    
DEVXSSHPITM  DEVMODLIB FFD0000000005XSDSCPCT  00000SC         500002    
DEVXSSHPITM  DEVMODLIB FFD0000000006XSPRDPRC  00000SC         900002    
DEVXSSHPITM  DEVMODLIB FFD0000000007XSPRDTAX  00000SC         500002    
DEVXSSHPITM  DEVMODLIB FFD0000000008XSPRDSHP  00000SC         900002    
DEVXSSHPITM  DEVMODLIB FFD0000000009XSITMPRC  00000SC         900002    
DEVXSSHPITM  DEVMODLIB FFD0000000010XSITMTAX  00000SC         900002    
DEVXSSHPITM  DEVMODLIB FFD0000000011XSITMSHP  00000SC         900002    
DEVXSSHPITM  DEVMODLIB VFD0000000012XSITMPRCV 00000SC         900002    
DEVXSSHPITM  DEVMODLIB VFD0000000013XSITMTAXV 00000SC         900002    
DEVXSSHPITM  DEVMODLIB VFD0000000014XSITMSHPV 00000SC         900002    
DEVXSSTATE   DEVMODLIB FFD0000000001XSSTATEID 00001HC       10000000    
DEVXSSTATE   DEVMODLIB FFD0000000002XSSTTDSC  00000HC       10000000    
DEVXSUSRACC  DEVMODLIB FFD0000000001XSACCID   00001IC         400000    
DEVXSUSRACC  DEVMODLIB FFD0000000002XSPASSWRD 000001C        4000000    
DEVXSUSRACC  DEVMODLIB FFD0000000003XSACCSTS  00000HC        2000000    
DEVXSUSRACC  DEVMODLIB FFD0000000004XSACCTTL  00000HC        1000000    
DEVXSUSRACC  DEVMODLIB FFD0000000005XSACCLSTN 00000HC       10000000    
DEVXSUSRACC  DEVMODLIB FFD0000000006XSACC1STN 00000HC       10000000    
DEVXSUSRACC  DEVMODLIB FFD0000000007XSBTHDTE  00000EC        1000000    
DEVXSUSRACC  DEVMODLIB FFD0000000008XSACCEML  00000HC       20000000    
DEVXSUSRACC  DEVMODLIB FFD0000000009XSPHNMBL  00000HC        2000000    
DEVXSUSRACC  DEVMODLIB FFD0000000010XSPHNWRK  00000HC        2000000    
DEVXSUSRACC  DEVMODLIB FFD0000000011XSPHNHME  00000HC        2000000    
DEVXSUSRACC  DEVMODLIB FFD0000000012XSACCADR1 00000HC       10000000    
DEVXSUSRACC  DEVMODLIB FFD0000000013XSACCADR2 00000HC       10000000    
DEVXSUSRACC  DEVMODLIB FFD0000000014XSACCCITY 00000HC       10000000    
DEVXSUSRACC  DEVMODLIB FFD0000000015XSACCSTT  00000HC       10000000    
DEVXSUSRACC  DEVMODLIB FFD0000000016XSACCZIP  00000HC        5000000    
DEVXSUSRACC  DEVMODLIB FFD0000000017XSACCCNTY 00000HC       10000000    
DEVXSUSRACC  DEVMODLIB FFD0000000018XSDLVADR1 00000HC       10000000    
DEVXSUSRACC  DEVMODLIB FFD0000000019XSDLVADR2 00000HC       10000000    
DEVXSUSRACC  DEVMODLIB FFD0000000020XSDLVCITY 00000HC       10000000    
DEVXSUSRACC  DEVMODLIB FFD0000000021XSDLVSTT  00000HC       10000000    
DEVXSUSRACC  DEVMODLIB FFD0000000022XSDLVZIP  00000HC        5000000    
DEVXSUSRACC  DEVMODLIB FFD0000000023XSDLVCNTY 00000HC       10000000    
DEVXSUSRACC  DEVMODLIB FFD0000000024XSDLVINS  000009C       51200000    
DEVXSUSRACC  DEVMODLIB FFD0000000025XSNWLCNC  00000EC        1000000    
DEVXSUSRACC  DEVMODLIB FFD0000000026XSNWLSTS  00000HC        2000000    
DEVXSUSRACC  DEVMODLIB FFD0000000027XSNWLSBS  00000EC        1000000    
