DEVDC@F23    DC@MODLIB DC@F23V1  LVF0000000001F23MOD               
DEVDC@F23    DC@MODLIB DC@F23V1  LVF0000000002F23FMT               
DEVDC@F23    DC@MODLIB DC@F23V1  LVF0000000003F23DES               
DEVDC@F23    DC@MODLIB DC@F23V1  LVF0000000004F23TYP               
DEVDC@F23    DC@MODLIB DC@F23V1  LVF0000000005F23STY               
DEVDC@F23    DC@MODLIB DC@F23V1  LVF0000000006F23HLP               
DEVDC@F23    DC@MODLIB DC@F23V1  LVF0000000007F23DNF               
DEVDC@F23    DC@MODLIB DC@F23V1  LVF0000000008F23ANF               
DEVDC@F23    DC@MODLIB DC@F23V1  LVF0000000009F23FID               
DEVDC@F23    DC@MODLIB DC@F23V1  LVF0000000010F23APM               
DEVDC@F23    DC@MODLIB DC@F23V1  LVF0000000011F23SP1               
DEVDC@F23    DC@MODLIB DC@F23V1  LVF0000000012F23SET               
DEVDC@F23    DC@MODLIB DC@F23V1  LVF0000000013F23P#I               
DEVDC@F23    DC@MODLIB DC@F23V1  LVF0000000014F23CRL               
DEVDC@F23    DC@MODLIB DC@F23V1  LVF0000000015F23CPC               
DEVDC@F23    DC@MODLIB DC@F23V1  LVF0000000016F23MSQ               
DEVDC@F23    DC@MODLIB DC@F23V1  LVF0000000017F23SP2               
DEVDC@F23    DC@MODLIB DC@F23V1  LVF0000000018F23SP3               
DEVDC@F23    DC@MODLIB DC@F23V1  LVF0000000019F23SP4               
DEVDC@F26    DC@MODLIB DC@F26V1  LVF0000000001F26VAR               
DEVDC@F26    DC@MODLIB DC@F26V1  LVF0000000002F26DES               
DEVDC@F26    DC@MODLIB DC@F26V1  LVF0000000003F26TYP               
DEVDC@F26    DC@MODLIB DC@F26V1  LVF0000000004F26LEN               
DEVDC@F26    DC@MODLIB DC@F26V1  LVF0000000005F26DEC               
DEVDC@F26    DC@MODLIB DC@F26V1  LVF0000000006F26PGM               
DEVDC@F26    DC@MODLIB DC@F26V1  LVF0000000007F26DYN               
DEVDC@F26    DC@MODLIB DC@F26V2  LVF0000000001F26VAR               
DEVDC@F26    DC@MODLIB DC@F26V2  LVF0000000002F26DES               
DEVDC@F26    DC@MODLIB DC@F26V2  LVF0000000003F26TYP               
DEVDC@F26    DC@MODLIB DC@F26V2  LVF0000000004F26LEN               
DEVDC@F26    DC@MODLIB DC@F26V2  LVF0000000005F26DEC               
DEVDC@F26    DC@MODLIB DC@F26V2  LVF0000000006F26PGM               
DEVDC@F26    DC@MODLIB DC@F26V2  LVF0000000007F26DYN               
DEVDC@F60    DC@MODLIB DC@F60V1  LVF0000000001F60P#I               
DEVDC@F60    DC@MODLIB DC@F60V1  LVF0000000002F60PLN               
DEVDC@F60    DC@MODLIB DC@F60V1  LVF0000000003F60PLD               
DEVDC@F60    DC@MODLIB DC@F60V1  LVF0000000004F60DBC               
DEVDC@F60    DC@MODLIB DC@F60V1  LVF0000000005F60RLT               
DEVDC@F60    DC@MODLIB DC@F60V1  LVF0000000006F60P#D               
DEVDC@F60    DC@MODLIB DC@F60V1  LVF0000000007F60MSG               
DEVDC@F60    DC@MODLIB DC@F60V1  LVF0000000008F60CHR               
DEVDC@W06    DC@MODLIB DC@W06V1  LVF0000000001W06NAM               
DEVDC@W06    DC@MODLIB DC@W06V1  LVF0000000002W06TYP               
DEVDC@W06    DC@MODLIB DC@W06V1  LVF0000000003W06VAL               
DEVDC@W06    DC@MODLIB DC@W06V2  LVF0000000001W06NAM               
DEVDC@W06    DC@MODLIB DC@W06V2  LVF0000000002W06TYP               
DEVDC@W06    DC@MODLIB DC@W06V2  LVF0000000003W06VAL               
DEVDC@W09    DC@MODLIB DC@W09V1  LVF0000000001W09P#I               
DEVDC@W09    DC@MODLIB DC@W09V1  LVF0000000002W09MOD               
DEVDC@W09    DC@MODLIB DC@W09V1  LVF0000000003W09SP1               
DEVDC@W09    DC@MODLIB DC@W09V2  LVF0000000001W09P#I               
DEVDC@W09    DC@MODLIB DC@W09V2  LVF0000000002W09MOD               
DEVDC@W09    DC@MODLIB DC@W09V2  LVF0000000003W09SP1               
DEVDC@W10    DC@MODLIB DC@W10V1  LVF0000000001W10P#I               
DEVDC@W10    DC@MODLIB DC@W10V1  LVF0000000002W10CMP               
DEVDC@W10    DC@MODLIB DC@W10V1  LVF0000000003W10DES               
DEVDC@W10    DC@MODLIB DC@W10V1  LVF0000000004W10SET               
DEVDC@W10    DC@MODLIB DC@W10V1  LVF0000000005W10SP1               
DEVDC@W10    DC@MODLIB DC@W10V2  LVF0000000001W10P#I               
DEVDC@W10    DC@MODLIB DC@W10V2  LVF0000000002W10CMP               
DEVDC@W10    DC@MODLIB DC@W10V2  LVF0000000003W10DES               
DEVDC@W10    DC@MODLIB DC@W10V2  LVF0000000004W10SET               
DEVDC@W10    DC@MODLIB DC@W10V2  LVF0000000005W10SP1               
DEVDC@W11    DC@MODLIB DC@W11V1  LVF0000000001W11P#I               
DEVDC@W11    DC@MODLIB DC@W11V1  LVF0000000002W11CMP               
DEVDC@W11    DC@MODLIB DC@W11V1  LVF0000000003W11SET               
DEVDC@W11    DC@MODLIB DC@W11V1  LVF0000000004W11IMG               
DEVDC@W11    DC@MODLIB DC@W11V1  LVF0000000005W11DES               
DEVDC@W11    DC@MODLIB DC@W11V1  LVF0000000006W11URL               
DEVDC@W11    DC@MODLIB DC@W11V1  LVF0000000007W11SP1               
DEVDC@W11    DC@MODLIB DC@W11V1  LVF0000000008W11CLK               
DEVDC@W11    DC@MODLIB DC@W11V2  LVF0000000001W11P#I               
DEVDC@W11    DC@MODLIB DC@W11V2  LVF0000000002W11CMP               
DEVDC@W11    DC@MODLIB DC@W11V2  LVF0000000003W11SET               
DEVDC@W11    DC@MODLIB DC@W11V2  LVF0000000004W11IMG               
DEVDC@W11    DC@MODLIB DC@W11V2  LVF0000000005W11DES               
DEVDC@W11    DC@MODLIB DC@W11V2  LVF0000000006W11URL               
DEVDC@W11    DC@MODLIB DC@W11V2  LVF0000000007W11SP1               
DEVDC@W11    DC@MODLIB DC@W11V2  LVF0000000008W11CLK               
DEVDC@W12    DC@MODLIB DC@W12V1  LVF0000000001W12PRT               
DEVDC@W12    DC@MODLIB DC@W12V1  LVF0000000002W12LIB               
DEVDC@W12    DC@MODLIB DC@W12V1  LVF0000000003W12P#I               
DEVDC@W12    DC@MODLIB DC@W12V1  LVF0000000004W12RMT               
DEVDC@W12    DC@MODLIB DC@W12V1  LVF0000000005W12SYM               
DEVDC@W12    DC@MODLIB DC@W12V1  LVF0000000006W12COM               
DEVDC@W12    DC@MODLIB DC@W12V1  LVF0000000007W12USR               
DEVDC@W12    DC@MODLIB DC@W12V1  LVF0000000008W12US1               
DEVDC@W12    DC@MODLIB DC@W12V1  LVF0000000009W12US2               
DEVDC@W12    DC@MODLIB DC@W12V1  LVF0000000010W12US3               
DEVDC@W12    DC@MODLIB DC@W12V1  LVF0000000011W12HLD               
DEVDC@W12    DC@MODLIB DC@W12V1  LVF0000000012W12MSG               
DEVDC@W12    DC@MODLIB DC@W12V1  LVF0000000013W12SP1               
DEVDC@W12    DC@MODLIB DC@W12V1  LVF0000000014W12SNM               
DEVDC@W12    DC@MODLIB DC@W12V1  LVF0000000015W12EID               
DEVDC@W12    DC@MODLIB DC@W12V1  LVF0000000016W12APP               
DEVDC@W12    DC@MODLIB DC@W12V1  LVF0000000017W12DTV               
DEVDC@W12    DC@MODLIB DC@W12V2  LVF0000000001W12PRT               
DEVDC@W12    DC@MODLIB DC@W12V2  LVF0000000002W12LIB               
DEVDC@W12    DC@MODLIB DC@W12V2  LVF0000000003W12P#I               
DEVDC@W12    DC@MODLIB DC@W12V2  LVF0000000004W12RMT               
DEVDC@W12    DC@MODLIB DC@W12V2  LVF0000000005W12SYM               
DEVDC@W12    DC@MODLIB DC@W12V2  LVF0000000006W12COM               
DEVDC@W12    DC@MODLIB DC@W12V2  LVF0000000007W12USR               
DEVDC@W12    DC@MODLIB DC@W12V2  LVF0000000008W12US1               
DEVDC@W12    DC@MODLIB DC@W12V2  LVF0000000009W12US2               
DEVDC@W12    DC@MODLIB DC@W12V2  LVF0000000010W12US3               
DEVDC@W12    DC@MODLIB DC@W12V2  LVF0000000011W12HLD               
DEVDC@W12    DC@MODLIB DC@W12V2  LVF0000000012W12MSG               
DEVDC@W12    DC@MODLIB DC@W12V2  LVF0000000013W12SP1               
DEVDC@W12    DC@MODLIB DC@W12V2  LVF0000000014W12SNM               
DEVDC@W12    DC@MODLIB DC@W12V2  LVF0000000015W12EID               
DEVDC@W12    DC@MODLIB DC@W12V2  LVF0000000016W12APP               
DEVDC@W12    DC@MODLIB DC@W12V2  LVF0000000017W12DTV               
DEVDC@W14    DC@MODLIB DC@W14V1  LVF0000000001W14P#I               
DEVDC@W14    DC@MODLIB DC@W14V1  LVF0000000002W14PLN               
DEVDC@W14    DC@MODLIB DC@W14V1  LVF0000000003W14PRO               
DEVDC@W14    DC@MODLIB DC@W14V1  LVF0000000004W14FUN               
DEVDC@W14    DC@MODLIB DC@W14V1  LVF0000000005W14KWD               
DEVDC@W14    DC@MODLIB DC@W14V1  LVF0000000006W14DES               
DEVDC@W14    DC@MODLIB DC@W14V1  LVF0000000007W14LPR               
DEVDC@W14    DC@MODLIB DC@W14V1  LVF0000000008W14LFN               
DEVDC@W14    DC@MODLIB DC@W14V2  LVF0000000001W14P#I               
DEVDC@W14    DC@MODLIB DC@W14V2  LVF0000000002W14PLN               
DEVDC@W14    DC@MODLIB DC@W14V2  LVF0000000003W14PRO               
DEVDC@W14    DC@MODLIB DC@W14V2  LVF0000000004W14FUN               
DEVDC@W14    DC@MODLIB DC@W14V2  LVF0000000005W14KWD               
DEVDC@W14    DC@MODLIB DC@W14V2  LVF0000000006W14DES               
DEVDC@W14    DC@MODLIB DC@W14V2  LVF0000000007W14LPR               
DEVDC@W14    DC@MODLIB DC@W14V2  LVF0000000008W14LFN               
DEVDC@W14    DC@MODLIB DC@W14V3  LVF0000000001W14P#I               
DEVDC@W14    DC@MODLIB DC@W14V3  LVF0000000002W14PLN               
DEVDC@W14    DC@MODLIB DC@W14V3  LVF0000000003W14PRO               
DEVDC@W14    DC@MODLIB DC@W14V3  LVF0000000004W14FUN               
DEVDC@W14    DC@MODLIB DC@W14V3  LVF0000000005W14KWD               
DEVDC@W14    DC@MODLIB DC@W14V3  LVF0000000006W14DES               
DEVDC@W14    DC@MODLIB DC@W14V3  LVF0000000007W14LPR               
DEVDC@W14    DC@MODLIB DC@W14V3  LVF0000000008W14LFN               
DEVDC@W14    DC@MODLIB DC@W14V4  LVF0000000001W14P#I               
DEVDC@W14    DC@MODLIB DC@W14V4  LVF0000000002W14PLN               
DEVDC@W14    DC@MODLIB DC@W14V4  LVF0000000003W14PRO               
DEVDC@W14    DC@MODLIB DC@W14V4  LVF0000000004W14FUN               
DEVDC@W14    DC@MODLIB DC@W14V4  LVF0000000005W14KWD               
DEVDC@W14    DC@MODLIB DC@W14V4  LVF0000000006W14DES               
DEVDC@W14    DC@MODLIB DC@W14V4  LVF0000000007W14LPR               
DEVDC@W14    DC@MODLIB DC@W14V4  LVF0000000008W14LFN               
DEVDC@W14    DC@MODLIB DC@W14V5  LVF0000000001W14P#I               
DEVDC@W14    DC@MODLIB DC@W14V5  LVF0000000002W14PLN               
DEVDC@W14    DC@MODLIB DC@W14V5  LVF0000000003W14PRO               
DEVDC@W14    DC@MODLIB DC@W14V5  LVF0000000004W14FUN               
DEVDC@W14    DC@MODLIB DC@W14V5  LVF0000000005W14KWD               
DEVDC@W14    DC@MODLIB DC@W14V5  LVF0000000006W14DES               
DEVDC@W14    DC@MODLIB DC@W14V5  LVF0000000007W14LPR               
DEVDC@W14    DC@MODLIB DC@W14V5  LVF0000000008W14LFN               
DEVDC@W14    DC@MODLIB DC@W14V6  LVF0000000001W14P#I               
DEVDC@W14    DC@MODLIB DC@W14V6  LVF0000000002W14PLN               
DEVDC@W14    DC@MODLIB DC@W14V6  LVF0000000003W14PRO               
DEVDC@W14    DC@MODLIB DC@W14V6  LVF0000000004W14FUN               
DEVDC@W14    DC@MODLIB DC@W14V6  LVF0000000005W14KWD               
DEVDC@W14    DC@MODLIB DC@W14V6  LVF0000000006W14DES               
DEVDC@W14    DC@MODLIB DC@W14V6  LVF0000000007W14LPR               
DEVDC@W14    DC@MODLIB DC@W14V6  LVF0000000008W14LFN               
DEVDC@X01    DC@MODLIB DC@X01V1  LVF0000000001X01P#I               
DEVDC@X01    DC@MODLIB DC@X01V1  LVF0000000002X01PEN               
DEVDC@X01    DC@MODLIB DC@X01V1  LVF0000000003X01SEN               
DEVDC@X01    DC@MODLIB DC@X01V1  LVF0000000004X01PAG               
DEVDC@X01    DC@MODLIB DC@X01V1  LVF0000000005X01DES               
DEVDC@X01    DC@MODLIB DC@X01V1  LVF0000000006X01SP1               
DEVDC@X01    DC@MODLIB DC@X01V2  LVF0000000001X01P#I               
DEVDC@X01    DC@MODLIB DC@X01V2  LVF0000000002X01PEN               
DEVDC@X01    DC@MODLIB DC@X01V2  LVF0000000003X01SEN               
DEVDC@X01    DC@MODLIB DC@X01V2  LVF0000000004X01PAG               
DEVDC@X01    DC@MODLIB DC@X01V2  LVF0000000005X01DES               
DEVDC@X01    DC@MODLIB DC@X01V2  LVF0000000006X01SP1               
DEVDC@X01    DC@MODLIB DC@X01V5  LVF0000000001X01P#I               
DEVDC@X01    DC@MODLIB DC@X01V5  LVF0000000002X01PEN               
DEVDC@X01    DC@MODLIB DC@X01V5  LVF0000000003X01SEN               
DEVDC@X01    DC@MODLIB DC@X01V5  LVF0000000004X01PAG               
DEVDC@X01    DC@MODLIB DC@X01V5  LVF0000000005X01DES               
DEVDC@X01    DC@MODLIB DC@X01V5  LVF0000000006X01SP1               
DEVDC@X02    DC@MODLIB DC@X02V1  LVF0000000001X02P#I               
DEVDC@X02    DC@MODLIB DC@X02V1  LVF0000000002X02PEN               
DEVDC@X02    DC@MODLIB DC@X02V1  LVF0000000003X02SEN               
DEVDC@X02    DC@MODLIB DC@X02V1  LVF0000000004X02PLN               
DEVDC@X02    DC@MODLIB DC@X02V1  LVF0000000005X02PAG               
DEVDC@X02    DC@MODLIB DC@X02V1  LVF0000000006X02SET               
DEVDC@X02    DC@MODLIB DC@X02V1  LVF0000000007X02SEQ               
DEVDC@X02    DC@MODLIB DC@X02V1  LVF0000000008X02TXT               
DEVDC@X02    DC@MODLIB DC@X02V1  LVF0000000009X02SP1               
DEVDC@X02    DC@MODLIB DC@X02V2  LVF0000000001X02P#I               
DEVDC@X02    DC@MODLIB DC@X02V2  LVF0000000002X02PEN               
DEVDC@X02    DC@MODLIB DC@X02V2  LVF0000000003X02SEN               
DEVDC@X02    DC@MODLIB DC@X02V2  LVF0000000004X02PLN               
DEVDC@X02    DC@MODLIB DC@X02V2  LVF0000000005X02PAG               
DEVDC@X02    DC@MODLIB DC@X02V2  LVF0000000006X02SET               
DEVDC@X02    DC@MODLIB DC@X02V2  LVF0000000007X02SEQ               
DEVDC@X02    DC@MODLIB DC@X02V2  LVF0000000008X02TXT               
DEVDC@X02    DC@MODLIB DC@X02V2  LVF0000000009X02SP1               
DEVDC@X03    DC@MODLIB DC@X03V1  LVF0000000001X03P#I               
DEVDC@X03    DC@MODLIB DC@X03V1  LVF0000000002X03PEN               
DEVDC@X03    DC@MODLIB DC@X03V1  LVF0000000003X03SEN               
DEVDC@X03    DC@MODLIB DC@X03V1  LVF0000000004X03CMP               
DEVDC@X03    DC@MODLIB DC@X03V1  LVF0000000005X03TYP               
DEVDC@X03    DC@MODLIB DC@X03V1  LVF0000000006X03DES               
DEVDC@X03    DC@MODLIB DC@X03V1  LVF0000000007X03MOD               
DEVDC@X03    DC@MODLIB DC@X03V1  LVF0000000008X03FMT               
DEVDC@X03    DC@MODLIB DC@X03V1  LVF0000000009X03PAG               
DEVDC@X03    DC@MODLIB DC@X03V1  LVF0000000010X03TXT               
DEVDC@X03    DC@MODLIB DC@X03V1  LVF0000000011X03IOV               
DEVDC@X03    DC@MODLIB DC@X03V1  LVF0000000012X03SP1               
DEVDC@X03    DC@MODLIB DC@X03V2  LVF0000000001X03P#I               
DEVDC@X03    DC@MODLIB DC@X03V2  LVF0000000002X03PEN               
DEVDC@X03    DC@MODLIB DC@X03V2  LVF0000000003X03SEN               
DEVDC@X03    DC@MODLIB DC@X03V2  LVF0000000004X03CMP               
DEVDC@X03    DC@MODLIB DC@X03V2  LVF0000000005X03TYP               
DEVDC@X03    DC@MODLIB DC@X03V2  LVF0000000006X03DES               
DEVDC@X03    DC@MODLIB DC@X03V2  LVF0000000007X03MOD               
DEVDC@X03    DC@MODLIB DC@X03V2  LVF0000000008X03FMT               
DEVDC@X03    DC@MODLIB DC@X03V2  LVF0000000009X03PAG               
DEVDC@X03    DC@MODLIB DC@X03V2  LVF0000000010X03TXT               
DEVDC@X03    DC@MODLIB DC@X03V2  LVF0000000011X03IOV               
DEVDC@X03    DC@MODLIB DC@X03V2  LVF0000000012X03SP1               
DEVDC@XAA    DC@MODLIB DC@XAAV1  LVF0000000001XAAP#I               
DEVDC@XAA    DC@MODLIB DC@XAAV1  LVF0000000002XAASEN               
DEVDC@XAA    DC@MODLIB DC@XAAV1  LVF0000000003XAADES               
DEVDC@XAA    DC@MODLIB DC@XAAV1  LVF0000000004XAASP1               
DEVDC@XAA    DC@MODLIB DC@XAAV2  LVF0000000001XAAP#I               
DEVDC@XAA    DC@MODLIB DC@XAAV2  LVF0000000002XAASEN               
DEVDC@XAA    DC@MODLIB DC@XAAV2  LVF0000000003XAADES               
DEVDC@XAA    DC@MODLIB DC@XAAV2  LVF0000000004XAASP1               
DEVDC@XAP    DC@MODLIB DC@XAPV1  LVF0000000001XAPP#I               
DEVDC@XAP    DC@MODLIB DC@XAPV1  LVF0000000002XAPSEN               
DEVDC@XAP    DC@MODLIB DC@XAPV1  LVF0000000003XAPIDN               
DEVDC@XAP    DC@MODLIB DC@XAPV1  LVF0000000004XAPVAL               
DEVDC@XAP    DC@MODLIB DC@XAPV1  LVF0000000005XAPSP1               
DEVDC@XAP    DC@MODLIB DC@XAPV2  LVF0000000001XAPP#I               
DEVDC@XAP    DC@MODLIB DC@XAPV2  LVF0000000002XAPSEN               
DEVDC@XAP    DC@MODLIB DC@XAPV2  LVF0000000003XAPIDN               
DEVDC@XAP    DC@MODLIB DC@XAPV2  LVF0000000004XAPVAL               
DEVDC@XAP    DC@MODLIB DC@XAPV2  LVF0000000005XAPSP1               
DEVDC@XAP    DC@MODLIB DC@XAPV3  LVF0000000001XAPP#I               
DEVDC@XAP    DC@MODLIB DC@XAPV3  LVF0000000002XAPSEN               
DEVDC@XAP    DC@MODLIB DC@XAPV3  LVF0000000003XAPIDN               
DEVDC@XAP    DC@MODLIB DC@XAPV3  LVF0000000004XAPVAL               
DEVDC@XAP    DC@MODLIB DC@XAPV3  LVF0000000005XAPSP1               
DEVDC@XAP    DC@MODLIB DC@XAPV4  LVF0000000001XAPP#I               
DEVDC@XAP    DC@MODLIB DC@XAPV4  LVF0000000002XAPSEN               
DEVDC@XAP    DC@MODLIB DC@XAPV4  LVF0000000003XAPIDN               
DEVDC@XAP    DC@MODLIB DC@XAPV4  LVF0000000004XAPVAL               
DEVDC@XAP    DC@MODLIB DC@XAPV4  LVF0000000005XAPSP1               
DEVDC@XPR    DC@MODLIB DC@XPRV1  LVF0000000001XPRP#I               
DEVDC@XPR    DC@MODLIB DC@XPRV1  LVF0000000002XPRIDN               
DEVDC@XPR    DC@MODLIB DC@XPRV1  LVF0000000003XPRLBL               
DEVDC@XPR    DC@MODLIB DC@XPRV1  LVF0000000004XPRDES               
DEVDC@XPR    DC@MODLIB DC@XPRV1  LVF0000000005XPROPT               
DEVDC@XPR    DC@MODLIB DC@XPRV1  LVF0000000006XPRRST               
DEVDC@XPR    DC@MODLIB DC@XPRV1  LVF0000000007XPRLEN               
DEVDC@XPR    DC@MODLIB DC@XPRV1  LVF0000000008XPRSP1               
DEVDC@XPR    DC@MODLIB DC@XPRV2  LVF0000000001XPRP#I               
DEVDC@XPR    DC@MODLIB DC@XPRV2  LVF0000000002XPRIDN               
DEVDC@XPR    DC@MODLIB DC@XPRV2  LVF0000000003XPRLBL               
DEVDC@XPR    DC@MODLIB DC@XPRV2  LVF0000000004XPRDES               
DEVDC@XPR    DC@MODLIB DC@XPRV2  LVF0000000005XPROPT               
DEVDC@XPR    DC@MODLIB DC@XPRV2  LVF0000000006XPRRST               
DEVDC@XPR    DC@MODLIB DC@XPRV2  LVF0000000007XPRLEN               
DEVDC@XPR    DC@MODLIB DC@XPRV2  LVF0000000008XPRSP1               
DEVDC@XPV    DC@MODLIB DC@XPVV1  LVF0000000001XPVP#I               
DEVDC@XPV    DC@MODLIB DC@XPVV1  LVF0000000002XPVIDN               
DEVDC@XPV    DC@MODLIB DC@XPVV1  LVF0000000003XPVSEQ               
DEVDC@XPV    DC@MODLIB DC@XPVV1  LVF0000000004XPVVAL               
DEVDC@XPV    DC@MODLIB DC@XPVV1  LVF0000000005XPVSP1               
DEVDC@XPV    DC@MODLIB DC@XPVV2  LVF0000000001XPVP#I               
DEVDC@XPV    DC@MODLIB DC@XPVV2  LVF0000000002XPVIDN               
DEVDC@XPV    DC@MODLIB DC@XPVV2  LVF0000000003XPVSEQ               
DEVDC@XPV    DC@MODLIB DC@XPVV2  LVF0000000004XPVVAL               
DEVDC@XPV    DC@MODLIB DC@XPVV2  LVF0000000005XPVSP1               
