DEVXSSHPITM  DEVMODLIB 0000000001BCC0000000002XSCRTPRC             
DEVXSSHPITM  DEVMODLIB 0000000001BCC0000000004XSCRTTAX             
DEVXSSHPITM  DEVMODLIB 0000000001BCC0000000006XSCRTSHP             
DEVXSSHPITM  DEVMODLIB 0000000001BCC0000000008XSCRTQTY             
DEVXSSHPITM  DEVMODLIB 0000000001BCF0000000001XSITMPRC             
DEVXSSHPITM  DEVMODLIB 0000000001BCF0000000003XSITMTAX             
DEVXSSHPITM  DEVMODLIB 0000000001BCF0000000005XSITMSHP             
DEVXSSHPITM  DEVMODLIB 0000000001BCF0000000007XSQTY                
DEVXSSHPITM  DEVMODLIB 0000000001BCK0000000001XSCRTID              
