DEVENG ckeditor_layout     LANSA     XHTML     00000000010000100000010001F8B0800000000000000A5564D6FDB4610BD1BF07F608900690F2B927610C484E5A0489A43EB0468ABC2BE11ABE548DC64B94BEC0E4DA9BFBEC30F5114692A752B1F24CECE7B333B1F8FBE7DBFCB95F704D649A3977EB4087D0FB430A9D4DBA5FFD7EA137BE7BFBFBBBCB8BCB8FD8131EF0BCFC16B3FB127BE412AD1D844F1BD29F1F2A2B17F0427AC2C90F862EFC36FBF342E2B70E89DB8AD644E369E1735D35518BD65E1350BDFACC277F1F5551CBD61E1DB380C3DC6DAE03BA762B45CBB8DB1F938DF9D50650ACC822B15B2C2C246EEC02D7D55DFAD4A7D8FBEB58B8963E96788451C0455552DAAEB85B1DB20BAB9B9091EFFBC0F5607FE03002016030401432146561
DEVENG ckeditor_layout     LANSA     XHTML     0000000001000020000000000A0C69F201439F085307970158657C1E3E7FBE08F52235D857DE4C83BDC6C905D86B93A9057E9596ACAE701D60A905141E556FBC73AC8BC3016BD8CEEB9F41DA609669003B94649248C5A908FEF0577B3DEFB02DCC889FA5294E8E58099A1BC76759A2697C8E8174B41286E393615DF839B4E8827750A1A97BE361D6995C629B541CB1A75573F6EAD290B4FD3002DFD879F3F7BF7CD34B8DAFF3638756FF1B043B09AABBAAFA6B4025C77E070AFA0637A7C5885D1AFBEA78CE812CC80A7608F694CBCEFA3309A050473810F330879A1381E08DB91F669C8626B1434058E3BE3A1B605D52EEFFCD75C7CA31E171CDBA63548944522A9EAED0375A7002016030401432146561
DEVENG ckeditor_layout     LANSA     XHTML     0000000002000010000000752A5591B62E4DAF71CF5565071375C39F8F1A741DB86D4C2B9642355DD9E13CE03FAF5EB19205DD7F2169A888C5B073843F14A55B04E1AFF91FBB3C419A78C9A757AC125D196F377FCFA7B0976FFC57C307AA3A418E7F97FCAF7953FF156B8FE5B15DB0DFA4E01835A51E294A4A2FDE5C0929431A91D5D5BD4E3E8DA03A124ED133B5F5F97992A4189EA656374B6C20D5D82D4E3739C39EE3079E256F2751DFC743E84D135BEBD081968EF516A605DA6CF86AD648AD928483DD00AF416B3A4246118F4200AC3B0D8CD75A2E16A546E44D8EE65323CEF29EB37463ACFA8D37F53EA17958517058D70A341C3D274E105578A8DC4662AF5BDC6541233002016030401432146561
DEVENG ckeditor_layout     LANSA     XHTML     0000000002000020000000000765E68FA6CA647C12CCD40547AFCC0360F7C56547A8A674FE7C98E42D2331C4DF3B0A95AF4F0E9D1199A89321C692647F334F50B47C9BFE113CDC199659CE0C6C2D2071F1FCC530C85A2870F8DF3D0A11EF4D0A1711EDAED748FEA9EBF03182DE6ABA1F11C74B8A103F0D0DCBEE027DBD55B0786F6AF331FFE2D24FB3F00                                                                                                                                                                                                                                                        002016030401432146561
DEVENG dm_det30_layout     LANSA     XHTML     00000000010000100000010001F8B0800000000000000A556DB6EDB46107D37E07F6089006951AC48DA091A139683A06E1E0A3B405A15F61BB12247E226CB5D62776852FDFA0E2FA228D254EA447E90383BE7CCEC5C0E7DFDBECAA4F304C60AAD966EB0F05D0754AC13A1B64BF79FD547F6CE7D7F737E767E76FD1363CE279E81D37E4227C9A204F0D28F24DFE902CFCF1AFB2DD8D8881C892F746EEFA3DB3F5697BE73E4B2121958E4595EB35CF8C15BE6BF63C19B957F190617E1DBDF7E0DFCD0F71DC6DAC09595211AAEEC469B6C9C6B15CB220166C01612596E60232AB04B57D6F72A13D7A16F6543E258BA29621E7A5E59968BF272A1CDD60BAEAEAEBCC7BFEFBCD59E7F002015081301712574021
DEVENG dm_det30_layout     LANSA     XHTML     00000000010000200000000000FA8F14708490E7C11EBCCBBF0FD0BEFF1FECEFBAB50485761B71C79879B0D52A598C93D79999CA4A67C1E602D011915536C957BA883C8726DD049E99E4BD76212610A19906B1005B1960BF2711DEF66D67B97831D39515FF2029D0C30D5945755A7A933818C7EB10462C90DC7A6E23BB0D3E970844A40E1D255BA232D9330A1362851A36EEAC7ADD145EE281A9EA5FBF0E1DEB96BA6C1D6FED7DEB17B8B870AC1282EEBBEEAC2C460BB038B3B091DD3E3C3CA0FFE741DA9E32EC1147802E690C6C4FB2EF08359803717783F8390E592E39EB01D6997862C345A4253E0B033EE6B9B53EDB2CE7FCDE3AFD4E39C63DBB40689228F0455BD7DA0EE002015081301712574021
DEVENG dm_det30_layout     LANSA     XHTML     0000000002000010000000756B4346B4D8C5CB98EA5DEC654DC0D97167EFE65D0B621756C6DB411B26ECF11E71EFDFAF50C90AE6B780B8DE2941B0B3843F14A96B08E1AFF91FBB3C429A78C9A757AC125D114F377FCF2B900B3FBA47FD76A23453CCEF347CAF7853FF156B4BEAF8AED067DA3805EAD28614252D1FEB26048CA985096AE1DD7E368DB83580ADA2776BABE36D5658402E5CBC6E864851BBA08A9C7A73833AC307AE246F0751DFC783E62AD6A7C7B1132D0DEA350C0BA4C9F0D5B8A04D351907AA025A82DA65141C230E841E0FB7E5ECD75A2E16A546E44D8EE65343CEF29EB374632CFA892FF53EA179585E7398D70A341C3D274E1632E251B89CD54EA7B8D2905002015081301712574021
DEVENG dm_det30_layout     LANSA     XHTML     0000000002000020000000000A6ECB4D0F4D94C8FBC599A81A8F4F8816D1EF8ACA8F414CF9ECE931D84A4673898E66153B5E8E1D3A31334136538D04C8EE669EA178E14FFC2479A8313CB38C18D85A50F3E3E98A7180A450F1F1AE7A1433DE8A143E33CB4DBE91ED53D7F03305ACC5743E329E8704307E0A1B97DC14FB6ABB70E0CED5F67DEFF5B48F6FF0000                                                                                                                                                                                                                                                    002015081301712574021
DEVENG dm_det31_layout     LANSA     XHTML     00000000010000100000010001F8B0800000000000000A5566D6FA34610FE1E29FF81A293AE55B50692AB7441714E55D3FB502527DD9DABE41B5AC3D86CBAECA2DD21E0FEFA0E2FC61882D3B449249B99799E9D9D97875C7FAA32E93C83B142ABA51B2C7CD70115EB44A8EDD2FD73F5997D743FDD9C9F9D9F5DFFC098F38567E0B43FA19364510278194492EF7481E7678DFD166C6C448EC4173AB7F7D1EDEFABCBC0390A59890C2CF22CAF592EFCE017E67F64C187957F1906F4E7FF1CF8A1EF3B8CB50757568668B8B21B6DB271AE552C8B0498015B4864B9818DA8C02E5D59DFAB4C5C873E950D8963E9A68879E87965592ECACB85365B2FB8BABAF21EBFDF79AB3DFF1E50002015081301713105591
DEVENG dm_det31_layout     LANSA     XHTML     0000000001000020000000000E38F109202F822D69977E1FB17DEE3FD9DF7AD50485761B71C79879B3DA44A31937BF23239494DF93CC05A02322AA6D82AF7500791E5DAA093D23D97AEC524C21432A0D0200A622D1714E33ADECD6CF42E073B0AA2BEE4053A1960AA29AFAA4E536702197D6309C4921B8E4DC57760A7D3E1089580C2A5AB74475A2661426D50A246DDD48F5BA38BDC51343C4BF7E1D77BE7AE99065BC75F7BC7E12D1E2A04A3B8ACFBAA0B1383ED1C1677123AA6C787951FFCE13A52C75D8229F004CC218D49F45DE007B3006FEEE0FD0C42964B8E7BC276A45D1AB2D068094D81C3CEB8AF6D4EB5CBBAF8358FFFA21EE71CDBA63548147924A8EAED0375A7A5002015081301713105591
DEVENG dm_det31_layout     LANSA     XHTML     0000000002000010000000750596B62E4CA752CF536A6E26EB8B4F0E34F83B60DA9636BA38D90757B8E38F7E8F7EF6780745DC35B6814A7DC58C0198A77B28475D4C48FC25F244E3965D4ACD31B2E89A698BFE3D3D702CCEE8BFE4DAB8D14F138CFFF53BE27FECC5BD1FA6F556C37E895027AB5A284094945FBCD822129634259BA765C8FA36D1DB114B44FEC747D6DAACB0805CAB78DD1C90A377411528F4F71665861F4CC8DE0EBFAF0E3F988B5AAF1ED45C8407B8F4201EB327DF1D85224988E0EA9075A82DA621A15240C831E04BEEFE7D55C271AAE46E54684ED5E46437F4F59BF3192794695FC9B52BFA92C3CCF69841B0D1A96A63B3EE652B291D84CA5BED7985260CA002015081301713105591
DEVENG dm_det31_layout     LANSA     XHTML     00000000020000200000000004E0B4D9FCDD4E5CDD20C44A5C70F6CF3C01745A5A778D13B4F7610929EE1609A874DD5A2874F5D276826CA70A099B8E669EA178E147FC3679A8313CB38C18D85A53F7CEC98A7180A450F1F1AE7A1433DE8A143E33CB4DBE91ED53DBF02182DE6BBA1F11474B8A103F0D0DCBEE027DBD55B0786F6B733EFFF2D24FB3F00                                                                                                                                                                                                                                                          002015081301713105591
DEVENG dm_det32_layout     LANSA     XHTML     00000000010000100000010001F8B0800000000000000A5566D6FA34610FE1E29FF81A293AEA7D31A707AD205C539554DEF43959CD4D655F20DAD616CF6BAECA2DD21E0FEFA0E2FC61882EFD226916C66E67976765E1E72F3A9CAA4F30CC60AAD566EB0F05D0754AC13A1762BF7AFF567F6D1FD747B79717971F30363CE179E81D3FE844E924509E0D532927CAF0BBCBC68EC776063237224BED0B97B88EE7E5D5F2D9D9390B5C8C022CFF29A65E9071F98FF91053FADFDAB30A0BFE5FBC00F7DDF61AC3DB8B23244C395DD6A938D73AD625924C00CD84222CB0D6C450576E5CAFA5E65E23AF4A96C481C2B3745CC43CF2BCB72515E2DB4D979C1F5F5B5F7F4E7BDB73EF01F00002015081301713130431
DEVENG dm_det32_layout     LANSA     XHTML     000000000100002000000000035FE042129802F629D794BDF5F7A4F0FF7DE1F8542BA0ABBE3C83BDCEC21558A993C9097C9596ACAE7113612905131C54EB9C73A882CD7069D94EEB9722D2611A69001850651106BB9A018D7F16E67A3F739D85110F5252FD0C900534D7955759A3A13C8E81B4B2096DC706C2ABE073B9D0E47A80414AE5CA53BD23209136A831235EAB67EDC195DE48EA2E159B98F3F3F38F7CD34D83AFEC63B0D6FF1502118C565DD575D98186CE7B0B897D0313D3DAEFDE037D7913AEE124C8127608E694CA2EF033F98057873071F6610B25C723C10B623EDD29085464B680A1C76C6436D73AA5DD6C56F78FC37F538E7D836AD41A2C82341556F1FA83B2D002015081301713130431
DEVENG dm_det32_layout     LANSA     XHTML     0000000002000010000000752CD46132357AE63A9B7311577CBA5851FDF0DDA36A48EAD8DB642D6ED39E13CA0DFBE9D01D2750D6FA1519C7263016728DEC8123651133F0A7F9138E59451B34EAFB8249A62FE8E5F7F2FC0ECBFE85FB4DA4A118FF3FC3FE5FBCA9F792B5AFFAD8AED067DA3805EAD28614252D17EB36048CA985096AE1DD7E3685B472C05ED133B5F5F9BEA324281F2756374B6C20D5D84D4E3739C1956183D7323F8A63EFC743E62AD6A7C7B1132D0DEA350C0BA4C5F3CB61409A6A343EA8196A07698460509C3A00781EFFB7935D78986AB51B91161BB97D1D0DF53D66F8C649E5125DF53EA579585E7398D70A341C3D274C7C75C4A36129BA9D4F71A530A4C002015081301713130431
DEVENG dm_det32_layout     LANSA     XHTML     0000000002000020000000000D979A1E9B399BABC599A81A8F4F8816D1EF8A2A8F4142F7AE7C98E42D2331C4DF3B0A95AF4F0A9EB0CCD44198E3413D73C4DFDC291E21FF84C7370661927B8B1B0F4878F1DF31443A1E8E143E33C74A8073D74689C87763BDDA3BAE76F00468BF966683C071D6EE8003C34B72FF8C976F5D681A1FDEDCC877F0BC9FE2F00                                                                                                                                                                                                                                                        002015081301713130431
DEVENG dm_det33_layout     LANSA     XHTML     00000000010000100000010001F8B0800000000000000A5566D6FA34610FE1E29FF81A293EEAA6A0DC46D7541714E55D3FB704A4EBAD655F20DAD616CF6BAECA2DD21E0FEFA0E2FC61882AF6993483633F33C3B3B2F0FB9F95065D279066385562B3758F8AE032AD68950BB95FBE7FA237BEF7EB8BDBCB8BCB8F98E31E733CFC0697F4227C9A20470B98C24DFEB022F2F1AFB1DD8D8881C892F74EE1EA2BBDFD6CBA57312B2161958E4595EB35CF9C14FCC7FCF821FD7FE320CE8EFE71F023FF47D87B1F6E0CACA100D5776AB4D36CEB58A65910033600B892C37B01515D8952BEB7B9589EBD0A7B22171ACDC14310F3DAF2CCB45B95C68B3F382EBEB6BEFE98F7B6F7DE03F00002015081301713168871
DEVENG dm_det33_layout     LANSA     XHTML     00000000010000200000000006AFC094252005FC43AF3AE7CFFCA7B7AB8F77E2F14D255D81D47DEE1660FA952CCE481BC4CCE52533E8FB091808C8A2976CA3DD64164B936E8A474CF956B318930850C2834888258CB05C5B88E773B1BBDCFC18E82A82F79814E06986ACAABAAD3D4994046DF5802B1E4866353F13DD8E974384225A070E52ADD91964998501B94A851B7F5E3CEE82277140DCFCA7DFCE5C1B96FA6C1D6F137DE69788B870AC1282EEBBEEAC2C4603B87C5BD848EE9E971ED079F5C47EAB84B30059E8039A63189BE0FFC6016E0CD1D7C9841C872C9F140D88EB44B43161A2DA12970D8190FB5CDA9765917BFE1F15FD4E39C63DBB40689228F0455BD7DA0EEB4002015081301713168871
DEVENG dm_det33_layout     LANSA     XHTML     0000000002000010000000752341B4D8C5CB98EA5DEC654DC2D9716DE7D3F68DB903AB636DA0A59B7E784F3807EFB760648D735BC854671CA8D059CA178234BD8444DFC28FC45E2945346CD3ABDE292688AF93B7EFD5280D97FD6BF6AB595221EE7F97FCAF7953FF356B4FE5B15DB0DFA4601BD5A51C284A4A2FD66C1909431A12C5D3BAEC7D1B68E580ADA2776BEBE36D5658402E5EBC6E86C851BBA08A9C7E73833AC307AE646F04D7DF8E97CC45AD5F8F62264A0BD47A1807599BE786C29124C4787D4032D41ED308D0A1286410F02DFF7F36AAE130D57A37223C2762FA3A1BFA7ACDF18C93CA34AFE4DA95F55169EE734C28D060D4BD31D1F7329D9486CA652DF6B4C2930002015081301713168871
DEVENG dm_det33_layout     LANSA     XHTML     000000000200002000000000065E785A6CF66EAF2666906A2D2E307B679E08BA2D253BCE89D273B0A49CF7034CDC3A66AD1C3A7AE3334136538D24C5CF334F50B478ABFE123CDC199659CE0C6C2D21F3E76CC530C85A2870F8DF3D0A11EF4D0A1711EDAED748FEA9EBF01182DE69BA1F11C74B8A103F0D0DCBEE027DBD55B0786F6B7331FFE2D24FB3F00                                                                                                                                                                                                                                                        002015081301713168871
DEVENG dm_det35_layout     LANSA     XHTML     00000000010000100000010001F8B0800000000000000A5566D6FA34610FE1E29FF81A293AE55B506E246BAA038A7AAE97D382527B575957C436B189BBD2EBB687708B8BFBEC38B3186E06B5AE783CDEC3CCFCCCECB436E3F5699745EC058A1D5CA0D16BEEB808A7522D46EE5FEB9FEC43EB81FEF2E2F2E2F6EBF63CCF9C23370DA4FE8245994002EAF23C9F7BAC0CB8BC67E0F36362247E20B9DFBC7E8FED7F5F2DA3971598B0C2CF22CAF59AEFCE09AF91F58F0D3DA5F86C132BCF27F0CFCD0F71DC6DAC09595211AAEEC569B6C9C6B15CB220166C01612596E602B2AB02B57D6F72A13D7A16F6543E258B929621E7A5E59968B72B9D066E705373737DEF31F0FDEFAC07F00002015081301713206991
DEVENG dm_det35_layout     LANSA     XHTML     0000000001000020000000000D4F813842407BE8875E65DF9FE95F7FCF8E0FD5E28A4ABB07B8EBCC3CD06A952CCE481BC4CCE52533E4FB091808C8A2976CA3DD64164B936E8A474CF956B318930850CC835888258CB05F9B88E7737EBBDCFC18E9CA82F79814E06986ACAABAAD3D4994046BF5802B1E4866353F13DD8E974384225A070E52ADD91964998501B94A85177F5E3CEE82277140DCFCA7DFAF9D17968A6C1D6FEB7DEA97B8B870AC1282EEBBEEAC2C460BB038B7B091DD3F3D3DA0F3EBB8ED47197600A3C01734C63E2FD10F8C12CC09B0B7C9841C872C9F140D88EB44B43161A2DA12970D8190FB5CDA97659E7BFE1F15FD4E39C63DBB40689228F0455BD7DA0EEB4002015081301713206991
DEVENG dm_det35_layout     LANSA     XHTML     0000000002000010000000754341B4D8C5CB98EA5DEC654DC2D9716BEFF61D0B621756C6DB415B26ECF09E701FDFEFD0C90AE6B780B8DE2941B0B3843F14E96B0891AFF91FBABC429A78C9A757AC325D114F377FCFA5B0166FF45FFA2D5568A789CE7FF29DF57FEC25BD1FA6F556C37E81B05F46A450913928AF697054352C684B274EDB81E47DB1EC452D03EB1F3F5B5A92E231428DF3646672BDCD045483D3EC7996185D10B37826FEAE0A7F3116B55E3DB8B9081F61E8502D665FA6AD85224988E82D4032D41ED308D0A1286410F02DFF7F36AAE130D57A37223C2762FA3E1794F59BF3192794695FC9B52BFA92C3CCF69841B0D1A96A60B1F7329D9486CA652DF6B4C2930002015081301713206991
DEVENG dm_det35_layout     LANSA     XHTML     000000000200002000000000065E785A6CF667AE4CDD20C44A5C70F6CF3C05745A5A778F5749EEC28243DC3D1340F9BAA450F9F1E9DA19928C3916672344F53BF70A4F81B3ED11C9C59C6096E2C2C7DF0F1C13CC550287AF8D0380F1DEA410F1D1AE7A1DD4EF7A8EEF91B80D162BE1B1ACF41871B3A000FCDED0B7EB25DBD756068FF3AF3E1DF42B2FF0300                                                                                                                                                                                                                                                      002015081301713206991
DEVENG dm_det37_layout     LANSA     XHTML     00000000010000100000010001F8B0800000000000000A556DB6EDB46107D37E07F6088006911AC484A2912139683A26E1E0A3B405A05F61BB12247E2A6CB5D6277684AFDFA0E2FA228D254E2567E90383BE7CCEC5C0E7DFD719749E7098C155A2DDD60E6BB0EA85827426D97EED7D527F6C1FD787379717971FD8A31E733CFC0693EA193645102B8781F49BED7055E5ED4F65BB0B11139125FE8DCDE47B7BFAF16EF9D139795C8C022CFF28A65EE07BF30FF030BDEADFC45182CC2F9FC6DE087BEEF30D604DE5919A2E1CA6EB4C986B9EE625924C00CD84222CB0D6CC40EECD295D5BDCAC475E85BD99038966E8A98879E5796E5AC5CCCB4D97AC1D5D595F7F8D79DB73AF01F002015081301713227461
DEVENG dm_det37_layout     LANSA     XHTML     00000000010000200000000000015FE0421C981CF629D7973DF9F7B8FF777DE9F8542BA0ABBE5C85BDC64905D8A993C9097C9596ACAE701D612905131C556B9C73A882CD7069D94EEB9742D2611A69001B90651106B39231FD7F16E26BDF739D88113F5252FD0C900534D79EDAA34752690D12F96402CB9E158577C0F763C1D8E5009285CBA4AB7A4651226D406252AD44DF5B835BAC81D45C3B3741F7EBD77EEEA69B095FFB577EADEE06187601497555F756162B0ED81C5BD8496E9F161E5077FB88ED4719B600A3C01734C63E47D17F8C124C09B0A7C9841C872C9F140D88CB44B43161A2DA12E70D81A0FB5CDA97659EBBFE6F1DFD4E39C63D3B41A89228F0455BD79A0EE002015081301713227461
DEVENG dm_det37_layout     LANSA     XHTML     000000000200001000000075634346B4D8C5CB98EA5DEC654DC0D97167EFAB9D7B63E756C6DB411B26ACF09E701FDE6CD0490AE6B78038DE2941B0B3841F15A96B08E6AFF81FBB3C429A78CEA757AC125D114D377FCF6A500B3FFAC7FD36A23453CCCF3FF94EF1B7FE28D68FDB72A361BF49D027A95A284094945F3CB822129634259BA765C8DA36D0E6229689FD8F9FADA5497110A942F1BA3B315AEE922A41E9FE3CC7087D1133782AFABE0A7F3116B55E19B8B9081F61E8502D666FA6CD85224980E8254032D416D318D0A12865E0F02DFF7F3DD54276AAE5AE50684CD5E46FDF38EB27A6324D38C2AF99152BFA82C3CCF69846B0DEA97A60D1F7329D9406CC652DF694C29002015081301713227461
DEVENG dm_det37_layout     LANSA     XHTML     00000000020000200000000003065E785A6CB667CE44DD2F444A5C3F76CD3C06745A5A378F6749AEC28241DC3D1340D1BAB45071F1F9DA11929C3916674344D53BD70A4F8073ED11C9C59C6116E282C5DF0E1C134455F283A78DF380DEDEB4107ED1BA7A1ED4E77A8F6F93B80C162BEEE1BCF41FB1BDA03F7CDCD0B7EB45D9DB56768FE5AF3E1DF42B2FF0B00                                                                                                                                                                                                                                                    002015081301713227461
DEVENG dm_det39_layout     LANSA     XHTML     00000000010000100000010001F8B0800000000000000A556DB6EDB46107D37E07F6089004951AC485A4D10119683A26E1E023B401A05F61BB12247E2A6CB5D6277684AFDFA0E2FA228D254EA567E90383BE7CCEC5C0E7DFD619749E7098C155A2DDD60E6BB0EA85827426D97EEB7D547F6DEFD707379717971FD1363CE679E81D37C4227C9A20470BE8824DFEB022F2F6AFB2DD8D8881C892F746EEFA3DB3F56F38573E2B2121958E4595EB15CF9C15BE6BF67C1AF2B7F1E06F3F0EADD2F811FFABEC3581378676588862BBBD1261BE6BA8B65910033600B892C37B0113BB04B5756F72A13D7A16F6543E258BA29621E7A5E5996B3723ED366EB058BC5C27BFC7AE7AD0EFC07002015081301713265431
DEVENG dm_det39_layout     LANSA     XHTML     000000000100002000000000040853F414872E0B35867DE95EF5F798FF777DE9F8542BA0ABBE5C85BDC64905D8A993C9097C9596ACAE701D612905131C556B9C73A882CD7069D94EEB9742D2611A69001B90651106B39231FD7F16E26BDF739D88113F5252FD0C900534D79EDAA34752690D12F96402CB9E158577C0F763C1D8E5009285CBA4AB7A4651226D406252AD44DF5B835BAC81D45C3B3741F7EBB77EEEA69B095FFB577EADEE06187601497555F756162B0ED81C5BD8496E9F161E5079F5C47EAB84D30059E8039A631F2BE0BFC6012E04D053ECC2064B9E478206C46DAA5210B8D965017386C8D87DAE654BBACF55FF3F82FEA71CEB1695A8D44914782AADE3C5077002015081301713265431
DEVENG dm_det39_layout     LANSA     XHTML     00000000020000100000007561A9AB52646AE5CC7526F632AEE864B0B6F7EEEB5AD4F1D5B1B6D84ACDA73C27940BF7E3D01A4EB1ADE40A338E5C6024E50BC9225ACA3DA7FE0FE2C71CA29A37A9D5E704934C5F41DBF7F29C0EC3FEBDFB5DA48110FF3FC3FE5FBCE9F78235AFFAD8ACD06FDA0805EA528614252D1FCB26048CA985096AE1D57E3689B83580ADA2776BEBE36D5658402E5CBC6E86C856BBA08A9C7E73833DC61F4C48DE0EB2AF8E97CC45A55F8E62264A0BD47A180B5993E1BB61409A68320D5404B505B4CA38284A1D783C0F7FD7C37D5899AAB56B90161B39751FFBCA3ACDE18C934A34AFE4DA95F54169EE734C2B506F54BD3868FB9946C203663A9EF34A614002015081301713265431
DEVENG dm_det39_layout     LANSA     XHTML     000000000200002000000000098B2F342D365333EF226697AA2D2E17BB669E0B3A2D2513C7B3A4D7614928EE1689A868DD5A2838F8FCED08C94E148333A9AA6A95E3852FC0D1F690ECE2CE3083714962EF8F0609AA22F141DBC6F9C86F6F5A083F68DD3D076A73B54FBFC03C060315FF58DE7A0FD0DED81FBE6E6053FDAAECEDA33347FADF9F06F21D9FF0100                                                                                                                                                                                                                                                    002015081301713265431
DEVENG dm_det40_layout     LANSA     XHTML     00000000010000100000010001F8B0800000000000000A5566D6FA34610FE1E29FF81A293AE55B50692544A509C53D5F43E9C92937AE72AF986D630367B5D76D1EE10707F7D8717630CC1D7B4CE079BD9799E999D9787DC7EA832E9BC80B142ABA51B2C7CD70115EB44A8EDD2FD73F5915DBB1FEECECFCECF6E7F60CCF9CC3370DA4FE8245994005EF991E43B5DE0F95963BF071B1B9123F185CEFD6374FFFBEACA778E5C5622038B3CCB6B960B3FF885F9D72CB85AF9976170195E5CFF1CF8A1EF3B8CB5812B2B43345CD98D36D938D72A964502CC802D24B2DCC046546097AEACEF5526AE43DFCA86C4B17453C43CF4BCB22C17E5E5429BAD17DCDCDC78CF5F1FBCD59E7F0F002015081301713290121
DEVENG dm_det40_layout     LANSA     XHTML     0000000001000020000000000A8F14708490E7C11EBCCBBF0FD0BEFF9F1C1FB5228A4ABB07B8EBCC3CD06A952CCE49EBC4C4E52533E4FB096808C8A29B6CA3DD44164B936E8A474CFA56B318930850CC835888258CB05F9B88E7737EBBDCBC18E9CA82F79814E06986ACAABAAD3D4994046BF5802B1E4866353F11DD8E974384225A070E92ADD91964998501B94A85177F5E3D6E82277140DCFD27DFAF5D17968A6C1D6FEB7DEB17B8B870AC1282EEBBEEAC2C460BB038B3B091DD3F3D3CA0F3EB98ED47197600A3C01734863E2FD10F8C12CC09B0BBC9F41C872C9714FD88EB44B43161A2DA12970D819F7B5CDA97659E7BFE6F15FD4E39C63DBB40689228F0455BD7DA0EEB4002015081301713290121
DEVENG dm_det40_layout     LANSA     XHTML     0000000002000010000000754346B4D8C5CB98EA5DEC654DC0D97167EFC69D0B621756C6DB411B26ECF11E71EFDFEFD0C90AE6B780B8DE2941B0B3843F14E96B08E1AFF91FBABC429A78C9A757AC325D114F377FCF6470166F759FFA6D5468A789CE7FF29DF37FEC25BD1FA6F556C37E83B05F46A450913928AF697054352C684B274EDB81E47DB1EC452D03EB1D3F5B5A92E231428DF3646272BDCD045483D3EC5996185D10B3782AFEBE0C7F3116B55E3DB8B9081F61E8502D665FA6AD85224988E82D4032D416D318D0A1286410F02DFF7F36AAE130D57A37223C2762FA3E1794F59BF3192794695FC9B52BFA92C3CCF69841B0D1A96A60B1F7329D9486CA652DF6B4C2930002015081301713290121
DEVENG dm_det40_layout     LANSA     XHTML     000000000200002000000000065A785A6CF667AE4CDD20C44A5C70F6CF3C05745A5A778F5749EEC20243DC3C1340F9BAA450F9F1E9DA09928C3816672344F53BF70A4F81B3ED21C9C58C6096E2C2C7DF0F1C13CC550287AF8D0380F1DEA410F1D1AE7A1DD4EF7A8EEF93B80D162BE1B1A4F41871B3A000FCDED0B7EB25DBD756068FF3AF3FEDF42B2FF0300                                                                                                                                                                                                                                                      002015081301713290121
DEVENG dm_filt5_layout     LANSA     XHTML     00000000010000100000010001F8B0800000000000000A556DB6EDB38107D0F907F5085026D51D0929206688438C56283005B3805DABA48DE045AA22D662952204791BC5FBFA38B65590A9D66D779B0359C73663897A35C7DA932E13C316DB892733798F9AEC364AC122E3773F7D7F2967C76BF5C9F9E9C9E5CBD21C4F94633E6B49FD049B268CD055C44826E5501A7278DFD869958F31C902F746EEEA2DBBF16CB0BE7C065C93366806679CD72E60717C4FF4C824F4BFF3C0CCEC373FF63E087BEEF10D206AE8C08415369D64A67E35CAB581409239A994200C9355BF38A99B92BEA7B9589EBE0B7342172CCDD14200F3DAF2CCB59793E537AE305979797DEC3CF85B7DCF1EF002015081301713308241
DEVENG dm_filt5_layout     LANSA     XHTML     00000000010000200000000000035FE0021D081CE62957967BE7FE63DDC2DBC1F8504BC0AB9A1403B9C354895422676E46572941AF3B9672BC1806031F946BAFB3AF02C571A9C14EF39770D2411A42C63E81A4441ACC40C7D5CC7BBB67A6F7366464ED897BC002763902ACCABAAD354190782BF48C262413585A6E25B66A6D3E1709930097357AA8EB44CC204DB20798DBAAE1F375A15B9237178E6EEFD1F77CEA2990653FB5F7987EE2D9E55C0B4A4A2EEAB2A74CC4C7760602B58C7F470BFF483AFAE2354DC2598329A30BD4F63E2BD08FCC00AF06C817733C8B25C50D811B623EDE290855A09D61438EC8CBBDAE658BBACF35FD1F86FEC714EA16D5A83049E471CABDE3E60002015081301713308241
DEVENG dm_filt5_layout     LANSA     XHTML     0000000002000010000000752775A9A9542462A5DC7606F632CEE9A0AC3DE7F18B46D481D1B53AF62DD9E03CE1DFADD3B0B10AFAB690B8DE2946AC3C042F156946C1535FE23F76789538A1935EBF48A4B822EEC777CFC5E30BDFDA6FE54722D783CCEF3FF94EF913ED156B4FE5B15DB0D7AA1805EAD28618252D1FE324CA394112E0D5E3BAEC7D1B407B1E0B84FE4787D4DAACA083888D78DD1D10A377411608F8F71665041F44435A7AB3AF8E17CC44AD6F8F62268C0BD072E19E9327D366CC913484741EA81164C6E208D0A1486410F02DFF7F3CAD68986AB51B91161BB97D1F0BCA7ACDF18899D5126BF53EA579585E6398E70A341C3D274E1632A041989CD54EA7B8D2939002015081301713308241
DEVENG dm_filt5_layout     LANSA     XHTML     0000000002000020000000000A4E4B8D0F4D94C8F3C2BCD40547AFCC066073E2B2A3DC5B3A776B2BD90F40C7B931D36558B1E3E3D3A423351863DCDE4C84E53BF7004FF87DDE21C1C59C6096E2C2C7DF0F1819D6228143D7C68B443877AD04387463BB4DBE91ED53DBF00182DE6DBA1F11874B8A103F0D0DCBEE027DBD55B0786F6AF33EFFE2D44FBBF00                                                                                                                                                                                                                                                        002015081301713308241
DEVENG dm_filt8_layout     LANSA     XHTML     00000000010000100000010001F8B0800000000000000A556DB6EE336107D0F907F608505B645414B4A5A2011E22C8A06015A380BB47591BC09B4445BDC52A4408E22B95FDFD1C5B22C85DEA6751E6C0DE79C19CEE528779FEA5C92576EACD06AE9858BC0235C253A156AB7F4FE5C3FD21BEFD3FDE5C5E5C5DD379492CF2CE7A4FB4424CDE3AD9070134BB6D7255C5EB4F6076E13230A40BE883C3CC58FBFACD637E4C4652D726E81E545C37215843FD2E086863FAC83EB28BC8EAEAFBE0F83280808A55DE0DACA080C5376AB4D3ECDB54E6499726AB82D25D0C2F0ADA8B95D7AB2B957957A04BF958D9063E9650045E4FB55552DAAEB85363B3FBCBDBDF55FFE58F9EB03FF01002015081301713322151
DEVENG dm_filt8_layout     LANSA     XHTML     0000000001000020000000000D0E04F10121DD822D1B97F150457FECBD3CAFFBD548057A10F0C588F7306A933C8E581BC4ACF52633ECF7C2339502CA6D829EF58079117DA00C9F09E4BCF421A43C6738EAE611C265A2ED0C723FEBDD37B5F703B71C2BE1425909C43A631AFBA4953E70228FEA2294F24330CDA8AEFB99D4F07112AE50A969ED23D69954629B641890675DF3CEE8C2E0BA2707896DEF34F4F64D54E836DFCEFFC53F70ECF6BE04631D9F4559726E1B63FB0B097BC677A795E07E1AF1E913AE913CC384BB939A631F35E8541E804F8AEC08719E47921191C08BB91F670C822A3256F0B1CF5C6436D0BAC5DDEFB6F58F217F6B860D035AD458228628155EF1EB03B002015081301713322151
DEVENG dm_filt8_layout     LANSA     XHTML     00000000020000100000007521DCD462323531EB1D8DB048BBB65D2F26FBF1BB56D4C9D58DBAC62D39E13CE03FAE3470710AF6B58078D938C19CBC141F141567C13B7FE13F73789338619B5EBF48E4B8229DD77FCF25BC9CDFEB3FE59ABAD14C934CFFF53BE2FEC9575A2F5DFAAD86DD0570AE8378A12A52815DD2FCB0D4A1915CAE2B593661C6D77904881FB44CFD7D766BA8A41807CDF189DAD704B1703F6F81C670E35C4AFCC08B669829FCE47A25583EF2E8206DC7B108AD33ED337C35622856C12A41968C9D50EB2B8446118F5200C82A0A85D9D68B95A959B10767B198FCF07CAE68D91BA1955FA6F4AFDAEB2B0A2C0116E35685C9A3E7CC2A4A413B1994BFDA0319580002015081301713322151
DEVENG dm_filt8_layout     LANSA     XHTML     00000000020000200000000008C9E179A219BF991EFA41989CA801FD9DCC0374565A078F3D44D76149281E16872C3E66A31C0E747676866CA70A4991DB9699A178E147FF3479C8333CB38C34D8565083E3D70538C8562808F8D6EE8580F06E8D8E886F63B3DA0FAE7AF00268BF9616C3C071D6FE8083C36772FF8D9760DD691A1FBEBCD877F0BD1FE0F00                                                                                                                                                                                                                                                        002015081301713322151
DEVENG dm_filt9_layout     LANSA     XHTML     00000000010000100000010001F8B0800000000000000A556DB6EE336107D0F907F508505B645414B8A5B602DC4098A0601BA7002ECD645F226D0126D31A548811C45F27E7D4717CBB2147A9BD679B0359C73663897A35CDF5699705E99365CC9A51BCC7CD76132560997BBA5FBD7FA9E7C726F6F2E2F2E2FAE7F20C479A41973DA4FE82459B4E5021691A07B55C0E54563BF6326D63C07E40B9DBB87E8FE8FD57AE19CB8AC79C60CD02CAF59AEFCE057E27F22C12F6B7F1E06F3703EFF39F043DF77086903574684A0A9345BA5B371AE552C8A8411CD4C2180E49A6D79C5CCD215F5BDCAC475F05B9A1039966E0A90879E5796E5AC9CCF94DE79C162B1F09EFF5C79EB03FF01002015081301713337771
DEVENG dm_filt9_layout     LANSA     XHTML     000000000100002000000000050E34F10021DE82C569977E5FB57DEF3C3CAFB5A48C0AB903B0AB4C35983542964E2405E2667A9319F27B6110C081693EFA47BAC03CF72A5C149F19E4BD7401241CA3286AE4114C44ACCD0C775BC1BABF73E6766E4847DC90B703206A9C2BCAA3A4D957120F88B242C165453682ABE67663A1D0E970993B074A5EA48CB244CB00D92D7A89BFA71A755913B128767E93EFDF6E0AC9A6930B5FFB577EADEE259054C4B2AEABEAA42C7CC740706F682754CCF4F6B3FF8EC3A42C55D8229A309D3C73426DEABC00FAC00CF16F830832CCB058503613BD22E0E59A895604D81C3CE78A86D8EB5CB3AFF0D8DFFC61EE714DAA63548E079C4B1EAED0376002015081301713337771
DEVENG dm_filt9_layout     LANSA     XHTML     0000000002000010000000752A7A5D92864A4D2750CF636C6E26EA930ECC79F066D1B52C7C6D4AB58B7E784F380FEF8D102C4EB6ADA42A338A5DA30B0507C1025DB448DFFC8FD4DE2946246CD3ABDE392A00BFB1D5FBE144CEF1FD5EF4A6E058FC779FE9FF2BDD057DA8AD67FAB62BB41DF29A0572B4A98A054B4BF0CD32865844B83D78EEB7134ED412C38EE13395F5F93AA32020EE27D6374B6C20D5D04D8E3739C195410BD52CDE9A60E7E3A1FB19235BEBD081A70EF814B46BA4CDF0C5BF204D251907AA005933B48A3028561D083C0F7FDBCB275A2E16A546E44D8EE65343CEF29EB3746626794C9BF29F5BBCA42F31C47B8D1A06169BAF03115828CC4662AF5BDC6941C002015081301713337771
DEVENG dm_filt9_layout     LANSA     XHTML     000000000200002000000000052725E68FA6CA6479E9566202A3D7E60B303DF14959EE2CD533BD951487A86A3C90E9BAA450F9F1E9DA19928C391667264A7A95F38827F63F73807679671821B0B4B1F7C7C60A7180A450F1F1AEDD0A11EF4D0A1D10EED76BA4775CFDF018C16F3C3D0780E3ADCD00178686E5FF093EDEAAD0343FBD7990FFF16A2FD1F00                                                                                                                                                                                                                                                        002015081301713337771
DEVENG dm_t0001_layout     LANSA     XHTML     00000000010000100000010001F8B0800000000000000A556DB6EDB38107D0F907F608502DD62414B4A5AA011E2148B0DFAB0480A6CEB227913688AB6D8A548811C45F27EFD8E2E966529729BAEFD606938E7703897435F7FAC32459E8475D2E8A5172E028F08CD4D22F576E97D5B7DA21FBC8F37E767E767D7AF28259F592648FB894892C5100441182BB633059C9F35F65BE1B89539205F446EEFE355ED428E5C5632130E5896D72C1741F89E061F68F86E155C46E16574F9FEF73088828050DA6E5C39158165DA6D8CCDC6B1565C1589A056B84201CDADD8C84AB8A5A7EA73958947F057BB0839965E0A9047BE5F96E5A2BC5C18BBF5C3ABAB2BFFF1EB9DBFDAF3EF0135FE002015081301713353241
DEVENG dm_t0001_layout     LANSA     XHTML     000000000100002000000000008A1D0812DB8C9FC8B20B8F01FEFEFFC2F85063C0ABD65C03ADCEC26550A99DA9397C9496A8CE741AC95008AC9945BED1DF220B3DC5820299E73E9394862484526D0358C436ED4027D3CE2DFCC7AEF72E1464E5897BC009209480DC655D5619A4C02C5279A08AE9865D0647C27DCB43B88D489D0B0F4B4E948CB244AB00C5AD6A89BFA756B4D91138DCDB3F41EFEB827774D37B8DAFFDA3F766FF1A202613553755D4D61B970DD82839D121DD3E3C32A08FFF28832BC0B30152C11F610C6C4FB2E0CC259803FB7F1BE0745962B067BC2B6A53D6CB2C81A259A04479D719FDB1C739775FE6BC6FFC11AE70CDAA2354890792C31EBED0B56A7A559002015081301713353241
DEVENG dm_t0001_layout     LANSA     XHTML     00000000020000100000007501B6464DA230E6BCB31B91BA69CF8EDEDA06C436AEE5CBC91AA2ECF11E71EFDE6CD0C108F6B590B8D79CAAC133043F15A95621D37FE23F7678953861135E3F48243822DE6CFF8FDEF42D8DD67F3A7D11B25F938CEFF93BEEFEC89B5A2F56B596C27E80709F46B458912948AF6C9098B5246A576786C5EB7A36B17B892384FF4747E5D6ACA1824A897B5D1C90C377431608D4F71665041FCC4AC64EB7AF3E3FEE046D7F8F62068C0B907A905ED227D76DB5226908E36A91B5A09BD85342E5018063508F13AC9ABB94A345C8DCA8D08DBB98C87EB3D657D6324F38C3AF99954BF282D2CCFB1851B0D1AA6A6DB9E33A5E8486CA652DF6B4C2921A5A7002015081301713353241
DEVENG dm_t0001_layout     LANSA     XHTML     000000000200002000000000085A68F66BAE4CFD20C44A5C70F6CF3C06745A5A77876759EEC20243DC3C1340F9BAA450F9F2E9DA09928C38166B2344F535F384AFE2B3E611F9C18C6096E2C2CFDE6E385798AA150F4F0A1711E3AD4831E3A34CE43BB99EE51DDFB0F00A3C17C3D349E820E2774001E9ADB0B7E325DBD756068BF9D79FFB710EDFF0100                                                                                                                                                                                                                                                          002015081301713353241
DEVENG dm_t0002_layout     LANSA     XHTML     00000000010000100000010001F8B0800000000000000A5565D6FA346147D8F94FF40D14ADBAA1A03C9564D509C55D5681FAA64A5DD7595BCA1F13036930E3368E612707F7DEF00C61882B7699D079B3BF79CB99F87DC7CAC73E9BD706385564B3F5A84BEC715D3A950DBA5FFE7EA13B9F23FDE9E9F9D9FDDFC4088F799E6DC6B3FB197E6098461789148BAD3259C9F35F63B6E991105205FECDD3D242BE7E21DB9AC44CE2DD0BC702C1761F40B09AF48F461155EC6D1657CF9EBCF511887A147487B716D650C862ABBD1261FC75A3359A69C186E4B09A4307C236A6E97BE747955A9EFE1B7B231722CFD0CA08883A0AAAA4575B9D0661B44D7D7D7C1D3B7FB60B5E7DF031CFE002015081301713370591
DEVENG dm_t0002_layout     LANSA     XHTML     00000000010000200000000000821D1812E98CE830B4C28787AB80FBE960A301572478176B8D94BEA0C72B927AFD293D418CF235F4B0E048B29B6CA3FD441E48536E06598E7D2B7902690F19CA36B94444CCB05FAF85E703BEBBD2BB81D39615F8A12BC9C43A631AEDA85A97301047F919433490D85A6E23B6EA7D3E1099572054B5FE98EB44AE314DBA08443DDBAC7ADD165E1291C9EA5FFF8DB8377DF4C8375FE37C1B17B8BE73570A3A8747DD5A561DC7607167692774C4F8FAB30FAC3F7A4665D8019A72937873026DEF75118CD0282B98BF733C8F34252D813B623EDE390C5464BDE1438EE8CFBDA1658BBBCF35F53F617F6B8A0D036AD4182281281556F1FB03B2DCD5A002015081301713370591
DEVENG dm_t0002_layout     LANSA     XHTML     0000000002000010000000746232355BE67B1B70C8BBBA1D2F21F7F1AB46D48CDAC4D3642BAF61C71EED1EFDFCF00315D435B68C2326A2C87198A77B2E2EBA4F11FB9BF4A9C518CA859A7372409A69CCFF1F94BC9CDEEB3FE5DAB8D146C1CE7FF29DF337DA1AD68FDB72AB61BF49D02064E51E214A5A2FD65B941292342594C9BB971B4ED019302F7899CAEAFCD74958000F9B6313A59E1862E01ECF129CE1C6A485EA81174ED2E3F9E0FA695C3B789A001F71E84E2A48BF4D56B2B914236BAC40DB4E46A0B5952A2300C7A10E1EBA4A8E73AD170352A37226CF732199EF794EE8D91CE33AAF4DF94FA4D65A1458123DC68D0B034DDF58C4A4946623395FA5E632A0119392D34002015081301713370591
DEVENG dm_t0002_layout     LANSA     XHTML     00000000020000200000000007D34D3A3609666202A3D7E609B07BE2A2A3DC5ABA7F3640721E9190EA679D8542D7AF8F4E804CD44190E3493A3791AF7C291E26FFE09E7E0C4324E706361E92F1F1FCC530C85A2870F8DF3D0A11EF4D0A1711EDAED748FEA9EBF03182DE6BBA1F11474B8A103F0D0DCBEE027DBD55B0786F6AF33EFFF2D44FB3F00                                                                                                                                                                                                                                                              002015081301713370591
DEVENG dm_t0003_layout     LANSA     XHTML     00000000010000100000010001F8B0800000000000000A556DB6EE336107D0F907F508505B645414B8AB74022C459140DF6A1481668D745F226D0146D714B9102398AE4FDFA8E2E966529F436ADFD606938E770389743DF7EAC73E9BD706385562B3F5A84BEC715D3A950BB95FFD7FA13B9F63FDE5D5E5C5EDCFE4088F799E6DCEB3EB197E6098461B84C24DDEB122E2F5AFB3DB7CC8802902FF6EE1F9375E3E29DB8AC45CE2DD0BC6858AEC2E817125E93E8C33A5CC6D1325E5EFF1C8571187A84741BD756C660A8B25B6DF269AC359365CA89E1B694400AC3B7A2E676E5CBE65C55EA7BF8AB6C8C1C2B3F0328E220A8AA6A512D17DAEC82E8E6E62678FEF210AC0FFC074083002015081301713387151
DEVENG dm_t0003_layout     LANSA     XHTML     00000000010000200000000003F414874A00BA6F3E02A0CAF82E7C787E0CF52011E85DC53A03DCEB9499D412E0FE4557A961AE379E21BC9816032C54EF9C73C88BCD006BC0CCFB9F22DA409643CE7E81A2511D372813EBE17DC39BDF705B71327AC4B51829773C834C6553761EA5C00C127927226A9A1D0667CCFEDBC3B3CA152AE60E52BDD9356699C621994685077CDEBCEE8B2F01436CFCA7FFAF5D17B68BBC136FEB7C1A97B87E73570A3A86CEAAA4BC3B8ED172CEC25EF999E9FD661F4BBEF49CDFA00334E536E8E61CCBC1FA230720202D7C6871EE47921291C08BB96F6B1C962A3256F131CF7C6436E0BCC5DDEFB6F28FB1B6B5C50E88AD622411489C0AC772F589D8E002015081301713387151
DEVENG dm_t0003_layout     LANSA     XHTML     000000000200001000000075066A391912ADFB3585B86C9DD5269F98F3F8DCA36A666D6265B219BF29C701ED0EFDF3B80785C433B68C2326A2C0707C53B59F14DD2FA4FDC5F25CE2846D48ED31B0E09A6749FF1EB1F2537FBCFFA37ADB652B0699CFF277D5FE90BED44EBBF65B19BA0EF24306814254E512ABA27CB0D4A1911CAE2B159D38EB65B6052E03C91F3F9B599AE121020DFD6466733DCD22580353EC799430DC90B35826E9ACD4FFB8369D5E0BB83A001E71E84E2A48FF4D56D2B914236D9A46968C9D50EB2A4446118D520C2EBA4A85D9568B95A959B107673998CD707CAE6C648DD8C2AFD37A97E535A6851600BB71A344E4DBF3DA3529289D8CCA57ED0984A4046002015081301713387151
DEVENG dm_t0003_layout     LANSA     XHTML     0000000002000020000000000CE0BCD10CD7C2970D28C4465C08F6C6EE0ABA23250BCBAEA263B0AC9C07034B96173B518E0F3A53334336538D2CC96DC34CD8523C537FE09FBE0CC30CE70536119369F2EB829C64231C0C7463774AC0703746C7443FB991E50FDFB770093C17C37369E838E2774041E9BBB0B7E365D837564E8BEBDF9F0B710EDFF0000                                                                                                                                                                                                                                                          002015081301713387151
DEVENG dm_t0004_layout     LANSA     XHTML     00000000010000100000010001F8B0800000000000000A5565D6FDB36147D0F90FFA00A05BA62A0252519D008718A61411F86A4C05A0FC99B404BB4C58E2205F22A92F7EB7729C9B22C856ED3D90F962EEF39BCBC1F87BEF9D814C27B66DA7025977EB4087D8FC954655C6E97FEDFAB4FE483FFF1F6FCECFCECE60D21DE675A30AFFBC45E56241086E15522E84E55707ED6DAEF9849352F01F962EFEE21595917EFC865C50B668016A565B908A3DF48F8814457ABF0328E2EE3ABF0D7288CC3D023A4DBB83122064DA5D9285D4C636D5251658C68662A01A4D46CC31B6696BEB0E7AA33DFC35F6962E458FA39401907415DD78BFA72A1F43688AEAFAF83A7AFF7C16ACFBF0758002015081301713403241
DEVENG dm_t0004_layout     LANSA     XHTML     0000000001000020000000000FC1142A0035DA4AA082EC2F022787AB80FBE5412F028E48E02ED71CE4D9A1C0AB127AFB393D418CF235B0B060493C9B7D23FE48117A5D2E0E578CEA56F204B20670543D72889522516E8E37BC1ADD37B57323371C2BA94157805835C615C8D0D53151C083E918CA5826A0A6DC677CCCCBBC3E332631296BE543D699DC5199641728BBAB5AF5BADAAD293D83C4BFFF1F707EFBEED0663FD6F8263F70ECF1A605A5261EBAA2A9D32D32F18D809D6333D3DAEC2E84FDF132AED03CC19CD983E8431F3BE8FC2C809085C1BEF7B9015A5A0B027EC5ADAC7268BB512AC4D70DC1BF7B92D317745EFBFA6E93F58E3924257B41609BC4C3866BD7BC1EA74002015081301713403241
DEVENG dm_t0004_layout     LANSA     XHTML     0000000002000010000000750346B858C54FA9EC1DAA698DC0D1586FDF27E54B631756A4CB2E1C296E788738F7EF7CE01C4E36ADA419334A7DA307050BC15355B27ADFFC4FD45E29C6244ED38BDE290A02BF719BFFD5531BDFBACFE507223783A8DF3FFA4EF1B7DA69D68FD5C16BB09FA4E0203AB28718652D13D19A651CA0897068F9DDA7634DD422A38CE13399D5F93AB3A010EE2756D7432C32D5D0258E3539C0534903C53CDE9DA6E7EDC1FA99216DF1D040D38F7C025237DA42F6E5BF30CF2C926B6A105935BC8930A8561548308AF93B27155A2E56A556E42D8CD65325E1F28ED8D91B91965F623A97E555A6859620BB71A344E4DBF7D4A852013B1994BFDA03135879C002015081301713403241
DEVENG dm_t0004_layout     LANSA     XHTML     00000000020000200000000009C169A219AF952E0A41989CA801FD9DCC0174565A07871D54D76109281E16072C3E66A31C0E74B276866CA70A0992DB969EC8523F8BFEC13F6C189619CE1A6C2326C3E5D70538C8562808F8D6EE8580F06E8D8E886F6333DA0FAF7EF002683F9766C3C051D4FE8083C367717FC6CBA06EBC8D07D7BF3FE6F21DAFF0300                                                                                                                                                                                                                                                          002015081301713403241
DEVENG dm_t0005_layout     LANSA     XHTML     00000000010000100000010001F8B0800000000000000A5564D6FDB3810BD07C87F608502DDA2A025252DD008718AC5063D2C9202BB7591DC045AA22D762952204791DC5FBF434996652972375BFB606938EF71381F8FBEFE54E7923C716385564B2F5C041EE12AD1A950DBA5F76DF5997EF43EDD9C9F9D9F5DBFA2947C613927ED2722691E4310041F62C976BA84F3B3C67ECB6D624401C81791DBFB78E55CC891CB4AE4DC02CB0BC77211841F68F09186EF57C165145E46EFC37761100501A1B4DDB8B63202C394DD68938F63AD1359A69C1A6E4B09B4307C236A6E979E74E7AA528FE0AFB211722CBD0CA0887CBFAAAA4575B9D066EB87575757FEE3D73B7FB5E7DF031CFE002015081301713418551
DEVENG dm_t0005_layout     LANSA     XHTML     00000000010000200000000000821D1812D129DFB174170E13FDEDFF97F970AF028F49601EB70B39BD419E4724F5EA527A9319E07BE961C2826536C9577C883C80B6D806478CEA567218D21E33947D7300E132D17E8E311FF66D67B57703B72C2BA1425909C43A631AEDA85A97301149F68CA13C90C8326E33B6EA7DD41844AB982A5A774475AA5518A6550C2A16EDCEBD6E8B2200A9B67E93DFC7E4FEE9A6EB0CEFFDA3F766FF1BC066E1493AEAEBA3409B7DD82859DE41DD3E3C32A08FFF488D4491760C659CACD218C89F75D1884B3007F6EE37D0FF2BC900CF6846D4B7BD86491D19237098E3AE33EB705E62EEFFCD72CF9076B5C30688BD6204114B1C0ACB72F589D9666002015081301713418551
DEVENG dm_t0005_layout     LANSA     XHTML     0000000002000010000000750AD9191298F58AC6D82C9DD3069F96F6F07651B5227D6C61B215D798E38F7E8376F6680785CC35A689C64CC580E3314AF65C5D771E33F727F9638631851334E2F38249872FE8CDFFF2AB9D97DD17F68B5912219C7F92BE9FBCE9E582B5AFF2F8BED04FD2481BE53942845A9689F2C37286554288BC74E5C3BDA76219102E7899ECEAFCD74158300F9B2363A99E1862E06ACF129CE1C6A889F98116CED363FEE8F442B876F0F82069C7B108AD32ED267B7AD440AD96813D7D092AB2D647189C230A84188D74951CF55A2E16A546E44D8CE653C5CEF29DD8D91CE33AAF4BFA4FA45696145812DDC68D03035DDF60993928EC4662AF5BDC65402327A002015081301713418551
DEVENG dm_t0005_layout     LANSA     XHTML     00000000020000200000000005A68FA68A64BFE2CCD40547AFCC0360F7C56547A8A6757E7C90E42D2331C4CF3B0A95AF4F0E9D2099A89321C68264BF334EEC291E207FF8C7D70621827B8B1B0F49B8F17E6298642D1C387C679E8500F7AE8D0380FED66BA4775EF3F018C06F3F5D0780A3A9CD00178686E2FF8C974F5D681A1FD76E6FDDF42B4FF0B00                                                                                                                                                                                                                                                          002015081301713418551
DEVENG dm_t0006_layout     LANSA     XHTML     00000000010000100000010001F8B0800000000000000A5565D6FDB36147D0F90FFA00905BA62A025256DD108718A61411F8AA4C05A0FC99B4053B4C58E2205F22A92F7EB77F561599642B7D9EC074B97F71C5EDE8F435F7FAC73E93D716385564B3F5A84BEC715D3A950DBA5FFD7EA13F9E07FBC393F3B3FBBFE8510EF0BCDB9D77D622FCD1308C3F07D22E94E97707ED6DA6FB9654614807CB1777B9FAC1A17EFC86525726E81E645C3721146EF48F881446F57E1651C5DC66F2F7F8BC2380C3D42BA8D6B2B633054D98D36F934D69AC932E5C4705B4A2085E11B5173BBF46573AE2AF53DFC5536468EA59F011471105455B5A82E17DA6C83E8EAEA2A78FC7617ACF6FC7B40002015081301713431991
DEVENG dm_t0006_layout     LANSA     XHTML     0000000001000020000000000833F424874A00BA6F3E0220C2F82C7FBBBE06BA9008F426E29D01EE7DCA4CE20977BF22A3D498DF13CF0B5E440309962ABFC431E445E68035E86E75CFA16D204329E73748D928869B9401FDF0B6E9CDEBB82DB8913D6A528C1CB39641AE3AA9B30752E80E013493993D4506833BEE376DE1D9E502957B0F495EE49AB344EB10C4A34A89BE6756B7459780A9B67E93FFC7EEFDDB5DD601BFFEBE0D8BDC3F31AB851543675D5A561DCF60B167692F74C8F0FAB30FAEC7B52B33EC08CD3949B431833EFBB288C9C80C0B5F1BE07795E480A7BC2AEA57D6CB2D868C9DB04C7BD719FDB027397F7FE6BCAFEC61A1714BAA2B54810452230EBDD0B56A7002015081301713431991
DEVENG dm_t0006_layout     LANSA     XHTML     0000000002000010000000750A3596B64A4CAF72CD696617237545AFEEB9B51D9C6D4CCDA642364539E23CE3DFAF56B07108F6B68074D58468DE5E0A078252BBE4E5AFF89FBB3C419C588DA717AC121C194EE337EFFB3E466F745FFA1D5460A368DF3FFA4EF3B7DA29D68FDB72C7613F48304068DA2C4294A45F764B941292342593C366BDAD1760B4C0A9C27723ABF36D3550202E4CBDAE864865BBA04B0C6A73873A82179A246D075B3F9717F30AD1A7C771034E0DC83509CF4913EBB6D2552C8269B340D2DB9DA429694280CA31A44789D14B5AB122D57AB7213C26E2E93F1FA40D9DC18A99B51A53F93EA17A5851605B670AB41E3D4F4DB332A259988CD5CEA078DA90464002015081301713431991
DEVENG dm_t0006_layout     LANSA     XHTML     0000000002000020000000000E4B4D00CD1CC970227CD485406FCC8E6063E2B2A03C5B3AB6EB283900C0C07931B36578B013E5F3A4133538603CD6CC94DD35C3852FCC33F611F9C18C6196E2A2CC3E6D30537C5582806F8D8E8868EF560808E8D6E683FD303AA7FFF01603298AFC6C653D0F1848EC0637377C1CFA66BB08E0CDDB737EFFF16A2FD5F00                                                                                                                                                                                                                                                          002015081301713431991
DEVENG dm_t0007_layout     LANSA     XHTML     00000000010000100000010001F8B0800000000000000A5565D6FDB36147D0F90FFA00905BA62A0252529D608718A61411F8AA4C0360FC99B404BB4C5962205F22A92F7EB7729C9B22C85EEB2DA0F962EEF39BCBC1F87BEF9D814C27B66DA7025977EB4087D8FC954655C6E97FEDFAB4FE483FFF1F6FCECFCECE62742BC2FB4605EF789BDAC48200CC35F134177AA82F3B3D67EC74CAA7909C8177B770FC9CABA78472E2B5E3003B4282DCB4518BD27E107125DADC2CB38BA8CAFAE7E89C2380C3D42BA8D1B2362D0549A8DD2C534D6261555C68866A612404ACD36BC6166E90B7BAE3AF33DFC9526468EA59F03947110D475BDA82F174A6F83E8FAFA3A78FAEB3E58EDF9F700002015081301713445741
DEVENG dm_t0007_layout     LANSA     XHTML     00000000010000200000000008B3F420874A08B5415C145185E044F0FF7C19F95043C0AB9A3407B9C7393268742ECC9EBEC2435C6F3C8D68201C164F2ADF40F79E045A93478399E73E91BC812C859C1D0354AA2548905FAF85E70EBF4DE95CC4C9CB02E65055EC12057185763C3540507824F2463A9A09A429BF11D33F3EEF0B8CC9884A52F554F5A6771866590DCA26EEDEB56ABAAF42436CFD27FFCEDC1BB6FBBC158FF9BE0D8BDC3B306989654D8BAAA4AA7CCF40B067682F54C4F8FAB30FAEC7B42A57D8039A319D3873066DEF751183901816BE37D0FB2A21414F6845D4BFBD864B15682B5098E7BE33EB725E6AEE8FDD734FD86352E2974456B91C0CB8463D6BB17AC4E002015081301713445741
DEVENG dm_t0007_layout     LANSA     XHTML     000000000200001000000075047B356C848A5EF19AC6D8AC9DD5061D8CFEF46651B53A7C6241B2E6C798E38F7E8B76F1D403CAEA61D344973AA0D0307C51B51B375D2FA4FDC5F24CE2946D48ED32B0E09BA729FF1EB1F15D3BB2FEA77253782A7D3387F247D5FE933ED44EBFF65B19BA0EF2430B08A12672815DD93611AA58C7069F0D8A96D47D32DA482E33C91D3F935B9AA13E0205ED7462733DCD22580353EC5594003C933D59CAEEDE6C7FD912A69F1DD41D080730F5C32D247FAE2B635CF209F6C621B5A30B9853CA95018463588F03A291B57255AAE56E52684DD5C26E3F581D2DE18999B5166FF25D5AF4A0B2D4B6CE15683C6A9E9B74FA91064223673A91F34A6E690002015081301713445741
DEVENG dm_t0007_layout     LANSA     XHTML     000000000200002000000000093D3423344335F0A9C34235119F0239B1BF8A2A80C142FAEBAC90E4232301C4C6ED85C2D06F87CE904CD4C190E34B325378DBD7004FF877DC23E38318C33DC545886CDA70B6E8AB1500CF0B1D10D1DEBC1001D1BDDD07EA60754FFFE1DC06430DF8C8DA7A0E3091D81C7E6EE829F4DD7601D19BA6F6FDEFF2D44FBBF00                                                                                                                                                                                                                                                          002015081301713445741
DEVENG dm_t0008_layout     LANSA     XHTML     00000000010000100000010001F8B0800000000000000A5565D6FDB36147D0F90FFA00905BA61A025251D9A08718A61411F8AA4C0360FC99B4053B4C5962205F22A92F7EB77F561599642B759ED074B97F71C5EDE8F43DF7CA873E93D736385564B3F5A84BEC715D3A950DBA5FFCFEA23B9F23FDC9E9F9D9FDDFC4488F799E6DCEB3EB197E6098461789548BAD3259C9FB5F63B6E991105205FECDD3D24ABC6C53B7259899C5BA079D1B05C84D16F24BC22D1BB5578194797F1BBF7BF46611C861E21DDC6B5953118AAEC469B7C1A6BCD64997262B82D2590C2F08DA8B95DFAB2395795FA1EFE2A1B23C7D2CF008A3808AAAA5A54970B6DB641747D7D1D3CFD7D1FACF6FC7B40002015081301713476371
DEVENG dm_t0008_layout     LANSA     XHTML     0000000001000020000000000833F424874A00BA6F3E0220C2F82A787FBE0AF52011E85DC51A03DCEB9499D412EF7E4557A921AE379E46BC9816032C556F9873C88BCD006BC0CCFB9F42DA409643CE7E81A2511D372813EBE17DC3ABD7705B71327AC4B51829773C834C6553761EA5C00C127927226A9A1D0667CC7EDBC3B3CA152AE60E92BDD9356699C6219946850B7CDEBD6E8B2F01436CFD27FFCFDC1BB6FBBC136FE37C1B17B87E73570A3A86CEAAA4BC3B8ED172CEC24EF999E1E5761F4C9F7A4667D8019A72937873066DEF751183901816BE37D0FF2BC9014F6845D4BFBD864B1D192B7098E7BE33EB705E62EEFFDD7947DC51A1714BAA2B54810452230EBDD0B56A7002015081301713476371
DEVENG dm_t0008_layout     LANSA     XHTML     0000000002000010000000750A3596B64A4CAF72CD696617237545AFEF32FA3B28DA999B5C946C8A63C479C7BF4DBB70E201ED7D00E9AB08C1ACBC141F146567C9DB4FE13F71789338A11B5E3F48A438229DD67FCF267C9CDEEB3FE43AB8D146C1AE78FA4EF0B7DA69D68FDBF2C7613F48D04068DA2C4294A45F764B941292342593C366BDAD1760B4C0A9C27723ABF36D3550202E4EBDAE864865BBA04B0C6A73873A82179A646D075B3F9717F30AD1A7C771034E0DC83509CF491BEB86D2552C8269B340D2DB9DA429694280CA31A44789D14B5AB122D57AB7213C26E2E93F1FA40D9DC18A99B51A5DF93EA57A5851605B670AB41E3D4F4DB332A259988CD5CEA078DA90464002015081301713476371
DEVENG dm_t0008_layout     LANSA     XHTML     0000000002000020000000000E4B4D00CD1CC970227CD485406FCC8E606BE282A03C58BAB6EB283900C0C07931B36578B013E5F3A4133538603CD6CC94DD35C3852FCCB3F621F9C18C6196E2A2CC3E6D30537C5582806F8D8E8868EF560808E8D6E683FD303AA7FFF066032986FC6C653D0F1848EC0637377C1CFA66BB08E0CDDB737EFFF16A2FD3F00                                                                                                                                                                                                                                                          002015081301713476371
DEVENG dm_t0009_layout     LANSA     XHTML     00000000010000100000010001F8B0800000000000000A5565D6FDB36147D0F90FFC00A05BA62A025251D500B718A61411F86A4C0360FC99B404BB4C58E2205F22A92F7EB7729C9B22C456ED3D90F962EEF39BCBC1F87BEF954E7923C736385562B2F5C041EE12AD1A950BB95F7F7FA33FDE87DBABDBCB8BCB8794329F9C2724EDA4F44D23C86200896B1647B5DC2E54563BFE33631A200E48BC8DD43BC762EE4C4652D726E81E58563B90AC25F68F091861FD6C175145E471F963F8741140484D276E3DACA080C5376AB4D3E8EB54E6499726AB82D25D0C2F0ADA8B95D79D29DAB4A3D82BFCA46C8B1F2328022F2FDAAAA16D5F5429B9D1F2E974BFFE9AF7B7F7DE03F001CFE002015081301713491681
DEVENG dm_t0009_layout     LANSA     XHTML     00000000010000200000000000421D1812D129DFB574170E53F3DDCFB7F960AF028F48E01EB70B39BD419E4F2405EA567A9319E47BE911C282653EC9477CC83C80B6D806478CE9567218D21E33947D7300E132D17E8E311FF76D67B5F703B72C2BA1425909C43A631AEDA85A97301149F68CA13C90C8326E37B6EA7DD41844AB98295A774475AA5518A6550C2A16EDDEBCEE8B2200A9B67E53DFEFA40EE9B6EB0CEFFC63F756FF1BC066E1493AEAEBA3409B7DD8285BDE41DD3D3E33A087FF788D4491760C659CACD318C89F77D1884B3007F6EE3430FF2BC900C0E846D4B7BD86491D19237098E3AE321B705E62EEFFC372CF9076B5C30688BD6204114B1C0ACB72F589D9666002015081301713491681
DEVENG dm_t0009_layout     LANSA     XHTML     0000000002000010000000750A39191298F58AC6D82C9DD3269F94FEF07651B5227D6C65B215D794E380FE877EF6680785CC35A689C64CC580E33146F65C53771E33F727F9138631851334EAF38249872FE8C5FFF28B9D97FD1BF69B5952219C7F97FD2F7953DB356B47E2C8BED047D2381BE53942845A9689F2C37286554288BC74E5C3BDA76219102E7899ECFAFCD74158300F9BA363A9BE1862E06ACF139CE1C6A889F99116CE3363FED8F442B876F0F82069C7B108AD32ED217B7AD440AD96813D7D092AB1D647189C230A84188D74951CF55A2E16A546E44D8CE653C5CEF29DD8D91CE33AAF47B52FDAAB4B0A2C0166E3468989A6EFB84494947623395FA5E632A01193D002015081301713491681
DEVENG dm_t0009_layout     LANSA     XHTML     00000000020000200000000002F347D34D3257F9666202A3D7E609B07BE282A3DC58BABF3644721E9198EA679D8542D7AF874E90CCD44198E3493A5791A77E148F12FFF8C7D70661827B8B1B0F49B8F17E6298642D1C387C679E8500F7AE8D0380FED66BA4775EFDF008C06F3EDD0780E3A9CD00178686E2FF8C974F5D681A1FD76E6C3DF42B4FF0700                                                                                                                                                                                                                                                          002015081301713491681
DEVENG dm_t0010_layout     LANSA     XHTML     00000000010000100000010001F8B0800000000000000A556DB6EDB38107D0F907FD00A05DA45418B4A5AA011E2148B0DFAB0480AB47591BC0934455BEC52A4408E2279BF7E4717CBB214B99BADF3606B38E7CC702E47B9FE5865CA7B12D649A3977EB8A0BE27343789D4DBA5FF7DF5897CF03FDE9C9F9D9F5DFF4688F79965C26B3F91976431501AD258B19D29E0FCACB1DF0AC7ADCC01F922EFF63E5ED52EDE91CB4A66C201CBF29AE58286EF09FD40C2772B7A198597D17BFA36A411A51E216DE0CAA9082CD36E636C36CEB5E2AA4804B1C2150A486EC54656C22D7D55DFAB4C7C0FBFB58B9063E9A70079140465592ECACB85B1DB20BCBABA0A1EBFDD05AB3DFF1E50E38F002015081301713507621
DEVENG dm_t0010_layout     LANSA     XHTML     0000000001000020000000000100A1DD8829B2CB8A0F42278BCBF0BBE161AF02AE49601EB70B341AA1432B5272F9393D498CF83582B01048B29B7DA3FD44166B9B1E0A578CFA5EF208921159940D7300EB9510BF4F1BDE066D67B970B3772C2BEE405789980D4605E559DA6C92410FC4512C115B30C9A8AEF849B4E87277522342C7D6D3AD23289126C839635EAA67EDC5A53E49EC6E159FA0F7FDC7B77CD34B8DAFF3A38766FF1A202613553755F4D61B970DD81839D121DD3E3C38A867FF99E32BC4B30152C11F690C6C4FB2EA4E12C20980BBC9F4191E58AC19EB01D691F872CB24689A6C05167DCD736C7DA659DFF9AF1BFB1C73983B6690D12641E4BAC7AFB80DD6969D6002015081301713507621
DEVENG dm_t0010_layout     LANSA     XHTML     0000000002000010000000748061999F63D87BDE558DC0D534EBCF97DD0B62135772EDE4855B7E788738F7EFD7A0688D7B5AC85C63C65D60998A178A54AB18E1BFF91FBB3C429C38C9A757AC125C116F377FCF1A51076F7D9FC69F446493ECEF357CAF7833DB156B4FE5F15DB0DFA4901835A51A204A5A2FDE584452923523BBC36AFC7D1B5075C49DC2772BABE2E35650C12D4CBC6E864851BBA18B0C7A73833A8207E6256B2751DFC783EB8D135BEBD081A70EF416A41BA4C9F0D5BCA04D251907AA095D05B48E3028561D08390529A57739D68B81A951B11B67B190FCF7BCAFA8D91CC33EAE4BF94FA456561798E23DC68D0B0345D78CE942223B1994A7DAF31A584949C16002015081301713507621
DEVENG dm_t0010_layout     LANSA     XHTML     00000000020000200000000009A3E9BE951304B3310951E3FB0CD039F15959EE2D9D379B28390F40C07D33C6CAA163D7C7A748266A20C079AC9D13C4DFDC251F21FF109E7E0C4324E706361E9838F0FE6298642D1C387C679E8500F7AE8D0380FED76BA4775CF3F018C16F3D5D0780A3ADCD00178686E5FF093EDEAAD0343FBD799F7FF16A2FD5F00                                                                                                                                                                                                                                                            002015081301713507621
DEVENG dm_t0012_layout     LANSA     XHTML     00000000010000100000010001F8B0800000000000000A5565D6FDB36147D0F90FFA00905DAA1A025392BD008718A61411F86A440370FC99B4053B4C58E2205F22A92F7EB77F56159964277599D075B97F79C7B793F8E72F3A9CEA5F7CC8D155AADFC6811FA1E574CA742ED56FE5FEBCFE4A3FFE9F6F2E2F2E2E62742BC2F34E75EF789BD344F200CA36522E95E977079D1DAEFB8654614807CB177F790AC1B17EFC4652D726E81E645C3B20CA30F24FC48A25FD6E1551C5DC51F96EFA3300E438F902E706D650C862ABBD5269FE65A3359A69C186E4B09A4307C2B6A6E57BE6CEE55A5BE87DFCAC6C8B1F23380220E82AAAA16D5D5429B5D105D5F5F074F7FDE07EB03FF01D0002015081301713522771
DEVENG dm_t0012_layout     LANSA     XHTML     0000000001000020000000000E04F10121DE882E93C5886E132787AB80FFE2815E055C81D05DAE39C41EA0C727920AFD2B3D498CF23DF480E048B2976CA3FD641E48536E06578CF956F214D20E33947D7288998960BF4F1BDE0D6E9BD2FB89D38615F8A12BC9C43A631AFBA4953E70208FE222967921A0A6DC5F7DCCEA7C3132AE50A56BED23D6995C629B641890675DB3CEE8C2E0B4FE1F0ACFCC75F1FBCFB761A6CE37F139CBA77785E03378ACAA6AFBA348CDBFEC0C25EF29EE9E9711D46BFFB9ED4AC4F30E334E5E698C6CCFB3E0A23272070053ECC20CF0B49E140D88DB48F43161B2D795BE0B8371E6A5B60EDF2DE7F43D9DFD8E38242D7B41609A2480456BD7BC0EE74002015081301713522771
DEVENG dm_t0012_layout     LANSA     XHTML     0000000002000010000000750341B8D8C54F99EC5DE322CEE964ACBDFFD3C6ADB989A599B6C856CDA73C27940BF7DEB00E2750DEDA009CBA8B11C1C146F64C53749EB3F717F9138A39851BB4EAFB82498D27DC76F5F4B6EF65FF46F5A6DA560D33C7FA47CDFE833ED44EBFF55B1DBA0EF14306814254E512ABA5F961B94322294C56BB3661C6D77C0A4C07D22E7EB6B335D252040BE6E8CCE56B8A54B007B7C8E33871A92676A04DD34C14FE78369D5E0BB8BA001F71E84E2A4CFF4C5B09548219B0469065A72B5832C295118463D88C2302C6A57275AAE56E52684DD5E26E3F381B27963A46E4695FE9752BFAA2CB42870845B0D1A97A60FCFA89464223673A91F34A6129091002015081301713522771
DEVENG dm_t0012_layout     LANSA     XHTML     0000000002000020000000000F3423364333F0A9C34235119F0239B1BF8A2A80C142F9EBAC98E4232301C4D6ED85C2D06F8FCE80CCD4C198E34B323374DF3C291E21FFE19E7E0CC32CE70536119824F0FDC1463A118E063A31B3AD683013A36BAA1FD4E0FA8FEF93B80C962BE191BCF41C71B3A028FCDDD0B7EB65D837564E8FE7AF3E1DF42B4FF0B00                                                                                                                                                                                                                                                          002015081301713522771
DEVENG dm_t0013_layout     LANSA     XHTML     00000000010000100000010001F8B0800000000000000A556DF6FDB36107E0F90FF81130AB443414B8A57A011E214C3823E0C49816E1E92378196688B1D450AE42992F7D7EF28C9B22C45EEB23A0FB68EF77D77BC1F9F72F3A9CE2579E6C60AAD565EB8083CC255A253A1762BEFAFF567FAD1FB747B79717971F313A5E40BCB39693F1149F31882205CC692ED750997178DFD8EDBC48802902F22770FF1DAB9901397B5C8B90596178EE52A083FD0E0230D7F5907CB285C461F96EFC3200A0242691BB8B63202C394DD6A938F73AD1359A69C1A6E4B09B4307C2B6A6E579E74F7AA528FE0B7B21172ACBC0CA0887CBFAAAA45B55C68B3F3C3EBEB6BFFE9CF7B7F7DE03F001CFE002015081301713537461
DEVENG dm_t0013_layout     LANSA     XHTML     00000000010000200000000000421D1812D129DFB574170E53F3DDCFB7F940AF02AF48E01EB70B341EA0C727920AFD2B3D498CF23DF480E148B2976CA3BD641E485364032BCE7CAB390C690F19CA36B188789960BF4F1887F3BEBBD2FB81D39615F8A1248CE21D39857EDD2D4B9008ABF68CA13C90C83A6E27B6EA7D341844AB98295A774475AA5518A6D50C2A16EDDE3CEE8B2200A8767E53DFEFA40EE9B69B0CEFFC63F756FF1BC066E1493AEAFBA3409B7DD8185BDE41DD3D3E33A087FF788D4499760C659CACD318D89F77D1884B3007F2EF06106795E480607C276A43D1CB2C868C99B02479DF150DB026B9777FE1B96FC8D3D2E18B44D6B90208A5860D5DB07EC4E4BB3002015081301713537461
DEVENG dm_t0013_layout     LANSA     XHTML     0000000002000010000000750D1C8C894472CF636C1E26E99B4FCDDCF83B60DA9136BE3AD90AE3D279C07F4DBB73340BCAE612D344E32662C87198A37B2E29BB8F11FB9BF489C31CCA859A7575C124C397FC76F5F4B6EF65FF46F5A6DA548C679FE48F9BEB167D68AD6FFAB62BB41DF29A0EF14254A512ADA5F961B94322A94C56B276E1C6D7B904881FB44CFD7D766BA8A41807CDD189DAD70431703F6F81C670E35C4CFCC08B671C14FE723D1CAE1DB8BA001F71E84E2B4CBF4C5B09548211B0571032DB9DA411697280C831E84411014F55C271AAE46E54684ED5EC6C3F39ED2BD31D2794695FE9752BFAA2CAC2870841B0D1A96A60B9F3029E9486CA652DF6B4C2520A3E7002015081301713537461
DEVENG dm_t0013_layout     LANSA     XHTML     000000000200002000000000085A6CF667AE4CFD20C44A5C70F6CF3C01745A5A778F1749EEC28243DC3D1340F9BAA450F9F1E9DA19928C3916672344FE35E3852FCC33FE31C9C59C6096E2C2C7DF0F1C13CC550287AF8D0380F1DEA410F1D1AE7A1DD4EF7A8EEF93B80D162BE191ACF41871B3A000FCDED0B7EB25DBD756068FF3AF3E1DF42B4FF0B00                                                                                                                                                                                                                                                          002015081301713537461
DEVENG dm_t0014_layout     LANSA     XHTML     00000000010000100000010001F8B0800000000000000A556DF6FDB36107E0F90FF81130A7443414B4A1AA011E214C5823E0C49816D1E92378196688B2D450AE42992FBD7EF28C9B22C45EEB23A0FB68EF77D77BC1F9F72F3B1CE2579E6C60AAD965EB8083CC255A253A1B64BEF9FD567FAC1FB787B7E767E76F30BA5E40BCB39693F1149F31882207C1F4BB6D3259C9F35F63B6E13230A40BE88DC3DC42BE7428E5C5622E716585E38968B20BCA2C1071ABE5F05975178195D5DBD0B83280808A56DE0DACA080C5376A34D3ECEB54E6499726AB82D25D0C2F08DA8B95D7AD2DDAB4A3D82DFCA46C8B1F4328022F2FDAAAA16D5E5429BAD1F5E5F5FFB4F7FDFFBAB3DFF1EE0F0002015081301713551841
DEVENG dm_t0014_layout     LANSA     XHTML     00000000010000200000000004708890E6C91E8DCBF08820BFFE9E1DEFFAB548057A1770C58879B0D526790CB3D79959EA4C67C1EF95A72A0584CB155DEA10E222FB40192E13D979E8534868CE71C5DC3384CB45CA08F47FCDB59EF5DC1EDC809FB529440720E99C6BC6A97A6CE0550FC45539E4866183415DF713B9D0E2254CA152C3DA53BD22A8D526C83120E75EB1EB746970551383C4BEFF1D303B96FA6C13AFF1BFFD8BDC5F31AB8514CBABEEAD224DC7607167692774C4F8FAB20FCC32352275D8219672937873426DEF76110CE02FCB9C0FB19E4792119EC09DB91F670C822A3256F0A1C75C67D6D0BAC5DDEF9AF59F20D7B5C30689BD6204114B1C0AAB70FD89D9666002015081301713551841
DEVENG dm_t0014_layout     LANSA     XHTML     0000000002000010000000750AD9191298F58EC6D82C5DD3069F9AFBF0DDA36A44EAC8D3742BAF61C71EED16FDFCE00F1BA86B5D038C998B11C6628DEC88AAFE3C67FE4FE2271C630A3669D5E714930E5FC1DBFFE5972B3FBA27FD76A234532CEF367CAF7953DB356B4FE5F15DB0DFA41017DA728518A52D1FEB2DCA09451A12C5E3B71E368DB83440ADC277ABABE36D3550C02E4EBC6E864851BBA18B0C7A73873A8217E6646B0B50B7E3C1F89560EDF5E040DB8F72014A75DA62F86AD440AD928881B68C9D516B2B8446118F4200C82A0A8E73AD170352A37226CF7321E9EF794EE8D91CE33AAF4BF94FA556561458123DC68D0B0345DF884494947623395FA5E632A01193D002015081301713551841
DEVENG dm_t0014_layout     LANSA     XHTML     00000000020000200000000002D347D36D3237F9666202A3D7E609B07BE282A3DC58BA7F3640721E9190EA679D8542D7AF8F4E804CD44190E3493A3791AF7C291E23BFF8C7370621927B8B1B0F4C1C707F31443A1E8E143E33C74A8073D74689C87763BDDA3BAE71F00468BF966683C051D6EE8003C34B72FF8C976F5D681A1FDEBCCFB7F0BD1FE2F00                                                                                                                                                                                                                                                          002015081301713551841
DEVENG dm_t0015_layout     LANSA     XHTML     00000000010000100000010001F8B0800000000000000A556DF6FDB36107E0F90FF81130A74C5404B4ADAA211E214C3823E144981B51E92378196688B1D450AE42992F7D7EF28C9B22C456EB3390FB6EEEEFB78BC1F9F72FDB1CE2579E2C60AAD965EB8083CC255A253A1B64BEFAFD527FAC1FB78737E767E76FD0BA5E40BCB39693F1149F31882207C174BB6D3259C9F35F65B6E13230A40BE88DCDEC72B17428E425622E716585E38960B74D3E0030DDFAE82CB28BC8CDEBDFF2D0CA2202094B607D756466098B21B6DF271AE7522CB9453C36D298116866F44CDEDD293EE5E55EA11FC5636428EA597011491EF5755B5A82E17DA6CFDF0EAEACA7FFC76E7AFF6FC7B80C31F002015081301713568241
DEVENG dm_t0015_layout     LANSA     XHTML     0000000001000020000000000212406B045A273FF22082EFCC7FB3BFF6BA900AF426F19B00E377B489D412EF7E4557A921AF379E06BC9816231C55679873A88BCD0064886F75C7A16D218329E730C0DE330D17281311EF16F66A37705B7A320EC4B5102C939641AF3AA5D9A3A1740F1174D79229961D0547CC7ED743A88502957B0F494EE48AB344AB10D4A38D48D7BDC1A5D1644E1F02CBD87DFEFC95D330DD6C55FFBC7E12D9ED7C08D62D2F5559726E1B67358D849DE313D3EAC82F0B347A44EBA0433CE526E0E694CA2EFC2209C05F87307EF6790E78564B0276C47DAC3218B8C96BC2970D419F7B52DB0767917BF66C9DFD8E38241DBB40609A2880556BD7DC0EEB4346B002015081301713568241
DEVENG dm_t0015_layout     LANSA     XHTML     00000000020000100000007488D8C4C79C4626F132CEE8649CB7F7D3368DB903AB136DE08E9DA73C4B947BF7E3D03C4EB1AD642E32463C67298A178252BBE8E9BF851F8B3C419C38C9A757AC125C194F377FCFE67C9CDEE8BFE43AB8D14C938CFFF53BEEFEC89B5A2F5DFAAD86ED00F0AE83B458952948AF697E506A58C0A65F1DA891B47DB3A1229709FE8E9FADA4C573108902F1BA393156EE862C01E9FE2CCA186F88919C1D6EEF0E3F948B472F8F62268C0BD07A138ED327DF6D84AA4908D0E71032DB9DA421697280C831E84411014F55C271AAE46E54684ED5EC6437F4FE9DE18E93CA34A7FA6D42F2A0B2B0A1CE1468386A5E98E4F989474243653A9EF35A61290D1D3002015081301713568241
DEVENG dm_t0015_layout     LANSA     XHTML     000000000200002000000000042D3673375F9B3340351E9F103DB3CF05951E9299EF5CE931D84A4673898E66153B5E8E153D7099A89321C6826AE791AF7C291E21FFE09E7E0C4324E706361E90F1F3BE6298642D1C387C679E8500F7AE8D0380FED76BA4775CF3F008C16F3D5D0780A3ADCD00178686E5FF093EDEAAD0343FBD799F7FF16A2FD5F00                                                                                                                                                                                                                                                            002015081301713568241
DEVENG dm_t0016_layout     LANSA     XHTML     00000000010000100000010001F8B0800000000000000A5565D6FDB36147D0F90FFC00905BA62A02525EB9008718A61411F8AA4C0560FC99B4053B4C5962205F22A92F7EB77F56159962277599D075B97F79C7B793F8E72F3A1CA147916D649A3975EB8083C22343789D4DBA5F7F7EA23BDF23EDC9E9F9D9FDDFC4429F9CC3241DA4F44922C8620087F8B15DB9902CECF1AFB9D70DCCA1C902F22770FF1AA7621472E2B9909072CCB6B968B207C4F832B1AFEBA0A2EA3F0327A7FF54B18444140286D03574E456099761B63B371AE15574522A815AE5040732B36B2126EE9A9FA5E65E211FCD62E428EA59702E491EF9765B9282F17C66EFDF0FAFADA7FFA72EFAFF6FC7B408D002015081301713588711
DEVENG dm_t0016_layout     LANSA     XHTML     00000000010000200000000003F422874600B6E32FF22082EFCA7877BFFAF42035E85DE31601D6E36489542A6F6E46572921AF379146B25806231E5567B873AC82C3716488AF75C7A0E9218529109740DE3901BB5401F8FF8B7B3DEBB5CB89113F6252F80640252837955759A269340F1174D0457CC32682ABE136E3A1D44EA4468587ADA74A4651225D8062D6BD46DFDB8B5A6C889C6E1597A8FBF3F90FB661A5CED7FE31FBBB7785181B09AA9BAAFA6B05CB8EEC0C14E898EE9E97115849F3CA20CEF124C054B843DA431F1BE0F837016E0CF05DECFA0C872C5604FD88EB487431659A34453E0A833EE6B9B63EDB2CE7FCDF837EC71CEA06D5A830499C712ABDE3E60775A9A002015081301713588711
DEVENG dm_t0016_layout     LANSA     XHTML     0000000002000010000000750B54146A63DE2B0B71C8BBB61CA899FDF0DDA36A4E6CEC51BA9EAF61C71EED16FDFCE00F1BA96B5D098A7CC3A0133146F5429D671E33F727F9138659851B34EAFB824D862FE8E5FFF2C84DD7D367F18BD51928FF3FC91F27D65CFAC15ADFF57C57683BE5340BF56942841A9687F396151CAA8D40EAFCDEB7174ED015712F7899EAEAF4B4D198304F5BA313A59E1862E06ECF129CE0C2A889F99956C5D073F9E0F6E748D6F2F8206DC7B905AD02ED317C39632817414A41E6825F416D2B8406118F4200C8220AFE63AD170352A37226CF7321E9EF794F51B239967D4C97F29F5ABCAC2F21C47B8D1A06169BAF09C294547623395FA5E634A09293D002015081301713588711
DEVENG dm_t0016_layout     LANSA     XHTML     00000000020000200000000002D347D36D3237F9666202A3D7E609B07BE282A3DC58BA7F3640721E9190EA679D8542D7AF8F4E804CD44190E3493A3799AFA85A3E43FE223CEC189659CE0C6C2D2071F1FCC530C85A2870F8DF3D0A11EF4D0A1711EDAED748FEA9EBF03182DE69BA1F11474B8A103F0D0DCBEE027DBD55B0786F6AF33EFFF2D44FBBF00                                                                                                                                                                                                                                                          002015081301713588711
DEVENG dm_t0017_layout     LANSA     XHTML     00000000010000100000010001F8B0800000000000000A5566D6FDB3610FE1E20FF81130AB4C3404B4A3B2C11E214C3827E2892026D3D24DF049AA22D76142990A748DEAFDFE9C5B22C45CEB225406CDDDDF3F0782F8F72FDB1CA147912D649A3975EB8083C22343789D4DBA5F7E7EA13BDF43EDE9C9F9D9F5DFF4429F9C23241DA9F8824590C4110FE162BB633059C9F35F65BE1B89539205F446EEFE3551D428E425632130E5896D72C1741F82B0D2E69F86115BC8FC20F5110FC1206F89750DA1E5C39158165DA6D8CCDC6B9565C1589A056B84201CDADD8C84AB8A5A7EA7B958947F053BB0839965E0A9047BE5F96E5A27CBF3076EB87575757FEE3F73B7FB5E7DF036AFC002015081301714007931
DEVENG dm_t0017_layout     LANSA     XHTML     0000000001000020000000000114261005B7093F9174170E13FDEDFF9DF0A0D78157ACB8075B8D943AA1432B5272F9393D498CF83582B01148B29B7DA3BD44166B9B14052BCE7D27390C4908A4C60681887DCA805C678C4BF998DDEE5C28D82B02F79012413901ACCABAAD33499048ADF6822B862964153F19D70D3E920522742C3D2D3A6232D9328C1366859A36EEAC7AD35454E340ECFD27BF8FD9EDC35D3E0EAF86BFF38BCC58B0A84D54CD57D3585E5C2750E073B253AA6C78755107EF68832BC4B30152C11F690C624FA2E0CC259803F77F07E0645962B067BC276A43D1CB2C81A259A02479D715FDB1C6B9775F16BC6FFC21EE70CDAA6354890792CB1EAED0376A7A559002015081301714007931
DEVENG dm_t0017_layout     LANSA     XHTML     00000000020000100000007481B6464DA230E7BCBB1B81BA69C78F7F3A06D436AEE5CBC91AA6ECF11E71EFDF6ED0C10AF6B590B8D79CAAC133043F14695621D37F1A3F0678953861935EBF48A4B822DE6EFF8E36B21ECEE8BF9C3E88D927C9CE7FF29DF0FF6C45AD1FA6F556C37E88502FAB5A244094A45FBCD098B5246A576786D5E8FA36B1D5C49DC277ABABE2E35650C12D4EBC6E864851BBA18B0C7A73833A8207E6256B2757DF8F17C70A36B7C7B1134E0DE83D48276993E7B6C2913484787D403AD84DE421A17280C831E844110E4D55C271AAE46E54684ED5EC6437F4F59BF319279469DFC9B52BFAA2C2CCF71841B0D1A96A63B9E33A5E8486CA652DF6B4C2921A5A7002015081301714007931
DEVENG dm_t0017_layout     LANSA     XHTML     000000000200002000000000085A6CF66EAF2676906A2D2E307B679E0B3A2D2533CEB9D273B0849CF7030CDC3A66AD1C3A7AE1334136538D04C5CF334F50B47C9BFC5279C8313CB38C18D85A53F7CEC98A7180A450F1F1AE7A1433DE8A143E33CB4DBE91ED53DBF00182DE69BA1F11474B8A103F0D0DCBEE027DBD55B0786F6B733EFFF2D44FB3F00                                                                                                                                                                                                                                                            002015081301714007931
DEVENG dm_t0018_layout     LANSA     XHTML     00000000010000100000010001F8B0800000000000000A556DF6F9B48107E8F94FF618B2AF5AAD31A485B294171AAD3457D382595AE7595BCA135ACCDF6965DB43B047C7FFDCD02C61882DBF49C079BD9F9BE999D1F1FB9FE58E7923C716385564B2F5C041EE12AD1A950DBA5F76DF5895E7A1F6FCECFCECFAE5F514A3EB39C93F61391348F2108C2CB58B29D2EE1FCACB1DF729B185100F245E4F63E5E391772E4B21239B7C0F2C2B15C04E1071A5CD2F0FD2A781785EFA3E0E2F73088828050DA06AEAD8CC0306537DAE4E35CEB449629A786DB52022D0CDF889ADBA527DDBDAAD423F8AD6C841C4B2F032822DFAFAA6A51BD5B68B3F5C3ABAB2BFFF1EB9DBFDAF3EF010E7F002015081301714022771
DEVENG dm_t0018_layout     LANSA     XHTML     00000000010000200000000008490E8C01689CEFD8B20B8F01FEFEFFC2FA502BC0ABD65C03ADC6C903A835CEEC9ABF42435E6F3C0D79203C5628AADF20E751079A10D900CEFB9F42CA431643CE7E81AC661A2E5027D3CE2DFCC7AEF0A6E474ED897A2049273C834E655BB34752E80E22F9AF24432C3A0A9F88EDBE97410A152AE60E929DD91566994621B9470A81BF7B835BA2C88C2E1597A0F7FDC93BB661AACF3BFF68FDD5B3CAF811BC5A4EBAB2E4DC26D7760612779C7F4F8B00AC2BF3C2275D22598719672734863E27D1706E12CC09F0BBC9F419E1792C19EB01D690F872C325AF2A6C05167DCD7B6C0DAE59DFF9A25FF608F0B066DD31A2488221658F5F601BBD3D2AC002015081301714022771
DEVENG dm_t0018_layout     LANSA     XHTML     0000000002000010000000750353232E5118BBD4DB0B81B262DFFEDEDA06D43EAC4DA7823A46BCF11E71EFDE6CD0C10AF6B580B8D938C19CB6186E2B5ACF83A6EFC47EECF12670C336AD6E905970453CEDFF1FBDF2537BBCFFA4FAD365224E33CFF4FF9BEB327D68AD6AF55B1DDA01F14D0778A12A52815ED2FCB0D4A1915CAE2B513378EB63D48A4C07DA2A7EB6B335DC52040BE6C8C4E56B8A18B017B7C8A33871AE22766045BBBE0C7F39168E5F0ED45D0807B0F4271DA65FA6CD84AA4908D82B881965C6D218B4B1486410FC220088A7AAE130D57A37223C2762FE3E1794FE9DE18E93CA34A7FA6D42F2A0B2B0A1CE1468386A5E9C2274C4A3A129BA9D4F71A5309C8E869002015081301714022771
DEVENG dm_t0018_layout     LANSA     XHTML     0000000002000020000000000A1E9B3991EF9B3340351E9F103DB3CF05951E9299E3D9D273B0849CF7030CDC3A66AD1C3A747276826CA70A0991CCDD3B8178E14FFF24F3807279671821B0B4B1F7C7C304F31148A1E3E34CE43877AD04387C67968B7D33DAA7BFE0160B498AF87C653D0E1860EC04373FB829F6C576F1D18DABFCEBCFFB710EDFF0100                                                                                                                                                                                                                                                          002015081301714022771
DEVENG dm_t0019_layout     LANSA     XHTML     00000000010000100000010001F8B0800000000000000A556DB6EDB38107D0F907FE00A05DA45414B4A5AA011E2148B0DFAB0480AB47591BC09B4445BEC52A4408E2279BF7E4717CBB214BA9BADF3606B38E7CC702E47B9FE58E7923C716385564B2F5C041EE12AD1A950DBA5F77DF5897EF03EDE9C9F9D9F5DFF4629F9CC724EBA4F44D23C862008AF62C976BA84F3B3D67ECB6D624401C81791DBFB78D5B890239795C8B90596170DCB4510BEA7C1071ABE5B059751F82E0A2EDF8641140484D22E706D65048629BBD1269FE65A27B24C3935DC96126861F846D4DC2E3DD9DCAB4A3D82DFCA46C8B1F4328022F2FDAAAA16D5E5429BAD1F5E5D5DF98FDFEEFCD59E7F0F68F0002015081301714037771
DEVENG dm_t0019_layout     LANSA     XHTML     00000000010000200000000004708890E6C91E8DCBF08820BFFF1FECEFF5A2AC0ABD05B06ACC73983D419E4724F5EA527A9319F07BE961C2816536C9577A883C80B6D806478CFA567218D21E33947D7300E132D17E8E311FFC6E9BD2BB89D38615F8A1248CE21D39857DDA4A97301147FD194279219066DC577DCCEA783089572054B4FE99EB44AA314DBA04483BA691EB746970551383C4BEFE18F7B72D74E836DFCAFFD63F70ECF6BE04631D9F4559726E1B63FB0B093BC677A7C5805E15F1E913AE913CC384BB939A431F3BE0B83D009F05D81F733C8F34232D8137623EDE19045464BDE1638EA8DFBDA1658BBBCF75FB3E46FEC71C1A06B5A8B0451C402ABDE3D60773A9A002015081301714037771
DEVENG dm_t0019_layout     LANSA     XHTML     0000000002000010000000750B54646A63C62B1B7091677C3A4E56F7E1FB56D4C9D581B6F846CDA73C4B947BF7EED00E2750DEBA0719231633938285EC98AAFE3D67FE2FE2C71C630A3769D5E704930A5FB8E3FBE94DCEC3EEB3FB5DA48914CF3FC95F2FD604FAC13ADFF57C56E837E5240BF51942845A9E87E596E50CAA85016AF9D34E368BB83440ADC277ABABE36D3550C02E4CBC6E864855BBA18B0C7A73873A8217E6246B07513FC783E12AD1A7C771134E0DE83509CF6993E1BB61229649320CD404BAEB690C5250AC3A80761100445EDEA44CBD5AADC84B0DBCB787C3E50366F8CD4CDA8D2FF52EA17958515058E70AB41E3D2F4E11326259D88CD5CEA078DA90464F4002015081301714037771
DEVENG dm_t0019_layout     LANSA     XHTML     0000000002000020000000000B4D00CD9CC8F7C27CD485406FCC8E6063E2B2A03C5B3A76EB283900C0C07931B36578B013E3F3A4133538603CDECC84DD3BC70A4F8877FC23938B18C33DC545886E0D30337C5582806F8D8E8868EF560808E8D6E68BFD303AA7FFE0960B298AFC6C653D0F1868EC06373F7829F6DD7601D19BABFDEBCFFB710EDFF0200                                                                                                                                                                                                                                                          002015081301714037771
DEVENG dm_t0021_layout     LANSA     XHTML     00000000010000100000010001F8B0800000000000000A5565D6F9B48147D8F94FFC0A24AED6A3506D2566A509C6AD5A80F5552A9ADABE40D8D616CA63BCCA0994BC0FDF5BD031863C8B89B5DE7C1E6CE3D67EEE72157EF9B42788F4C1BAEE4D28F16A1EF3199AA8CCBEDD2FFBEFA48DEF9EFAFCFCFCECFAEFE20C4FB4C0BE6759FD8CB8A04C2F0224A04DDA90ACECF5AFB0D33A9E625205FECDDDC252BEBE21DB9AC78C10CD0A2B42C1761F49684EF48F46615BE8EA33771F8F6AF288CC3D023A4BBB83122064DA5D9285D4C636D5251658C68662A01A4D46CC31B6696BEB079D599EFE1B73431722CFD1CA08C83A0AEEB45FD7AA1F436882E2F2F83876FB7C16ACFBF0758FC002015081301714052931
DEVENG dm_t0021_layout     LANSA     XHTML     00000000010000200000000001142A0035DA4AA082E30A3E0E1EE36F85A49C054C80D05DAE39C97343914624F5E6727A9319E7BB6160C0816936FA57FA8032F4AA5C1CB31CFA56F204B20670543D72889522516E8E37BC1B5D37B57323371C2BE94157805835C615C8D0D53151C08FE22194B05D514DA8AEF98994F87C765C6242C7DA97AD23A8B336C83E416756D1FB75A55A527717896FEFDDF77DE6D3B0DC6FA5F05C7EE1D9E35C0B4A4C2F655553A65A63F30B013AC677AB85F85D127DF132AED03CC19CD983E8431F3BE8DC2C809085C17EF679015A5A0B027EC46DAC7218BB512AC2D70DC1BF7B52DB17645EFBFA6E93FD8E39242D7B41609BC4C3856BD7BC0EE74346B002015081301714052931
DEVENG dm_t0021_layout     LANSA     XHTML     0000000002000010000000746858C54FA9EC1DEA658DC0D1586BDFA73D4B631756A4CB2E1C2B6E788738F7EF9D201C47435EDA0499A536D1838285E889AAD93D67FE2FE24714E31A2769D9E9124E8CA9DE38F2F15D3BBCFEA83921BC1D3699CFFA77C3FE823ED44EBBF55B1DBA0DF1430B08A12672815DD2FC3344A19E1D260DAA91D47D31DA482E33E91D3F535B9AA13E0209E3746272BDCD225803D3EC5594003C923D59CAEEDE5C7F3912A69F15D2268C0BD072E19E9237DF2DA9A67904F2EB1032D98DC429E54280CA31E446118968DAB132D57AB7213C26E2F93F1F94069DF18999B5166FFA6D4CF2A0B2D4B1CE15683C6A5E9AF4FA91064223673A91F34A6E69093D342002015081301714052931
DEVENG dm_t0021_layout     LANSA     XHTML     00000000020000200000000003344333F0A9C34235119F0239B1BF8A4A80C144F9EBAC90E4232301C4C6ED85C2D06F8FCE804CD4C190E34B323378D7DE108FE937DC43938B18C33DC545886CBA7076E8AB1500CF0B1D10D1DEBC1001D1BDDD07EA70754FFFC1BC064315F8C8DA7A0E30D1D81C7E6EE053FDBAEC13A32747FBD79FF6F21DA7F0100                                                                                                                                                                                                                                                              002015081301714052931
DEVENG dm_t0401_layout     LANSA     XHTML     00000000010000100000010001F8B0800000000000000A556DF6FDB36107E0F90FF41130AB4C5408B4A53B411E214C3823E1449816E1E92378196688B1D450AE42992F7D7EF28C9B22C456EB3390FB68EF77D77BC1F9F72FDA9CEA5F7C48D155A2DFD70417D8FAB44A7426D97FE5FABCFE4A3FFE9E6FCECFCECFA1742BCAF2CE75EFB89BC348F815ED230966CA74B383F6BECB7DC264614807C91777B1FAF9C8B77E4B21239B7C0F2C2B15CD0F03DA11F4978B9A2EFA2F032A21F7E0D6944A947481BB8B63202C394DD68938F73AD1359A69C186E4B09A4307C236A6E97BE74F7AA52DFC36F6523E458FA194011054155558BEADD429B6D105E5D5D058F7FDE05AB3DFF1EE0F0002015081301714072771
DEVENG dm_t0401_layout     LANSA     XHTML     00000000010000200000000004708890E6C91E83CB8A0F42278BCBF0BFE2815E055C82D03D6E16683D419E4724F5EA527A9319F07BE961C0816536C957FA883C80B6DC0CBF09E4BDF421A43C6738EAE611C265A2ED0C7F7829B59EF5DC1EDC809FB5294E0E51C328D79D52E4D9D0B20F88BA43C91CC30682ABEE3763A1D9E502957B0F495EE48AB344AB10D4A38D48D7BDC1A5D169EC2E159FA0FBFDD7B77CD3458E77F1D1CBBB7785E03378A49D7575D9A84DBEEC0C24EF28EE9F16145C32FBE2775D22598719672734863E27D17D2701610CC05DECF20CF0BC9604FD88EB48F4316192D7953E0A833EE6B5B60EDF2CE7FCD92BFB1C70583B6690D1244110BAC7AFB80DD6969002015081301714072771
DEVENG dm_t0401_layout     LANSA     XHTML     0000000002000010000000750D61A1999F23D8BBD4DB0B81B262D7FF376D0B62175626DBC11D2B5E788738F7EFD7A0688D735AC85C649C68CE53043F14A567C1D37FE23F7678933861935EBF4824B8229E7EFF8FD5BC9CDEEABFE5DAB8D14C938CFFF53BEEFEC89B5A2F5DFAAD86ED00F0A1838458952948AF697E506A58C0865F1DA891B47DB1E2452E03E91D3F5B599AE6210205F3646272BDCD0C5803D3EC599430DF1133382AD5DF0E3F948B472F8F62268C0BD07A138E9327D366C2552C84641DC404BAEB690C5250AC3A00721A5B4A8E73AD170352A37226CF7321E9EF794EE8D91CE33AAF4674AFDA2B2B0A2C0116E3468589A2E7CC2A42423B1994A7DAF3195808C9C002015081301714072771
DEVENG dm_t0401_layout     LANSA     XHTML     0000000002000020000000000169A3E9BE951304B3310951E3FB0CD039F15959EE2D9D379B28390F40C07D33C6CAA163D7C7A748266A20C079AC9D13C8D7BE148F10FFF8C7370621927B8B1B0F4C1C707F31443A1E8E143E33C74A8073D74689C87763BDDA3BAE71F00468BF96A683C051D6EE8003C34B72FF8C976F5D681A1FDEBCCFB7F0BD1FE2F00                                                                                                                                                                                                                                                          002015081301714072771
DEVENG dm_t0402_layout     LANSA     XHTML     00000000010000100000010001F8B0800000000000000A556DF6FDB36107E0F90FF41150A74C5404B4A332011E214C3823E0C4981B51E923781A6688B1D450AE42992F7D7EF28C9B22C456ED3390FB68EF77D77BC1F9F72F3B1CEA5F7CC8D155A2DFD6811FA1E574CA7426D97FEDFAB4FE4CAFF787B7E767E76F38610EF33CDB9D77E622FCD13082FC38B44D29D2EE1FCACB1DF71CB8C2800F962EFEE21593917EFC86525726E81E68563B908A3DF487845A2CB55F8218E2EE3F0EAD7288CC3D023A40D5C5B1983A1CA6EB4C9C7B9D64C96292786DB5202290CDF889ADBA52FDDBDAAD4F7F05BD91839967E0650C4415055D5A2FAB0D0661B44D7D7D7C1D3D7FB60B5E7DF031C002015081301714088091
DEVENG dm_t0402_layout     LANSA     XHTML     0000000001000020000000000FE0821D1812E98CE838B30BC089E1EEE832FA502BC0AB9A3403BDC6C903A835CEEC9ABF42435E6F3C8D79203C1628AADF20F751079A10D7819DE73E95B4813C878CED1354A22A6E5027D7C2FB89DF5DE15DC8E9CB02F45095ECE21D39857EDD2D4B90082BF48CA99A4864253F11DB7D3E9F0844AB982A5AF74475AA5718A6D50C2A16EDDE3D6E8B2F0140ECFD27FFCFDC1BB6FA6C13AFF9BE0D8BDC5F31AB85154BABEEAD2306EBB030B3BC93BA6A7C75518FDE97B52B32EC18CD3949B431A13EFFB288C6601C15CE0FD0CF2BC9014F684ED48FB3864B1D19237058E3BE3BEB605D62EEFFCD794FD833D2E28B44D6B90208A4460D5DB07EC4E4B002015081301714088091
DEVENG dm_t0402_layout     LANSA     XHTML     0000000002000010000000750B3D6C84895EF59EC2DC3E26EA8B4FC97F783B60DA999B5C94648D79E23CE3DFADDBB19205ED7D0169AB08C1ACB6186E2ADACF83A69FC47EE2F126714336AD6E915970453CEDFF1DB5F2537BBCFFA0FAD3652B0719EFFA77CDFE8336D45EBE7AAD86ED0770A1838458953948AF697E506A58C0865F1DACC8DA36D0F9814B84FE4747D6DA6AB0404C8D78DD1C90A377409608F4F71E65043F24C8DA06B17FC783E98560EDF5E040DB8F72014275DA62F86AD440AD928881B68C9D516B2A4446118F4200AC3B0A8E73AD170352A37226CF732199EF794EE8D91CE33AAF4474AFDAAB2D0A2C0116E3468589A2E3CA3529291D84CA5BED7984A40464E002015081301714088091
DEVENG dm_t0402_layout     LANSA     XHTML     00000000020000200000000000B4D9FCDF42898A519884A8F1FD8E6812F8A4A4FF1E2E93CD941487A8683691E36558B1E3E3D3A4133518603CDE4689EC6BD70A4F8977FC23938B18C13DC5858FAE0E383798AA150F4F0A1711E3AD4831E3A34CE43BB9DEE51DDF37700A3C57C3B349E820E3774001E9ADB17FC64BB7AEBC0D0FE75E6FDBF8568FF0F00                                                                                                                                                                                                                                                          002015081301714088091
DEVENG dm_t0403_layout     LANSA     XHTML     00000000010000100000010001F8B0800000000000000A556DF6FDB36107E0F90FF41150A74C5404B4A32A011E214C3823E0C4981B51E92378196688B1D450AE42992F7D7EF28C9B22C856ED3390FB68EF77D77BC1F9F72F3B12984F7CCB4E14A2EFD6811FA1E93A9CAB8DC2EFDBF579FC807FFE3EDF9D9F9D9CD1B42BCCFB4605EF789BDAC4820BC0A2F134177AA82F3B3D67EC74CAA7909C8177B770FC9CABA78472E2B5E3003B4282DCB4518FD46C20F24BA5A859771741547E1AF511887A1474817B83122064DA5D9285D4C736D5251658C68662A01A4D46CC31B6696BEB0F7AA33DFC36F6962E458FA39401907415DD78BFA72A1F43688AEAFAF83A7AFF7C16ACFBF0758002015081301714103401
DEVENG dm_t0403_layout     LANSA     XHTML     0000000001000020000000000FC1142A0035DA4AA082EC2F022787AB80FBE5412F02AE48E02ED71CE204D0E85D893D7D9496ACCE791AD050382C5E45BE91FEAC08B5269F072BCE7D237902590B382A16B9444A9120BF4F1BDE0D6E9BD2B999938615FCA0ABC8241AE30AFC6A6A90A0E047F918CA5826A0A6DC577CCCCA7C3E332631296BE543D699DC519B641728BBAB58F5BADAAD293383C4BFFF1F707EFBE9D0663FD6F8263F70ECF1A605A5261FBAA2A9D32D31F18D809D6333D3DAEC2E84FDF132AED13CC19CD983EA431F3BE8FC2C809085C81F733C88A5250D8137623EDE390C55A09D61638EE8DFBDA9658BBA2F75FD3F41FEC7149A16B5A8B045E261CABDE3D60773A002015081301714103401
DEVENG dm_t0403_layout     LANSA     XHTML     00000000020000100000007509AB542462A7DCF606F532CEE860AC37E793F6ADB983A3526D97061DB73C4B947BF7BE700E27535EDA0499A536D183828DE8A9AAD93D67FE2FE22714E31A3769D5E7149D095FB8EDFFEAA98DE7D567F28B9113C9DE6F97FCAF78D3ED34EB47EAE8ADD067DA7808155943843A9E87E19A651CA089706AF9DDA7134DD412A38EE13395D5F93AB3A010EE2756374B2C22D5D02D8E3539C0534903C53CDE9DA063F9E8F54498BEF2E8206DC7BE092913ED317C3D63C837C12C40EB460720B7952A1308C7A1085615836AE4EB45CADCA4D08BBBD4CC6E703A57D63646E4699FD48A95F55165A9638C2AD068D4BD3874FA91064223673A91F34A6E69093002015081301714103401
DEVENG dm_t0403_layout     LANSA     XHTML     0000000002000020000000000D3423364333F0A9C34235119F0239B1BF8A2A80C142F9EBAC90E4232301C4C6ED85C2D06F8FCE804CD4C190E34B323378D7DE108FE2FFB847370621967B8A9B00CC1A7076E8AB1500CF0B1D10D1DEBC1001D1BDDD07EA70754FFFC1DC06431DF8E8DA7A0E30D1D81C7E6EE053FDBAEC13A32747FBD79FF6F21DAFF0300                                                                                                                                                                                                                                                          002015081301714103401
DEVENG dm_t0404_layout     LANSA     XHTML     00000000010000100000010001F8B0800000000000000A556DB6EDB38107D0F907F6085026DB1A025A529D008718AC5067D582405DABA48DE049AA22D762952204791BC5FBFA38B65598ADCCDAEF3606B38E7CC702E47B9FE54658A3C09EBA4D14B2F5C041E119A9B44EAEDD2FBB1FA4C3F7A9F6ECECFCECFAE5F514ABEB04C90F61391248B21B80C2E63C576A680F3B3C67E2B1CB73207E48BC8ED7DBCAA5DC891CB4A66C201CBF29AE522083FD0E0230D2F57C1FB28BC8CC2F0B73088828050DA06AE9C8AC032ED36C666E35C2BAE8A44502B5CA180E6566C6425DCD253F5BDCAC423F8AD5D841C4B2F05C823DF2FCB7251BE5F18BBF5C3ABAB2BFFF1FB9DBFDAF3EF0135FE002015081301714118871
DEVENG dm_t0404_layout     LANSA     XHTML     000000000100002000000000008A1D0812DB8C9FC8B20B8F01FEFEFFC6F8506BC0ABD65C03ADC6C902A854CEDC9CBE42435E6F320D64A00C562CAADF60E7590596E2C9014EFB9F41C2431A42213E81AC621376A813E1EF16F66BD77B9702327EC4B5E00C904A406F3AAEA344D2681E22F9A08AE9865D0547C27DC743A88D489D0B0F4B4E948CB244AB00D5AD6A89BFA716B4D91138DC3B3F41E7EBF2777CD34B8DAFFDA3F766FF1A202613553755F4D61B970DD81839D121DD3E3C32A08FFF48832BC4B30152C11F690C6C4FB2E0CC259803F17783F8322CB15833D613BD21E0E59648D124D81A3CEB8AF6D8EB5CB3AFF35E37F618F73066DD31A24C83C9658F5F601BBD3D2AC002015081301714118871
DEVENG dm_t0404_layout     LANSA     XHTML     00000000020000100000007500D3232ED1187BDE558DC0D534EBC7D3768DB909A3B176FA4AADB73C4B947BF793303C4EB5AD642639E32EB04CC50BC56A558C78DFFC8FD59E2946146CD3ABDE092608BF93BFEFC5A08BBFB62FE307AA3241FE7F97FCAF7933DB156B4FE5B15DB0DFA4501FD5A51A204A5A2FDE5844529A3523BBC36AFC7D1B5075C49DC277ABABE2E35650C12D4CBC6E864851BBA18B0C7A73833A8207E6256B2751DFC783EB8D135BEBD081A70EF416A41BB4C9F0D5BCA04D251907AA095D05B48E3028561D083300882BC9AEB44C3D5A8DC88B0DDCB7878DE53D66F8C649E5127FFA6D42F2A0BCB731CE1468386A5E9C273A6141D89CD54EA7B8D2925A4F4B4002015081301714118871
DEVENG dm_t0404_layout     LANSA     XHTML     0000000002000020000000000D0F4D94C8FFC599A81A8F4F8816D1EF8ACA8F414CF9ECE931D84A4673898E66153B5E8E1D3A31334136538D04C8EE669EA178E927F8BCF3807279671821B0B4B1F7C7C304F31148A1E3E34CE43877AD04387C67968B7D33DAA7BFE0560B498AF87C653D0E1860EC04373FB829F6C576F1D18DABFCEBCFFB710EDFF0000                                                                                                                                                                                                                                                          002015081301714118871
DEVENG dm_t0405_layout     LANSA     XHTML     00000000010000100000010001F8B0800000000000000A556DF6FDB36107E0F90FF81130A7443414B4A52A011E214C5823E0C49816D1E92378196688B2D450AE42992FBD7EF28C9B22C45EEB23A0FB68EF77D77BC1F9F72F3B1CE2579E6C60AAD965EB8083CC255A253A1B64BEF9FD567FAC1FB787B7E767E76F30BA5E40BCB39693F1149F31882ABE07D2CD94E97707ED6D8EFB84D8C2800F92272F710AF9C0B397259899C5B6079E1582E82F03D0D3ED0F06A155C46E155145EBE0B83280808A56DE0DACA080C5376A34D3ECEB54E6499726AB82D25D0C2F08DA8B95D7AD2DDAB4A3D82DFCA46C8B1F4328022F2FDAAAA16D5E5429BAD1F5E5F5FFB4F7FDFFBAB3DFF1EE0F0002015081301714134961
DEVENG dm_t0405_layout     LANSA     XHTML     00000000010000200000000004708890E6C91E8DCBF08820BFFE9E1DEFFAB548057A1770C58879B0D526790CB3D79959EA4C67C1EF95A72A0584CB155DEA10E222FB40192E13D979E8534868CE71C5DC3384CB45CA08F47FCDB59EF5DC1EDC809FB529440720E99C6BC6A97A6CE0550FC45539E4866183415DF713B9D0E2254CA152C3DA53BD22A8D526C83120E75EB1EB746970551383C4BEFF1D303B96FA6C13AFF1BFFD8BDC5F31AB8514CBABEEAD224DC7607167692774C4F8FAB20FCC32352275D8219672937873426DEF76110CE02FCB9C0FB19E4792119EC09DB91F670C822A3256F0A1C75C67D6D0BAC5DDEF9AF59F20D7B5C30689BD6204114B1C0AAB70FD89D9666002015081301714134961
DEVENG dm_t0405_layout     LANSA     XHTML     0000000002000010000000750AD9191298F58EC6D82C5DD3069F9AFBF0DDA36A44EAC8D3742BAF61C71EED16FDFCE00F1BA86B5D038C998B11C6628DEC88AAFE3C67FE4FE2271C630A3669D5E714930E5FC1DBFFE5972B3FBA27FD76A234532CEF367CAF7953DB356B4FE5F15DB0DFA41017DA728518A52D1FEB2DCA09451A12C5E3B71E368DB83440ADC277ABABE36D3550C02E4EBC6E864851BBA18B0C7A73873A8217E6646B0B50B7E3C1F89560EDF5E040DB8F72014A75DA62F86AD440AD928881B68C9D516B2B8446118F4200C82A0A8E73AD170352A37226CF7321E9EF794EE8D91CE33AAF4BF94FA556561458123DC68D0B0345DF884494947623395FA5E632A01193D002015081301714134961
DEVENG dm_t0405_layout     LANSA     XHTML     00000000020000200000000002D347D36D3237F9666202A3D7E609B07BE282A3DC58BA7F3640721E9190EA679D8542D7AF8F4E804CD44190E3493A3791AF7C291E23BFF8C7370621927B8B1B0F4C1C707F31443A1E8E143E33C74A8073D74689C87763BDDA3BAE71F00468BF966683C051D6EE8003C34B72FF8C976F5D681A1FDEBCCFB7F0BD1FE2F00                                                                                                                                                                                                                                                          002015081301714134961
DEVENG dm_t0601_layout     LANSA     XHTML     00000000010000100000010001F8B0800000000000000A5566D6FDB3610FE1E20FF81130AB4C3404B4ABB2111E214C3827E2892026D3D24DF049AA22D76142990A748DEAFDFE9C5B22C45CEB225016CDDDDF3F0782F8F72FDB1CA147912D649A3975EB8083C22343789D4DBA5F7E7EA13BDF43EDE9C9F9D9F5DFF4429F9C23241DA9F8824590CC16F41182BB633059C9F35F65BE1B89539205F446EEFE3551D428E425632130E5896D72C1741F82B0D2E69F86115BC8FC20FF8F74B18444140286D0FAE9C8AC032ED36C666E35C2BAE8A44502B5CA180E6566C6425DCD253F5BDCAC423F8A95D841C4B2F05C823DF2FCB7251BE5F18BBF5C3ABAB2BFFF1FB9DBFDAF3EF0135FE002015081301714149181
DEVENG dm_t0601_layout     LANSA     XHTML     000000000100002000000000008A130802DB8C9FC8B20B8F01FEFEFFC6F8506BC0ABD65C03ADCEC21550A99DA9397C9496ACCE741AC95008AC5945BED1DEA20B3DC582029DE73E939486248452630348C436ED402633CE2DFCC46EF72E14641D897BC009209480DE655D5699A4C02C56F34115C31CBA0A9F84EB8E97410A913A161E969D391964994601BB4AC5137F5E3D69A22271A8767E93DFC7E4FEE9A697075FCB57F1CDEE24505C26AA6EABE9AC272E13A87839D121DD3E3C32A083F7B4419DE25980A96087B4863127D1706E12CC09F3B783F8322CB15833D613BD21E0E59648D124D81A3CEB8AF6D8EB5CBBAF835E37F618F73066DD31A24C83C9658F5F601BBD3D2AC002015081301714149181
DEVENG dm_t0601_layout     LANSA     XHTML     00000000020000100000007480D3232ED1187BDE558DC0D534EBCFB79D0B62135772EDE4855B7E788738F7EFB760688D7B5AC85C63C65D60998A178A34AB18E9BF851F8B3C429C38C9A757AC525C116F377FCF1B51076F7C5FC61F446493ECEF3FF94EF077B62AD68FDB72AB61BF44201FD5A51A204A5A2FDE6844529A3523BBC36AFC7D1B50EAE24EE133D5D5F979A320609EA756374B2C20D5D0CD8E3539C1954103F312BD9BA3EFC783EB8D135BEBD081A70EF416A41BB4C9F3DB69409A4A343EA8156426F218D0B1486410FC22008F26AAE130D57A37223C2762FE3A1BFA7ACDF18C93CA34EFE4DA95F551696E738C28D060D4BD31DCF995274243653A9EF35A69490D2D3002015081301714149181
DEVENG dm_t0601_layout     LANSA     XHTML     000000000200002000000000042D3673375F9B3340351E9F103DB3CF05951E9299EF5CE931D84A4673898E66153B5E8E153D7099A89321C6826AE799AFA85A3E4DFE213CEC189659CE0C6C2D21F3E76CC530C85A2870F8DF3D0A11EF4D0A1711EDAED748FEA9E5F008C16F3CDD0780A3ADCD00178686E5FF093EDEAAD0343FBDB99F7FF16A2FD1F00                                                                                                                                                                                                                                                            002015081301714149181
DEVENG dm_t0602_layout     LANSA     XHTML     00000000010000100000010001F8B0800000000000000A556DB6EDB38107D0F907FD00A05BA8B8296945ED008718AA2411F164981B65E246F024DD116BB142990A348DEAFDFA124CBB214B99BAEF3606B38E7CC702E47B9FA50E7D27BE4C60AAD967EB4087D8F2BA653A1B64BFFAFD567F2DEFF707D7E767E76F51B21DE179A73AFFDC45E9A2710BE0B2F124977BA84F3B3C67EC32D33A200E48BBD9BBB64E55CBC239795C8B9059A178EE5228CDE92F03D89DEACC2D771F4268EDEBD8AC2380C3D42DAC0B5953118AAEC469B7C9C6BCD64997262B82D2590C2F08DA8B95DFAD2DDAB4A7D0FBF958D9163E96700451C0455552DAAD70B6DB641747979193C7CBF0D567BFE3DC0002015081301714163401
DEVENG dm_t0602_layout     LANSA     XHTML     0000000001000020000000000E18F10121DE882E93CB808C38BE0E1EE36F8562AC0AB901B0AB4C3CD06A933C8E59EBC4A4F52633EF77C2D39102CA6D82AFF50079117DA8097E13D97BE8534818CE71C5DA324625A2ED0C7F782EB59EF5DC1EDC809FB5294E0E51C328D79D52E4D9D0B20F88BA49C496A283415DF713B9D0E4FA8942B58FA4A77A4551AA7D806251CEADA3D6E8D2E0B4FE1F02CFDFB8F77DE6D330DD6F95F05C7EE2D9ED7C08DA2D2F555978671DB1D58D849DE313DDCAFC2E84FDF939A7509669CA6DC1CD29878DF4661340B08E602EF6790E785A4B0276C47DAC7218B8D96BC2970DC19F7B52DB07679E7BFA6EC6FEC7141A16D5A8304512402ABDE3E60775A002015081301714163401
DEVENG dm_t0602_layout     LANSA     XHTML     00000000020000100000007509AB54646AA7CCF626F19167743A5E5BFFF3168DB909A599B6C8474ED39E2DCA35FBE9C01E2750D6DA109CBA8B11C66285EC88AAF93C67FE4FE24714631A3669D9E714930E5FC1D7F7C2DB9D97DD19FB4DA48C1C679FE9FF2FDA08FB415AD5FAB62BB413F2960E014254E512ADA5F961B94322294C56B33378EB63D6052E03E91D3F5B599AE1210209F3746272BDCD025803D3EC599430DC9233582AE5DF0E3F9605A397C7B1134E0DE83509C74993E19B6122964A3206EA025575BC892128561D083280CC3A29EEB44C3D5A8DC88B0DDCB6478DE53BA37463ACFA8D2FF52EA67958516058E70A341C3D274E11995928CC4662AF5BDC654023272002015081301714163401
DEVENG dm_t0602_layout     LANSA     XHTML     00000000020000200000000005A68FA6CA647C12CCD40547AFCC0360F7C52547A8A274FE7C90E42D2331C4CF3B0A95AF4F0E9D1099A89321C682647F334EE8523C53FFC33CEC189659CE0C6C2D2071F1FCC530C85A2870F8DF3D0A11EF4D0A1711EDAED748FEA9E7F02182DE68BA1F11474B8A103F0D0DCBEE027DBD55B0786F6AF33EFFF2D44FBBF00                                                                                                                                                                                                                                                          002015081301714163401
DEVENG dm_t0603_layout     LANSA     XHTML     00000000010000100000010001F8B0800000000000000A5565D6FDB36147D0F90FFA00905BAA1A02525DDD608718A61411F86A4403B0FC99B4053B4C5962205F22A92F7EB77F56159964277699D075B97F79C7B793F8E72FDBECEA5F7C48D155A2DFD6811FA1E574CA7426D97FE3FAB0FE49DFFFEE6FCECFCECFA2742BC8F34E75EF789BD344F20FC2DBC4C24DDE912CECF5AFB2DB7CC8802902FF66EEF9355E3E21DB9AC44CE2DD0BC68582EC2E85712BE23D1DB557819476FE3E8F737511887A1474817B8B632064395DD68934F73AD992C534E0CB7A5045218BE1135B74B5F36F7AA52DFC36F6563E458FA194011074155558BEA72A1CD3688AEAEAE82C7BFEF82D59E7F0F002015081301714178551
DEVENG dm_t0603_layout     LANSA     XHTML     000000000100002000000000068F04708890E74C1741E5C84E145F0787F177C2E15E055C82D05DAE39C41EA0C72B927AFD293D498CF035F4B0E048B29B6CA3FD441E48536E06578CFA56F214D20E33947D7288998960BF4F1BDE0C6E9BD2BB89D38615F8A12BC9C43A631AFBA4953E70208FE222967921A0A6DC577DCCEA7C3132AE50A96BED23D6995C629B641890675D33C6E8D2E0B4FE1F02CFD873FEEBDBB761A6CE37F1D1CBB77785E03378ACAA6AFBA348CDBFEC0C24EF29EE9F16115467FF99ED4AC4F30E334E5E690C6CCFB2E0A2327207005DECF20CF0B49614FD88DB48F43161B2D795BE0B837EE6B5B60EDF2DE7F4DD957EC7141A16B5A8B04512402ABDE3D6077002015081301714178551
DEVENG dm_t0603_layout     LANSA     XHTML     00000000020000100000007523A9AB54646AA7CCF626F19167743A5E53FFF326ADB989A599B6C846CDA73C4B947BF7EED00E2750DEDA009CBA8B11C1C14AF64C5D749EB3F717F9638A39851BB4E2FB82498D27DC72F9F4A6E761FF59F5A6DA460D33C7FA47C5FE813ED44EBFBAAD86DD0370A18348A12A72815DD2FCB0D4A1911CAE2B559338EB63B6052E03E91D3F5B599AE1210205F3646272BDCD225803D3EC599430DC9133582AE9BE0C7F3C1B46AF0DD45D0807B0F4271D267FA6CD84AA4904D8234032DB9DA429694280CA31E44611816B5AB132D57AB7213C26E2F93F1F940D9BC315237A34AFF4FA95F54165A1438C2AD068D4BD38767544A32119BB9D40F1A5309C8002015081301714178551
DEVENG dm_t0603_layout     LANSA     XHTML     0000000002000020000000000C869A119B2991F054E9A91A80CF891CD0D7C5654068A674FDD64072119180E26376CAE16037C7E748266A60C079AD9919BA679E148F12FFF807370621967B8A9B00CC1A7076E8AB1500CF0B1D10D1DEBC1001D1BDDD07EA70754FFFC0DC064315F8D8DA7A0E30D1D81C7E6EE053FDBAEC13A32747FBD79FF6F21DAFF0300                                                                                                                                                                                                                                                        002015081301714178551
DEVENG dm_t0604_layout     LANSA     XHTML     00000000010000100000010001F8B0800000000000000A556DF6FDB36107E0F90FF81130AB4C5404B4AD3A211E214C3823E1449816E1E92378196688B1D450AE42992F7D7EF28C9B22C456EB3390FB68EF77D77BC1F9F72FDA9CE2579E2C60AAD965EB8083CC255A253A1B64BEFAFD567FAD1FB74737E767E76FD0BA5E42BCB39693F1149F318820FC1652CD94E97707ED6D86FB94D8C2800F922727B1FAF9C0B397259899C5B6079E1582E82F03D0D3ED2F07215BC8BC2CB28BCFA350CA2202094B6816B2B23304CD98D36F938D73A9165CAA9E1B694400BC337A2E676E94977AF2AF5087E2B1B21C7D2CB008AC8F7ABAA5A54EF16DA6CFDF0EAEACA7FFCF3CE5FEDF9F70087002015081301714193551
DEVENG dm_t0604_layout     LANSA     XHTML     00000000010000200000000003F424874608B44E7FE45105CF88FF777FE1FA502BC0ABD65C03ADC6C903A835CEEC9ABF42435E6F3C0D79203C5628AADF20E751079A10D900CEFB9F42CA431643CE7E81AC661A2E5027D3CE2DFCC7AEF0A6E474ED897A2049273C834E655BB34752E80E22F9AF24432C3A0A9F88EDBE97410A152AE60E929DD91566994621B9470A81BF7B835BA2C88C2E1597A0FBFDD93BB661AACF3BFF68FDD5B3CAF811BC5A4EBAB2E4DC26D7760612779C7F4F8B00AC22F1E913AE912CC384BB939A431F1BE0B837016E0CF05DECF20CF0BC9604FD88EB4874316192D7953E0A833EE6B5B60EDF2CE7FCD92BFB1C70583B6690D1244110BAC7AFB80DD6969002015081301714193551
DEVENG dm_t0604_layout     LANSA     XHTML     0000000002000010000000750D61A1999F288C5DE2658DC0D9396BF793B68DB903AB136DE08E9DA73C4B947BF7E3D03C4EB1AD642E32463C67298A178252BBE8E1BFF91FBB3C419C38C9A757AC125C194F377FCFEADE466F755FFAED5468A649CE7FF29DF77F6C45AD1FA6F556C37E80705F49DA244294A45FBCB7283524685B278EDC48DA36D0F1229709FE8E9FADA4C573108902F1BA393156EE862C01E9FE2CCA186F88919C1D62EF8F17C245A397C7B1134E0DE83509C76993E1BB6122964A3206EA025575BC8E2128561D083300882A29EEB44C3D5A8DC88B0DDCB7878DE53BA37463ACFA8D29F29F58BCAC28A0247B8D1A06169BAF00993928EC4662AF5BDC65402327A002015081301714193551
DEVENG dm_t0604_layout     LANSA     XHTML     00000000020000200000000005A68FA6CA647FE2CCD40547AFCC0360F7C56547A8A674FE7C90E42D2331C4CF3B0A95AF4F0E9D1099A89321C682647F334EE8523C53FFC33CEC189659CE0C6C2D2071F1FCC530C85A2870F8DF3D0A11EF4D0A1711EDAED748FEA9E7F00182DE6ABA1F11474B8A103F0D0DCBEE027DBD55B0786F6AF33EFFF2D44FBBF00                                                                                                                                                                                                                                                          002015081301714193551
DEVENG dm_t0605_layout     LANSA     XHTML     00000000010000100000010001F8B0800000000000000A556DB6EDB38107D0F907FD00A05BA45418B4ADB4523C4298A067D582405DA7A91BC0934455BEC52A4408E2279BF7E4717CBB214B99BAEF3606B38E7CC702E47B9FA5065CA7B14D649A3977EB8A0BE27343789D4DBA5FFD7EA3379EF7FB83E3F3B3FBBFA8D10EF0BCB84D77E222FC962A07FD077B1623B53C0F95963BF118E5B9903F245DECD5DBCAA5DBC239795CC840396E535CB050DDF11FA9E846F57F44D14BE8D2EE8EB9046947A84B4812BA722B04CBB8DB1D938D78AAB2211C40A572820B9151B5909B7F4557DAF32F13DFCD62E428EA59F02E451109465B928DF2C8CDD06E1E5E565F0F0FD3658EDF9F7801A002015081301714206991
DEVENG dm_t0605_layout     LANSA     XHTML     00000000010000200000000007F8450E8C016DC64C105A517C1C3DD6DF0ADD0805721370C58879B0D52A590A93D79999CA4C67CEEC55A0920584CB9D5FEA10E32CB8D052FC57B2E7D07490CA9C804BA8671C88D5AA08FEF05D7B3DEBB5CB89113F6252FC0CB04A406F3AAEA344D2681E02F9208AE9865D0547C27DC743A3CA913A161E96BD391964994601BB4AC51D7F5E3D69A22F7340ECFD2BFFF78E7DD36D3E06AFFABE0D8BDC58B0A84D54CD57D3585E5C275070E764A744C0FF72B1AFEE97BCAF02EC154B044D8431A13EFDB9086B380602EF07E0645962B067BC276A47D1CB2C81A259A02479D715FDB1C6B9775FE6BC6FFC61EE70CDAA6354890792CB1EAED0376A7A5002015081301714206991
DEVENG dm_t0605_layout     LANSA     XHTML     0000000002000010000000750591B6464DAF71CF6966371374C39F1FBAB41DB86D4DCB9782355DD9E23CE3DFAE5CB19205ED7B2161AF39459276086E2852AC53A6EFC47EE4F12A70C336AD6E91997045BCCDFF1C7D742D8DD17F3C9E88D927C9CE7FF29DF0FF6C85AD1FAB52AB61BF4930206B5A244094A45FBCB098B5246A476786D5E8FA36B0FB892B84FE4747D5D6ACA1824A8E78DD1C90A377431608F4F71665041FCC8AC64EB3AF8F17C70A36B7C7B1134E0DE83D48274993E19B69409A4A320F5402BA1B790C6050AC3A00721A534AFE63AD170352A37226CF7321E9EF794F51B239967D4C97F29F5B3CAC2F21C47B8D1A06169BAF09C294546623395FA5E634A092939002015081301714206991
DEVENG dm_t0605_layout     LANSA     XHTML     00000000020000200000000002D347D36D3A3609666202A3D7E609B073E292A3DC593A7F3640721E9190EA679D8542D7AF8F4E804CD44190E3493A3799AFA85A3E43FE233CEC189659CE0C6C2D2071F1FCC530C85A2870F8DF3D0A11EF4D0A1711EDAED748FEA9E7F02182DE68BA1F11474B8A103F0D0DCBEE027DBD55B0786F6AF33EFFF2D44FBBF00                                                                                                                                                                                                                                                          002015081301714206991
DEVENG dm_t0606_layout     LANSA     XHTML     00000000010000100000010001F8B0800000000000000A556DF6FDB36107E0F90FF41130AB4C3404B72BBA211E214C3823E0C49816D1E923781A6688B2D450AE42992F7D7F728C9B22C45EEB23A0FB68EF77D77BC1F9F72FDB1CEA5F7C48D155AADFC6811FA1E574CA742ED56FE3FEB4FE483FFF1E6F2E2F2E2FA2742BCCF34E75EFB89BD344F207C1FBE4F24DDEB122E2F1AFB2DB7CC8802902FF66EEF93B573F14E5CD622E716685E38966518FD4AC20F247AB70EDFC6D1BB78B9FC250AE330F4086903D756C660A8B25B6DF271AE359365CA89E1B694400AC3B7A2E676E54B77AF2AF53DFC5636468E959F011471105455B5A8DE2EB4D905D1D5D555F0F8F75DB03EF01F00002015081301714222301
DEVENG dm_t0606_layout     LANSA     XHTML     00000000010000200000000000E7F8290E840174CE7C1320C97C1E3FD5DF057A900AF426E29D00E371BA4CE209707F22A3D4B8DF93CF08DE440B09862A7FC631D445E68035E86F75CF916D204329E73748D928869B9401FDF0B6E66BDF705B72327EC4B51829773C834E655BB34752E80E02F927226A9A1D0547CCFED743A3CA152AE60E52BDD9156699C621B9470A81BF7B833BA2C3C85C3B3F21F7EBBF7EE9A69B0CEFF3A38756FF1BC066E1495AEAFBA348CDBEEC0C25EF28EE9F1611D467FF89ED4AC4B30E334E5E698C6C4FB2E0AA359403017F830833C2F248503613BD23E0E596CB4E44D81E3CE78A86D81B5CB3BFF0D655FB1C70585B6690D12449108AC7AFB80DD69002015081301714222301
DEVENG dm_t0606_layout     LANSA     XHTML     000000000200001000000075269361A19A9F23D8BBD6558DC2D9596BFF979D0B62135B336D90AE9DA73C27940BF7E3D03C4EB1ADA421396516339CC50BC9215DF248DFFC8FD59E28C6246CD3ABDE09260CAF93B7EF9B3E466FF59FFAED5560A36CEF347CAF7853ED156B4FE5F15DB0DFA4E0103A728718A52D1FEB2DCA09411A12C5E9BB971B4ED019302F7899CAFAFCD74958000F9B2313A5BE1862E01ECF139CE1C6A489EA81174E3829FCE07D3CAE1DB8BA001F71E84E2A4CBF4D9B09548211B0571032DB9DA419694280C831E44611816F55C271AAE46E54684ED5E26C3F39ED2BD31D2794695FE9752BFA82CB42870841B0D1A96A60BCFA89464243653A9EF35A6129091002015081301714222301
DEVENG dm_t0606_layout     LANSA     XHTML     0000000002000020000000000F342D367333D0A666906A2D2E307B679E0B3A2D2533C7B3A4F7614929EE1689A874DD5A2874F8FCED04C94E14833399AA7712F1C29FEE59F700ECE2CE3043716963EF8F8609E6228143D7C689C870EF5A0870E8DF3D06EA77B54F7FC1DC068315F0D8DE7A0C30D1D8087E6F6053FD9AEDE3A30B47F9DF9F06F21DABF0100                                                                                                                                                                                                                                                        002015081301714222301
