DEVDF_DDDEP  0000000CURRDEPTMENT        CurrDeptment        10100                                                                                                                                                                                                                                                                                                  00000000000000          
DEVDF_DLDEP  0000000CURRDEPTMENT        CurrDeptment        10100                                                                                                                                                                                                                                                                                                  00000000000000          
DEVDF_DLSKL  0000000CURRSKILL           CurrSkill           10100                                                                                                                                                                                                                                                                                                  00000000000000          
DEVDF_EPNL   0000000MONTH               Month               11100                                                                                                                                                                                                                                                                                                  00000000000000          
DEVDF_EPNL   0000000NKEY1               NKey1               11100                                                                                                                                                                                                                                                                                                  00000000000000          
DEVDF_EPNL   0000000NKEY2               NKey2               11100                                                                                                                                                                                                                                                                                                  00000000000000          
DEVDF_EPNL   0000000SELECTED            Selected            11100                                                                                                                                                                                                                                                                                                  00000000000000          
DEVDF_EPNL   0000000YEAR                Year                11100                                                                                                                                                                                                                                                                                                  00000000000000          
DEVDF_MSGQA  0000000TEXT                Text                11100                                                                                                                                                                                                                                                                                                  00000000000000          
DEVDF_MSGQF  0000000ACTIONQUEUE         ActionQueue         10100                                                                                                                                                                                                                                                                                                  00000000000000          
DEVDF_MSGQF  0000000CHATQUEUE           ChatQueue           10100                                                                                                                                                                                                                                                                                                  00000000000000          
DEVDF_MSGQF  0000000QUEUECHECKINTERVAL  QueueCheckInterval  10100                                                                                                                                                                                                                                                                                                  00000000000000          
DEVDF_T3205  0000000UICON               uIcon               10100                                                                                                                                                                                                                                                                                                  00000000000000          
DEVDF_T3205  0000000UPRIORITY           uPriority           11100                                                                                                                                                                                                                                                                                                  00000000000000          
DEVDF_TVDEP  0000000CURRDEPTMENT        CurrDeptment        10100                                                                                                                                                                                                                                                                                                  00000000000000          
DEVDF_TVDS   0000000UDEPTMENT           uDeptment           10100                                                                                                                                                                                                                                                                                                  00000000000000          
DEVDF_TVDS   0000000USECTION            uSection            10100                                                                                                                                                                                                                                                                                                  00000000000000          
DEVFP_AC001  0000000UCAPTION            uCaption            11100                                        Value of the caption.                                                                                                                                                                                                                                     00000000000000          
DEVFP_AC001  0000000UCAPTIONHEIGHT      uCaptionHeight      11100                                        Height of the caption when uCaptionPosition = Top.                                                                                                                                                                                                        00000000000000          
DEVFP_AC001  0000000UCAPTIONPOSITION    uCaptionPosition    11100                                        Controls the Left of Top positioning of the caption.                                                                                                                                                                                                      00000000000000          
DEVFP_AC001  0000000UCAPTIONWIDTH       uCaptionWidth       11100                                        Width of the caption when uCaptionPosition = Left.                                                                                                                                                                                                        00000000000000          
DEVFP_IN001  0000000SELECTED            Selected            11100                                        Indicates whether the row has been selected.                                                                                                                                                                                                              00000000000000          
DEVFP_IN001  0000000UACTION             uAction             01100                                        Copies incoming data to the clipboard in TAB delimited format. PASTE, gets TAB delimited clipboard data and sends it to the server. COPYPASTE all of the above. When you select COPY or PASTE, by default a COPY or PASTE button is added to the web page.00000000000000          
DEVFP_IN001  0000000UALLOWNULL          UallowNull          01100Allow Null                              Allow a date to have a null value (blanks or zeros depending on data type)                                                                                                                                                                                00000000000000          
DEVFP_IN001  0000000UALPHAVALUE         uAlphaValue         11100Alphanumeric Value                      The alphanumeric value of the date.                                                                                                                                                                                                                       00000000000000          
DEVFP_IN001  0000000UAPPENDDATA         uAppendData         01100                                        Whether to append or replace the data set in the output file.                                                                                                                                                                                             00000000000000          
DEVFP_IN001  0000000UARRANGE            UArrange            01100Arrange                                 The part's orientation. Specify VERTICAL or HORIZONTAL.                                                                                                                                                                                                   00000000000000          
DEVFP_IN001  0000000UARRANGECAPTIONS    UArrangeCaptions    01100                                        Specifies how captions associated with bars in the graph should be displayed. Specify as VERTICAL or HORIZONTAL                                                                                                                                           00000000000000          
DEVFP_IN001  0000000UARRANGEVALUES      uArrangeValues      01100                                        Specifies how values associated with bars in the graph should be displayed. Specify as VERTICAL or HORIZONTAL                                                                                                                                             00000000000000          
DEVFP_IN001  0000000UBARHEIGHT          UbarHeight          01100                                        The approximate maximum bar height to be used (specified in pixels).                                                                                                                                                                                      00000000000000          
DEVFP_IN001  0000000UBARWIDTH           UbarWidth           01100                                        The approximate maximum bar width to be used (specified in pixels).                                                                                                                                                                                       00000000000000          
DEVFP_IN001  0000000UBORDER             uBorder             01100                                        Determines if page is displayed with a border.                                                                                                                                                                                                            00000000000000          
DEVFP_IN001  0000000UBORDERWIDTH        uBorderWidth        01100                                        The width of the border to be drawn around the whole graph. Specify in pixels.                                                                                                                                                                            00000000000000          
DEVFP_IN001  0000000UBUTTONCAPTION      uButtonCaption      01100                                        When uVisible is TRUE, the caption of the COPY or PASTE button                                                                                                                                                                                            00000000000000          
DEVFP_IN001  0000000UBUTTONENABLED      uButtonEnabled      11100                                        Indicate whether a specific button instance in a group of buttons should be enabled for input. Allowable values are TRUE or FALSE                                                                                                                         00000000000000          
DEVFP_IN001  0000000UBUTTONVISIBLE      uButtonVisible      11100                                        Indicate whether a specific button instance in a group of buttons should be made visible. Allowable values are TRUE or FALSE                                                                                                                              00000000000000          
DEVFP_IN001  0000000UCALCULATORIMAGE    uCalculatorImage    01100                                        Specify the image clicked on to open the calculator.                                                                                                                                                                                                      00000000000000          
DEVFP_IN001  0000000UCALENDARIMAGE      uCalendarImage      01100Calendar Image                          If uUseCalendar is true, specify the image to associate as the calendar selection.                                                                                                                                                                        00000000000000          
DEVFP_IN001  0000000UCAPTION            uCaption            01100Caption                                 The caption to be associated with the part. Default blank. Maximum length 256 characters.                                                                                                                                                                 00000000000000          
DEVFP_IN001  0000000UCAPTIONHEIGHT      uCaptionHeight      01100Caption Height                          Indicates the width of a LEFT positioned caption                                                                                                                                                                                                          00000000000000          
DEVFP_IN001  0000000UCAPTIONPOSITION    uCaptionPosition    01100Caption Position                        Indicates how the caption is to be positioned for the part. Allowable values are LEFT, TOP or NONE.                                                                                                                                                       00000000000000          
DEVFP_IN001  0000000UCAPTIONWIDTH       uCaptionWidth       01100Caption Width                           Indicates the height of a TOP positioned caption                                                                                                                                                                                                          00000000000000          
DEVFP_IN001  0000000UCHANGED            uChanged            11100Radio Button visible value              Indicates whether the user has chosen a new option, for this Occurrence. Used when multiple Occurrences are present and uSignalSelection is FALSE.                                                                                                        00000000000000          
DEVFP_IN001  0000000UCHECKED            uChecked            11100                                        Indicates whether the checkbox is currently checked.                                                                                                                                                                                                      00000000000000          
DEVFP_IN001  0000000UCLICKEDONID        uClickedOnID        10100                                        A parameter returned by the FP_RHTML_Event handler.                                                                                                                                                                                                       00000000000000          
DEVFP_IN001  0000000UCLICKEDONIDNUM     uClickedOnIDnum     10100                                        A parameter returned by the FP_RHTML_Event handler.                                                                                                                                                                                                       00000000000000          
DEVFP_IN001  0000000UCOLUMN             uColumn             10100                                                                                                                                                                                                                                                                                                  00000000000000          
DEVFP_IN001  0000000UCOLUMNCOUNT        uColumnCount        11100                                        Number of columns in the list.                                                                                                                                                                                                                            00000000000000          
DEVFP_IN001  0000000UCOLUMNHEADERHEIGHT uColumnHeaderHeight 01100                                        Indicates the height of the column headings                                                                                                                                                                                                               00000000000000          
DEVFP_IN001  0000000UCOLUMNHEADERS      uColumnHeaders      01100                                        Number of columns in the list.                                                                                                                                                                                                                            00000000000000          
DEVFP_IN001  0000000UCOLUMNWIDTHUNIT    uColumnWidthUnit    01100                                        Indicates whether uColumnWidth is a percentage (%) or a pixel (px) value.                                                                                                                                                                                 00000000000000          
DEVFP_IN001  0000000UCUSTOMBUTTON1      uCustomButton1      01100                                        Enables a custom button on the calculator. An event is fired when the button is pressed. An event handler can be written to perform any desired actions.                                                                                                  00000000000000          
DEVFP_IN001  0000000UCUSTOMBUTTON1TEXT  uCustomButton1Text  01100                                        The visible caption of the custom button that is to be displayed.                                                                                                                                                                                         00000000000000          
DEVFP_IN001  0000000UCUSTOMBUTTON2      uCustomButton2      01100                                        Enables a custom button on the calculator. An event is fired when the button is pressed. An event handler can be written to perform any desired actions.                                                                                                  00000000000000          
DEVFP_IN001  0000000UCUSTOMBUTTON2TEXT  uCustomButton2Text  01100                                        The visible caption of the custom button that is to be displayed.                                                                                                                                                                                         00000000000000          
DEVFP_IN001  0000000UDATEFORMAT         UdateFormat         01100Date Format                             The format that the Date is specified and returned as.                                                                                                                                                                                                    00000000000000          
DEVFP_IN001  0000000UDEBUG              uDebug              01100                                        Show HTML as text prior to rendering and display.                                                                                                                                                                                                         00000000000000          
DEVFP_IN001  0000000UDECIMALSEPARATOR   uDecimalSeparator   01100                                        The "," (comma) or "." (dot) that separates the decimal portion of a number.                                                                                                                                                                              00000000000000          
DEVFP_IN001  0000000UDESCDISPLAYFORMAT  uDESCDisplayFormat  01100Description field display format        Specifies the way data should be formatted in the description field when the input field is being used display purposes. Allowable values are C,V,CV,I,IV,IC,N. Default is N.                                                                             00000000000000          
DEVFP_IN001  0000000UDESCENTRYFORMAT    uDESCEntryFormat    01100Description field entry format          Specifies the way data should be formatted in the description field when the input field is being used for data entry. Allowable values are C,V,CV,I,IV,IC,N. Default is N.                                                                               00000000000000          
DEVFP_IN001  0000000UDISPLAYPAGESIZE    uDisplayPageSize    01100Pop up display page size                The number of items displayed per page in the pop up window. Default is 8.                                                                                                                                                                                00000000000000          
DEVFP_IN001  0000000UDOWNLOADBTNCAPTION uDownloadBtnCaption 01100                                        When uDownloadButton is true, the caption of the button..                                                                                                                                                                                                 00000000000000          
DEVFP_IN001  0000000UDOWNLOADBUTTON     uDownloadButton     01100                                        Whether to present a Download button to initiate the download process.                                                                                                                                                                                    00000000000000          
DEVFP_IN001  0000000UENABLED            uEnabled            01100Enabled                                 Determines whether the part is currently enabled. Allowable values are TRUE or FALSE.                                                                                                                                                                     00000000000000          
DEVFP_IN001  0000000UEVENTINTERVAL      uEventInterval      01100                                        Specifies in seconds how long after the web page is presented until the TICK event should be fired. Specify a value in seconds in the range 0 - 10000. Set to zero (0) to stop the timer.                                                                 00000000000000          
DEVFP_IN001  0000000UEXECUTE            Uexecute            01100                                        Specify the User Object Name/Type of any command that is to be executed in the target FRAMEWORK, APPLICATION or BUSINESSOBJECT                                                                                                                            00000000000000          
DEVFP_IN001  0000000UEXECUTELINKURL     uExecuteLinkUrl     01100When to invoke the URL in uLinkURL      Indicates when the URL specified in uLinkURL (if any) should by invoked.                                                                                                                                                                                  00000000000000          
DEVFP_IN001  0000000UFILEFORMAT         uFileFormat         01100                                        Format of the file data that is fetched or written.                                                                                                                                                                                                       00000000000000          
DEVFP_IN001  0000000UFIXEDFONT          uFixedFont          01100Use a fixed length font                 Indicates whether the memo should use a fixed length font.                                                                                                                                                                                                00000000000000          
DEVFP_IN001  0000000UGROUPBOX           uGroupBox           01100Group Box?                              Display the fastpart inside a groupbox? TRUE or FALSE                                                                                                                                                                                                     00000000000000          
DEVFP_IN001  0000000UGROUPCAPTION       uGroupCaption       01100The caption of the group box            The caption of the group box.                                                                                                                                                                                                                             00000000000000          
DEVFP_IN001  0000000UHEIGHT             uHeight             01100Height                                  Specifies the height of the complete fast part.                                                                                                                                                                                                           00000000000000          
DEVFP_IN001  0000000UHEIGHTUNIT         uHeightUnit         01100Height Unit                             Indicates whether uHeight is a percentage ("%") or a  ixel ("px") value.                                                                                                                                                                                  00000000000000          
DEVFP_IN001  0000000UHIDDENKEY1         uHiddenKey1         11100Hidden Key 1                            Optional hidden keys (or tags or codes) that are associated with an item so that it can easily be identified programmatically.                                                                                                                            00000000000000          
DEVFP_IN001  0000000UHIDDENKEY1N        uHiddenKey1n        11100Hidden Key 1                            Optional hidden keys (or tags or codes) that are associated with an item so that it can easily be identified programmatically.                                                                                                                            00000000000000          
DEVFP_IN001  0000000UHIDDENKEY2         uHiddenKey2         11100Hidden Key 2                            Optional hidden keys (or tags or codes) that are associated with an item so that it can easily be identified programmatically.                                                                                                                            00000000000000          
DEVFP_IN001  0000000UHIDDENKEY2N        uHiddenKey2n        11100Hidden Key 2                            Optional hidden keys (or tags or codes) that are associated with an item so that it can easily be identified programmatically.                                                                                                                            00000000000000          
DEVFP_IN001  0000000UHIDDENKEY3         uHiddenKey3         11100Hidden Key 3                            Optional hidden keys (or tags or codes) that are associated with an item so that it can easily be identified programmatically.                                                                                                                            00000000000000          
DEVFP_IN001  0000000UHIDDENKEY3N        uHiddenKey3n        11100Hidden Key 3                            Optional hidden keys (or tags or codes) that are associated with an item so that it can easily be identified programmatically.                                                                                                                            00000000000000          
DEVFP_IN001  0000000UHIDDENKEY4         uHiddenKey4         11100Hidden Key 3                            Optional hidden keys (or tags or codes) that are associated with an item so that it can easily be identified programmatically.                                                                                                                            00000000000000          
DEVFP_IN001  0000000UHIDDENKEY4N        uHiddenKey4n        11100Hidden Key 3                            Optional hidden keys (or tags or codes) that are associated with an item so that it can easily be identified programmatically.                                                                                                                            00000000000000          
DEVFP_IN001  0000000UHIDDENKEY5         uHiddenKey5         11100Hidden Key 4                            Optional hidden keys (or tags or codes) that are associated with an item so that it can easily be identified programmatically.                                                                                                                            00000000000000          
DEVFP_IN001  0000000UHIDDENKEY5N        uHiddenKey5n        11100Hidden Key 4                            Optional hidden keys (or tags or codes) that are associated with an item so that it can easily be identified programmatically.                                                                                                                            00000000000000          
DEVFP_IN001  0000000UHINT               uHint               01100Hint                                    Specifies the hint to be associated with the part. Maximum length 256 characters.                                                                                                                                                                         00000000000000          
DEVFP_IN001  0000000UHOVERCOLOR         uHoverColor         11100Hyper Link mouse over color             The color that the link is to be presented in when the mouse hovers over it.                                                                                                                                                                              00000000000000          
DEVFP_IN001  0000000UHTMLSTRING         uHTMLString         01100                                        A string of HTML to be displayed.                                                                                                                                                                                                                         00000000000000          
DEVFP_IN001  0000000UHTMLSTRINGCOUNT    uHTMLStringCount    01100                                        The number of HTML strings.                                                                                                                                                                                                                               00000000000000          
DEVFP_IN001  0000000UIMAGE              Uimage              01100                                        The name of the image to be shown on the button (if any). Images must reside in the LANSA for the Web images directory.                                                                                                                                   00000000000000          
DEVFP_IN001  0000000UIMAGECAPTION       UImageCaption       01100Image Caption                           The caption of the image.                                                                                                                                                                                                                                 00000000000000          
DEVFP_IN001  0000000UIMAGECAPTIONPOS    UImageCaptionPos    01100Caption Position                        The position of captions of the image(s). Specify RIGHT, LEFT, BOTTOM or TOP                                                                                                                                                                              00000000000000          
DEVFP_IN001  0000000UIMAGEHINT          UImageHint          01100Image Hint                              The hint that is to be associated with the image                                                                                                                                                                                                          00000000000000          
DEVFP_IN001  0000000UIMAGESOURCEURL     UImageSourceURL     01100Source URL                              The URL of the image that is to be displayed.                                                                                                                                                                                                             00000000000000          
DEVFP_IN001  0000000UIMAGESPERROW       uImagesPerRow       01100                                        Number of images to show in each row for LargeIcon style.                                                                                                                                                                                                 00000000000000          
DEVFP_IN001  0000000UIMAGETARGETURL     UImageTargetURL     01100Target URL                              The URL that is to be invoked if the image is clicked                                                                                                                                                                                                     00000000000000          
DEVFP_IN001  0000000UINITIALIZED        uInitialized        11100Initialized                             Use this property to check and record the fact that the fast part has been initialized already.                                                                                                                                                           00000000000000          
DEVFP_IN001  0000000UINPUTAMPMTIME      UInputAMPMTime      01100                                        Whether the incoming time uses 12-hour clock                                                                                                                                                                                                              00000000000000          
DEVFP_IN001  0000000UINPUTDISPLAYFORMAT uINPUTDisplayFormat 01100Input field display format              Specifies the way data should be formatted when the input field is being displayed. Allowable values are C,V,CV,I,IV,IC. Default is V.                                                                                                                    00000000000000          
DEVFP_IN001  0000000UINPUTENTRYFORMAT   uINPUTEntryFormat   01100Input field entry format                Specifies the way data should be formatted when the input field is being used for data entry. Allowable values are C,V,CV,I,IV,IC. Default is C.                                                                                                          00000000000000          
DEVFP_IN001  0000000UINPUTFORMAT        uInputformat        01100                                        The format of the incoming time.                                                                                                                                                                                                                          00000000000000          
DEVFP_IN001  0000000UINPUTSIZE          uINPUTSize          01100Input field size                        The approximate visible size of the input field (maps to HTML property SIZE). Default is 20.                                                                                                                                                              00000000000000          
DEVFP_IN001  0000000UITEMCAPTION        uItemCaption        01100Item Caption                            The visible caption of the checkbox that is to be displayed                                                                                                                                                                                               00000000000000          
DEVFP_IN001  0000000UITEMCELLCOUNT      uItemCellCount      01100                                        Number of cells per Item.                                                                                                                                                                                                                                 00000000000000          
DEVFP_IN001  0000000UITEMCHANGED        uItemChanged        11100                                        Read only property to indicate whether the row has changed.                                                                                                                                                                                               00000000000000          
DEVFP_IN001  0000000UITEMCOLOR          uItemColor          01100                                        Specifies a color to be associated with a specific bar graph item.                                                                                                                                                                                        00000000000000          
DEVFP_IN001  0000000UITEMCOUNT          UitemCount          11100Item Count                              When a part supports multiple items this property is set to indicate how many items exist.                                                                                                                                                                00000000000000          
DEVFP_IN001  0000000UITEMHINT           uItemHint           01100Item Hint                               The hint that is to be associated with the checkbox                                                                                                                                                                                                       00000000000000          
DEVFP_IN001  0000000UITEMIMAGE          uItemImage          01100                                        Name of the 32x32 pixel image file for LargeIcon style.                                                                                                                                                                                                   00000000000000          
DEVFP_IN001  0000000UITEMIMAGECAPTION   uItemImageCaption   01100                                        Name of the 16x16 pixel image file.                                                                                                                                                                                                                       00000000000000          
DEVFP_IN001  0000000UITEMSMALLIMAGE     uItemSmallImage     01100                                        Name of the 16x16 pixel image file.                                                                                                                                                                                                                       00000000000000          
DEVFP_IN001  0000000UITEMVALUE          UitemValue          01100                                        Specifies the value for a bar graph bar where N is the stacked value number.                                                                                                                                                                              00000000000000          
DEVFP_IN001  0000000ULINE               uLine               11100Number of visible lines                 A line item of the memo. The total number of uLine(s) that exist is defined by uItemCount and their maximum length is defined by UmaxLineLength.                                                                                                          00000000000000          
DEVFP_IN001  0000000ULINETERMINATOR     uLineTerminator     01100                                        For DownloadData, whether to add any special characters at the end of each written line.                                                                                                                                                                  00000000000000          
DEVFP_IN001  0000000ULINKCAPTION        uLinkCaption        11100Hyper Link caption                      The visible caption of the link that is to be displayed.                                                                                                                                                                                                  00000000000000          
DEVFP_IN001  0000000ULINKHINT           uLinkHint           11100Hyper Link hint                         The hint that is to be associated with the link.                                                                                                                                                                                                          00000000000000          
DEVFP_IN001  0000000ULINKURL            uLinkURL            11100Hyper Link URL                          The URL that is to be invoked if the link is clicked.                                                                                                                                                                                                     00000000000000          
DEVFP_IN001  0000000UMARGINWIDTH        UmarginWidth        01100                                        The width of the margin to surround the whole graph. Specify in pixels.                                                                                                                                                                                   00000000000000          
DEVFP_IN001  0000000UMAXFILESIZE        uMaxFileSize        01100                                        For UploadData,  maximum allowable size fo the file to upload in Kylobytes.                                                                                                                                                                               00000000000000          
DEVFP_IN001  0000000UMAXLINELENGTH      uMaxLineLength      01100                                        Maximium line length passed/returned by uLine pty. Also determines the dft width of the memo. It does not limit the maximum length of a line that users can type in. Defines the way that displayed memo lines are blocked into and out of the uLine pty. 00000000000000          
DEVFP_IN001  0000000UMESSAGETEXT        uMessageText        01100Text to appear in message box                                                                                                                                                                                                                                                                     00000000000000          
DEVFP_IN001  0000000UNEWLINE            uNewLine            11100Number of visible lines                 Indicates whether the text in uLine should cause a new line to be started in the memo.                                                                                                                                                                    00000000000000          
DEVFP_IN001  0000000UNNAMED             Unnamed             01100                                        Specifies the User Object Name/Type of the APPLICATION or BUSINESSOBJECT that control is to switch to.                                                                                                                                                    00000000000000          
DEVFP_IN001  0000000UNUMERICVALUE       uNumericValue       11100Numeric Value                           The numeric value of the date.                                                                                                                                                                                                                            00000000000000          
DEVFP_IN001  0000000UOPENURL            uOpenUrl            01100                                        The URL that is to be opened if the button is clicked.                                                                                                                                                                                                    00000000000000          
DEVFP_IN001  0000000UOUTPUTAMPMTIME     uOutputAMPMTime     01100                                        The type of the outgoing time.                                                                                                                                                                                                                            00000000000000          
DEVFP_IN001  0000000UOUTPUTISAMORPM     uOutputIsAMorPM     01100                                        If UOutputAMPMTime is true, this property determines whether the time is AM or PM.                                                                                                                                                                        00000000000000          
DEVFP_IN001  0000000UPADDINGWIDTH       uPaddingWidth       01100                                        The width of any padding to be drawn between the graph and its margins or borders. Specify in pixels.                                                                                                                                                     00000000000000          
DEVFP_IN001  0000000UPARENTITEM         uParentItem         01100                                        Reference to the parent item number of this row                                                                                                                                                                                                           00000000000000          
DEVFP_IN001  0000000UPOPUPFORMAT        uPOPUPFormat        01100Popup window display format             Specifies the way data should be formatted in the pop up window. Allowable values are C,V,CV,I,IV,IC. Default is CV.                                                                                                                                      00000000000000          
DEVFP_IN001  0000000UPRECISION          uPrecision          01100                                        Number of decimal places to use for numeric data.                                                                                                                                                                                                         00000000000000          
DEVFP_IN001  0000000UREADONLY           UreadOnly           01100Read Only                               Whether the fast part is can be modified.                                                                                                                                                                                                                 00000000000000          
DEVFP_IN001  0000000UREPLACECR          uReplaceCR          01100                                        Two character string to use instead of imbedded Carriage Return.                                                                                                                                                                                          00000000000000          
DEVFP_IN001  0000000UREPLACELF          uReplaceLF          01100                                        Two character string to use instead of imbedded Line Feed.                                                                                                                                                                                                00000000000000          
DEVFP_IN001  0000000URETURNFORMAT       uReturnFormat       01100                                        The format of the returning time.                                                                                                                                                                                                                         00000000000000          
DEVFP_IN001  0000000UROWPIXELHEIGHT     uRowPixelHeight     01100                                        Height of rows                                                                                                                                                                                                                                            00000000000000          
DEVFP_IN001  0000000USELECT             uSelect             11100Selected                                Determines whether the part is currently visible. Allowable values are TRUE or FALSE.                                                                                                                                                                     00000000000000          
DEVFP_IN001  0000000USELECTHIDDENKEY1   uSelectHiddenKey1   11100Selected Hidden Key 1                   The hidden keys associated with the item that is to be selected or that was selected. Set these in your function to indicate which item is to be selected.Test these in your function to determine which item the user selected.                          00000000000000          
DEVFP_IN001  0000000USELECTHIDDENKEY1N  uSelectHiddenKey1n  11100Selected Hidden Key 1                   The hidden keys associated with the item that is to be selected or that was selected. Set these in your function to indicate which item is to be selected.Test these in your function to determine which item the user selected.                          00000000000000          
DEVFP_IN001  0000000USELECTHIDDENKEY2   uSelectHiddenKey2   11100Selected Hidden Key 2                   The hidden keys associated with the item that is to be selected or that was selected. Set these in your function to indicate which item is to be selected.Test these in your function to determine which item the user selected.                          00000000000000          
DEVFP_IN001  0000000USELECTHIDDENKEY2N  uSelectHiddenKey2n  11100Selected Hidden Key 2                   The hidden keys associated with the item that is to be selected or that was selected. Set these in your function to indicate which item is to be selected.Test these in your function to determine which item the user selected.                          00000000000000          
DEVFP_IN001  0000000USELECTHIDDENKEY3   uSelectHiddenKey3   11100Selected Hidden Key 3                   The hidden keys associated with the item that is to be selected or that was selected. Set these in your function to indicate which item is to be selected.Test these in your function to determine which item the user selected.                          00000000000000          
DEVFP_IN001  0000000USELECTHIDDENKEY3N  uSelectHiddenKey3n  11100Selected Hidden Key 3                   The hidden keys associated with the item that is to be selected or that was selected. Set these in your function to indicate which item is to be selected.Test these in your function to determine which item the user selected.                          00000000000000          
DEVFP_IN001  0000000USELECTHIDDENKEY4   uSelectHiddenKey4   11100Selected Hidden Key 4                   The hidden keys associated with the item that is to be selected or that was selected. Set these in your function to indicate which item is to be selected.Test these in your function to determine which item the user selected.                          00000000000000          
DEVFP_IN001  0000000USELECTHIDDENKEY4N  uSelectHiddenKey4n  11100Selected Hidden Key 4                   The hidden keys associated with the item that is to be selected or that was selected. Set these in your function to indicate which item is to be selected.Test these in your function to determine which item the user selected.                          00000000000000          
DEVFP_IN001  0000000USELECTHIDDENKEY5   uSelectHiddenKey5   11100Selected Hidden Key 5                   The hidden keys associated with the item that is to be selected or that was selected. Set these in your function to indicate which item is to be selected.Test these in your function to determine which item the user selected.                          00000000000000          
DEVFP_IN001  0000000USELECTHIDDENKEY5N  uSelectHiddenKey5n  11100Selected Hidden Key 5                   The hidden keys associated with the item that is to be selected or that was selected. Set these in your function to indicate which item is to be selected.Test these in your function to determine which item the user selected.                          00000000000000          
DEVFP_IN001  0000000USELECTIONSTYLE     uSelectionStyle     01100                                        Indicates whether the list allows multi or single row selection or none.                                                                                                                                                                                  00000000000000          
DEVFP_IN001  0000000USELECTITEM         UselectItem         11100Selected Item                           The item number of the item that is to be selected or that was last selected.Set this in your function to indicate which item is to be selected.Test this in your function to determine which item the user selected.                                     00000000000000          
DEVFP_IN001  0000000USELECTOCCURRENCE   USelectOccurrence   11100Selected Occurrence                     When a multi-item fast part is used in a browse list this read only property indicates the Occurrence (ie: entry number) of the browse list entry selected.                                                                                               00000000000000          
DEVFP_IN001  0000000USENDAINFO1         uSendAInfo1         01100                                        These allow up to 5 additional alphanumeric strings to be sent along with the event. The protocol used to assign these parameters to events is at your discretion.                                                                                        00000000000000          
DEVFP_IN001  0000000USENDAINFO2         uSendAInfo2         01100                                        These allow up to 5 additional alphanumeric strings to be sent along with the event. The protocol used to assign these parameters to events is at your discretion.                                                                                        00000000000000          
DEVFP_IN001  0000000USENDAINFO3         uSendAInfo3         01100                                        These allow up to 5 additional alphanumeric strings to be sent along with the event. The protocol used to assign these parameters to events is at your discretion.                                                                                        00000000000000          
DEVFP_IN001  0000000USENDAINFO4         uSendAInfo4         01100                                        These allow up to 5 additional alphanumeric strings to be sent along with the event. The protocol used to assign these parameters to events is at your discretion.                                                                                        00000000000000          
DEVFP_IN001  0000000USENDAINFO5         uSendAInfo5         01100                                        These allow up to 5 additional alphanumeric strings to be sent along with the event. The protocol used to assign these parameters to events is at your discretion.                                                                                        00000000000000          
DEVFP_IN001  0000000USENDNINFO1         uSendNInfo1         01100                                        These allow up to 5 additional numeric values to be sent along with the event. The protocol used to assign these parameters to events is at your discretion.                                                                                              00000000000000          
DEVFP_IN001  0000000USENDNINFO2         uSendNInfo2         01100                                        These allow up to 5 additional numeric values to be sent along with the event. The protocol used to assign these parameters to events is at your discretion.                                                                                              00000000000000          
DEVFP_IN001  0000000USENDNINFO3         uSendNInfo3         01100                                        These allow up to 5 additional numeric values to be sent along with the event. The protocol used to assign these parameters to events is at your discretion.                                                                                              00000000000000          
DEVFP_IN001  0000000USENDNINFO4         uSendNInfo4         01100                                        These allow up to 5 additional numeric values to be sent along with the event. The protocol used to assign these parameters to events is at your discretion.                                                                                              00000000000000          
DEVFP_IN001  0000000USENDNINFO5         uSendNInfo5         01100                                        These allow up to 5 additional numeric values to be sent along with the event. The protocol used to assign these parameters to events is at your discretion.                                                                                              00000000000000          
DEVFP_IN001  0000000USENDTO             USendTo             01100Scope in which event should be signaled Default FRAMEWORK indicates that all active commands and filters should be notified. The other allowable value is BUSINESSOBJECT, event should be signaled within the current BusObj. Using BUSINESSOBJECT in a non BusObj context is treated as FRAMEWORK00000000000000          
DEVFP_IN001  0000000USEPARATEWINDOW     uSeparateWindow     01100                                        Indicates whether the calculator displays in a separate window.                                                                                                                                                                                           00000000000000          
DEVFP_IN001  0000000USEPARATOR          uSeparator          01100Separator Character                     The separator character to use between the input and description fields. Default is "-"                                                                                                                                                                   00000000000000          
DEVFP_IN001  0000000USHAREDITEMS        uSharedItems        01100                                        The URL of the page or resource to be displayed.                                                                                                                                                                                                          00000000000000          
DEVFP_IN001  0000000USHOWEXPANDED       uShowExpanded       01100                                        When TRUE it shows the tree expanded to its maximum detail.                                                                                                                                                                                               00000000000000          
DEVFP_IN001  0000000USHOWLINES          uShowLines          01100                                        Indicates whether Controls whether grid lines are visible.                                                                                                                                                                                                00000000000000          
DEVFP_IN001  0000000USHOWVALUE          uShowValue          01100Radio Button visible value              The visible value that is shown in the combo box for the user to select. e.g. department description.                                                                                                                                                     00000000000000          
DEVFP_IN001  0000000USIGNALCANCELED     uSignalCanceled     01100Whether to signal the CANCELED event ...                                                                                                                                                                                                                                                          00000000000000          
DEVFP_IN001  0000000USIGNALCHANGED      uSignalChanged      11100Signal when checkbox changes status     Indicates whether a change in status of the checkbox should be signaled to the server as a changed event.                                                                                                                                                 00000000000000          
DEVFP_IN001  0000000USIGNALCLICK        UsignalClick        01100Signal Click Event                      Set to TRUE if the part is to respond to clicks.                                                                                                                                                                                                          00000000000000          
DEVFP_IN001  0000000USIGNALCLICKED      uSignalClicked      01100                                        Signal the FP_RHTML_Event execution back to the RDML as a .CLICK event.                                                                                                                                                                                   00000000000000          
DEVFP_IN001  0000000USIGNALEVENTID      uSignalEventId      01100                                        The event ID that is to be signaled when the button is clicked. Refer to the Event Signaling Service section for more details of event handling.                                                                                                          00000000000000          
DEVFP_IN001  0000000USIGNALSELECTION    uSignalSelection    01100                                        Indicates whether selection of a value should back to the handling as Selected event.                                                                                                                                                                     00000000000000          
DEVFP_IN001  0000000USINGINSTANCE       UsingInstance       01100Current Fast Part Instance              The current fast part instance number. Initial default is 1. This property is automatically (re)set to 1 when the UsingName() property is changed to a different fast part name.                                                                          00000000000000          
DEVFP_IN001  0000000USINGNAME           uSingName           01100Current Fast Part Name                  The current FP_Rxxxx formatted Fast Part object name. The name can be specified as FP_Rxxxx, Rxxxx or as just xxxx. This name remains the current fast part until this property is (re)set to some other fast part name.                                  00000000000000          
DEVFP_IN001  0000000USINGOCCURRENCE     UsingOccurrence     01100Current Fast Part Occurrence            The current fast part Occurrence number. Initial default is 1. This property is automatically (re)set to 1 when the UsingName() property is changed to a different fast part name.                                                                        00000000000000          
DEVFP_IN001  0000000USTACKTABLELOCATION UStackTableLocation 01100                                        Indicates whether any table of stacked values should be displayed on TOP or the BOTTOM of the bar graph.                                                                                                                                                  00000000000000          
DEVFP_IN001  0000000USTACKTABLESHOW     UStackTableShow     01100                                        Indicates whether a table of the stacked values should also be displayed with the bar graph.                                                                                                                                                              00000000000000          
DEVFP_IN001  0000000USWITCHTO           USwitchTo           01100                                        Specify as one of FRAMEWORK, APPLICATION or BUSINESSOBJECT indicating the object to which control is to be switched.                                                                                                                                      00000000000000          
DEVFP_IN001  0000000UTABLENAME          UTableName          01100                                        Name of the code file table to be used with this fast part.                                                                                                                                                                                               00000000000000          
DEVFP_IN001  0000000UTARGETFILE         uTargetFile         01100                                        Fully qualified file name to receive the output of the data to download.                                                                                                                                                                                  00000000000000          
DEVFP_IN001  0000000UTHOUSANDSEPARATOR  uThousandSeparator  01100                                        The "," (comma) or "." (dot) that separates the thousand portion of a number.                                                                                                                                                                             00000000000000          
DEVFP_IN001  0000000UTIMEISAMORPM       uTimeIsAMorPM       01100                                        If UInputAMPMTime is true, this property determines whether the time is AM or PM.                                                                                                                                                                         00000000000000          
DEVFP_IN001  0000000UTIMESEPARATOR      uTimeSeparator      01100Date Format                             Show colon time separators. When this property is True, the time will be visualized as HH:MM:SS or HH:MM, instead of HHMMSS or HHMM.                                                                                                                      00000000000000          
DEVFP_IN001  0000000UTRAILINGBLANKS     uTrailingBlanks     11100                                        The number of trailing blanks that should be appended to the text in uLine                                                                                                                                                                                00000000000000          
DEVFP_IN001  0000000UUPDATEINTERVAL     uUpdateInterval     01100                                        Specifies that the fast part should visualize itself as a "countdown" value and how often the displayed countdown value should be updated.                                                                                                                00000000000000          
DEVFP_IN001  0000000UUPLOADBTNCAPTION   uUploadBtnCaption   01100                                        When uUploadButton is true, the caption of the button.                                                                                                                                                                                                    00000000000000          
DEVFP_IN001  0000000UUPLOADBUTTON       uUploadButton       01100                                        Whether to present an Upload button to initiate the upload process.                                                                                                                                                                                       00000000000000          
DEVFP_IN001  0000000UUSECALENDAR        UuseCalendar        01100Show Calendar                           Whether to show a calendar to allow date selection from                                                                                                                                                                                                   00000000000000          
DEVFP_IN001  0000000UVALUE              uValue              11100                                        Value of the fast part.                                                                                                                                                                                                                                   00000000000000          
DEVFP_IN001  0000000UVALUECAPTION       uValueCaption       01100                                        Specifies a caption to be associated with a stacked value, where N is a number in the range 1 to uValueCount value.                                                                                                                                       00000000000000          
DEVFP_IN001  0000000UVALUECOLOR         UValueColor         01100                                        Specifies a color to be associated with a stacked value, where N is a number in the range 1 to uValueCount value.                                                                                                                                         00000000000000          
DEVFP_IN001  0000000UVALUECOUNT         uValueCount         01100                                        Specifies the number of stacked values to be shown in each bar of the graph.                                                                                                                                                                              00000000000000          
DEVFP_IN001  0000000UVISDATEINPFMT      uVisDateInpFmt      01100Visible Date Input Format               The format of the date when it receives focus.                                                                                                                                                                                                            00000000000000          
DEVFP_IN001  0000000UVISDATEOUTFMT      uVisDateOutFmt      01100Visible Date Output Format              The format of the date when it is visualized.The format of the date when it is visualized.                                                                                                                                                                00000000000000          
DEVFP_IN001  0000000UVISIBLE            uVisible            01100Visible                                 Determines whether the part is currently visible. Allowable values are TRUE or FALSE.                                                                                                                                                                     00000000000000          
DEVFP_IN001  0000000UVISIBLELINES       uVisibleLines       01100Number of visible lines                 The number of lines that should be made visible to the user (approximately) without having to scroll.                                                                                                                                                     00000000000000          
DEVFP_IN001  0000000UVISUALIZELISTAS    uVisualizeListAs    01100Item Hint                               Indicates how the list is to be visualized: Report, Tree, LargeIcon                                                                                                                                                                                       00000000000000          
DEVFP_IN001  0000000UWAMHELPFIELD       uWAMHelpField       01100Associated Help Field                   The name of the repository field to be associated with this fast part for F1=Help processing purposes.                                                                                                                                                    00000000000000          
DEVFP_IN001  0000000UWEBPAGESOURCEURL   uWebPageSourceURL   01100                                        The URL of the page or resource to be displayed.                                                                                                                                                                                                          00000000000000          
DEVFP_IN001  0000000UWHENTOCOPY         uWhenToCopy         01100Determines whether to copy the data     AFTERSIGNAL:The data is copied to the clipboard when control returns to the browser. WHENCLICKED: data not copied to the clipboard until COPY button is clicked. IMMEDIATE: data assembled and copied to the clipboard during fast part initial execution.00000000000000          
DEVFP_IN001  0000000UWHENTODOWNLOAD     uWhenToDownload     01100Determines when to download the data    AFTERSIGNAL:The data is copied to the clipboard when control returns to the browser. WHENCLICKED: data not copied to the clipboard until COPY button is clicked. IMMEDIATE: data assembled and copied to the clipboard during fast part initial execution.00000000000000          
DEVFP_IN001  0000000UWIDTH              uWidth              01100Width                                   Specifies the width of the complete fast part.                                                                                                                                                                                                            00000000000000          
DEVFP_IN001  0000000UWIDTHUNIT          uWidthUnit          01100Width Unit                              Indicates whether uWidth is a percentage ("%") or a pixel ("px") value.                                                                                                                                                                                   00000000000000          
DEVFP_IN001  0000000UWINDOWFEATURES     uWindowFeatures     01100Window Features                         The features of the DHTML windows that is opened.                                                                                                                                                                                                         00000000000000          
DEVFP_IN001  0000000UZOOMFACTOR         uZoomFactor         01100                                        Zoom factor to be applied to the whole graph, where 1.0 is the normal display size of the graph.                                                                                                                                                          00000000000000          
DEVFP_IN002  0000000BLANKZERO           BlankZero           01100                                                                                                                                                                                                                                                                                                  00000000000000          
DEVFP_IN002  0000000READONLY            ReadOnly            01100                                                                                                                                                                                                                                                                                                  00000000000000          
DEVFP_IN002  0000000TYPE                Type                01100                                                                                                                                                                                                                                                                                                  00000000000000          
DEVFP_IN002  0000000UALIGN              uAlign              01100                                                                                                                                                                                                                                                                                                  00000000000000          
DEVFP_IN002  0000000UCAPTION            uCaption            11100                                                                                                                                                                                                                                                                                                  00000000000000          
DEVFP_IN002  0000000UCAPTIONALIGN       uCaptionAlign       01100                                                                                                                                                                                                                                                                                                  00000000000000          
DEVFP_IN002  0000000UCELLALPHAVALUE     uCellAlphaValue     11100                                                                                                                                                                                                                                                                                                  00000000000000          
DEVFP_IN002  0000000UCELLNUMBERVALUE    uCellNumberValue    11100                                                                                                                                                                                                                                                                                                  00000000000000          
DEVFP_IN002  0000000UCHECKBOXES         uCheckboxes         01100                                                                                                                                                                                                                                                                                                  00000000000000          
DEVFP_IN002  0000000UCOLUMNNUMBER       uColumnNumber       11100                                                                                                                                                                                                                                                                                                  00000000000000          
DEVFP_IN002  0000000UCOLUMNWIDTH        uColumnWidth        01100                                                                                                                                                                                                                                                                                                  00000000000000          
DEVFP_IN002  0000000UINPUTATTRIBUTES    uInputAttributes    01100                                                                                                                                                                                                                                                                                                  00000000000000          
DEVFP_IN002  0000000UPRECISION          uPrecision          01100                                                                                                                                                                                                                                                                                                  00000000000000          
DEVFP_IN002  0000000USINGINSTANCE       UsingInstance       11100Current Fast Part Instance              The current fast part instance number. Initial default is 1. This property is automatically (re)set to 1 when the UsingName() property is changed to a different fast part name.                                                                          00000000000000          
DEVFP_IN002  0000000USINGNAME           UsingName           01100Current Fast Part Name                  The current FP_Rxxxx formatted Fast Part object name. The name can be specified as FP_Rxxxx, Rxxxx or as just xxxx. This name remains the current fast part until this property is (re)set to some other fats part name.                                  00000000000000          
DEVFP_IN002  0000000USINGOCCURRENCE     UsingOccurrence     01100Current Fast Part Occurrence            The current fast part occurrence number. Initial default is 1. This property is automatically (re)set to 1 when the UsingName() property is changed to a different fast part name.                                                                        00000000000000          
DEVFP_IN002  0000000USORTONCLICK        uSortOnClick        01100                                                                                                                                                                                                                                                                                                  00000000000000          
DEVFP_VDATE  0000000UALLOWNULL          uAllowNull          11100                                        Allow for Null dates. For numeric values, allow date value of zero. For alphanumeric values, allow date value of blanks.                                                                                                                                  00000000000000          
DEVFP_VDATE  0000000UALPHAVALUE         uAlphaValue         11100                                        Alphanumeric date value.                                                                                                                                                                                                                                  00000000000000          
DEVFP_VDATE  0000000UCALENDARIMAGE      uCalendarImage      01100                                        Image of the Calendar button.                                                                                                                                                                                                                             00000000000000          
DEVFP_VDATE  0000000UCALENDARISACTIVE   uCalendarIsActive   11100                                        Refrain from firing ULOSTFOCUS when the calendar is active.                                                                                                                                                                                               00000000000000          
DEVFP_VDATE  0000000UDATEFORMAT         uDateFormat         01100                                        Format of the date whose value is to be Set. Input formats can be specified as a letter or as a descriptive format like DDMMYY. Refer to the bottom of the source in this component for a list of valid letters and descriptive formats.                  00000000000000          
DEVFP_VDATE  0000000UINERROR            uInError            11100                                        Error flag set when a date is not valid.                                                                                                                                                                                                                  00000000000000          
DEVFP_VDATE  0000000UISISO              uIsISO              11100                                                                                                                                                                                                                                                                                                  00000000000000          
DEVFP_VDATE  0000000UISOCONVERTED       Uisoconverted       11100                                                                                                                                                                                                                                                                                                  00000000000000          
DEVFP_VDATE  0000000UNOREADONLYSTYLE    uNoReadOnlyStyle    11100                                        Style to apply to read only dates.                                                                                                                                                                                                                        00000000000000          
DEVFP_VDATE  0000000UNUMERICVALUE       uNumericValue       11100                                        Numeric date value.                                                                                                                                                                                                                                       00000000000000          
DEVFP_VDATE  0000000UREADONLY           uReadOnly           01100                                        Set this property to TRUE when the date is to be protected from input.                                                                                                                                                                                    00000000000000          
DEVFP_VDATE  0000000UREADONLYSTYLE      uReadOnlyStyle      11100                                        Style to apply to read only dates.                                                                                                                                                                                                                        00000000000000          
DEVFP_VDATE  0000000UUSECALENDAR        uUseCalendar        01100                                        Set this property to TRUE to allow the user to select a date from a calendar.                                                                                                                                                                             00000000000000          
DEVFP_VDATE  0000000UVISDATEINPFMT      uVisDateInpFmt      01100                                        Format of the visualized date when the date gets focus. Visual Input formats can be specified as a letter or as a descriptive format like DDMMYY. Refer to the bottom of the source in this component for a list of valid letters and descriptive formats.00000000000000          
DEVFP_VDATE  0000000UVISDATEOUTFMT      uVisDateOutFmt      01100                                        Format of the visualized date . Visual Output formats can be specified as a letter or as a descriptive format like DDMMYY. Refer to the bottom of the source in this component for a list of valid letters and descriptive formats.                       00000000000000          
DEVFP_VTIME  0000000UALPHAVALUE         uAlphaValue         11100                                        Alphanumeric time value.                                                                                                                                                                                                                                  00000000000000          
DEVFP_VTIME  0000000UINERROR            uInError            11100                                        Error flag set when a time is not valid.                                                                                                                                                                                                                  00000000000000          
DEVFP_VTIME  0000000UINPUTAMPMTIME      uInputAMPMTime      11100                                        Set this property to True when the time is provided as AM/PM instead of the 24 hour (UTC).                                                                                                                                                                00000000000000          
DEVFP_VTIME  0000000UINPUTFORMAT        uInputFormat        01100                                        Format of the time whose value is to be Set. Valid Input formats: A (or HHMMSS) and B (or HHMM).                                                                                                                                                          00000000000000          
DEVFP_VTIME  0000000UNOREADONLYSTYLE    uNoReadOnlyStyle    11100                                        Style to apply to read only times.                                                                                                                                                                                                                        00000000000000          
DEVFP_VTIME  0000000UNUMERICVALUE       uNumericValue       11100                                        Numeric time value.                                                                                                                                                                                                                                       00000000000000          
DEVFP_VTIME  0000000UOUTPUTAMPMTIME     uOutputAMPMTime     11100                                        Set this property to True when the time is returned as AM/PM instead of the 24 hour (UTC).                                                                                                                                                                00000000000000          
DEVFP_VTIME  0000000UOUTPUTISAMORPM     uOutputIsAMorPM     11100                                        If the returned time is represented in AM/PM format, use this property to specify whether the returned time is AM or PM.                                                                                                                                  00000000000000          
DEVFP_VTIME  0000000UREADONLY           uReadOnly           01100                                        Set this property to True when the time is to be protected from input.                                                                                                                                                                                    00000000000000          
DEVFP_VTIME  0000000UREADONLYSTYLE      uReadOnlyStyle      11100                                        Style to apply to read only times.                                                                                                                                                                                                                        00000000000000          
DEVFP_VTIME  0000000URETURNFORMAT       uReturnFormat       01100                                        Format of time to be Returned. Valid Input formats: A (or HHMMSS) and B (or HHMM).                                                                                                                                                                        00000000000000          
DEVFP_VTIME  0000000UTIMEISAMORPM       uTimeIsAMorPM       11100                                        If the incoming time is represented in AM/PM format, use this property to specify whether the time value is AM or PM.                                                                                                                                     00000000000000          
DEVFP_VTIME  0000000UTIMESEPARATOR      uTimeSeparator      11100                                        Show colon time separators. When this property is True, the time will be visualized as HH:MM:SS or HH:MM, instead of HHMMSS or HHMM.                                                                                                                      00000000000000          
DEVLREX9997  0000000UDEMOIMAGESDIR      uDemoImagesDir      11100                                                                                                                                                                                                                                                                                                  00000000000000          
DEVLREX9997  0000000UEMAILACTIVATE      uEmailActivate      11100                                                                                                                                                                                                                                                                                                  00000000000000          
DEVLREX9997  0000000UEMAILBUDGET        uEmailBudget        11100                                                                                                                                                                                                                                                                                                  00000000000000          
DEVLREX9997  0000000UEMAILCONTACT       uEmailContact       11100                                                                                                                                                                                                                                                                                                  00000000000000          
DEVLREX9997  0000000UEMAILFROM          uEmailFrom          11100                                                                                                                                                                                                                                                                                                  00000000000000          
DEVLREX9997  0000000UEMAILGENERAL       uEmailGeneral       11100                                                                                                                                                                                                                                                                                                  00000000000000          
DEVLREX9997  0000000UEMAILINSURANCE     uEmailInsurance     11100                                                                                                                                                                                                                                                                                                  00000000000000          
DEVLREX9997  0000000UEMAILSAFETY        uEmailSafety        11100                                                                                                                                                                                                                                                                                                  00000000000000          
DEVLREX9997  0000000UIMAGESURL          uImagesURL          11100                                                                                                                                                                                                                                                                                                  00000000000000          
DEVLRNG_ERR  0000000ERRORCOUNT          ErrorCount          10100                                                                                                                                                                                                                                                                                                  00000000000000          
DEVLRNG_FORM 0000000ACTION              Action              10100                                        This property returns the name of the requested action just received.                                                                                                                                                                                     00000000000000          
DEVLRNG_FORM 0000000ANYDATAMODIFICATION AnyDataModification 10100                                        This Read-Only property returns a Boolean that indicates if the user has edited any data in any input controls on the Form View. Use this property to force the user to save changes.                                                                     00000000000000          
DEVLRNG_FORM 0000000APPLICATIONTRACING  ApplicationTracing  10100                                        This property returns a boolean that indicates if Application tracing is on or not.                                                                                                                                                                       00000000000000          
DEVLRNG_FORM 0000000CLIENTVERSION       ClientVersion       10100                                        This property returns the version of the LongRange client currently being used. This is based on build number rather than runtime version.                                                                                                                00000000000000          
