DEV1YY*NULL                000000051200000 FE                                                                               
DEV2YY*SQLNULL             000000025600000 ASQNFE                                                                           
DEV3YY*SQLNULL             000000000000000 ASQNFE  LC                                                                       
DEV4YY*SQLNULL             000000000000000 ASQNFE  LC                                                                       
DEV8YY*NULL                000000001000000 FE                                                                               
DEV9YY*NULL                000000051200000 FE                                                                               
DEVAYY*BLANKS              000000001000000 FE                                                                               
DEVBYY*SQLNULL             000000025600000 ASQNFE                                                                           
DEVEYY*SQLNULL             000000001000000 ASQNFE  ISO                                                                      
DEVFNN*NULL                000000000800000 FE  RB                                                                           
DEVHYY*NULL                000000001000000 FE                                                                               
DEVIYY*NULL                000000000400000JFE  RB                                                                           
DEVMYY*SQLNULL             000000000800000 ASQNFE  ISO                                                                      
DEVPYY*ZEROS               000000001500000JFE  RB                                                                           
DEVSYY*ZEROS               000000001500000JFE  RB                                                                           
DEVYYY*SQLNULL             000000000100000 ASQN                                                                             
DEVZYY*SQLNULL             000000002600000 ASQNFE  ISO SUTC                                                                 
