DEVADDRESS1  0000000ADDRESS1            ADDRESS1            0PRIM_OBJT 000000000000000                                                                                                                                                                                                                                                          00002580000000000000000000000000000                                   
DEVADDRESS2  0000000ADDRESS2            ADDRESS2            0PRIM_OBJT 000000000000000                                                                                                                                                                                                                                                          00002580000000000000000000000000000                                   
DEVADDRESS3  0000000ADDRESS3            ADDRESS3            0PRIM_OBJT 000000000000000                                                                                                                                                                                                                                                          00002580000000000000000000000000000                                   
DEVANIMATION 0000000ANIMATION           ANIMATION           0PRIM_WEB  000001024000030                                                                                                                                                                                                                                                          00003200000000000000000000000000000                                   
DEVBLOBTEST  0000000BLOBTEST            BLOBTEST            0PRIM_FORM 000001024000030                                                                                                                                                                                                                                                          00002660000000000000000000000000000                                   
DEVBNSACCNT  0000000BNSACCNT            BNSACCNT            0PRIM_PANL 000001024000030                                                                                                                                                                                                                                                          00003620000000000000000000000000000                                   
DEVBNSACCTS  0000000BNSACCTS            BNSACCTS            0PRIM_PANL 000001024000030                                                                                                                                                                                                                                                          00003300000000000000000000000000000                                   
DEVBNSLOGIN  0000000BNSLOGIN            BNSLOGIN            0PRIM_PANL 000001024000030                                                                                                                                                                                                                                                          00003300000000000000000000000000000                                   
DEVBNSMAIN   0000000BNSMAIN             BNSMAIN             0PRIM_WEB  000001024000030                                                                                                                                                                                                                                                          00003200000000000000000000000000000                                   
DEVBNSSRVR   0000000BNSSRVR             BNSSRVR             0PRIM_SRVM 000001024000030                                                                                                                                                                                                                                                          00003860000000000000000000000000000                                   
DEVBNSTRANS  0000000BNSTRANS            BNSTRANS            0PRIM_PANL 000001024000030                                                                                                                                                                                                                                                          00003300000000000000000000000000000                                   
DEVCACHINGTE 0000000CACHINGTE           CACHINGTE           0PRIM_WEB  000001024000030                                                                                                                                                                                                                                                          00003200000000000000000000000000000                                   
DEVCKEDITOR  0000000CKEDITOR            CKEDITOR            0PRIM_WAM  000001024000030                                                                                                                                                                                                                                                          00003860000000000000000000000000000                                   
DEVCOMMENT   0000000COMMENT             COMMENT             0PRIM_OBJT 000000000000000                                                                                                                                                                                                                                                          00002740000000000000000000000000000                                   
DEVCXR210C01 0000000CXR210C01           CXR210C01           0SPAN001   000001024000030                                                                                                                                                                                                                                                          00002660000000000000000000000000000                                   
DEVDATAENTR  0000000DATAENTR            DATAENTR            0PRIM_FORM 000001024000030                                                                                                                                                                                                                                                          00003940000000000000000000000000000                                   
DEVDATEACQ   0000000DATEACQ             DATEACQ             0PRIM_OBJT 000000000000000                                                                                                                                                                                                                                                          00002740000000000000000000000000000                                   
DEVDATEACQR  0000000DATEACQR            DATEACQR            0PRIM_OBJT 000000000000000                                                                                                                                                                                                                                                          00002580000000000000000000000000000                                   
DEVDEPTDESC  0000000DEPTDESC            DEPTDESC            0PRIM_OBJT 000000000000000                                                                                                                                                                                                                                                          00002740000000000000000000000000000                                   
DEVDEPTMENT  0000000DEPTMENT            DEPTMENT            0PRIM_OBJT 000000000000000                                                                                                                                                                                                                                                          00002740000000000000000000000000000                                   
DEVDF_ASSITO 0000000DF_ASSITO           DF_ASSITO           0VF_AC031O 000001024000030                                                                                                                                                                                                                                                          00003300000000000000000000000000000                                   
DEVDF_BM001  0000000DF_BM001            DF_BM001            0PRIM_BMP  000001024000030                                                                                                                                                                                                                                                          00000020000000000000000000000000000                                   
DEVDF_BM002  0000000DF_BM002            DF_BM002            0PRIM_BMP  000001024000030                                                                                                                                                                                                                                                          00000020000000000000000000000000000                                   
DEVDF_BM003  0000000DF_BM003            DF_BM003            0PRIM_BMP  000001024000030                                                                                                                                                                                                                                                          00000020000000000000000000000000000                                   
DEVDF_DDDEP  0000000DF_DDDEP            DF_DDDEP            0PRIM_PANL 000001024000030                                                                                                                                                                                                                                                          00000100000000000000000000000000000                                   
DEVDF_DET15  0000000DF_DET15            DF_DET15            0VF_AC010  000001024000030                                                                                                                                                                                                                                                          00000100000000000000000000000000000                                   
DEVDF_DET15O 0000000DF_DET15O           DF_DET15O           0VF_AC010O 000001024000030                                                                                                                                                                                                                                                          00003300000000000000000000000000000                                   
DEVDF_DET17  0000000DF_DET17            DF_DET17            0VF_AC010  000001024000010                                                                                                                                                                                                                                                          00000100000000000000000000000000000                                   
DEVDF_DET21  0000000DF_DET21            DF_DET21            0VF_AC010  000000651800100                                                                                                                                                                                                                                                          00002660000000000000000000000000000                                   
DEVDF_DET22  0000000DF_DET22            DF_DET22            0VF_AC010  000000651800100                                                                                                                                                                                                                                                          00000100000000000000000000000000000                                   
DEVDF_DET22O 0000000DF_DET22O           DF_DET22O           0VF_AC010O 000001024000030                                                                                                                                                                                                                                                          00003300000000000000000000000000000                                   
DEVDF_DET30  0000000DF_DET30            DF_DET30            0VF_AC010  000001024000030                                                                                                                                                                                                                                                          00003940000000000000000000000000000                                   
DEVDF_DET31  0000000DF_DET31            DF_DET31            0VF_AC010  000001024000030                                                                                                                                                                                                                                                          00002660000000000000000000000000000                                   
DEVDF_DET32  0000000DF_DET32            DF_DET32            0VF_AC010  000001024000030                                                                                                                                                                                                                                                          00000100000000000000000000000000000                                   
DEVDF_DET33  0000000DF_DET33            DF_DET33            0VF_AC010  000001024000030                                                                                                                                                                                                                                                          00002660000000000000000000000000000                                   
DEVDF_DET33O 0000000DF_DET33O           DF_DET33O           0VF_AC010O 000001024000030                                                                                                                                                                                                                                                          00003300000000000000000000000000000                                   
DEVDF_DET34  0000000DF_DET34            DF_DET34            0VF_AC010  000001024000030                                                                                                                                                                                                                                                          00002660000000000000000000000000000                                   
DEVDF_DET35  0000000DF_DET35            DF_DET35            0VF_AC010  000001024000030                                                                                                                                                                                                                                                          00002660000000000000000000000000000                                   
DEVDF_DET36  0000000DF_DET36            DF_DET36            0VF_AC010  000001024000030                                                                                                                                                                                                                                                          00002660000000000000000000000000000                                   
DEVDF_DET37  0000000DF_DET37            DF_DET37            0VF_AC010  000001024000030                                                                                                                                                                                                                                                          00002660000000000000000000000000000                                   
DEVDF_DET38  0000000DF_DET38            DF_DET38            0VF_AC010  000001024000030                                                                                                                                                                                                                                                          00002660000000000000000000000000000                                   
DEVDF_DET39  0000000DF_DET39            DF_DET39            0VF_AC010  000001024000030                                                                                                                                                                                                                                                          00002660000000000000000000000000000                                   
DEVDF_DET40  0000000DF_DET40            DF_DET40            0VF_AC010  000001024000030                                                                                                                                                                                                                                                          00002660000000000000000000000000000                                   
DEVDF_DET42  0000000DF_DET42            DF_DET42            0PRIM_PANL 000001024000030                                                                                                                                                                                                                                                          00002660000000000000000000000000000                                   
DEVDF_DET42O 0000000DF_DET42O           DF_DET42O           0PRIM_PANL 000001024000030                                                                                                                                                                                                                                                          00003300000000000000000000000000000                                   
DEVDF_DET43  0000000DF_DET43            DF_DET43            0PRIM_OBJT 000001024000030                                                                                                                                                                                                                                                          00002660000000000000000000000000000                                   
DEVDF_DET44  0000000DF_DET44            DF_DET44            0VF_AC020  000001024000030                                                                                                                                                                                                                                                          00002660000000000000000000000000000                                   
DEVDF_DET45  0000000DF_DET45            DF_DET45            0VF_AC020  000001024000030                                                                                                                                                                                                                                                          00002660000000000000000000000000000                                   
DEVDF_DET46  0000000DF_DET46            DF_DET46            0VF_AC020  000001024000030                                                                                                                                                                                                                                                          00002660000000000000000000000000000                                   
DEVDF_DET46O 0000000DF_DET46O           DF_DET46O           0VF_AC010O 000001024000030                                                                                                                                                                                                                                                          00003300000000000000000000000000000                                   
DEVDF_DET47  0000000DF_DET47            DF_DET47            0VF_AC020  000001024000030                                                                                                                                                                                                                                                          00002660000000000000000000000000000                                   
DEVDF_DET48  0000000DF_DET48            DF_DET48            0VF_AC020  000001024000030                                                                                                                                                                                                                                                          00002660000000000000000000000000000                                   
DEVDF_DET51O 0000000DF_DET51O           DF_DET51O           0VF_AC010O 000001024000030                                                                                                                                                                                                                                                          00003300000000000000000000000000000                                   
DEVDF_DET52O 0000000DF_DET52O           DF_DET52O           0VF_AC010O 000001024000030                                                                                                                                                                                                                                                          00003300000000000000000000000000000                                   
DEVDF_DET54O 0000000DF_DET54O           DF_DET54O           0VF_AC010O 000001024000030                                                                                                                                                                                                                                                          00003300000000000000000000000000000                                   
DEVDF_DET55O 0000000DF_DET55O           DF_DET55O           0VF_AC010O 000001024000030                                                                                                                                                                                                                                                          00003300000000000000000000000000000                                   
DEVDF_DET8   0000000DF_DET8             DF_DET8             0VF_AC010  000001024000030                                                                                                                                                                                                                                                          00002660000000000000000000000000000                                   
DEVDF_DLDEP  0000000DF_DLDEP            DF_DLDEP            0PRIM_PANL 000001024000030                                                                                                                                                                                                                                                          00000100000000000000000000000000000                                   
DEVDF_DLSKL  0000000DF_DLSKL            DF_DLSKL            0PRIM_PANL 000001024000030                                                                                                                                                                                                                                                          00000100000000000000000000000000000                                   
DEVDF_ELACCT 0000000DF_ELACCT           DF_ELACCT           0PRIM_OBJT 000001024000110                                                                                                                                                                                                                                                          00002580000000000000000000000000000                                   
DEVDF_ELBLOB 0000000DF_ELBLOB           DF_ELBLOB           0PRIM_OBJT 000001024000110                                                                                                                                                                                                                                                          00002580000000000000000000000000000                                   
DEVDF_ELCRDT 0000000DF_ELCRDT           DF_ELCRDT           0PRIM_OBJT 000001024000110                                                                                                                                                                                                                                                          00002740000000000000000000000000000                                   
DEVDF_ELCRUS 0000000DF_ELCRUS           DF_ELCRUS           0PRIM_OBJT 000001024000110                                                                                                                                                                                                                                                          00002740000000000000000000000000000                                   
DEVDF_ELDATX 0000000DF_ELDATX           DF_ELDATX           0PRIM_OBJT 000001024000110                                                                                                                                                                                                                                                          00002580000000000000000000000000000                                   
DEVDF_ELDSTS 0000000DF_ELDSTS           DF_ELDSTS           0PRIM_OBJT 000001024000110                                                                                                                                                                                                                                                          00002580000000000000000000000000000                                   
DEVDF_ELEXPD 0000000DF_ELEXPD           DF_ELEXPD           0PRIM_OBJT 000001024000110                                                                                                                                                                                                                                                          00002740000000000000000000000000000                                   
DEVDF_ELFNAM 0000000DF_ELFNAM           DF_ELFNAM           0PRIM_OBJT 000001024000110                                                                                                                                                                                                                                                          00002580000000000000000000000000000                                   
DEVDF_ELFSIZ 0000000DF_ELFSIZ           DF_ELFSIZ           0PRIM_OBJT 000001024000110                                                                                                                                                                                                                                                          00002740000000000000000000000000000                                   
DEVDF_ELKEY0 0000000DF_ELKEY0           DF_ELKEY0           0PRIM_OBJT 000001024000110                                                                                                                                                                                                                                                          00002580000000000000000000000000000                                   
DEVDF_ELKEY1 0000000DF_ELKEY1           DF_ELKEY1           0PRIM_OBJT 000001024000110                                                                                                                                                                                                                                                          00002580000000000000000000000000000                                   
DEVDF_ELKEY2 0000000DF_ELKEY2           DF_ELKEY2           0PRIM_OBJT 000001024000110                                                                                                                                                                                                                                                          00002580000000000000000000000000000                                   
DEVDF_ELKEY3 0000000DF_ELKEY3           DF_ELKEY3           0PRIM_OBJT 000001024000110                                                                                                                                                                                                                                                          00002580000000000000000000000000000                                   
DEVDF_ELKEY4 0000000DF_ELKEY4           DF_ELKEY4           0PRIM_OBJT 000001024000110                                                                                                                                                                                                                                                          00002580000000000000000000000000000                                   
DEVDF_ELKEY5 0000000DF_ELKEY5           DF_ELKEY5           0PRIM_OBJT 000001024000110                                                                                                                                                                                                                                                          00002580000000000000000000000000000                                   
DEVDF_ELKEY6 0000000DF_ELKEY6           DF_ELKEY6           0PRIM_OBJT 000001024000110                                                                                                                                                                                                                                                          00002580000000000000000000000000000                                   
DEVDF_ELKEY7 0000000DF_ELKEY7           DF_ELKEY7           0PRIM_OBJT 000001024000110                                                                                                                                                                                                                                                          00002580000000000000000000000000000                                   
DEVDF_ELKEY8 0000000DF_ELKEY8           DF_ELKEY8           0PRIM_OBJT 000001024000110                                                                                                                                                                                                                                                          00002580000000000000000000000000000                                   
DEVDF_ELKEY9 0000000DF_ELKEY9           DF_ELKEY9           0PRIM_OBJT 000001024000110                                                                                                                                                                                                                                                          00002580000000000000000000000000000                                   
DEVDF_ELOID  0000000DF_ELOID            DF_ELOID            0PRIM_OBJT 000001024000110                                                                                                                                                                                                                                                          00002740000000000000000000000000000                                   
DEVDF_ELORG  0000000DF_ELORG            DF_ELORG            0PRIM_OBJT 000001024000110                                                                                                                                                                                                                                                          00002740000000000000000000000000000                                   
DEVDF_ELQ1HS 0000000DF_ELQ1HS           DF_ELQ1HS           0PRIM_OBJT 000001024000110                                                                                                                                                                                                                                                          00002580000000000000000000000000000                                   
DEVDF_ELQ2HS 0000000DF_ELQ2HS           DF_ELQ2HS           0PRIM_OBJT 000001024000110                                                                                                                                                                                                                                                          00002580000000000000000000000000000                                   
DEVDF_ELQ3HS 0000000DF_ELQ3HS           DF_ELQ3HS           0PRIM_OBJT 000001024000110                                                                                                                                                                                                                                                          00002580000000000000000000000000000                                   
DEVDF_ELQ4HS 0000000DF_ELQ4HS           DF_ELQ4HS           0PRIM_OBJT 000001024000110                                                                                                                                                                                                                                                          00002580000000000000000000000000000                                   
DEVDF_ELRCP  0000000DF_ELRCP            DF_ELRCP            0PRIM_OBJT 000001024000110                                                                                                                                                                                                                                                          00002740000000000000000000000000000                                   
DEVDF_ELRCPG 0000000DF_ELRCPG           DF_ELRCPG           0PRIM_OBJT 000001024000110                                                                                                                                                                                                                                                          00002740000000000000000000000000000                                   
DEVDF_ELSEQ  0000000DF_ELSEQ            DF_ELSEQ            0PRIM_OBJT 000001024000110                                                                                                                                                                                                                                                          00002740000000000000000000000000000                                   
DEVDF_ELSTAT 0000000DF_ELSTAT           DF_ELSTAT           0PRIM_OBJT 000001024000110                                                                                                                                                                                                                                                          00002740000000000000000000000000000                                   
DEVDF_ELTX   0000000DF_ELTX             DF_ELTX             0PRIM_OBJT 000001024000110                                                                                                                                                                                                                                                          00002740000000000000000000000000000                                   
DEVDF_ELTXTL 0000000DF_ELTXTL           DF_ELTXTL           0PRIM_OBJT 000001024000110                                                                                                                                                                                                                                                          00002740000000000000000000000000000                                   
DEVDF_ELUPDT 0000000DF_ELUPDT           DF_ELUPDT           0PRIM_OBJT 000001024000110                                                                                                                                                                                                                                                          00002740000000000000000000000000000                                   
DEVDF_ELUPUS 0000000DF_ELUPUS           DF_ELUPUS           0PRIM_OBJT 000001024000110                                                                                                                                                                                                                                                          00002740000000000000000000000000000                                   
DEVDF_ELURLX 0000000DF_ELURLX           DF_ELURLX           0PRIM_OBJT 000001024000110                                                                                                                                                                                                                                                          00002740000000000000000000000000000                                   
DEVDF_ELWK01 0000000DF_ELWK01           DF_ELWK01           0PRIM_OBJT 000001024000110                                                                                                                                                                                                                                                          00002580000000000000000000000000000                                   
DEVDF_ELWK02 0000000DF_ELWK02           DF_ELWK02           0PRIM_OBJT 000001024000110                                                                                                                                                                                                                                                          00002580000000000000000000000000000                                   
DEVDF_ELWK03 0000000DF_ELWK03           DF_ELWK03           0PRIM_OBJT 000001024000110                                                                                                                                                                                                                                                          00002580000000000000000000000000000                                   
DEVDF_ELWK04 0000000DF_ELWK04           DF_ELWK04           0PRIM_OBJT 000001024000110                                                                                                                                                                                                                                                          00002580000000000000000000000000000                                   
DEVDF_ELWK05 0000000DF_ELWK05           DF_ELWK05           0PRIM_OBJT 000001024000110                                                                                                                                                                                                                                                          00002580000000000000000000000000000                                   
DEVDF_ELWK06 0000000DF_ELWK06           DF_ELWK06           0PRIM_OBJT 000001024000110                                                                                                                                                                                                                                                          00002580000000000000000000000000000                                   
DEVDF_ELWK07 0000000DF_ELWK07           DF_ELWK07           0PRIM_OBJT 000001024000110                                                                                                                                                                                                                                                          00002580000000000000000000000000000                                   
DEVDF_ELWK08 0000000DF_ELWK08           DF_ELWK08           0PRIM_OBJT 000001024000110                                                                                                                                                                                                                                                          00002580000000000000000000000000000                                   
DEVDF_ELWK09 0000000DF_ELWK09           DF_ELWK09           0PRIM_OBJT 000001024000110                                                                                                                                                                                                                                                          00002580000000000000000000000000000                                   
DEVDF_ELWK10 0000000DF_ELWK10           DF_ELWK10           0PRIM_OBJT 000001024000110                                                                                                                                                                                                                                                          00002580000000000000000000000000000                                   
DEVDF_ELWK11 0000000DF_ELWK11           DF_ELWK11           0PRIM_OBJT 000001024000110                                                                                                                                                                                                                                                          00002580000000000000000000000000000                                   
DEVDF_ELWK12 0000000DF_ELWK12           DF_ELWK12           0PRIM_OBJT 000001024000110                                                                                                                                                                                                                                                          00002580000000000000000000000000000                                   
DEVDF_ELWK13 0000000DF_ELWK13           DF_ELWK13           0PRIM_OBJT 000001024000110                                                                                                                                                                                                                                                          00002580000000000000000000000000000                                   
DEVDF_EMCTLO 0000000DF_EMCTLO           DF_EMCTLO           0PRIM_OBJT 000001024000030                                                                                                                                                                                                                                                          00003300000000000000000000000000000                                   
DEVDF_EMDSO  0000000DF_EMDSO            DF_EMDSO            0PRIM_SRVM 000001024000030                                                                                                                                                                                                                                                          00003860000000000000000000000000000                                   
DEVDF_EPNL   0000000DF_EPNL             DF_EPNL             0PRIM_PANL 000001024000030                                                                                                                                                                                                                                                          00002660000000000000000000000000000                                   
DEVDF_FILT1  0000000DF_FILT1            DF_FILT1            0VF_AC007  000001024000030                                                                                                                                                                                                                                                          00002660000000000000000000000000000                                   
DEVDF_FILT1O 0000000DF_FILT1O           DF_FILT1O           0VF_AC007O 000001024000030                                                                                                                                                                                                                                                          00003300000000000000000000000000000                                   
DEVDF_FILT5  0000000DF_FILT5            DF_FILT5            0VF_AC007  000001024000030                                                                                                                                                                                                                                                          00000100000000000000000000000000000                                   
DEVDF_FILT5O 0000000DF_FILT5O           DF_FILT5O           0VF_AC007O 000001024000030                                                                                                                                                                                                                                                          00003300000000000000000000000000000                                   
DEVDF_FILT7  0000000DF_FILT7            DF_FILT7            0VF_AC007  000000651800100                                                                                                                                                                                                                                                          00000100000000000000000000000000000                                   
DEVDF_FILT8  0000000DF_FILT8            DF_FILT8            0VF_AC007  000001024000030                                                                                                                                                                                                                                                          00002660000000000000000000000000000                                   
DEVDF_FILT9  0000000DF_FILT9            DF_FILT9            0VF_AC007  000001024000030                                                                                                                                                                                                                                                          00002660000000000000000000000000000                                   
DEVDF_FILTCO 0000000DF_FILTCO           DF_FILTCO           0VF_AC007O 000001024000030                                                                                                                                                                                                                                                          00003300000000000000000000000000000                                   
DEVDF_FILTPO 0000000DF_FILTPO           DF_FILTPO           0VF_AC007O 000001024000030                                                                                                                                                                                                                                                          00003300000000000000000000000000000                                   
DEVDF_FILTTO 0000000DF_FILTTO           DF_FILTTO           0VF_AC007O 000001024000030                                                                                                                                                                                                                                                          00003300000000000000000000000000000                                   
DEVDF_FILTXO 0000000DF_FILTXO           DF_FILTXO           0VF_AC007O 000001024000030                                                                                                                                                                                                                                                          00003300000000000000000000000000000                                   
DEVDF_HTMAC  0000000DF_HTMAC            DF_HTMAC            0PRIM_MCCO 000001024000010                                                                                                                                                                                                                                                          00000100000000000000000000000000000                                   
DEVDF_INST1  0000000DF_INST1            DF_INST1            0VF_AC012  000001024000010                                                                                                                                                                                                                                                          00000100000000000000000000000000000                                   
DEVDF_INST2  0000000DF_INST2            DF_INST2            0VF_AC012  000001024000030                                                                                                                                                                                                                                                          00002660000000000000000000000000000                                   
DEVDF_INST3  0000000DF_INST3            DF_INST3            0VF_AC012  000001024000030                                                                                                                                                                                                                                                          00002660000000000000000000000000000                                   
DEVDF_MSGEXO 0000000DF_MSGEXO           DF_MSGEXO           0VF_AC010O 000001024000030                                                                                                                                                                                                                                                          00003300000000000000000000000000000                                   
DEVDF_MSGQ   0000000DF_MSGQ             DF_MSGQ             0PRIM_TBSH 000001024000030                                                                                                                                                                                                                                                          00002660000000000000000000000000000                                   
DEVDF_MSGQA  0000000DF_MSGQA            DF_MSGQA            0PRIM_OBJT 000001024000030                                                                                                                                                                                                                                                          00002660000000000000000000000000000                                   
DEVDF_MSGQF  0000000DF_MSGQF            DF_MSGQF            0PRIM_FORM 000001024000030                                                                                                                                                                                                                                                          00002660000000000000000000000000000                                   
DEVDF_MSGQS  0000000DF_MSGQS            DF_MSGQS            0VF_AC020  000001024000030                                                                                                                                                                                                                                                          00002660000000000000000000000000000                                   
DEVDF_NLOOK  0000000DF_NLOOK            DF_NLOOK            0VF_AC010  000000651800100                                                                                                                                                                                                                                                          00000100000000000000000000000000000                                   
DEVDF_OCUSTM 0000000DF_OCUSTM           DF_OCUSTM           0VF_AC036O 000001024000030                                                                                                                                                                                                                                                          00003300000000000000000000000000000                                   
DEVDF_ONEXA  0000000DF_ONEXA            DF_ONEXA            0PRIM_OBJT 000001024000010                                                                                                                                                                                                                                                          00003940000000000000000000000000000                                   
DEVDF_ONEXB  0000000DF_ONEXB            DF_ONEXB            0DF_ONEXA  000001024000010                                                                                                                                                                                                                                                          00003940000000000000000000000000000                                   
DEVDF_ONEXC  0000000DF_ONEXC            DF_ONEXC            0DF_ONEXA  000001024000010                                                                                                                                                                                                                                                          00003940000000000000000000000000000                                   
DEVDF_ONREP  0000000DF_ONREP            DF_ONREP            0PRIM_PANL 000001024000010                                                                                                                                                                                                                                                          00001380000000000000000000000000000                                   
DEVDF_OSYSTM 0000000DF_OSYSTM           DF_OSYSTM           0VF_AC011O 000001024000030                                                                                                                                                                                                                                                          00003300000000000000000000000000000                                   
DEVDF_PRM01  0000000DF_PRM01            DF_PRM01            0VF_AC017  000001024000030                                                                                                                                                                                                                                                          00002660000000000000000000000000000                                   
DEVDF_PRM01O 0000000DF_PRM01O           DF_PRM01O           0VF_AC017O 000001024000030                                                                                                                                                                                                                                                          00003300000000000000000000000000000                                   
DEVDF_PRM02  0000000DF_PRM02            DF_PRM02            0VF_AC017  000001024000030                                                                                                                                                                                                                                                          00002660000000000000000000000000000                                   
DEVDF_PRM02O 0000000DF_PRM02O           DF_PRM02O           0VF_AC017O 000001024000030                                                                                                                                                                                                                                                          00003300000000000000000000000000000                                   
DEVDF_PRM03  0000000DF_PRM03            DF_PRM03            0VF_AC017  000001024000030                                                                                                                                                                                                                                                          00002660000000000000000000000000000                                   
DEVDF_PRM03O 0000000DF_PRM03O           DF_PRM03O           0VF_AC017O 000001024000030                                                                                                                                                                                                                                                          00003300000000000000000000000000000                                   
DEVDF_PRM04  0000000DF_PRM04            DF_PRM04            0VF_AC017  000001024000030                                                                                                                                                                                                                                                          00002660000000000000000000000000000                                   
DEVDF_PRM04O 0000000DF_PRM04O           DF_PRM04O           0VF_AC017O 000001024000030                                                                                                                                                                                                                                                          00003300000000000000000000000000000                                   
DEVDF_PRM05  0000000DF_PRM05            DF_PRM05            0VF_AC017  000001024000030                                                                                                                                                                                                                                                          00002660000000000000000000000000000                                   
DEVDF_PRM05O 0000000DF_PRM05O           DF_PRM05O           0VF_AC017O 000001024000030                                                                                                                                                                                                                                                          00003300000000000000000000000000000                                   
DEVDF_PRM06  0000000DF_PRM06            DF_PRM06            0VF_AC017  000001024000030                                                                                                                                                                                                                                                          00002660000000000000000000000000000                                   
DEVDF_PRM06O 0000000DF_PRM06O           DF_PRM06O           0VF_AC017O 000001024000030                                                                                                                                                                                                                                                          00003300000000000000000000000000000                                   
DEVDF_PRM07  0000000DF_PRM07            DF_PRM07            0VF_AC017  000001024000030                                                                                                                                                                                                                                                          00002660000000000000000000000000000                                   
DEVDF_PRM07O 0000000DF_PRM07O           DF_PRM07O           0VF_AC017O 000001024000030                                                                                                                                                                                                                                                          00003300000000000000000000000000000                                   
DEVDF_PRMDSO 0000000DF_PRMDSO           DF_PRMDSO           0PRIM_SRVM 000001024000030                                                                                                                                                                                                                                                          00003860000000000000000000000000000                                   
DEVDF_RSPNL  0000000DF_RSPNL            DF_RSPNL            0PRIM_PANL 000001024000030                                                                                                                                                                                                                                                          00002660000000000000000000000000000                                   
DEVDF_SETINO 0000000DF_SETINO           DF_SETINO           0VF_AC030O 000001024000030                                                                                                                                                                                                                                                          00003300000000000000000000000000000                                   
DEVDF_SLIDBO 0000000DF_SLIDBO           DF_SLIDBO           0VF_AC028O 000001024000030                                                                                                                                                                                                                                                          00003300000000000000000000000000000                                   
DEVDF_SLIDLB 0000000DF_SLIDLB           DF_SLIDLB           0PRIM_PANL 000001024000030                                                                                                                                                                                                                                                          00003300000000000000000000000000000                                   
DEVDF_SLIDLO 0000000DF_SLIDLO           DF_SLIDLO           0VF_AC028O 000001024000030                                                                                                                                                                                                                                                          00003300000000000000000000000000000                                   
DEVDF_SLIDLT 0000000DF_SLIDLT           DF_SLIDLT           0PRIM_PANL 000001024000030                                                                                                                                                                                                                                                          00003300000000000000000000000000000                                   
DEVDF_SLIDRO 0000000DF_SLIDRO           DF_SLIDRO           0VF_AC028O 000001024000030                                                                                                                                                                                                                                                          00003300000000000000000000000000000                                   
DEVDF_SLIDTO 0000000DF_SLIDTO           DF_SLIDTO           0VF_AC028O 000001024000030                                                                                                                                                                                                                                                          00003300000000000000000000000000000                                   
DEVDF_T0000  0000000DF_T0000            DF_T0000            0VF_AC010  000000651800100                                                                                                                                                                                                                                                          00000100000000000000000000000000000                                   
DEVDF_T0001  0000000DF_T0001            DF_T0001            0VF_AC010  000000651800100                                                                                                                                                                                                                                                          00000100000000000000000000000000000                                   
DEVDF_T0001O 0000000DF_T0001O           DF_T0001O           0VF_AC010O 000001024000030                                                                                                                                                                                                                                                          00003300000000000000000000000000000                                   
DEVDF_T0002  0000000DF_T0002            DF_T0002            0VF_AC010  000000651800100                                                                                                                                                                                                                                                          00000100000000000000000000000000000                                   
DEVDF_T0003  0000000DF_T0003            DF_T0003            0VF_AC010  000000651800100                                                                                                                                                                                                                                                          00000100000000000000000000000000000                                   
DEVDF_T0004  0000000DF_T0004            DF_T0004            0VF_AC010  000000651800100                                                                                                                                                                                                                                                          00000100000000000000000000000000000                                   
DEVDF_T0005  0000000DF_T0005            DF_T0005            0VF_AC010  000000651800100                                                                                                                                                                                                                                                          00000100000000000000000000000000000                                   
DEVDF_T0006  0000000DF_T0006            DF_T0006            0VF_AC010  000000651800100                                                                                                                                                                                                                                                          00000100000000000000000000000000000                                   
DEVDF_T0006O 0000000DF_T0006O           DF_T0006O           0VF_AC010O 000001024000030                                                                                                                                                                                                                                                          00003300000000000000000000000000000                                   
DEVDF_T0007  0000000DF_T0007            DF_T0007            0VF_AC010  000000651800100                                                                                                                                                                                                                                                          00000100000000000000000000000000000                                   
DEVDF_T0012  0000000DF_T0012            DF_T0012            0VF_AC007  000001024000030                                                                                                                                                                                                                                                          00000100000000000000000000000000000                                   
DEVDF_T0022  0000000DF_T0022            DF_T0022            0VF_AC007  000001024000030                                                                                                                                                                                                                                                          00000100000000000000000000000000000                                   
DEVDF_T0023  0000000DF_T0023            DF_T0023            0VF_AC010  000001024000030                                                                                                                                                                                                                                                          00002660000000000000000000000000000                                   
DEVDF_T0101  0000000DF_T0101            DF_T0101            0VF_AC010  000000651800100                                                                                                                                                                                                                                                          00000100000000000000000000000000000                                   
DEVDF_T0201  0000000DF_T0201            DF_T0201            0VF_AC010  000000651800100                                                                                                                                                                                                                                                          00000100000000000000000000000000000                                   
DEVDF_T0401  0000000DF_T0401            DF_T0401            0VF_AC010  000000651800100                                                                                                                                                                                                                                                          00000100000000000000000000000000000                                   
DEVDF_T1901  0000000DF_T1901            DF_T1901            0VF_AC010  000000651800100                                                                                                                                                                                                                                                          00000100000000000000000000000000000                                   
DEVDF_T1902  0000000DF_T1902            DF_T1902            0VF_AC010  000000651800100                                                                                                                                                                                                                                                          00000100000000000000000000000000000                                   
DEVDF_T1903  0000000DF_T1903            DF_T1903            0VF_AC010  000001024000110                                                                                                                                                                                                                                                          00002660000000000000000000000000000                                   
DEVDF_T2101  0000000DF_T2101            DF_T2101            0VF_AC007  000000651800100                                                                                                                                                                                                                                                          00000100000000000000000000000000000                                   
DEVDF_T2102  0000000DF_T2102            DF_T2102            0VF_AC010  000000651800100                                                                                                                                                                                                                                                          00000100000000000000000000000000000                                   
DEVDF_T2103  0000000DF_T2103            DF_T2103            0VF_AC012  000000651800100                                                                                                                                                                                                                                                          00000100000000000000000000000000000                                   
DEVDF_T2301  0000000DF_T2301            DF_T2301            0VF_AC007  000000651800100                                                                                                                                                                                                                                                          00000100000000000000000000000000000                                   
DEVDF_T2302  0000000DF_T2302            DF_T2302            0VF_AC007  000000651800100                                                                                                                                                                                                                                                          00001380000000000000000000000000000                                   
DEVDF_T2303  0000000DF_T2303            DF_T2303            0VF_AC007  000000651800100                                                                                                                                                                                                                                                          00000100000000000000000000000000000                                   
DEVDF_T2311  0000000DF_T2311            DF_T2311            0VF_AC010  000000651800100                                                                                                                                                                                                                                                          00000100000000000000000000000000000                                   
DEVDF_T2312  0000000DF_T2312            DF_T2312            0VF_AC010  000000651800100                                                                                                                                                                                                                                                          00000100000000000000000000000000000                                   
DEVDF_T2313  0000000DF_T2313            DF_T2313            0VF_AC010  000000651800100                                                                                                                                                                                                                                                          00000100000000000000000000000000000                                   
DEVDF_T2601  0000000DF_T2601            DF_T2601            0VF_AC007  000001024000030                                                                                                                                                                                                                                                          00002660000000000000000000000000000                                   
DEVDF_T2601O 0000000DF_T2601O           DF_T2601O           0VF_AC007O 000001024000030                                                                                                                                                                                                                                                          00003300000000000000000000000000000                                   
DEVDF_T2602  0000000DF_T2602            DF_T2602            0VF_AC010  000001024000030                                                                                                                                                                                                                                                          00002660000000000000000000000000000                                   
DEVDF_T2602O 0000000DF_T2602O           DF_T2602O           0VF_AC010O 000001024000030                                                                                                                                                                                                                                                          00003300000000000000000000000000000                                   
DEVDF_T2603  0000000DF_T2603            DF_T2603            0VF_AC007  000001024000030                                                                                                                                                                                                                                                          00002660000000000000000000000000000                                   
DEVDF_T2603O 0000000DF_T2603O           DF_T2603O           0VF_AC007O 000001024000030                                                                                                                                                                                                                                                          00003300000000000000000000000000000                                   
DEVDF_T2801  0000000DF_T2801            DF_T2801            0VF_AC007  000001024000030                                                                                                                                                                                                                                                          00000100000000000000000000000000000                                   
DEVDF_T2801O 0000000DF_T2801O           DF_T2801O           0VF_AC007O 000001024000030                                                                                                                                                                                                                                                          00003300000000000000000000000000000                                   
DEVDF_T2802  0000000DF_T2802            DF_T2802            0VF_AC010  000001024000030                                                                                                                                                                                                                                                          00002660000000000000000000000000000                                   
DEVDF_T2802O 0000000DF_T2802O           DF_T2802O           0VF_AC010O 000001024000030                                                                                                                                                                                                                                                          00003300000000000000000000000000000                                   
DEVDF_T3001  0000000DF_T3001            DF_T3001            0VF_AC007  000001024000030                                                                                                                                                                                                                                                          00002660000000000000000000000000000                                   
DEVDF_T3002  0000000DF_T3002            DF_T3002            0VF_AC007  000001024000030                                                                                                                                                                                                                                                          00002660000000000000000000000000000                                   
DEVDF_T3002O 0000000DF_T3002O           DF_T3002O           0VF_AC007O 000001024000030                                                                                                                                                                                                                                                          00003300000000000000000000000000000                                   
DEVDF_T3003  0000000DF_T3003            DF_T3003            0VF_AC007  000001024000030                                                                                                                                                                                                                                                          00002660000000000000000000000000000                                   
DEVDF_T3003O 0000000DF_T3003O           DF_T3003O           0VF_AC007O 000001024000030                                                                                                                                                                                                                                                          00003300000000000000000000000000000                                   
DEVDF_T3004  0000000DF_T3004            DF_T3004            0VF_AC010  000001024000030                                                                                                                                                                                                                                                          00000100000000000000000000000000000                                   
DEVDF_T3005O 0000000DF_T3005O           DF_T3005O           0VF_AC007O 000001024000030                                                                                                                                                                                                                                                          00003300000000000000000000000000000                                   
DEVDF_T3006O 0000000DF_T3006O           DF_T3006O           0VF_AC007O 000001024000030                                                                                                                                                                                                                                                          00003300000000000000000000000000000                                   
DEVDF_T3101  0000000DF_T3101            DF_T3101            0VF_AC010  000001024000030                                                                                                                                                                                                                                                          00002660000000000000000000000000000                                   
DEVDF_T3101O 0000000DF_T3101O           DF_T3101O           0VF_AC007O 000001024000030                                                                                                                                                                                                                                                          00003300000000000000000000000000000                                   
DEVDF_T3102O 0000000DF_T3102O           DF_T3102O           0VF_AC010O 000001024000030                                                                                                                                                                                                                                                          00003300000000000000000000000000000                                   
DEVDF_T3103O 0000000DF_T3103O           DF_T3103O           0PRIM_OBJT 000001024000030                                                                                                                                                                                                                                                          00003300000000000000000000000000000                                   
DEVDF_T31DSO 0000000DF_T31DSO           DF_T31DSO           0PRIM_SRVM 000001024000030                                                                                                                                                                                                                                                          00003860000000000000000000000000000                                   
DEVDF_T3201  0000000DF_T3201            DF_T3201            0VF_AC010  000001024000030                                                                                                                                                                                                                                                          00002660000000000000000000000000000                                   
DEVDF_T3204  0000000DF_T3204            DF_T3204            0VF_AC007  000001024000030                                                                                                                                                                                                                                                          00002660000000000000000000000000000                                   
DEVDF_T3205  0000000DF_T3205            DF_T3205            0PRIM_PANL 000001024000030                                                                                                                                                                                                                                                          00002660000000000000000000000000000                                   
DEVDF_T3301  0000000DF_T3301            DF_T3301            0VF_AC021  000001024000030                                                                                                                                                                                                                                                          00002660000000000000000000000000000                                   
DEVDF_T3302  0000000DF_T3302            DF_T3302            0VF_AC021  000001024000030                                                                                                                                                                                                                                                          00002660000000000000000000000000000                                   
DEVDF_T3303  0000000DF_T3303            DF_T3303            0VF_AC021  000001024000030                                                                                                                                                                                                                                                          00002660000000000000000000000000000                                   
DEVDF_T3401  0000000DF_T3401            DF_T3401            0VF_AC010  000001024000030                                                                                                                                                                                                                                                          00002660000000000000000000000000000                                   
DEVDF_T3501  0000000DF_T3501            DF_T3501            0VF_AC007  000001024000030                                                                                                                                                                                                                                                          00002660000000000000000000000000000                                   
DEVDF_T3502  0000000DF_T3502            DF_T3502            0VF_AC010  000001024000030                                                                                                                                                                                                                                                          00002660000000000000000000000000000                                   
DEVDF_T3503  0000000DF_T3503            DF_T3503            0VF_AC010  000001024000030                                                                                                                                                                                                                                                          00002660000000000000000000000000000                                   
DEVDF_T3504  0000000DF_T3504            DF_T3504            0VF_AC010  000001024000030                                                                                                                                                                                                                                                          00002660000000000000000000000000000                                   
DEVDF_T3505  0000000DF_T3505            DF_T3505            0VF_AC010  000001024000030                                                                                                                                                                                                                                                          00002660000000000000000000000000000                                   
DEVDF_T3506  0000000DF_T3506            DF_T3506            0VF_AC012  000001024000030                                                                                                                                                                                                                                                          00002660000000000000000000000000000                                   
DEVDF_T3507  0000000DF_T3507            DF_T3507            0VF_AC023  000001024000030                                                                                                                                                                                                                                                          00002660000000000000000000000000000                                   
DEVDF_T40DDO 0000000DF_T40DDO           DF_T40DDO           0PRIM_PANL 000001024000030                                                                                                                                                                                                                                                          00003300000000000000000000000000000                                   
DEVDF_T40F1O 0000000DF_T40F1O           DF_T40F1O           0VF_AC007O 000001024000030                                                                                                                                                                                                                                                          00003300000000000000000000000000000                                   
DEVDF_T40H2O 0000000DF_T40H2O           DF_T40H2O           0VF_AC010O 000001024000030                                                                                                                                                                                                                                                          00003300000000000000000000000000000                                   
DEVDF_T40PAO 0000000DF_T40PAO           DF_T40PAO           0VF_AC035O 000001024000030                                                                                                                                                                                                                                                          00003300000000000000000000000000000                                   
DEVDF_T40PPO 0000000DF_T40PPO           DF_T40PPO           0VF_AC021O 000001024000030                                                                                                                                                                                                                                                          00003300000000000000000000000000000                                   
DEVDF_T41DSO 0000000DF_T41DSO           DF_T41DSO           0PRIM_SRVM 000001024000030                                                                                                                                                                                                                                                          00003860000000000000000000000000000                                   
DEVDF_T41F1O 0000000DF_T41F1O           DF_T41F1O           0VF_AC007O 000001024000030                                                                                                                                                                                                                                                          00003300000000000000000000000000000                                   
DEVDF_T41H1O 0000000DF_T41H1O           DF_T41H1O           0VF_AC010O 000001024000030                                                                                                                                                                                                                                                          00003300000000000000000000000000000                                   
DEVDF_T41I1O 0000000DF_T41I1O           DF_T41I1O           0VF_AC012O 000001024000030                                                                                                                                                                                                                                                          00003300000000000000000000000000000                                   
DEVDF_T42DSO 0000000DF_T42DSO           DF_T42DSO           0PRIM_SRVM 000001024000030                                                                                                                                                                                                                                                          00003860000000000000000000000000000                                   
DEVDF_T42F1O 0000000DF_T42F1O           DF_T42F1O           0VF_AC007O 000001024000030                                                                                                                                                                                                                                                          00003300000000000000000000000000000                                   
DEVDF_T42H1O 0000000DF_T42H1O           DF_T42H1O           0VF_AC010O 000001024000030                                                                                                                                                                                                                                                          00003300000000000000000000000000000                                   
DEVDF_T42H2O 0000000DF_T42H2O           DF_T42H2O           0VF_AC010O 000001024000030                                                                                                                                                                                                                                                          00003300000000000000000000000000000                                   
DEVDF_T43DSO 0000000DF_T43DSO           DF_T43DSO           0PRIM_SRVM 000001024000030                                                                                                                                                                                                                                                          00003860000000000000000000000000000                                   
DEVDF_T43H1O 0000000DF_T43H1O           DF_T43H1O           0VF_AC010O 000001024000030                                                                                                                                                                                                                                                          00003300000000000000000000000000000                                   
DEVDF_T44H1O 0000000DF_T44H1O           DF_T44H1O           0VF_AC010O 000001024000030                                                                                                                                                                                                                                                          00003300000000000000000000000000000                                   
DEVDF_T45H1O 0000000DF_T45H1O           DF_T45H1O           0VF_AC010O 000001024000030                                                                                                                                                                                                                                                          00003300000000000000000000000000000                                   
DEVDF_T46H1O 0000000DF_T46H1O           DF_T46H1O           0VF_AC010O 000001024000030                                                                                                                                                                                                                                                          00003300000000000000000000000000000                                   
DEVDF_T47H1O 0000000DF_T47H1O           DF_T47H1O           0VF_AC010O 000001024000030                                                                                                                                                                                                                                                          00003300000000000000000000000000000                                   
DEVDF_T48H1O 0000000DF_T48H1O           DF_T48H1O           0VF_AC010O 000001024000030                                                                                                                                                                                                                                                          00003300000000000000000000000000000                                   
DEVDF_T49BCO 0000000DF_T49BCO           DF_T49BCO           0          000001024000030                                                                                                                                                                                                                                                          00003200000000000000000000000000000                                   
