DEVDF_DDDEP  0000000CURRDEPTMENT        CURRDEPTMENT        CurrDeptment        0000001 DEPTMENT             0                                                                                                                                                                                                                                                                                                  00000000000000          
DEVDF_DDDEP  0000000DEPARTMENTSELECTED  UDEPARTMENT         UDEPARTMENT         00000021DEPTMENT            10                                                                                                                                                                                                                                                                                                  00000000000000          
DEVDF_DET34  0000000UCOPYEXAMPLEFILE    FILENAME            FileName            00000031VF_ELURL            10                                                                                                                                                                                                                                                                                                  00000000000000          
DEVDF_DET35  0000000ADDHHCELL           TEMPNVAL            TempNval            00000031EMPTSTOTH           10                                                                                                                                                                                                                                                                                                  00000000000000          
DEVDF_DET35  0000000ADDTHROW            CAPTION             Caption             00000031STD_DESC            10                                                                                                                                                                                                                                                                                                  00000000000000          
DEVDF_DET35  0000000ADDTOTALS           COLUMNNUM           ColumnNum           00000031STD_NUM             10                                                                                                                                                                                                                                                                                                  00000000000000          
DEVDF_DET35  0000000ADDTOTALS           TOTHOURS            TotHours            00001032EMPTSTOTH           10                                                                                                                                                                                                                                                                                                  00000000000000          
DEVDF_DET35  0000000ADDTSKCELL          TEMPAVAL            TempAval            00000031STD_DESC            10                                                                                                                                                                                                                                                                                                  00000000000000          
DEVDF_DET35  0000000FINDQTOTAL          CURRTASK            CurrTask            00001031STD_TEXTS           10                                                                                                                                                                                                                                                                                                  00000000000000          
DEVDF_DET35  0000000FINDQTOTAL          QUARTER             Quarter             00000031STD_TEXTS           10                                                                                                                                                                                                                                                                                                  00000000000000          
DEVDF_DET35  0000000FINDQTOTAL          TOTHOURS            TotHours            00002032EMPTSTOTH           10                                                                                                                                                                                                                                                                                                  00000000000000          
DEVDF_DET35  0000000FINDWTOTAL          CURRTASK            CurrTask            00001031STD_TEXTS           10                                                                                                                                                                                                                                                                                                  00000000000000          
DEVDF_DET35  0000000FINDWTOTAL          TOTHOURS            TotHours            00002032EMPTSTOTH           10                                                                                                                                                                                                                                                                                                  00000000000000          
DEVDF_DET35  0000000FINDWTOTAL          WEEK                Week                00000031EMPTSWEEK           10                                                                                                                                                                                                                                                                                                  00000000000000          
DEVDF_DET35  0000000HIDECOLUMN          DISPLAYPOS          DisplayPos          00000031STD_NUM             10                                                                                                                                                                                                                                                                                                  00000000000000          
DEVDF_DET35  0000000INITTIMESHEET       ENDDATE             EndDate             00001031EMPTSWSTR           10                                                                                                                                                                                                                                                                                                  00000000000000          
DEVDF_DET35  0000000INITTIMESHEET       STARTDATE           StartDate           00000031EMPTSWSTR           10                                                                                                                                                                                                                                                                                                  00000000000000          
DEVDF_DET35  0000000MAKETABLE           TABLENAME           TableName           00000031STD_OBJ             10                                                                                                                                                                                                                                                                                                  00000000000000          
DEVDF_DET35  0000000SETCOLUMN           COLCAPTION          ColCaption          00001031STD_TEXTS           10                                                                                                                                                                                                                                                                                                  00000000000000          
DEVDF_DET35  0000000SETCOLUMN           DISPLAYPOS          DisplayPos          00000031STD_NUM             10                                                                                                                                                                                                                                                                                                  00000000000000          
DEVDF_DET35  0000000SETWEEKCAPTION      DISPLAYPOS          DisplayPos          00001031STD_NUM             10                                                                                                                                                                                                                                                                                                  00000000000000          
DEVDF_DET35  0000000SETWEEKCAPTION      WEEKNUMBER          WeekNumber          00000031STD_NUM             10                                                                                                                                                                                                                                                                                                  00000000000000          
DEVDF_DET35  0000000UADDTOTREE          ENTRYCAPTION        EntryCaption        00001031STD_NAME            10                                                                                                                                                                                                                                                                                                  00000000000000          
DEVDF_DET35  0000000UADDTOTREE          ENTRYTYPE           EntryType           00004031STD_TEXT            10                                                                                                                                                                                                                                                                                                  00000000000000          
DEVDF_DET35  0000000UADDTOTREE          EXPAND              Expand              00005031PRIM_BOLN           00                                                                                                                                                                                                                                                                                                  00000000000000          
DEVDF_DET35  0000000UADDTOTREE          ITEMICON            ItemIcon            00006031PRIM_ICON           01                                                                                                                                                                                                                                                                                                  00000000000000          
DEVDF_DET35  0000000UADDTOTREE          NEWTREEITEM         NewTreeItem         00007032PRIM_TVIT           01                                                                                                                                                                                                                                                                                                  00000000000000          
DEVDF_DET35  0000000UADDTOTREE          PARENTITEM          ParentItem          00000031PRIM_TVIT           11                                                                                                                                                                                                                                                                                                  00000000000000          
DEVDF_DET35  0000000UADDTOTREE          QUARTER             Quarter             00002031STD_TEXTS           10                                                                                                                                                                                                                                                                                                  00000000000000          
DEVDF_DET35  0000000UADDTOTREE          THISWEEK            ThisWeek            00003031STD_NUM             00                                                                                                                                                                                                                                                                                                  00000000000000          
DEVDF_DET43  0000000EXECUTEFILE         IFILENAME           iFileName           00000031SYSVAR$AV           10                                                                                                                                                                                                                                                                                                  00000000000000          
DEVDF_DET43  0000000EXECUTEFILE         ORETCODE            oRetCode            00001032STD_NUM             00                                                                                                                                                                                                                                                                                                  00000000000000          
DEVDF_DET43  0000000MAKETEMPFILENAME    INAMEPART1          iNamePart1          00001031STD_OBJ             10                                                                                                                                                                                                                                                                                                  00000000000000          
DEVDF_DET43  0000000MAKETEMPFILENAME    INAMEPART2          iNamePart2          00002031STD_OBJ             00                                                                                                                                                                                                                                                                                                  00000000000000          
DEVDF_DET43  0000000MAKETEMPFILENAME    INAMEPART3          iNamePart3          00003031STD_OBJ             00                                                                                                                                                                                                                                                                                                  00000000000000          
DEVDF_DET43  0000000MAKETEMPFILENAME    INAMEPART4          iNamePart4          00004031STD_OBJ             00                                                                                                                                                                                                                                                                                                  00000000000000          
DEVDF_DET43  0000000MAKETEMPFILENAME    INAMEPART5          iNamePart5          00005031STD_OBJ             00                                                                                                                                                                                                                                                                                                  00000000000000          
DEVDF_DET43  0000000MAKETEMPFILENAME    ISUFFIX             iSuffix             00000031STD_OBJ             10                                                                                                                                                                                                                                                                                                  00000000000000          
DEVDF_DET43  0000000MAKETEMPFILENAME    OFILENAME           oFileName           00006032SYSVAR$AV           10                                                                                                                                                                                                                                                                                                  00000000000000          
DEVDF_DLDEP  0000000CURRDEPTMENT        CURRDEPTMENT        CurrDeptment        0000001 DEPTMENT             0                                                                                                                                                                                                                                                                                                  00000000000000          
DEVDF_DLDEP  0000000DEPARTMENTSELECTED  UDEPARTMENT         uDepartment         00000021DEPTMENT            10                                                                                                                                                                                                                                                                                                  00000000000000          
DEVDF_DLDEP  0000000USETHINT            UHINT               uHint               00000031VF_ELURL            10                                                                                                                                                                                                                                                                                                  00000000000000          
DEVDF_DLSKL  0000000CURRSKILL           CURRSKILL           CurrSkill           0000001 SKILCODE             0                                                                                                                                                                                                                                                                                                  00000000000000          
DEVDF_DLSKL  0000000SKILLSELECTED       USKILL              USKILL              00000021SKILCODE            10                                                                                                                                                                                                                                                                                                  00000000000000          
DEVDF_EPNL   0000000GETMONTH            VALUE               Value               00000042PRIM_ALPH           10                                                                                                                                                                                                                                                                                                  00000000000000          
DEVDF_EPNL   0000000GETYEAR             VALUE               Value               00000042PRIM_ALPH           10                                                                                                                                                                                                                                                                                                  00000000000000          
DEVDF_EPNL   0000000MONTH               MONTH               Month               0000001 PRIM_ALPH            0                                                                                                                                                                                                                                                                                                  00000000000000          
DEVDF_EPNL   0000000NKEY1               NKEY1               NKey1               0000001 VF_ELXNK1            0                                                                                                                                                                                                                                                                                                  00000000000000          
DEVDF_EPNL   0000000NKEY2               NKEY2               NKey2               0000001 VF_ELXNK2            0                                                                                                                                                                                                                                                                                                  00000000000000          
DEVDF_EPNL   0000000SELECTED            SELECTED            Selected            0000001 PRIM_BOLN            0                                                                                                                                                                                                                                                                                                  00000000000000          
DEVDF_EPNL   0000000SETMONTH            VALUE               Value               00000041PRIM_ALPH           10                                                                                                                                                                                                                                                                                                  00000000000000          
DEVDF_EPNL   0000000SETSELECTED         STATE               State               00000041PRIM_BOLN           10                                                                                                                                                                                                                                                                                                  00000000000000          
DEVDF_EPNL   0000000SETYEAR             VALUE               Value               00000041PRIM_ALPH           10                                                                                                                                                                                                                                                                                                  00000000000000          
DEVDF_EPNL   0000000YEAR                YEAR                Year                0000001 PRIM_ALPH            0                                                                                                                                                                                                                                                                                                  00000000000000          
DEVDF_FILT1  0000000UACCEPTFOCUS        ACCEPTED            Accepted            00000033PRIM_BOLN           10                                                                                                                                                                                                                                                                                                  00000000000000          
DEVDF_INST1  0000000UADDLISTENTRY       ACOLUMN1            AColumn1            00015031VF_ELXCOA           00Optional Alphanumeric Column            This is an optional alphanumeric column associated with the instance list. Type alphanumeric. Maximum length 100.                                                                                                                                         00000000000000          
DEVDF_INST1  0000000UADDLISTENTRY       ACOLUMN10           AColumn10           00024031VF_ELXCOA           00Optional Alphanumeric Column            This is an optional alphanumeric column associated with the instance list. Type alphanumeric. Maximum length 100.                                                                                                                                         00000000000000          
DEVDF_INST1  0000000UADDLISTENTRY       ACOLUMN2            AColumn2            00016031VF_ELXCOA           00Optional Alphanumeric Column            This is an optional alphanumeric column associated with the instance list. Type alphanumeric. Maximum length 100.                                                                                                                                         00000000000000          
DEVDF_INST1  0000000UADDLISTENTRY       ACOLUMN3            AColumn3            00017031VF_ELXCOA           00Optional Alphanumeric Column            This is an optional alphanumeric column associated with the instance list. Type alphanumeric. Maximum length 100.                                                                                                                                         00000000000000          
DEVDF_INST1  0000000UADDLISTENTRY       ACOLUMN4            AColumn4            00018031VF_ELXCOA           00Optional Alphanumeric Column            This is an optional alphanumeric column associated with the instance list. Type alphanumeric. Maximum length 100.                                                                                                                                         00000000000000          
DEVDF_INST1  0000000UADDLISTENTRY       ACOLUMN5            AColumn5            00019031VF_ELXCOA           00Optional Alphanumeric Column            This is an optional alphanumeric column associated with the instance list. Type alphanumeric. Maximum length 100.                                                                                                                                         00000000000000          
DEVDF_INST1  0000000UADDLISTENTRY       ACOLUMN6            AColumn6            00020031VF_ELXCOA           00Optional Alphanumeric Column            This is an optional alphanumeric column associated with the instance list. Type alphanumeric. Maximum length 100.                                                                                                                                         00000000000000          
DEVDF_INST1  0000000UADDLISTENTRY       ACOLUMN7            AColumn7            00021031VF_ELXCOA           00Optional Alphanumeric Column            This is an optional alphanumeric column associated with the instance list. Type alphanumeric. Maximum length 100.                                                                                                                                         00000000000000          
DEVDF_INST1  0000000UADDLISTENTRY       ACOLUMN8            AColumn8            00022031VF_ELXCOA           00Optional Alphanumeric Column            This is an optional alphanumeric column associated with the instance list. Type alphanumeric. Maximum length 100.                                                                                                                                         00000000000000          
DEVDF_INST1  0000000UADDLISTENTRY       ACOLUMN9            AColumn9            00023031VF_ELXCOA           00Optional Alphanumeric Column            This is an optional alphanumeric column associated with the instance list. Type alphanumeric. Maximum length 100.                                                                                                                                         00000000000000          
DEVDF_INST1  0000000UADDLISTENTRY       AKEY1               AKey1               00002031VF_ELXAK1           10Object Instance Identifier 1 - Alpha    This is an optional  programmatic identifier of this business object instance. The identification protocol used for the identifier is at your discretion. Type alphanumeric. Maximum length 32.                                                           00000000000000          
DEVDF_INST1  0000000UADDLISTENTRY       AKEY2               AKey2               00003031VF_ELXAK2           10Object Instance Identifier 2 - Alpha    This is an optional  programmatic identifier of this business object instance. The identification protocol used for the identifier is at your discretion. Type alphanumeric. Maximum length 32.                                                           00000000000000          
DEVDF_INST1  0000000UADDLISTENTRY       AKEY3               AKey3               00004031VF_ELXAK3           10Object Instance Identifier 3 - Alpha    This is an optional  programmatic identifier of this business object instance. The identification protocol used for the identifier is at your discretion. Type alphanumeric. Maximum length 32.                                                           00000000000000          
DEVDF_INST1  0000000UADDLISTENTRY       AKEY4               AKey4               00005031VF_ELXAK4           10Object Instance Identifier 4 - Alpha    This is an optional  programmatic identifier of this business object instance. The identification protocol used for the identifier is at your discretion. Type alphanumeric. Maximum length 32.                                                           00000000000000          
DEVDF_INST1  0000000UADDLISTENTRY       AKEY5               AKey5               00006031VF_ELXAK5           10Object Instance Identifier 5 - Alpha    This is an optional  programmatic identifier of this business object instance. The identification protocol used for the identifier is at your discretion. Type alphanumeric. Maximum length 32.                                                           00000000000000          
DEVDF_INST1  0000000UADDLISTENTRY       BUSINESSOBJECTTYPE  BusinessObjectType  00013031VF_ELIDN            00User object name/type                   The user object name/type of the business object associated with this instance list entry. If specified this must specify the user object name/type of the current or a defined related business object.                                                  00000000000000          
DEVDF_INST1  0000000UADDLISTENTRY       NCOLUMN1            NColumn1            00025031VF_ELXCON           00Optional Numeric Column                 This is an optional numeric column associated with the instance list. Type numeric. Maximum precision is 30,9.                                                                                                                                            00000000000000          
DEVDF_INST1  0000000UADDLISTENTRY       NCOLUMN10           NColumn10           00034031VF_ELXCON           00Optional Numeric Column                 This is an optional numeric column associated with the instance list. Type numeric. Maximum precision is 30,9.                                                                                                                                            00000000000000          
DEVDF_INST1  0000000UADDLISTENTRY       NCOLUMN2            NColumn2            00026031VF_ELXCON           00Optional Numeric Column                 This is an optional numeric column associated with the instance list. Type numeric. Maximum precision is 30,9.                                                                                                                                            00000000000000          
DEVDF_INST1  0000000UADDLISTENTRY       NCOLUMN3            NColumn3            00027031VF_ELXCON           00Optional Numeric Column                 This is an optional numeric column associated with the instance list. Type numeric. Maximum precision is 30,9.                                                                                                                                            00000000000000          
DEVDF_INST1  0000000UADDLISTENTRY       NCOLUMN4            NColumn4            00028031VF_ELXCON           00Optional Numeric Column                 This is an optional numeric column associated with the instance list. Type numeric. Maximum precision is 30,9.                                                                                                                                            00000000000000          
DEVDF_INST1  0000000UADDLISTENTRY       NCOLUMN5            NColumn5            00029031VF_ELXCON           00Optional Numeric Column                 This is an optional numeric column associated with the instance list. Type numeric. Maximum precision is 30,9.                                                                                                                                            00000000000000          
DEVDF_INST1  0000000UADDLISTENTRY       NCOLUMN6            NColumn6            00030031VF_ELXCON           00Optional Numeric Column                 This is an optional numeric column associated with the instance list. Type numeric. Maximum precision is 30,9.                                                                                                                                            00000000000000          
DEVDF_INST1  0000000UADDLISTENTRY       NCOLUMN7            NColumn7            00031031VF_ELXCON           00Optional Numeric Column                 This is an optional numeric column associated with the instance list. Type numeric. Maximum precision is 30,9.                                                                                                                                            00000000000000          
DEVDF_INST1  0000000UADDLISTENTRY       NCOLUMN8            NColumn8            00032031VF_ELXCON           00Optional Numeric Column                 This is an optional numeric column associated with the instance list. Type numeric. Maximum precision is 30,9.                                                                                                                                            00000000000000          
DEVDF_INST1  0000000UADDLISTENTRY       NCOLUMN9            NColumn9            00033031VF_ELXCON           00Optional Numeric Column                 This is an optional numeric column associated with the instance list. Type numeric. Maximum precision is 30,9.                                                                                                                                            00000000000000          
DEVDF_INST1  0000000UADDLISTENTRY       NKEY1               NKey1               00007031VF_ELXNK1           10Object Instance Identifier 1 - Numeric  This is an optional programmatic identifier of this business object instance. The identification protocol used for the identifier is at your discretion. Type numeric at maximum (15,0) precision.                                                        00000000000000          
DEVDF_INST1  0000000UADDLISTENTRY       NKEY2               NKey2               00008031VF_ELXNK2           10Object Instance Identifier 2 - Numeric  This is an optional programmatic identifier of this business object instance. The identification protocol used for the identifier is at your discretion. Type numeric at maximum (15,0) precision.                                                        00000000000000          
DEVDF_INST1  0000000UADDLISTENTRY       NKEY3               NKey3               00009031VF_ELXNK3           10Object Instance Identifier 3 - Numeric  This is an optional programmatic identifier of this business object instance. The identification protocol used for the identifier is at your discretion. Type numeric at maximum (15,0) precision.                                                        00000000000000          
DEVDF_INST1  0000000UADDLISTENTRY       NKEY4               NKey4               00010031VF_ELXNK4           10Object Instance Identifier 4 - Numeric  This is an optional programmatic identifier of this business object instance. The identification protocol used for the identifier is at your discretion. Type numeric at maximum (15,0) precision.                                                        00000000000000          
DEVDF_INST1  0000000UADDLISTENTRY       NKEY5               NKey5               00011031VF_ELXNK5           10Object Instance Identifier 5 - Numeric  This is an optional programmatic identifier of this business object instance. The identification protocol used for the identifier is at your discretion. Type numeric at maximum (15,0) precision.                                                        00000000000000          
DEVDF_INST1  0000000UADDLISTENTRY       SELECTED            Selected            00012031VF_ELBOOL           10Select this business object instance    This value is set to Y (in uppercase) or N (in uppercase) to indicate whether this business object instance should be visualized as selected.                                                                                                             00000000000000          
DEVDF_INST1  0000000UADDLISTENTRY       SUBTYPE             SubType             00014031VF_ELSUBT           00Business Object Subtype                 The business object SubType                                                                                                                                                                                                                               00000000000000          
DEVDF_INST1  0000000UADDLISTENTRY       UINSTANCEIDENTIFIER uInstanceIdentifier 00035031VF_ELXUII           00Unique instance identifier for this l...                                                                                                                                                                                                                                                          00000000000000          
DEVDF_INST1  0000000UADDLISTENTRY       VISUALID1           VisualId1           00000031VF_ELXVI1           10Visual Identifier 1                     This is the first visual identifier of the business object. Alphanumeric. Maximum length 32                                                                                                                                                               00000000000000          
DEVDF_INST1  0000000UADDLISTENTRY       VISUALID2           VisualId2           00001031VF_ELXVI2           10Visual Identifier 2                     This is the optional second visual identifier of the business object. Alphanumeric. Maximum length 50                                                                                                                                                     00000000000000          
DEVDF_INST1  0000000UPDATELISTENTRYDATA ACOLUMN1            AColumn1            00003031VF_ELXCOA           00Optional Alphanumeric Column            This is an optional alphanumeric column associated with the instance list. Type alphanumeric. Maximum length 100.                                                                                                                                         00000000000000          
DEVDF_INST1  0000000UPDATELISTENTRYDATA ACOLUMN10           AColumn10           00012031VF_ELXCOA           00Optional Alphanumeric Column            This is an optional alphanumeric column associated with the instance list. Type alphanumeric. Maximum length 100.                                                                                                                                         00000000000000          
DEVDF_INST1  0000000UPDATELISTENTRYDATA ACOLUMN2            AColumn2            00004031VF_ELXCOA           00Optional Alphanumeric Column            This is an optional alphanumeric column associated with the instance list. Type alphanumeric. Maximum length 100.                                                                                                                                         00000000000000          
DEVDF_INST1  0000000UPDATELISTENTRYDATA ACOLUMN3            AColumn3            00005031VF_ELXCOA           00Optional Alphanumeric Column            This is an optional alphanumeric column associated with the instance list. Type alphanumeric. Maximum length 100.                                                                                                                                         00000000000000          
DEVDF_INST1  0000000UPDATELISTENTRYDATA ACOLUMN4            AColumn4            00006031VF_ELXCOA           00Optional Alphanumeric Column            This is an optional alphanumeric column associated with the instance list. Type alphanumeric. Maximum length 100.                                                                                                                                         00000000000000          
DEVDF_INST1  0000000UPDATELISTENTRYDATA ACOLUMN5            AColumn5            00007031VF_ELXCOA           00Optional Alphanumeric Column            This is an optional alphanumeric column associated with the instance list. Type alphanumeric. Maximum length 100.                                                                                                                                         00000000000000          
DEVDF_INST1  0000000UPDATELISTENTRYDATA ACOLUMN6            AColumn6            00008031VF_ELXCOA           00Optional Alphanumeric Column            This is an optional alphanumeric column associated with the instance list. Type alphanumeric. Maximum length 100.                                                                                                                                         00000000000000          
DEVDF_INST1  0000000UPDATELISTENTRYDATA ACOLUMN7            AColumn7            00009031VF_ELXCOA           00Optional Alphanumeric Column            This is an optional alphanumeric column associated with the instance list. Type alphanumeric. Maximum length 100.                                                                                                                                         00000000000000          
DEVDF_INST1  0000000UPDATELISTENTRYDATA ACOLUMN8            AColumn8            00010031VF_ELXCOA           00Optional Alphanumeric Column            This is an optional alphanumeric column associated with the instance list. Type alphanumeric. Maximum length 100.                                                                                                                                         00000000000000          
DEVDF_INST1  0000000UPDATELISTENTRYDATA ACOLUMN9            AColumn9            00011031VF_ELXCOA           00Optional Alphanumeric Column            This is an optional alphanumeric column associated with the instance list. Type alphanumeric. Maximum length 100.                                                                                                                                         00000000000000          
DEVDF_INST1  0000000UPDATELISTENTRYDATA NCOLUMN1            NColumn1            00013031VF_ELXCON           00Optional Numeric Column                 This is an optional numeric column associated with the instance list. Type numeric. Maximum precision is 30,9.                                                                                                                                            00000000000000          
DEVDF_INST1  0000000UPDATELISTENTRYDATA NCOLUMN10           NColumn10           00022031VF_ELXCON           00Optional Numeric Column                 This is an optional numeric column associated with the instance list. Type numeric. Maximum precision is 30,9.                                                                                                                                            00000000000000          
DEVDF_INST1  0000000UPDATELISTENTRYDATA NCOLUMN2            NColumn2            00014031VF_ELXCON           00Optional Numeric Column                 This is an optional numeric column associated with the instance list. Type numeric. Maximum precision is 30,9.                                                                                                                                            00000000000000          
DEVDF_INST1  0000000UPDATELISTENTRYDATA NCOLUMN3            NColumn3            00015031VF_ELXCON           00Optional Numeric Column                 This is an optional numeric column associated with the instance list. Type numeric. Maximum precision is 30,9.                                                                                                                                            00000000000000          
DEVDF_INST1  0000000UPDATELISTENTRYDATA NCOLUMN4            NColumn4            00016031VF_ELXCON           00Optional Numeric Column                 This is an optional numeric column associated with the instance list. Type numeric. Maximum precision is 30,9.                                                                                                                                            00000000000000          
DEVDF_INST1  0000000UPDATELISTENTRYDATA NCOLUMN5            NColumn5            00017031VF_ELXCON           00Optional Numeric Column                 This is an optional numeric column associated with the instance list. Type numeric. Maximum precision is 30,9.                                                                                                                                            00000000000000          
DEVDF_INST1  0000000UPDATELISTENTRYDATA NCOLUMN6            NColumn6            00018031VF_ELXCON           00Optional Numeric Column                 This is an optional numeric column associated with the instance list. Type numeric. Maximum precision is 30,9.                                                                                                                                            00000000000000          
DEVDF_INST1  0000000UPDATELISTENTRYDATA NCOLUMN7            NColumn7            00019031VF_ELXCON           00Optional Numeric Column                 This is an optional numeric column associated with the instance list. Type numeric. Maximum precision is 30,9.                                                                                                                                            00000000000000          
DEVDF_INST1  0000000UPDATELISTENTRYDATA NCOLUMN8            NColumn8            00020031VF_ELXCON           00Optional Numeric Column                 This is an optional numeric column associated with the instance list. Type numeric. Maximum precision is 30,9.                                                                                                                                            00000000000000          
DEVDF_INST1  0000000UPDATELISTENTRYDATA NCOLUMN9            NColumn9            00021031VF_ELXCON           00Optional Numeric Column                 This is an optional numeric column associated with the instance list. Type numeric. Maximum precision is 30,9.                                                                                                                                            00000000000000          
DEVDF_INST1  0000000UPDATELISTENTRYDATA SUBTYPE             SubType             00023031VF_ELSUBT           00Business Object Subtype                 The business object SubType                                                                                                                                                                                                                               00000000000000          
DEVDF_INST1  0000000UPDATELISTENTRYDATA UINSTANCEIDENTIFIER uInstanceIdentifier 00000031VF_ELXUII           10Unique instance identifier for this l...                                                                                                                                                                                                                                                          00000000000000          
DEVDF_INST1  0000000UPDATELISTENTRYDATA VISUALID1           VisualId1           00001031VF_ELXVI1           10Visual Identifier 1                     This is the first visual identifier of the business object. Alphanumeric. Maximum length 32                                                                                                                                                               00000000000000          
DEVDF_INST1  0000000UPDATELISTENTRYDATA VISUALID2           VisualId2           00002031VF_ELXVI2           10Visual Identifier 2                     This is the optional second visual identifier of the business object. Alphanumeric. Maximum length 50                                                                                                                                                     00000000000000          
DEVDF_INST2  0000000UADDLISTENTRY       ACOLUMN1            AColumn1            00015031VF_ELXCOA           00Optional Alphanumeric Column            This is an optional alphanumeric column associated with the instance list. Type alphanumeric. Maximum length 100.                                                                                                                                         00000000000000          
DEVDF_INST2  0000000UADDLISTENTRY       ACOLUMN10           AColumn10           00024031VF_ELXCOA           00Optional Alphanumeric Column            This is an optional alphanumeric column associated with the instance list. Type alphanumeric. Maximum length 100.                                                                                                                                         00000000000000          
DEVDF_INST2  0000000UADDLISTENTRY       ACOLUMN2            AColumn2            00016031VF_ELXCOA           00Optional Alphanumeric Column            This is an optional alphanumeric column associated with the instance list. Type alphanumeric. Maximum length 100.                                                                                                                                         00000000000000          
DEVDF_INST2  0000000UADDLISTENTRY       ACOLUMN3            AColumn3            00017031VF_ELXCOA           00Optional Alphanumeric Column            This is an optional alphanumeric column associated with the instance list. Type alphanumeric. Maximum length 100.                                                                                                                                         00000000000000          
DEVDF_INST2  0000000UADDLISTENTRY       ACOLUMN4            AColumn4            00018031VF_ELXCOA           00Optional Alphanumeric Column            This is an optional alphanumeric column associated with the instance list. Type alphanumeric. Maximum length 100.                                                                                                                                         00000000000000          
DEVDF_INST2  0000000UADDLISTENTRY       ACOLUMN5            AColumn5            00019031VF_ELXCOA           00Optional Alphanumeric Column            This is an optional alphanumeric column associated with the instance list. Type alphanumeric. Maximum length 100.                                                                                                                                         00000000000000          
DEVDF_INST2  0000000UADDLISTENTRY       ACOLUMN6            AColumn6            00020031VF_ELXCOA           00Optional Alphanumeric Column            This is an optional alphanumeric column associated with the instance list. Type alphanumeric. Maximum length 100.                                                                                                                                         00000000000000          
DEVDF_INST2  0000000UADDLISTENTRY       ACOLUMN7            AColumn7            00021031VF_ELXCOA           00Optional Alphanumeric Column            This is an optional alphanumeric column associated with the instance list. Type alphanumeric. Maximum length 100.                                                                                                                                         00000000000000          
DEVDF_INST2  0000000UADDLISTENTRY       ACOLUMN8            AColumn8            00022031VF_ELXCOA           00Optional Alphanumeric Column            This is an optional alphanumeric column associated with the instance list. Type alphanumeric. Maximum length 100.                                                                                                                                         00000000000000          
DEVDF_INST2  0000000UADDLISTENTRY       ACOLUMN9            AColumn9            00023031VF_ELXCOA           00Optional Alphanumeric Column            This is an optional alphanumeric column associated with the instance list. Type alphanumeric. Maximum length 100.                                                                                                                                         00000000000000          
DEVDF_INST2  0000000UADDLISTENTRY       AKEY1               AKey1               00002031VF_ELXAK1           10Object Instance Identifier 1 - Alpha    This is an optional  programmatic identifier of this business object instance. The identification protocol used for the identifier is at your discretion. Type alphanumeric. Maximum length 32.                                                           00000000000000          
DEVDF_INST2  0000000UADDLISTENTRY       AKEY2               AKey2               00003031VF_ELXAK2           10Object Instance Identifier 2 - Alpha    This is an optional  programmatic identifier of this business object instance. The identification protocol used for the identifier is at your discretion. Type alphanumeric. Maximum length 32.                                                           00000000000000          
DEVDF_INST2  0000000UADDLISTENTRY       AKEY3               AKey3               00004031VF_ELXAK3           10Object Instance Identifier 3 - Alpha    This is an optional  programmatic identifier of this business object instance. The identification protocol used for the identifier is at your discretion. Type alphanumeric. Maximum length 32.                                                           00000000000000          
DEVDF_INST2  0000000UADDLISTENTRY       AKEY4               AKey4               00005031VF_ELXAK4           10Object Instance Identifier 4 - Alpha    This is an optional  programmatic identifier of this business object instance. The identification protocol used for the identifier is at your discretion. Type alphanumeric. Maximum length 32.                                                           00000000000000          
DEVDF_INST2  0000000UADDLISTENTRY       AKEY5               AKey5               00006031VF_ELXAK5           10Object Instance Identifier 5 - Alpha    This is an optional  programmatic identifier of this business object instance. The identification protocol used for the identifier is at your discretion. Type alphanumeric. Maximum length 32.                                                           00000000000000          
DEVDF_INST2  0000000UADDLISTENTRY       BUSINESSOBJECTTYPE  BusinessObjectType  00013031VF_ELIDN            00User object name/type                   The user object name/type of the business object associated with this instance list entry. If specified this must specify the user object name/type of the current or a defined related business object.                                                  00000000000000          
DEVDF_INST2  0000000UADDLISTENTRY       DCOLUMN1            DColumn1            00035031VF_ELXCOD           00Optional Date Column                    This is an optional date column associated with the instance list. Type CHAR. Maximum length 19. Must be in the format YYYY-MM-DD HH:MM:SS                                                                                                                00000000000000          
DEVDF_INST2  0000000UADDLISTENTRY       DCOLUMN2            DColumn2            00036031VF_ELXCOD           00Optional Date Column                    This is an optional date column associated with the instance list. Type CHAR. Maximum length 19. Must be in the format YYYY-MM-DD HH:MM:SS                                                                                                                00000000000000          
DEVDF_INST2  0000000UADDLISTENTRY       DCOLUMN3            DColumn3            00037031VF_ELXCOD           00Optional Date Column                    This is an optional date column associated with the instance list. Type CHAR. Maximum length 19. Must be in the format YYYY-MM-DD HH:MM:SS                                                                                                                00000000000000          
DEVDF_INST2  0000000UADDLISTENTRY       DCOLUMN4            DColumn4            00038031VF_ELXCOD           00Optional Date Column                    This is an optional date column associated with the instance list. Type CHAR. Maximum length 19. Must be in the format YYYY-MM-DD HH:MM:SS                                                                                                                00000000000000          
DEVDF_INST2  0000000UADDLISTENTRY       DCOLUMN5            DColumn5            00039031VF_ELXCOD           00Optional Date Column                    This is an optional date column associated with the instance list. Type CHAR. Maximum length 19. Must be in the format YYYY-MM-DD HH:MM:SS                                                                                                                00000000000000          
DEVDF_INST2  0000000UADDLISTENTRY       NCOLUMN1            NColumn1            00025031VF_ELXCON           00Optional Numeric Column                 This is an optional numeric column associated with the instance list. Type numeric. Maximum precision is 30,9.                                                                                                                                            00000000000000          
DEVDF_INST2  0000000UADDLISTENTRY       NCOLUMN10           NColumn10           00034031VF_ELXCON           00Optional Numeric Column                 This is an optional numeric column associated with the instance list. Type numeric. Maximum precision is 30,9.                                                                                                                                            00000000000000          
DEVDF_INST2  0000000UADDLISTENTRY       NCOLUMN2            NColumn2            00026031VF_ELXCON           00Optional Numeric Column                 This is an optional numeric column associated with the instance list. Type numeric. Maximum precision is 30,9.                                                                                                                                            00000000000000          
DEVDF_INST2  0000000UADDLISTENTRY       NCOLUMN3            NColumn3            00027031VF_ELXCON           00Optional Numeric Column                 This is an optional numeric column associated with the instance list. Type numeric. Maximum precision is 30,9.                                                                                                                                            00000000000000          
DEVDF_INST2  0000000UADDLISTENTRY       NCOLUMN4            NColumn4            00028031VF_ELXCON           00Optional Numeric Column                 This is an optional numeric column associated with the instance list. Type numeric. Maximum precision is 30,9.                                                                                                                                            00000000000000          
DEVDF_INST2  0000000UADDLISTENTRY       NCOLUMN5            NColumn5            00029031VF_ELXCON           00Optional Numeric Column                 This is an optional numeric column associated with the instance list. Type numeric. Maximum precision is 30,9.                                                                                                                                            00000000000000          
DEVDF_INST2  0000000UADDLISTENTRY       NCOLUMN6            NColumn6            00030031VF_ELXCON           00Optional Numeric Column                 This is an optional numeric column associated with the instance list. Type numeric. Maximum precision is 30,9.                                                                                                                                            00000000000000          
DEVDF_INST2  0000000UADDLISTENTRY       NCOLUMN7            NColumn7            00031031VF_ELXCON           00Optional Numeric Column                 This is an optional numeric column associated with the instance list. Type numeric. Maximum precision is 30,9.                                                                                                                                            00000000000000          
DEVDF_INST2  0000000UADDLISTENTRY       NCOLUMN8            NColumn8            00032031VF_ELXCON           00Optional Numeric Column                 This is an optional numeric column associated with the instance list. Type numeric. Maximum precision is 30,9.                                                                                                                                            00000000000000          
DEVDF_INST2  0000000UADDLISTENTRY       NCOLUMN9            NColumn9            00033031VF_ELXCON           00Optional Numeric Column                 This is an optional numeric column associated with the instance list. Type numeric. Maximum precision is 30,9.                                                                                                                                            00000000000000          
DEVDF_INST2  0000000UADDLISTENTRY       NKEY1               NKey1               00007031VF_ELXNK1           10Object Instance Identifier 1 - Numeric  This is an optional programmatic identifier of this business object instance. The identification protocol used for the identifier is at your discretion. Type numeric at maximum (15,0) precision.                                                        00000000000000          
DEVDF_INST2  0000000UADDLISTENTRY       NKEY2               NKey2               00008031VF_ELXNK2           10Object Instance Identifier 2 - Numeric  This is an optional programmatic identifier of this business object instance. The identification protocol used for the identifier is at your discretion. Type numeric at maximum (15,0) precision.                                                        00000000000000          
DEVDF_INST2  0000000UADDLISTENTRY       NKEY3               NKey3               00009031VF_ELXNK3           10Object Instance Identifier 3 - Numeric  This is an optional programmatic identifier of this business object instance. The identification protocol used for the identifier is at your discretion. Type numeric at maximum (15,0) precision.                                                        00000000000000          
DEVDF_INST2  0000000UADDLISTENTRY       NKEY4               NKey4               00010031VF_ELXNK4           10Object Instance Identifier 4 - Numeric  This is an optional programmatic identifier of this business object instance. The identification protocol used for the identifier is at your discretion. Type numeric at maximum (15,0) precision.                                                        00000000000000          
DEVDF_INST2  0000000UADDLISTENTRY       NKEY5               NKey5               00011031VF_ELXNK5           10Object Instance Identifier 5 - Numeric  This is an optional programmatic identifier of this business object instance. The identification protocol used for the identifier is at your discretion. Type numeric at maximum (15,0) precision.                                                        00000000000000          
DEVDF_INST2  0000000UADDLISTENTRY       SELECTED            Selected            00012031VF_ELBOOL           10Select this business object instance    This value is set to Y (in uppercase) or N (in uppercase) to indicate whether this business object instance should be visualized as selected.                                                                                                             00000000000000          
DEVDF_INST2  0000000UADDLISTENTRY       SUBTYPE             SubType             00014031VF_ELSUBT           00Business Object Subtype                 The business object SubType                                                                                                                                                                                                                               00000000000000          
DEVDF_INST2  0000000UADDLISTENTRY       UINSTANCEIDENTIFIER uInstanceIdentifier 00040031VF_ELXUII           00Unique instance identifier for this l...                                                                                                                                                                                                                                                          00000000000000          
DEVDF_INST2  0000000UADDLISTENTRY       VISUALID1           VisualId1           00000031VF_ELXVI1           10Visual Identifier 1                     This is the first visual identifier of the business object. Alphanumeric. Maximum length 32                                                                                                                                                               00000000000000          
DEVDF_INST2  0000000UADDLISTENTRY       VISUALID2           VisualId2           00001031VF_ELXVI2           10Visual Identifier 2                     This is the optional second visual identifier of the business object. Alphanumeric. Maximum length 50                                                                                                                                                     00000000000000          
DEVDF_MSGQ   0000000ACTIONREQUESTED     ACTIONMESSAGE       ActionMessage       00000021DF_MSGQA            11                                                                                                                                                                                                                                                                                                  00000000000000          
DEVDF_MSGQ   0000000ACTIONREQUESTED     MESSAGEQUEUE        MessageQueue        00001021VF_ELOBJ            10                                                                                                                                                                                                                                                                                                  00000000000000          
DEVDF_MSGQ   0000000ADDMESSAGE          ID                  Id                  00004031VF_ELCHR7           10                                                                                                                                                                                                                                                                                                  00000000000000          
DEVDF_MSGQ   0000000ADDMESSAGE          MESSAGEKEY          MessageKey          00003031VF_ELOBJ            10                                                                                                                                                                                                                                                                                                  00000000000000          
DEVDF_MSGQ   0000000ADDMESSAGE          SECONDTEXT          SecondText          00001031VF_ELURLX           10                                                                                                                                                                                                                                                                                                  00000000000000          
DEVDF_MSGQ   0000000ADDMESSAGE          SENDERINFO          SenderInfo          00002031VF_ELURL            10                                                                                                                                                                                                                                                                                                  00000000000000          
DEVDF_MSGQ   0000000ADDMESSAGE          SEVERITY            severity            00005031VF_ELNUM            10                                                                                                                                                                                                                                                                                                  00000000000000          
DEVDF_MSGQ   0000000ADDMESSAGE          TEXT                Text                00000031VF_ELURL            10                                                                                                                                                                                                                                                                                                  00000000000000          
DEVDF_MSGQ   0000000ADDMESSAGE          TREEITEM            TreeItem            00007032PRIM_TVIT           01                                                                                                                                                                                                                                                                                                  00000000000000          
DEVDF_MSGQ   0000000ADDMESSAGE          TYPE                Type                00006031VF_ELFLAG           10                                                                                                                                                                                                                                                                                                  00000000000000          
DEVDF_MSGQ   0000000CALL_SERVERHANDLER  CALLOKAY            CallOkay            00002034PRIM_BOLN           00                                                                                                                                                                                                                                                                                                  00000000000000          
DEVDF_MSGQ   0000000CALL_SERVERHANDLER  DEFAULTERRORTEXT    DefaultErrorText    00001031PRIM_ALPH           00                                                                                                                                                                                                                                                                                                  00000000000000          
DEVDF_MSGQ   0000000CALL_SERVERHANDLER  ROUTEERRORMESSAGES  RouteErrorMessages  00000031VF_ELSTAT           10                                                                                                                                                                                                                                                                                                  00000000000000          
DEVDF_MSGQ   0000000MESSAGESENDER       NAME                name                00000034STD_OBJ             10                                                                                                                                                                                                                                                                                                  00000000000000          
DEVDF_MSGQ   0000000REFRESHDISPLAY      REDISPLAYMAINFORM   RedisplayMainForm   00000031PRIM_BOLN           10                                                                                                                                                                                                                                                                                                  00000000000000          
DEVDF_MSGQ   0000000SENDACTIONMESSAGE   ACTIONMESSAGE       ActionMessage       00000031DF_MSGQA            11                                                                                                                                                                                                                                                                                                  00000000000000          
DEVDF_MSGQ   0000000SENDACTIONMESSAGE   SENTOKAY            SentOkay            00001032PRIM_BOLN           10                                                                                                                                                                                                                                                                                                  00000000000000          
DEVDF_MSGQ   0000000SENDMESSAGE         MESSAGE             Message             00001031VF_ELURL            10                                                                                                                                                                                                                                                                                                  00000000000000          
DEVDF_MSGQ   0000000SENDMESSAGE         REPLYQUEUE          ReplyQueue          00003031VF_ELOBJ            00                                                                                                                                                                                                                                                                                                  00000000000000          
DEVDF_MSGQ   0000000SENDMESSAGE         SENTOKAY            SentOkay            00004032PRIM_BOLN           00                                                                                                                                                                                                                                                                                                  00000000000000          
DEVDF_MSGQ   0000000SENDMESSAGE         TOQUEUE             ToQueue             00002031VF_ELOBJ            10                                                                                                                                                                                                                                                                                                  00000000000000          
DEVDF_MSGQ   0000000SENDMESSAGE         TYPE                Type                00000031VF_ELSTAT           10                                                                                                                                                                                                                                                                                                  00000000000000          
DEVDF_MSGQ   0000000UINITIALIZE         FOLDERICON          FolderIcon          00002031PRIM_ICON           11                                                                                                                                                                                                                                                                                                  00000000000000          
DEVDF_MSGQ   0000000UINITIALIZE         MESSAGEFORM         MessageForm         00001031DF_MSGQF            11                                                                                                                                                                                                                                                                                                  00000000000000          
DEVDF_MSGQ   0000000UINITIALIZE         MESSAGEQUEUE        MessageQueue        00000031VF_ELOBJ            10                                                                                                                                                                                                                                                                                                  00000000000000          
DEVDF_MSGQA  0000000ADDMESSAGEQUEUE     NAMED               Named               00000031VF_ELOBJ            10                                                                                                                                                                                                                                                                                                  00000000000000          
DEVDF_MSGQA  0000000GETMESSAGEQUEUE     FOUND               Found               00002034PRIM_BOLN           10                                                                                                                                                                                                                                                                                                  00000000000000          
DEVDF_MSGQA  0000000GETMESSAGEQUEUE     QUEUENAME           QueueName           00001032VF_ELOBJ            10                                                                                                                                                                                                                                                                                                  00000000000000          
DEVDF_MSGQA  0000000GETMESSAGEQUEUE     WITHINDEX           WithIndex           00000033VF_ELINDX           10                                                                                                                                                                                                                                                                                                  00000000000000          
DEVDF_MSGQA  0000000GETVALUE            VALUE               Value               00001034PRIM_ALPH           10                                                                                                                                                                                                                                                                                                  00000000000000          
DEVDF_MSGQA  0000000GETVALUE            WITHNAME            WithName            00000031VF_ELIDN            10                                                                                                                                                                                                                                                                                                  00000000000000          
DEVDF_MSGQA  0000000SERIALIZE           INTO                Into                00000034PRIM_ALPH           10                                                                                                                                                                                                                                                                                                  00000000000000          
DEVDF_MSGQA  0000000SETVALUE            TOVALUE             ToValue             00001031PRIM_ALPH           10                                                                                                                                                                                                                                                                                                  00000000000000          
DEVDF_MSGQA  0000000SETVALUE            WITHNAME            WithName            00000031VF_ELIDN            10                                                                                                                                                                                                                                                                                                  00000000000000          
DEVDF_MSGQA  0000000TEXT                TEXT                Text                0000001 VF_ELAVAL            0                                                                                                                                                                                                                                                                                                  00000000000000          
DEVDF_MSGQA  0000000UNSERIALIZE         FROM                From                00000031PRIM_ALPH           10                                                                                                                                                                                                                                                                                                  00000000000000          
DEVDF_MSGQF  0000000ACTIONQUEUE         ACTIONQUEUE         ActionQueue         0000001 STD_OBJ              0                                                                                                                                                                                                                                                                                                  00000000000000          
DEVDF_MSGQF  0000000ACTIONREQUESTED     ACTIONMESSAGE       ActionMessage       00000021DF_MSGQA            11                                                                                                                                                                                                                                                                                                  00000000000000          
DEVDF_MSGQF  0000000ACTIONREQUESTED     MESSAGEQUEUE        MessageQueue        00001021VF_ELOBJ            10                                                                                                                                                                                                                                                                                                  00000000000000          
DEVDF_MSGQF  0000000ACTIONREQUESTEDDELAYACTIONMESSAGE       ActionMessage       00000021DF_MSGQA            11                                                                                                                                                                                                                                                                                                  00000000000000          
DEVDF_MSGQF  0000000ACTIONREQUESTEDDELAYMESSAGEQUEUE        MessageQueue        00001021VF_ELOBJ            10                                                                                                                                                                                                                                                                                                  00000000000000          
DEVDF_MSGQF  0000000CHATQUEUE           CHATQUEUE           ChatQueue           0000001 STD_OBJ              0                                                                                                                                                                                                                                                                                                  00000000000000          
DEVDF_MSGQF  0000000DECODEEMPLOYEEACTIONACTIONMESSAGE       Actionmessage       00000031DF_MSGQA            11                                                                                                                                                                                                                                                                                                  00000000000000          
DEVDF_MSGQF  0000000DECODEEMPLOYEEACTIONEMPLOYEENUMBER      EmployeeNumber      00001032EMPNO               10                                                                                                                                                                                                                                                                                                  00000000000000          
DEVDF_MSGQF  0000000DECODEEMPLOYEEACTIONISEMPLOYEEACTION    IsEmployeeAction    00002034PRIM_BOLN           10                                                                                                                                                                                                                                                                                                  00000000000000          
DEVDF_MSGQF  0000000GET_ACTIONQUEUE     RESULT              Result              00000042STD_OBJ             10                                                                                                                                                                                                                                                                                                  00000000000000          
DEVDF_MSGQF  0000000GET_CHATQUEUE       RESULT              Result              00000042STD_OBJ             10                                                                                                                                                                                                                                                                                                  00000000000000          
DEVDF_MSGQF  0000000QUEUECHECKINTERVAL  QUEUECHECKINTERVAL  QueueCheckInterval  0000001 VF_ELINDX            0                                                                                                                                                                                                                                                                                                  00000000000000          
DEVDF_MSGQF  0000000SENDACTIONMESSAGE   FROM                From                00000031DF_MSGQA            11                                                                                                                                                                                                                                                                                                  00000000000000          
DEVDF_MSGQF  0000000SENDACTIONMESSAGE   SENTOKAY            SentOkay            00001034PRIM_BOLN           00                                                                                                                                                                                                                                                                                                  00000000000000          
DEVDF_MSGQF  0000000SENDEMPLOYEEACTION  EMPLOYEENUMBER      EmployeeNumber      00001031EMPNO               10                                                                                                                                                                                                                                                                                                  00000000000000          
DEVDF_MSGQF  0000000SENDEMPLOYEEACTION  TEXT                Text                00000031PRIM_ALPH           10                                                                                                                                                                                                                                                                                                  00000000000000          
DEVDF_MSGQF  0000000SIGACTIONREQUESTED  ACTIONMESSAGE       actionMessage       00000031DF_MSGQA            11                                                                                                                                                                                                                                                                                                  00000000000000          
DEVDF_MSGQF  0000000SIGACTIONREQUESTED  VIAMESSAGEQUEUE     viamessagequeue     00001031VF_ELOBJ            10                                                                                                                                                                                                                                                                                                  00000000000000          
DEVDF_MSGQF  0000000UADDMESSAGEQUEUE    FOLDERICON          FolderIcon          00001031PRIM_ICON           11                                                                                                                                                                                                                                                                                                  00000000000000          
DEVDF_MSGQF  0000000UADDMESSAGEQUEUE    MESSAGEQUEUE        MessageQueue        00000031VF_ELOBJ            10                                                                                                                                                                                                                                                                                                  00000000000000          
DEVDF_MSGQF  0000000UREMOVEMESSAGEQUEUE MESSAGEQUEUE        MessageQueue        00000031VF_ELOBJ            10                                                                                                                                                                                                                                                                                                  00000000000000          
DEVDF_MSGQF  0000000USHOW               MAINWINDOWALSO      MainWindowAlso      00000031PRIM_BOLN           10                                                                                                                                                                                                                                                                                                  00000000000000          
DEVDF_PRM01  0000000USHOW               HEIGHT              Height              00002031VF_ELNUM            00                                                                                                                                                                                                                                                                                                  00000000000000          
DEVDF_PRM01  0000000USHOW               LEFT                Left                00001031VF_ELNUM            00                                                                                                                                                                                                                                                                                                  00000000000000          
DEVDF_PRM01  0000000USHOW               TOP                 Top                 00000031VF_ELNUM            00                                                                                                                                                                                                                                                                                                  00000000000000          
DEVDF_PRM01  0000000USHOW               WIDTH               Width               00003031VF_ELNUM            00                                                                                                                                                                                                                                                                                                  00000000000000          
DEVDF_PRM02  0000000CREATERADIOBUTTON   CODE                Code                00000031STD_CODE            10                                                                                                                                                                                                                                                                                                  00000000000000          
DEVDF_PRM02  0000000CREATERADIOBUTTON   DESCRIPTION         Description         00001031STD_DESC            10                                                                                                                                                                                                                                                                                                  00000000000000          
DEVDF_PRM02  0000000USHOW               HEIGHT              Height              00002031VF_ELNUM            00                                                                                                                                                                                                                                                                                                  00000000000000          
DEVDF_PRM02  0000000USHOW               LEFT                Left                00001031VF_ELNUM            00                                                                                                                                                                                                                                                                                                  00000000000000          
DEVDF_PRM02  0000000USHOW               TOP                 Top                 00000031VF_ELNUM            00                                                                                                                                                                                                                                                                                                  00000000000000          
DEVDF_PRM02  0000000USHOW               WIDTH               Width               00003031VF_ELNUM            00                                                                                                                                                                                                                                                                                                  00000000000000          
DEVDF_PRM03  0000000USHOW               HEIGHT              Height              00002031VF_ELNUM            00                                                                                                                                                                                                                                                                                                  00000000000000          
DEVDF_PRM03  0000000USHOW               LEFT                Left                00001031VF_ELNUM            00                                                                                                                                                                                                                                                                                                  00000000000000          
DEVDF_PRM03  0000000USHOW               TOP                 Top                 00000031VF_ELNUM            00                                                                                                                                                                                                                                                                                                  00000000000000          
DEVDF_PRM03  0000000USHOW               WIDTH               Width               00003031VF_ELNUM            00                                                                                                                                                                                                                                                                                                  00000000000000          
DEVDF_PRM04  0000000USHOW               HEIGHT              Height              00002031VF_ELNUM            00                                                                                                                                                                                                                                                                                                  00000000000000          
DEVDF_PRM04  0000000USHOW               LEFT                Left                00001031VF_ELNUM            00                                                                                                                                                                                                                                                                                                  00000000000000          
DEVDF_PRM04  0000000USHOW               TOP                 Top                 00000031VF_ELNUM            00                                                                                                                                                                                                                                                                                                  00000000000000          
DEVDF_PRM04  0000000USHOW               WIDTH               Width               00003031VF_ELNUM            00                                                                                                                                                                                                                                                                                                  00000000000000          
DEVDF_PRM05  0000000SELECTITEM          FINISHED            Finished            00000031PRIM_BOLN           10                                                                                                                                                                                                                                                                                                  00000000000000          
DEVDF_PRM05  0000000USHOW               HEIGHT              Height              00002031VF_ELNUM            00                                                                                                                                                                                                                                                                                                  00000000000000          
DEVDF_PRM05  0000000USHOW               LEFT                Left                00001031VF_ELNUM            00                                                                                                                                                                                                                                                                                                  00000000000000          
