DEVDF_DDDEP  0000000ULOADDEPARTMENT     uLoadDepartment     10                                                                                                                                                                                                                                                                                                  00000000000000          
DEVDF_DET15  0000000GETCURRENTBOBJECT   GetCurrentBObject   10                                                                                                                                                                                                                                                                                                  00000000000000          
DEVDF_DET15  0000000GETSELECTEDBOBJECTS GetSelectedBObjects 10                                                                                                                                                                                                                                                                                                  00000000000000          
DEVDF_DET15  0000000UEXECUTE            uExecute            11                                                                                                                                                                                                                                                                                                  00000000000000          
DEVDF_DET17  0000000UEXECUTE            uExecute            11                                                                                                                                                                                                                                                                                                  00000000000000          
DEVDF_DET21  0000000UEXECUTE            uExecute            11                                                                                                                                                                                                                                                                                                  00000000000000          
DEVDF_DET21  0000000UINITIALIZE         uInitialize         11                                                                                                                                                                                                                                                                                                  00000000000000          
DEVDF_DET21  0000000UTERMINATE          uTerminate          11                                                                                                                                                                                                                                                                                                  00000000000000          
DEVDF_DET22  0000000GETALLBOBJECTS      GetAllBObjects      10                                                                                                                                                                                                                                                                                                  00000000000000          
DEVDF_DET22  0000000UEXECUTE            uExecute            11                                                                                                                                                                                                                                                                                                  00000000000000          
DEVDF_DET32  0000000LOADNOTES           LoadNotes           10                                        Loads the notes for the current instance. Creates new notes if no file exists.                                                                                                                                                                            00000000000000          
DEVDF_DET32  0000000UEXECUTE            uExecute            11                                                                                                                                                                                                                                                                                                  00000000000000          
DEVDF_DET34  0000000UCOPYEXAMPLEFILE    uCopyExampleFile    10                                                                                                                                                                                                                                                                                                  00000000000000          
DEVDF_DET34  0000000UEXECUTE            uExecute            11                                                                                                                                                                                                                                                                                                  00000000000000          
DEVDF_DET34  0000000UINITIALIZE         uInitialize         11                                                                                                                                                                                                                                                                                                  00000000000000          
DEVDF_DET34  0000000UTERMINATE          uTerminate          11                                                                                                                                                                                                                                                                                                  00000000000000          
DEVDF_DET35  0000000ADDHHCELL           AddHHCell           10                                                                                                                                                                                                                                                                                                  00000000000000          
DEVDF_DET35  0000000ADDTHROW            AddTHRow            10                                                                                                                                                                                                                                                                                                  00000000000000          
DEVDF_DET35  0000000ADDTOTALS           AddTotals           10                                                                                                                                                                                                                                                                                                  00000000000000          
DEVDF_DET35  0000000ADDTSKCELL          AddTSKCell          10                                                                                                                                                                                                                                                                                                  00000000000000          
DEVDF_DET35  0000000FINDQTOTAL          FindQTotal          10                                                                                                                                                                                                                                                                                                  00000000000000          
DEVDF_DET35  0000000FINDWTOTAL          FindWTotal          10                                                                                                                                                                                                                                                                                                  00000000000000          
DEVDF_DET35  0000000HIDECOLUMN          HideColumn          10                                                                                                                                                                                                                                                                                                  00000000000000          
DEVDF_DET35  0000000INITTIMESHEET       InitTimeSheet       10                                                                                                                                                                                                                                                                                                  00000000000000          
DEVDF_DET35  0000000MAKETABLE           MakeTable           10                                                                                                                                                                                                                                                                                                  00000000000000          
DEVDF_DET35  0000000SETCOLUMN           SetColumn           10                                                                                                                                                                                                                                                                                                  00000000000000          
DEVDF_DET35  0000000SETWEEKCAPTION      SetWeekCaption      10                                                                                                                                                                                                                                                                                                  00000000000000          
DEVDF_DET35  0000000SHOWQUARTER         ShowQuarter         10                                                                                                                                                                                                                                                                                                  00000000000000          
DEVDF_DET35  0000000SHOWWEEK            ShowWeek            10                                                                                                                                                                                                                                                                                                  00000000000000          
DEVDF_DET35  0000000SHOWYEAR            ShowYear            10                                                                                                                                                                                                                                                                                                  00000000000000          
DEVDF_DET35  0000000UADDTOTREE          uAddToTree          10                                                                                                                                                                                                                                                                                                  00000000000000          
DEVDF_DET35  0000000UEXECUTE            uExecute            11                                                                                                                                                                                                                                                                                                  00000000000000          
DEVDF_DET35  0000000UINITIALIZE         uInitialize         11                                                                                                                                                                                                                                                                                                  00000000000000          
DEVDF_DET35  0000000UPDTIMESHEET        UpdTimesheet        10                                                                                                                                                                                                                                                                                                  00000000000000          
DEVDF_DET39  0000000UEXECUTE            uExecute            11                                                                                                                                                                                                                                                                                                  00000000000000          
DEVDF_DET39  0000000UINITIALIZE         uInitialize         11                                                                                                                                                                                                                                                                                                  00000000000000          
DEVDF_DET39  0000000UTERMINATE          uTerminate          11                                                                                                                                                                                                                                                                                                  00000000000000          
DEVDF_DET40  0000000UCHECKENABLEMENT    uCheckEnablement    10                                                                                                                                                                                                                                                                                                  00000000000000          
DEVDF_DET40  0000000UEXECUTE            uExecute            11                                                                                                                                                                                                                                                                                                  00000000000000          
DEVDF_DET40  0000000UINITIALIZE         uInitialize         11                                                                                                                                                                                                                                                                                                  00000000000000          
DEVDF_DET40  0000000ULOAD_WAREHOUSE     uLoad_Warehouse     10                                                                                                                                                                                                                                                                                                  00000000000000          
DEVDF_DET43  0000000EXECUTEFILE         ExecuteFile         10                                                                                                                                                                                                                                                                                                  00000000000000          
DEVDF_DET43  0000000MAKETEMPFILENAME    MakeTempFileName    10                                                                                                                                                                                                                                                                                                  00000000000000          
DEVDF_DET44  0000000UEXECUTE            uExecute            11                                                                                                                                                                                                                                                                                                  00000000000000          
DEVDF_DET45  0000000UEXECUTE            uExecute            11                                                                                                                                                                                                                                                                                                  00000000000000          
DEVDF_DET46  0000000UEXECUTE            uExecute            11                                                                                                                                                                                                                                                                                                  00000000000000          
DEVDF_DET47  0000000UEXECUTE            uExecute            11                                                                                                                                                                                                                                                                                                  00000000000000          
DEVDF_DET48  0000000UEXECUTE            uExecute            11                                                                                                                                                                                                                                                                                                  00000000000000          
DEVDF_DET8   0000000UEXECUTE            uExecute            11                                                                                                                                                                                                                                                                                                  00000000000000          
DEVDF_DLDEP  0000000ULOADDEPARTMENT     uLoadDepartment     10                                                                                                                                                                                                                                                                                                  00000000000000          
DEVDF_DLDEP  0000000USETHINT            uSetHint            10                                                                                                                                                                                                                                                                                                  00000000000000          
DEVDF_DLSKL  0000000ULOAD               uLoad               10                                                                                                                                                                                                                                                                                                  00000000000000          
DEVDF_FILT1  0000000UACCEPTFOCUS        uAcceptFocus        11                                                                                                                                                                                                                                                                                                  00000000000000          
DEVDF_FILT5  0000000UINITIALIZE         uInitialize         11                                                                                                                                                                                                                                                                                                  00000000000000          
DEVDF_FILT7  0000000UINITIALIZE         uInitialize         11                                                                                                                                                                                                                                                                                                  00000000000000          
DEVDF_INST1  0000000UACCEPTFOCUS        uAcceptFocus        11                                                                                                                                                                                                                                                                                                  00000000000000          
DEVDF_INST1  0000000UADDLISTENTRY       uAddListEntry       11                                                                                                                                                                                                                                                                                                  00000000000000          
DEVDF_INST1  0000000UCLEARINSTANCELIST  uClearInstanceList  11                                                                                                                                                                                                                                                                                                  00000000000000          
DEVDF_INST1  0000000UPDATELISTENTRYDATA UpdateListEntryData 11                                                                                                                                                                                                                                                                                                  00000000000000          
DEVDF_INST2  0000000UADDLISTENTRY       uAddListEntry       11                                                                                                                                                                                                                                                                                                  00000000000000          
DEVDF_INST2  0000000UCLEARINSTANCELIST  uClearInstanceList  11                                                                                                                                                                                                                                                                                                  00000000000000          
DEVDF_MSGQ   0000000ADDMESSAGE          AddMessage          10                                                                                                                                                                                                                                                                                                  00000000000000          
DEVDF_MSGQ   0000000CALL_SERVERHANDLER  Call_ServerHandler  10                                                                                                                                                                                                                                                                                                  00000000000000          
DEVDF_MSGQ   0000000ENABLESENDBUTTONS   EnableSendButtons   10                                                                                                                                                                                                                                                                                                  00000000000000          
DEVDF_MSGQ   0000000GETHINT             GetHint             10                                                                                                                                                                                                                                                                                                  00000000000000          
DEVDF_MSGQ   0000000GETQUEUENAMES       GetQueueNames       10                                                                                                                                                                                                                                                                                                  00000000000000          
DEVDF_MSGQ   0000000MESSAGESENDER       MessageSender       30                                                                                                                                                                                                                                                                                                  00000000000000          
DEVDF_MSGQ   0000000REFRESHDISPLAY      RefreshDisplay      10                                                                                                                                                                                                                                                                                                  00000000000000          
DEVDF_MSGQ   0000000SELECTMESSAGE       SelectMessage       30                                                                                                                                                                                                                                                                                                  00000000000000          
DEVDF_MSGQ   0000000SENDACTIONMESSAGE   SendActionMessage   10                                                                                                                                                                                                                                                                                                  00000000000000          
DEVDF_MSGQ   0000000SENDMESSAGE         Sendmessage         30                                                                                                                                                                                                                                                                                                  00000000000000          
DEVDF_MSGQ   0000000UINITIALIZE         uInitialize         10                                                                                                                                                                                                                                                                                                  00000000000000          
DEVDF_MSGQ   0000000UNSELECTMESSAGE     UnSelectMessage     30                                                                                                                                                                                                                                                                                                  00000000000000          
DEVDF_MSGQ   0000000UTERMINATE          uTerminate          10                                                                                                                                                                                                                                                                                                  00000000000000          
DEVDF_MSGQA  0000000ADDMESSAGEQUEUE     AddMessageQueue     10                                                                                                                                                                                                                                                                                                  00000000000000          
DEVDF_MSGQA  0000000GETMESSAGEQUEUE     GetMessageQueue     10                                                                                                                                                                                                                                                                                                  00000000000000          
DEVDF_MSGQA  0000000GETVALUE            GetValue            10                                                                                                                                                                                                                                                                                                  00000000000000          
DEVDF_MSGQA  0000000SERIALIZE           Serialize           10                                                                                                                                                                                                                                                                                                  00000000000000          
DEVDF_MSGQA  0000000SETVALUE            SetValue            10                                                                                                                                                                                                                                                                                                  00000000000000          
DEVDF_MSGQA  0000000UINITIALIZE         uInitialize         10                                                                                                                                                                                                                                                                                                  00000000000000          
DEVDF_MSGQA  0000000UNSERIALIZE         Unserialize         10                                                                                                                                                                                                                                                                                                  00000000000000          
DEVDF_MSGQA  0000000UTERMINATE          uTerminate          10                                                                                                                                                                                                                                                                                                  00000000000000          
DEVDF_MSGQF  0000000CLOSE               Close               10                                                                                                                                                                                                                                                                                                  00000000000000          
DEVDF_MSGQF  0000000DECODEEMPLOYEEACTIONDecodeEmployeeAction10                                                                                                                                                                                                                                                                                                  00000000000000          
DEVDF_MSGQF  0000000SENDACTIONMESSAGE   SendActionMessage   10                                                                                                                                                                                                                                                                                                  00000000000000          
DEVDF_MSGQF  0000000SENDEMPLOYEEACTION  SendEmployeeAction  10                                                                                                                                                                                                                                                                                                  00000000000000          
DEVDF_MSGQF  0000000SIGACTIONREQUESTED  SigActionRequested  10                                                                                                                                                                                                                                                                                                  00000000000000          
DEVDF_MSGQF  0000000UADDMESSAGEQUEUE    uAddMessageQueue    10                                                                                                                                                                                                                                                                                                  00000000000000          
DEVDF_MSGQF  0000000UHIDE               uHide               10                                                                                                                                                                                                                                                                                                  00000000000000          
DEVDF_MSGQF  0000000UINITIALIZE         uInitialize         10                                                                                                                                                                                                                                                                                                  00000000000000          
DEVDF_MSGQF  0000000UREMOVEMESSAGEQUEUE uRemoveMessageQueue 10                                                                                                                                                                                                                                                                                                  00000000000000          
DEVDF_MSGQF  0000000USHOW               uShow               10                                                                                                                                                                                                                                                                                                  00000000000000          
DEVDF_MSGQF  0000000UTERMINATE          uTerminate          10                                                                                                                                                                                                                                                                                                  00000000000000          
DEVDF_MSGQS  0000000UEXECUTE            uExecute            11                                                                                                                                                                                                                                                                                                  00000000000000          
DEVDF_NLOOK  0000000UEXECUTE            uExecute            11                                                                                                                                                                                                                                                                                                  00000000000000          
DEVDF_NLOOK  0000000UINITIALIZE         uInitialize         11                                                                                                                                                                                                                                                                                                  00000000000000          
DEVDF_NLOOK  0000000UTERMINATE          uTerminate          11                                                                                                                                                                                                                                                                                                  00000000000000          
DEVDF_PRM01  0000000SELECTITEM          SelectItem          10                                                                                                                                                                                                                                                                                                  00000000000000          
DEVDF_PRM01  0000000UINITIALIZE         uInitialize         11                                                                                                                                                                                                                                                                                                  00000000000000          
DEVDF_PRM01  0000000USHOW               uShow               11                                                                                                                                                                                                                                                                                                  00000000000000          
DEVDF_PRM02  0000000CREATERADIOBUTTON   CreateRadioButton   10                                                                                                                                                                                                                                                                                                  00000000000000          
DEVDF_PRM02  0000000UINITIALIZE         uInitialize         11                                                                                                                                                                                                                                                                                                  00000000000000          
DEVDF_PRM02  0000000USHOW               uShow               11                                                                                                                                                                                                                                                                                                  00000000000000          
DEVDF_PRM03  0000000USHOW               uShow               11                                                                                                                                                                                                                                                                                                  00000000000000          
DEVDF_PRM04  0000000UINITIALIZE         uInitialize         11                                                                                                                                                                                                                                                                                                  00000000000000          
DEVDF_PRM04  0000000USHOW               uShow               11                                                                                                                                                                                                                                                                                                  00000000000000          
DEVDF_PRM05  0000000SELECTITEM          SelectItem          10                                                                                                                                                                                                                                                                                                  00000000000000          
DEVDF_PRM05  0000000UINITIALIZE         uInitialize         11                                                                                                                                                                                                                                                                                                  00000000000000          
DEVDF_PRM05  0000000USHOW               uShow               11                                                                                                                                                                                                                                                                                                  00000000000000          
DEVDF_PRM06  0000000USHOW               uShow               11                                                                                                                                                                                                                                                                                                  00000000000000          
DEVDF_PRM07  0000000POSTDATE            PostDate            10                                                                                                                                                                                                                                                                                                  00000000000000          
DEVDF_PRM07  0000000SETCALENDAR         SetCalendar         10                                                                                                                                                                                                                                                                                                  00000000000000          
DEVDF_PRM07  0000000USHOW               uShow               11                                                                                                                                                                                                                                                                                                  00000000000000          
DEVDF_T0000  0000000UEXECUTE            uExecute            11                                                                                                                                                                                                                                                                                                  00000000000000          
DEVDF_T0001  0000000UEXECUTE            uExecute            11                                                                                                                                                                                                                                                                                                  00000000000000          
DEVDF_T0002  0000000UEXECUTE            uExecute            11                                                                                                                                                                                                                                                                                                  00000000000000          
DEVDF_T0003  0000000UEXECUTE            uExecute            11                                                                                                                                                                                                                                                                                                  00000000000000          
DEVDF_T0004  0000000UEXECUTE            uExecute            11                                                                                                                                                                                                                                                                                                  00000000000000          
DEVDF_T0004  0000000UINITIALIZE         uInitialize         11                                                                                                                                                                                                                                                                                                  00000000000000          
DEVDF_T0004  0000000UTERMINATE          uTerminate          11                                                                                                                                                                                                                                                                                                  00000000000000          
DEVDF_T0005  0000000UEXECUTE            uExecute            11                                                                                                                                                                                                                                                                                                  00000000000000          
DEVDF_T0005  0000000UINITIALIZE         uInitialize         11                                                                                                                                                                                                                                                                                                  00000000000000          
DEVDF_T0005  0000000UTERMINATE          uTerminate          11                                                                                                                                                                                                                                                                                                  00000000000000          
DEVDF_T0006  0000000UEXECUTE            uExecute            11                                                                                                                                                                                                                                                                                                  00000000000000          
DEVDF_T0007  0000000UEXECUTE            uExecute            11                                                                                                                                                                                                                                                                                                  00000000000000          
DEVDF_T0012  0000000UINITIALIZE         uInitialize         11                                                                                                                                                                                                                                                                                                  00000000000000          
DEVDF_T0101  0000000UEXECUTE            uExecute            11                                                                                                                                                                                                                                                                                                  00000000000000          
DEVDF_T0201  0000000UEXECUTE            uExecute            11                                                                                                                                                                                                                                                                                                  00000000000000          
DEVDF_T0401  0000000UEXECUTE            uExecute            11                                                                                                                                                                                                                                                                                                  00000000000000          
DEVDF_T1901  0000000UEXECUTE            uExecute            11                                                                                                                                                                                                                                                                                                  00000000000000          
DEVDF_T1902  0000000UEXECUTE            uExecute            11                                                                                                                                                                                                                                                                                                  00000000000000          
DEVDF_T2101  0000000UINITIALIZE         uInitialize         11                                                                                                                                                                                                                                                                                                  00000000000000          
DEVDF_T2102  0000000UEXECUTE            uExecute            11                                                                                                                                                                                                                                                                                                  00000000000000          
DEVDF_T2102  0000000UTERMINATE          uTerminate          11                                                                                                                                                                                                                                                                                                  00000000000000          
DEVDF_T2103  0000000UADDLISTENTRY       uAddListEntry       11                                                                                                                                                                                                                                                                                                  00000000000000          
DEVDF_T2103  0000000UCLEARINSTANCELIST  uClearInstanceList  11                                                                                                                                                                                                                                                                                                  00000000000000          
DEVDF_T2301  0000000UINITIALIZE         uInitialize         11                                                                                                                                                                                                                                                                                                  00000000000000          
DEVDF_T2301  0000000UMINIFILTERBUTTON   uMiniFilterButton   11Handle a mini filter button click       Overwrite this method with your own logic if required.                                                                                                                                                                                                    00000000000000          
DEVDF_T2303  0000000UINITIALIZE         uInitialize         11                                                                                                                                                                                                                                                                                                  00000000000000          
DEVDF_T2303  0000000UMINIFILTERBUTTON   uMiniFilterButton   11Handle a mini filter button click       Overwrite this method with your own logic if required.                                                                                                                                                                                                    00000000000000          
DEVDF_T2311  0000000UEXECUTE            uExecute            11                                                                                                                                                                                                                                                                                                  00000000000000          
DEVDF_T2312  0000000UEXECUTE            uExecute            11                                                                                                                                                                                                                                                                                                  00000000000000          
DEVDF_T2313  0000000UEXECUTE            uExecute            11                                                                                                                                                                                                                                                                                                  00000000000000          
DEVDF_T2601  0000000UINITIALIZE         uInitialize         11                                                                                                                                                                                                                                                                                                  00000000000000          
DEVDF_T2602  0000000UEXECUTE            uExecute            11                                                                                                                                                                                                                                                                                                  00000000000000          
DEVDF_T2603  0000000UINITIALIZE         uInitialize         11                                                                                                                                                                                                                                                                                                  00000000000000          
DEVDF_T2801  0000000UINITIALIZE         uInitialize         11                                                                                                                                                                                                                                                                                                  00000000000000          
DEVDF_T2802  0000000UEXECUTE            uExecute            11                                                                                                                                                                                                                                                                                                  00000000000000          
DEVDF_T3001  0000000UINITIALIZE         uInitialize         11                                                                                                                                                                                                                                                                                                  00000000000000          
DEVDF_T3002  0000000UINITIALIZE         uInitialize         11                                                                                                                                                                                                                                                                                                  00000000000000          
DEVDF_T3003  0000000UINITIALIZE         uInitialize         11                                                                                                                                                                                                                                                                                                  00000000000000          
DEVDF_T3004  0000000UEXECUTE            uExecute            11                                                                                                                                                                                                                                                                                                  00000000000000          
DEVDF_T3101  0000000FILE_SERVICE        File_Service        30                                                                                                                                                                                                                                                                                                  00000000000000          
DEVDF_T3101  0000000GETSPLFL            GetSplfL            10                                                                                                                                                                                                                                                                                                  00000000000000          
DEVDF_T3101  0000000UEXECUTE            uExecute            11                                                                                                                                                                                                                                                                                                  00000000000000          
DEVDF_T3101  0000000UINITIALIZE         uInitialize         11                                                                                                                                                                                                                                                                                                  00000000000000          
DEVDF_T3101  0000000UPROCESS_STREAM_FILEuProcess_Stream_File10                                                                                                                                                                                                                                                                                                  00000000000000          
DEVDF_T3101  0000000USHOWAS             uShowAs             30                                                                                                                                                                                                                                                                                                  00000000000000          
DEVDF_T3204  0000000UINITIALIZE         uInitialize         11                                                                                                                                                                                                                                                                                                  00000000000000          
DEVDF_T3204  0000000USELECTDATA         uSelectData         10                                                                                                                                                                                                                                                                                                  00000000000000          
DEVDF_T3205  0000000UGETPRIORITY        uGetPriority        10                                                                                                                                                                                                                                                                                                  00000000000000          
DEVDF_T3205  0000000ULOADOPTION         uLoadOption         10                                                                                                                                                                                                                                                                                                  00000000000000          
DEVDF_TVDEP  0000000ULOAD               uLoad               10                                                                                                                                                                                                                                                                                                  00000000000000          
DEVDF_TVDEP  0000000USETDEPTSECT        uSetDeptSect        10                                                                                                                                                                                                                                                                                                  00000000000000          
DEVDF_TVDS   0000000ULOAD               uLoad               10                                                                                                                                                                                                                                                                                                  00000000000000          
DEVDF_TVDS   0000000USETDEPTSECT        uSetDeptSect        10                                                                                                                                                                                                                                                                                                  00000000000000          
DEVDM_TREE1  0000000UFILLTREE           uFillTree           10                                                                                                                                                                                                                                                                                                  00000000000000          
DEVDM_TTREE  0000000UFILLTREE           uFillTree           10                                                                                                                                                                                                                                                                                                  00000000000000          
DEVFP_AC001  0000000UREQUESTSCREENPAINT uRequestScreenPaint 10                                                                                                                                                                                                                                                                                                  00000000000000          
DEVFP_FCALN  0000000SHOW_CALENDAR       Show_Calendar       10Displays calendar window                The calendar requires two parameters - a numeric date, and a date format.  See parameter help for further details                                                                                                                                         00000000000000          
DEVFP_IN001  0000000GET                 Get                 10                                                                                                                                                                                                                                                                                                  00000000000000          
DEVFP_IN001  0000000GETNUMERIC          GetNumeric          10                                                                                                                                                                                                                                                                                                  00000000000000          
DEVFP_IN001  0000000SET                 Set                 10                                                                                                                                                                                                                                                                                                  00000000000000          
DEVFP_IN001  0000000SETNUMERIC          SetNumeric          10                                                                                                                                                                                                                                                                                                  00000000000000          
DEVLRDM0001  0000000GETEMPLOYEEDETAILS  GetEmployeeDetails  10                                                                                                                                                                                                                                                                                                  00000000000000          
DEVLRDM0001  0000000HANDLEREQUEST       HandleRequest       11                                                                                                                                                                                                                                                                                                  00000000000000          
DEVLRDM0001  0000000LOADLIST            LoadList            10                                                                                                                                                                                                                                                                                                  00000000000000          
DEVLRDM0001  0000000QUERYALLOWREQUEST   QueryAllowRequest   11                                                                                                                                                                                                                                                                                                  00000000000000          
DEVLRDM0001  0000000REFRESHEMPLOYEEDET  RefreshEmployeeDet  10                                                                                                                                                                                                                                                                                                  00000000000000          
DEVLRDM0001  0000000UPDATEEMPLOYEEDET   UpdateEmployeeDet   10                                                                                                                                                                                                                                                                                                  00000000000000          
DEVLRDM0002  0000000HANDLEMENUREQUESTS  HandleMenuRequests  10                                                                                                                                                                                                                                                                                                  00000000000000          
DEVLRDM0002  0000000HANDLEREQUEST       HandleRequest       11                                                                                                                                                                                                                                                                                                  00000000000000          
DEVLRDM0002  0000000LOADEMPLOYEEROWS    LoadEmployeeRows    10                                                                                                                                                                                                                                                                                                  00000000000000          
DEVLRDM0002  0000000LOADLIST            LoadList            10                                                                                                                                                                                                                                                                                                  00000000000000          
DEVLRDM0003  0000000HANDLEREQUEST       HandleRequest       11                                                                                                                                                                                                                                                                                                  00000000000000          
DEVLRDM0003  0000000LOADINCIDENTROWS    LoadIncidentRows    10                                                                                                                                                                                                                                                                                                  00000000000000          
DEVLRDM0004  0000000GETENTEREDDETAILS   GetEnteredDetails   10                                                                                                                                                                                                                                                                                                  00000000000000          
DEVLRDM0004  0000000HANDLEREQUEST       HandleRequest       11                                                                                                                                                                                                                                                                                                  00000000000000          
DEVLRDM0004  0000000LOADCONTEXTMENUS    LoadContextMenus    10                                                                                                                                                                                                                                                                                                  00000000000000          
DEVLRDM0004  0000000LOADDROPDOWNS       LoadDropDowns       10                                                                                                                                                                                                                                                                                                  00000000000000          
DEVLRDM0004  0000000LOADINCIDENT        LoadIncident        10                                                                                                                                                                                                                                                                                                  00000000000000          
DEVLRDM0004  0000000LOADLISTS           LoadLists           10                                                                                                                                                                                                                                                                                                  00000000000000          
DEVLRDM0004  0000000QUERYALLOWREQUEST   QueryAllowRequest   11                                                                                                                                                                                                                                                                                                  00000000000000          
DEVLRDM0004  0000000RECORDHISTORY       RecordHistory       10                                                                                                                                                                                                                                                                                                  00000000000000          
DEVLRDM0004  0000000REFRESHINCIDENTDET  RefreshIncidentDet  10                                                                                                                                                                                                                                                                                                  00000000000000          
DEVLRDM0004  0000000UPDATEINCIDENTDET   UpdateIncidentDet   10                                                                                                                                                                                                                                                                                                  00000000000000          
DEVLRDM0005  0000000ADDNEWNOTE          AddNewNote          10                                                                                                                                                                                                                                                                                                  00000000000000          
DEVLRDM0005  0000000HANDLEREQUEST       HandleRequest       11                                                                                                                                                                                                                                                                                                  00000000000000          
DEVLRDM0005  0000000LOADINCIDENTHIST    LoadIncidentHist    10                                                                                                                                                                                                                                                                                                  00000000000000          
DEVLRDM0006  0000000ADDROWTOTABLE       AddRowtoTable       10                                                                                                                                                                                                                                                                                                  00000000000000          
DEVLRDM0006  0000000GETIMAGE            GetImage            10                                                                                                                                                                                                                                                                                                  00000000000000          
DEVLRDM0006  0000000HANDLEREQUEST       HandleRequest       11                                                                                                                                                                                                                                                                                                  00000000000000          
DEVLRDM0006  0000000LOADLISTS           LoadLists           10                                                                                                                                                                                                                                                                                                  00000000000000          
DEVLRDM0006  0000000RELOADALLPHOTOS     ReloadAllPhotos     10                                                                                                                                                                                                                                                                                                  00000000000000          
DEVLRDM0006  0000000SAVEIMAGE           SaveImage           10                                                                                                                                                                                                                                                                                                  00000000000000          
DEVLRDM0006  0000000SAVELIST            SaveList            10                                                                                                                                                                                                                                                                                                  00000000000000          
DEVLRDM0007  0000000HANDLEREQUEST       HandleRequest       11                                                                                                                                                                                                                                                                                                  00000000000000          
DEVLRDM0008  0000000HANDLEREQUEST       HandleRequest       11                                                                                                                                                                                                                                                                                                  00000000000000          
DEVLRDMCONF  0000000HANDLEREQUEST       HandleRequest       11                                                                                                                                                                                                                                                                                                  00000000000000          
DEVLRDMCONF  0000000SENDALLEMAILS       SendAllEmails       10                                                                                                                                                                                                                                                                                                  00000000000000          
DEVLRDMCONF  0000000SENDONEEMAIL        SendOneEmail        10                                                                                                                                                                                                                                                                                                  00000000000000          
DEVLRDMCONF  0000000UMOREDETAILS        uMoreDetails        10                                                                                                                                                                                                                                                                                                  00000000000000          
DEVLRDMCT01  0000000LOADALL             LoadAll             30                                                                                                                                                                                                                                                                                                  00000000000000          
DEVLRDMCT01  0000000LOADDATA            LoadData            30                                                                                                                                                                                                                                                                                                  00000000000000          
DEVLRDMCT01  0000000UGETEMPLOYEE        uGetEmployee        10                                                                                                                                                                                                                                                                                                  00000000000000          
DEVLRDMCT01  0000000ULOADDATA           uLoadData           10                                                                                                                                                                                                                                                                                                  00000000000000          
DEVLRDMCT02  0000000FETCH_INCIDENT      Fetch_Incident      10                                                                                                                                                                                                                                                                                                  00000000000000          
DEVLRDMCT02  0000000FETCH_INCIDENTSTATUSFetch_IncidentStatus10                                                                                                                                                                                                                                                                                                  00000000000000          
DEVLRDMCT02  0000000FETCH_INCIDENTTYPE  Fetch_IncidentType  10                                                                                                                                                                                                                                                                                                  00000000000000          
DEVLRDMCT02  0000000LOADALL             LoadAll             10                                                                                                                                                                                                                                                                                                  00000000000000          
DEVLRDMCT02  0000000LOADDATA            LoadData            10                                                                                                                                                                                                                                                                                                  00000000000000          
DEVLRDMCT02  0000000UGETINCIDENT        uGetIncident        10                                                                                                                                                                                                                                                                                                  00000000000000          
DEVLRDMCT02  0000000UGETINCIDENTHIST    uGetIncidentHist    10                                                                                                                                                                                                                                                                                                  00000000000000          
DEVLRDMCT02  0000000UGETINCIDENTSTATUS  uGetIncidentStatus  10                                                                                                                                                                                                                                                                                                  00000000000000          
DEVLRDMCT02  0000000UGETINCIDENTTYPE    uGetIncidentType    10                                                                                                                                                                                                                                                                                                  00000000000000          
DEVLRDMCT02  0000000ULOADDATA           uLoadData           10                                                                                                                                                                                                                                                                                                  00000000000000          
DEVLRDMCT02  0000000ULOADEMPTYFILES     uLoadEmptyFiles     10                                                                                                                                                                                                                                                                                                  00000000000000          
DEVLRDMPROTO 0000000HANDLEREQUEST       HandleRequest       11                                                                                                                                                                                                                                                                                                  00000000000000          
DEVLREX0000  0000000HANDLEREQUEST       HandleRequest       11                                                                                                                                                                                                                                                                                                  00000000000000          
DEVLREX0001  0000000HANDLEREQUEST       HandleRequest       11                                                                                                                                                                                                                                                                                                  00000000000000          
DEVLREX0001  0000000LOADDATA            LoadData            10                                                                                                                                                                                                                                                                                                  00000000000000          
DEVLREX0001  0000000WRITEHEADER         WriteHeader         10                                                                                                                                                                                                                                                                                                  00000000000000          
DEVLREX0001  0000000WRITEIMAGE          WriteImage          10                                                                                                                                                                                                                                                                                                  00000000000000          
DEVLREX0001  0000000WRITEPREVPARAGRAPH  WritePrevParagraph  10                                                                                                                                                                                                                                                                                                  00000000000000          
DEVLREX0002  0000000HANDLEREQUEST       HandleRequest       11                                                                                                                                                                                                                                                                                                  00000000000000          
DEVLREX0002  0000000LOADCOUNTRIES       LoadCountries       10                                                                                                                                                                                                                                                                                                  00000000000000          
DEVLREX0003  0000000HANDLEREQUEST       HandleRequest       11                                                                                                                                                                                                                                                                                                  00000000000000          
DEVLREX0004  0000000HANDLEREQUEST       HandleRequest       11                                                                                                                                                                                                                                                                                                  00000000000000          
DEVLREX0004  0000000LOADLIST            LoadList            10                                                                                                                                                                                                                                                                                                  00000000000000          
DEVLREX0005  0000000HANDLEREQUEST       HandleRequest       11                                                                                                                                                                                                                                                                                                  00000000000000          
DEVLREX0005  0000000LOADCOLLECTION      LoadCollection      30                                                                                                                                                                                                                                                                                                  00000000000000          
DEVLREX0005  0000000LOADLIST            LoadList            10                                                                                                                                                                                                                                                                                                  00000000000000          
DEVLREX0006  0000000HANDLEREQUEST       HandleRequest       11                                                                                                                                                                                                                                                                                                  00000000000000          
DEVLREX0006  0000000LOADLIST            LoadList            10                                                                                                                                                                                                                                                                                                  00000000000000          
DEVLREX0007  0000000HANDLEREQUEST       HandleRequest       11                                                                                                                                                                                                                                                                                                  00000000000000          
DEVLREX0007  0000000LOADLIST            LoadList            10                                                                                                                                                                                                                                                                                                  00000000000000          
DEVLREX0008  0000000HANDLEREQUEST       HandleRequest       11                                                                                                                                                                                                                                                                                                  00000000000000          
DEVLREX0008  0000000LOADLIST            LoadList            10                                                                                                                                                                                                                                                                                                  00000000000000          
DEVLREX0009  0000000HANDLEREQUEST       HandleRequest       11                                                                                                                                                                                                                                                                                                  00000000000000          
DEVLREX0010  0000000HANDLEREQUEST       HandleRequest       11                                                                                                                                                                                                                                                                                                  00000000000000          
DEVLREX0010A 0000000HANDLEREQUEST       HandleRequest       11                                                                                                                                                                                                                                                                                                  00000000000000          
DEVLREX0011  0000000HANDLEREQUEST       HandleRequest       11                                                                                                                                                                                                                                                                                                  00000000000000          
DEVLREX0012  0000000HANDLEREQUEST       HandleRequest       11                                                                                                                                                                                                                                                                                                  00000000000000          
DEVLREX0016  0000000HANDLEREQUEST       HandleRequest       11                                                                                                                                                                                                                                                                                                  00000000000000          
DEVLREX0017  0000000HANDLEREQUEST       HandleRequest       11                                                                                                                                                                                                                                                                                                  00000000000000          
DEVLREX0018  0000000HANDLEREQUEST       HandleRequest       11                                                                                                                                                                                                                                                                                                  00000000000000          
DEVLREX0019  0000000ADDROWTOTABLE       AddRowtoTable       10                                                                                                                                                                                                                                                                                                  00000000000000          
DEVLREX0019  0000000HANDLEREQUEST       HandleRequest       11                                                                                                                                                                                                                                                                                                  00000000000000          
DEVLREX0019  0000000LOADLIST            LoadList            10                                                                                                                                                                                                                                                                                                  00000000000000          
DEVLREX0019  0000000RELOADALLPHOTOS     ReloadAllPhotos     10                                                                                                                                                                                                                                                                                                  00000000000000          
DEVLREX0019  0000000SAVELIST            SaveList            10                                                                                                                                                                                                                                                                                                  00000000000000          
DEVLREX0020  0000000HANDLEREQUEST       HandleRequest       11                                                                                                                                                                                                                                                                                                  00000000000000          
DEVLREX0021  0000000HANDLEREQUEST       HandleRequest       11                                                                                                                                                                                                                                                                                                  00000000000000          
DEVLREX0022  0000000HANDLEREQUEST       HandleRequest       11                                                                                                                                                                                                                                                                                                  00000000000000          
DEVLREX0023  0000000HANDLEREQUEST       HandleRequest       11                                                                                                                                                                                                                                                                                                  00000000000000          
