DEVDF_DDDEP  0000000CBCL_1              CBCL_1              PRIM_CBCL           21                                                                                                                                                                                                                                                                                                  00000000000000          
DEVDF_DDDEP  0000000CBCL_2              CBCL_2              PRIM_CBCL           21                                                                                                                                                                                                                                                                                                  00000000000000          
DEVDF_DDDEP  0000000CMBX_DEPT           CMBX_DEPT           PRIM_CMBX           21                                                                                                                                                                                                                                                                                                  00000000000000          
DEVDF_DDDEP  0000000DF_DDDEP            DF_DDDEP            DF_DDDEP            11Departments Drop Down                                                                                                                                                                                                                                                                             00000000000000          
DEVDF_DDDEP  0000000LABL_1              LABL_1              PRIM_LABL           21                                                                                                                                                                                                                                                                                                  00000000000000          
DEVDF_DET15  0000000ATLI_1              ATLI_1              PRIM_ATLI           21                                                                                                                                                                                                                                                                                                  00000000000000          
DEVDF_DET15  0000000ATLI_2              ATLI_2              PRIM_ATLI           21                                                                                                                                                                                                                                                                                                  00000000000000          
DEVDF_DET15  0000000ATLI_3              ATLI_3              PRIM_ATLI           21                                                                                                                                                                                                                                                                                                  00000000000000          
DEVDF_DET15  0000000ATLM_1              ATLM_1              PRIM_ATLM           21                                                                                                                                                                                                                                                                                                  00000000000000          
DEVDF_DET15  0000000DF_DET15            DF_DET15            DF_DET15            11All ListManager Techniques                                                                                                                                                                                                                                                                        00000000000000          
DEVDF_DET15  0000000LVCL_1              LVCL_1              PRIM_LVCL           21                                                                                                                                                                                                                                                                                                  00000000000000          
DEVDF_DET15  0000000LVCL_2              LVCL_2              PRIM_LVCL           21                                                                                                                                                                                                                                                                                                  00000000000000          
DEVDF_DET15  0000000LVCL_3              LVCL_3              PRIM_LVCL           21                                                                                                                                                                                                                                                                                                  00000000000000          
DEVDF_DET15  0000000LVCL_4              LVCL_4              PRIM_LVCL           21                                                                                                                                                                                                                                                                                                  00000000000000          
DEVDF_DET15  0000000MID_MESSAGE         MID_MESSAGE         PRIM_LABL           21                                                                                                                                                                                                                                                                                                  00000000000000          
DEVDF_DET15  0000000SELECTION           SELECTION           PRIM_LTVW           21                                                                                                                                                                                                                                                                                                  00000000000000          
DEVDF_DET15  0000000TOP_MESSAGE         TOP_MESSAGE         PRIM_LABL           21                                                                                                                                                                                                                                                                                                  00000000000000          
DEVDF_DET17  0000000ATLI_1              ATLI_1              PRIM_ATLI           21                                                                                                                                                                                                                                                                                                  00000000000000          
DEVDF_DET17  0000000ATLI_2              ATLI_2              PRIM_ATLI           21                                                                                                                                                                                                                                                                                                  00000000000000          
DEVDF_DET17  0000000ATLI_3              ATLI_3              PRIM_ATLI           21                                                                                                                                                                                                                                                                                                  00000000000000          
DEVDF_DET17  0000000ATLM_1              ATLM_1              PRIM_ATLM           21                                                                                                                                                                                                                                                                                                  00000000000000          
DEVDF_DET17  0000000ATLM_2              ATLM_2              PRIM_ATLM           21                                                                                                                                                                                                                                                                                                  00000000000000          
DEVDF_DET17  0000000CENTER_PANEL        CENTER_PANEL        PRIM_PANL           21                                                                                                                                                                                                                                                                                                  00000000000000          
DEVDF_DET17  0000000DETAILS_BUTTON      DETAILS_BUTTON      PRIM_PHBN           21                                                                                                                                                                                                                                                                                                  00000000000000          
DEVDF_DET17  0000000DF_DET17            DF_DET17            DF_DET17            11Section Employees                                                                                                                                                                                                                                                                                 00000000000000          
DEVDF_DET17  0000000EMP_LIST            EMP_LIST            PRIM_GRID           21                                                                                                                                                                                                                                                                                                  00000000000000          
DEVDF_DET17  0000000FWLI_1              FWLI_1              PRIM_FWLI           21                                                                                                                                                                                                                                                                                                  00000000000000          
DEVDF_DET17  0000000FWLM_1              FWLM_1              PRIM_FWLM           21                                                                                                                                                                                                                                                                                                  00000000000000          
DEVDF_DET17  0000000GDCL_1              GDCL_1              PRIM_GDCL           21                                                                                                                                                                                                                                                                                                  00000000000000          
DEVDF_DET17  0000000GDCL_2              GDCL_2              PRIM_GDCL           21                                                                                                                                                                                                                                                                                                  00000000000000          
DEVDF_DET17  0000000GDCL_22             GDCL_22             PRIM_GDCL           21                                                                                                                                                                                                                                                                                                  00000000000000          
DEVDF_DET17  0000000GDCL_23             GDCL_23             PRIM_GDCL           21                                                                                                                                                                                                                                                                                                  00000000000000          
DEVDF_DET17  0000000GDCL_3              GDCL_3              PRIM_GDCL           21                                                                                                                                                                                                                                                                                                  00000000000000          
DEVDF_DET17  0000000LEFT_PANEL          LEFT_PANEL          PRIM_PANL           21                                                                                                                                                                                                                                                                                                  00000000000000          
DEVDF_DET17  0000000RIGHT_PANEL         RIGHT_PANEL         PRIM_PANL           21                                                                                                                                                                                                                                                                                                  00000000000000          
DEVDF_DET17  0000000SPLI_1              SPLI_1              PRIM_SPLI           21                                                                                                                                                                                                                                                                                                  00000000000000          
DEVDF_DET17  0000000SPLI_2              SPLI_2              PRIM_SPLI           21                                                                                                                                                                                                                                                                                                  00000000000000          
DEVDF_DET17  0000000SPLM_1              SPLM_1              PRIM_SPLM           21                                                                                                                                                                                                                                                                                                  00000000000000          
DEVDF_DET17  0000000TOP_PANEL           TOP_PANEL           PRIM_PANL           21                                                                                                                                                                                                                                                                                                  00000000000000          
DEVDF_DET17  0000000TOTAL_EMPLOYEES     TOTAL_EMPLOYEES     STD_NUM   Visual    21                                                                                                                                                                                                                                                                                                  00000000000000          
DEVDF_DET21  0000000BODY_ATTACH         BODY_ATTACH         PRIM_ATLI           21                                                                                                                                                                                                                                                                                                  00000000000000          
DEVDF_DET21  0000000BODY_HEAD           BODY_HEAD           PRIM_PANL           21                                                                                                                                                                                                                                                                                                  00000000000000          
DEVDF_DET21  0000000BODY_HEAD_FLOW      BODY_HEAD_FLOW      PRIM_FWLM           21                                                                                                                                                                                                                                                                                                  00000000000000          
DEVDF_DET21  0000000BUTTON_ATTACH       BUTTON_ATTACH       PRIM_ATLI           21                                                                                                                                                                                                                                                                                                  00000000000000          
DEVDF_DET21  0000000BUTTON_FLOW         BUTTON_FLOW         PRIM_FWLM           21                                                                                                                                                                                                                                                                                                  00000000000000          
DEVDF_DET21  0000000BUTTON_PANEL        BUTTON_PANEL        PRIM_PANL           21                                                                                                                                                                                                                                                                                                  00000000000000          
DEVDF_DET21  0000000DEPTDESC            DEPTDESC            DEPTDESC  Visual    21                                                                                                                                                                                                                                                                                                  00000000000000          
DEVDF_DET21  0000000DEPTMENT            DEPTMENT            DEPTMENT  Visual    21                                                                                                                                                                                                                                                                                                  00000000000000          
DEVDF_DET21  0000000DF_DET21            DF_DET21            DF_DET21            11Create Read Update Delete                                                                                                                                                                                                                                                                         00000000000000          
DEVDF_DET21  0000000FWLI_DEPTDESC       FWLI_DEPTDESC       PRIM_FWLI           21                                                                                                                                                                                                                                                                                                  00000000000000          
DEVDF_DET21  0000000FWLI_DEPTMENT       FWLI_DEPTMENT       PRIM_FWLI           21                                                                                                                                                                                                                                                                                                  00000000000000          
DEVDF_DET21  0000000FWLI_PUSHB1_BUTTON  FWLI_PUSHB1_BUTTON  PRIM_FWLI           21                                                                                                                                                                                                                                                                                                  00000000000000          
DEVDF_DET21  0000000MAIN_LAYOUT         MAIN_LAYOUT         PRIM_ATLM           21                                                                                                                                                                                                                                                                                                  00000000000000          
DEVDF_DET21  0000000PANELFIELDS         PanelFields         PRIM_ACOL 02        21                                                                                                                                                                                                                                                                                                  00000000000000          
DEVDF_DET21  0000000PUSHB1_BUTTON       PUSHB1_BUTTON       PRIM_PHBN           21                                                                                                                                                                                                                                                                                                  00000000000000          
DEVDF_DET22  0000000ATLI_2              ATLI_2              PRIM_ATLI           21                                                                                                                                                                                                                                                                                                  00000000000000          
DEVDF_DET22  0000000ATLI_3              ATLI_3              PRIM_ATLI           21                                                                                                                                                                                                                                                                                                  00000000000000          
DEVDF_DET22  0000000ATLM_1              ATLM_1              PRIM_ATLM           21                                                                                                                                                                                                                                                                                                  00000000000000          
DEVDF_DET22  0000000DF_DET22            DF_DET22            DF_DET22            11List Manager Technique: Show All Entries                                                                                                                                                                                                                                                          00000000000000          
DEVDF_DET22  0000000LVCL_1              LVCL_1              PRIM_LVCL           21                                                                                                                                                                                                                                                                                                  00000000000000          
DEVDF_DET22  0000000LVCL_2              LVCL_2              PRIM_LVCL           21                                                                                                                                                                                                                                                                                                  00000000000000          
DEVDF_DET22  0000000LVCL_3              LVCL_3              PRIM_LVCL           21                                                                                                                                                                                                                                                                                                  00000000000000          
DEVDF_DET22  0000000LVCL_4              LVCL_4              PRIM_LVCL           21                                                                                                                                                                                                                                                                                                  00000000000000          
DEVDF_DET22  0000000MID_MESSAGE         MID_MESSAGE         PRIM_LABL           21                                                                                                                                                                                                                                                                                                  00000000000000          
DEVDF_DET22  0000000SELECTION           SELECTION           PRIM_LTVW           21                                                                                                                                                                                                                                                                                                  00000000000000          
DEVDF_DET32  0000000ATLI_1              ATLI_1              PRIM_ATLI           21                                                                                                                                                                                                                                                                                                  00000000000000          
DEVDF_DET32  0000000ATLI_2              ATLI_2              PRIM_ATLI           21                                                                                                                                                                                                                                                                                                  00000000000000          
DEVDF_DET32  0000000ATLM_1              ATLM_1              PRIM_ATLM           21                                                                                                                                                                                                                                                                                                  00000000000000          
DEVDF_DET32  0000000ATLM_2              ATLM_2              PRIM_ATLM           21                                                                                                                                                                                                                                                                                                  00000000000000          
DEVDF_DET32  0000000BODY_ATTACH         BODY_ATTACH         PRIM_ATLI           21                                                                                                                                                                                                                                                                                                  00000000000000          
DEVDF_DET32  0000000BODY_HEAD           BODY_HEAD           PRIM_PANL           21                                                                                                                                                                                                                                                                                                  00000000000000          
DEVDF_DET32  0000000BUTTON_ATTACH       BUTTON_ATTACH       PRIM_ATLI           21                                                                                                                                                                                                                                                                                                  00000000000000          
DEVDF_DET32  0000000BUTTON_FLOW         BUTTON_FLOW         PRIM_FWLM           21                                                                                                                                                                                                                                                                                                  00000000000000          
DEVDF_DET32  0000000BUTTON_PANEL        BUTTON_PANEL        PRIM_PANL           21                                                                                                                                                                                                                                                                                                  00000000000000          
DEVDF_DET32  0000000DF_DET32            DF_DET32            DF_DET32            11Notes Command Handler                                                                                                                                                                                                                                                                             00000000000000          
DEVDF_DET32  0000000FWLI_1              FWLI_1              PRIM_FWLI           21                                                                                                                                                                                                                                                                                                  00000000000000          
DEVDF_DET32  0000000GPBX_1              GPBX_1              PRIM_GPBX           21                                                                                                                                                                                                                                                                                                  00000000000000          
DEVDF_DET32  0000000MAIN_LAYOUT         MAIN_LAYOUT         PRIM_ATLM           21                                                                                                                                                                                                                                                                                                  00000000000000          
DEVDF_DET32  0000000MECL_1              MECL_1              PRIM_MECL           21                                                                                                                                                                                                                                                                                                  00000000000000          
DEVDF_DET32  0000000MECL_2              MECL_2              PRIM_MECL           21                                                                                                                                                                                                                                                                                                  00000000000000          
DEVDF_DET32  0000000MECL_3              MECL_3              PRIM_MECL           21                                                                                                                                                                                                                                                                                                  00000000000000          
DEVDF_DET32  0000000MEMO_1              MEMO_1              PRIM_MEMO           21                                                                                                                                                                                                                                                                                                  00000000000000          
DEVDF_DET32  0000000PHBN_SAVE           PHBN_Save           PRIM_PHBN           21                                                                                                                                                                                                                                                                                                  00000000000000          
DEVDF_DET34  0000000ATLI_1              ATLI_1              PRIM_ATLI           21                                                                                                                                                                                                                                                                                                  00000000000000          
DEVDF_DET34  0000000ATLI_2              ATLI_2              PRIM_ATLI           21                                                                                                                                                                                                                                                                                                  00000000000000          
DEVDF_DET34  0000000ATLI_3              ATLI_3              PRIM_ATLI           21                                                                                                                                                                                                                                                                                                  00000000000000          
DEVDF_DET34  0000000ATLM_1              ATLM_1              PRIM_ATLM           21                                                                                                                                                                                                                                                                                                  00000000000000          
DEVDF_DET34  0000000ATLM_2              ATLM_2              PRIM_ATLM           21                                                                                                                                                                                                                                                                                                  00000000000000          
DEVDF_DET34  0000000DF_DET34            DF_DET34            DF_DET34            11Employee DocumentsCommand Handler                                                                                                                                                                                                                                                                 00000000000000          
DEVDF_DET34  0000000DIREXP              DirExp              DF_WEBAC  WebBrowser21                                                                                                                                                                                                                                                                                                  00000000000000          
DEVDF_DET34  0000000EXPLOR_GPBX         EXPLOR_GPBX         PRIM_GPBX           21                                                                                                                                                                                                                                                                                                  00000000000000          
DEVDF_DET34  0000000EXPLOR_PANL         EXPLOR_PANL         PRIM_PANL           21                                                                                                                                                                                                                                                                                                  00000000000000          
DEVDF_DET34  0000000FWLI_3              FWLI_3              PRIM_FWLI           21                                                                                                                                                                                                                                                                                                  00000000000000          
DEVDF_DET34  0000000FWLI_4              FWLI_4              PRIM_FWLI           21                                                                                                                                                                                                                                                                                                  00000000000000          
DEVDF_DET34  0000000FWLI_5              FWLI_5              PRIM_FWLI           21                                                                                                                                                                                                                                                                                                  00000000000000          
DEVDF_DET34  0000000FWLM_2              FWLM_2              PRIM_FWLM           21                                                                                                                                                                                                                                                                                                  00000000000000          
DEVDF_DET34  0000000INFO_LABL           INFO_LABL           PRIM_LABL           21                                                                                                                                                                                                                                                                                                  00000000000000          
DEVDF_DET34  0000000INFO_LABL2          INFO_LABL2          PRIM_LABL           21                                                                                                                                                                                                                                                                                                  00000000000000          
DEVDF_DET34  0000000INFO_LABL3          INFO_LABL3          PRIM_LABL           21                                                                                                                                                                                                                                                                                                  00000000000000          
DEVDF_DET34  0000000INFO_PANL           INFO_PANL           PRIM_PANL           21                                                                                                                                                                                                                                                                                                  00000000000000          
DEVDF_DET34  0000000SPLI_3              SPLI_3              PRIM_SPLI           21                                                                                                                                                                                                                                                                                                  00000000000000          
DEVDF_DET34  0000000SPLI_4              SPLI_4              PRIM_SPLI           21                                                                                                                                                                                                                                                                                                  00000000000000          
DEVDF_DET34  0000000SPLM_1              SPLM_1              PRIM_SPLM           21                                                                                                                                                                                                                                                                                                  00000000000000          
DEVDF_DET35  0000000ATLI_1              ATLI_1              PRIM_ATLI           21                                                                                                                                                                                                                                                                                                  00000000000000          
DEVDF_DET35  0000000ATLI_10             ATLI_10             PRIM_ATLI           21                                                                                                                                                                                                                                                                                                  00000000000000          
DEVDF_DET35  0000000ATLI_11             ATLI_11             PRIM_ATLI           21                                                                                                                                                                                                                                                                                                  00000000000000          
DEVDF_DET35  0000000ATLI_12             ATLI_12             PRIM_ATLI           21                                                                                                                                                                                                                                                                                                  00000000000000          
DEVDF_DET35  0000000ATLI_13             ATLI_13             PRIM_ATLI           21                                                                                                                                                                                                                                                                                                  00000000000000          
DEVDF_DET35  0000000ATLI_14             ATLI_14             PRIM_ATLI           21                                                                                                                                                                                                                                                                                                  00000000000000          
DEVDF_DET35  0000000ATLI_2              ATLI_2              PRIM_ATLI           21                                                                                                                                                                                                                                                                                                  00000000000000          
DEVDF_DET35  0000000ATLI_3              ATLI_3              PRIM_ATLI           21                                                                                                                                                                                                                                                                                                  00000000000000          
DEVDF_DET35  0000000ATLI_4              ATLI_4              PRIM_ATLI           21                                                                                                                                                                                                                                                                                                  00000000000000          
DEVDF_DET35  0000000ATLI_5              ATLI_5              PRIM_ATLI           21                                                                                                                                                                                                                                                                                                  00000000000000          
DEVDF_DET35  0000000ATLI_6              ATLI_6              PRIM_ATLI           21                                                                                                                                                                                                                                                                                                  00000000000000          
DEVDF_DET35  0000000ATLI_7              ATLI_7              PRIM_ATLI           21                                                                                                                                                                                                                                                                                                  00000000000000          
DEVDF_DET35  0000000ATLI_8              ATLI_8              PRIM_ATLI           21                                                                                                                                                                                                                                                                                                  00000000000000          
DEVDF_DET35  0000000ATLI_9              ATLI_9              PRIM_ATLI           21                                                                                                                                                                                                                                                                                                  00000000000000          
DEVDF_DET35  0000000ATLM_1              ATLM_1              PRIM_ATLM           21                                                                                                                                                                                                                                                                                                  00000000000000          
DEVDF_DET35  0000000ATLM_2              ATLM_2              PRIM_ATLM           21                                                                                                                                                                                                                                                                                                  00000000000000          
DEVDF_DET35  0000000ATLM_3              ATLM_3              PRIM_ATLM           21                                                                                                                                                                                                                                                                                                  00000000000000          
DEVDF_DET35  0000000ATLM_4              ATLM_4              PRIM_ATLM           21                                                                                                                                                                                                                                                                                                  00000000000000          
DEVDF_DET35  0000000ATLM_5              ATLM_5              PRIM_ATLM           21                                                                                                                                                                                                                                                                                                  00000000000000          
DEVDF_DET35  0000000BUTTONPANEL         ButtonPanel         PRIM_PANL           21                                                                                                                                                                                                                                                                                                  00000000000000          
DEVDF_DET35  0000000DF_DET35            DF_DET35            DF_DET35            11Display/Update Employee timesheet                                                                                                                                                                                                                                                                 00000000000000          
DEVDF_DET35  0000000FILEHANDLER         FileHandler         DF_DET43            23                                                                                                                                                                                                                                                                                                  00000000000000          
DEVDF_DET35  0000000FWLI_1              FWLI_1              PRIM_FWLI           21                                                                                                                                                                                                                                                                                                  00000000000000          
DEVDF_DET35  0000000FWLI_2              FWLI_2              PRIM_FWLI           21                                                                                                                                                                                                                                                                                                  00000000000000          
DEVDF_DET35  0000000FWLI_3              FWLI_3              PRIM_FWLI           21                                                                                                                                                                                                                                                                                                  00000000000000          
DEVDF_DET35  0000000FWLI_4              FWLI_4              PRIM_FWLI           21                                                                                                                                                                                                                                                                                                  00000000000000          
DEVDF_DET35  0000000FWLI_5              FWLI_5              PRIM_FWLI           21                                                                                                                                                                                                                                                                                                  00000000000000          
DEVDF_DET35  0000000FWLI_6              FWLI_6              PRIM_FWLI           21                                                                                                                                                                                                                                                                                                  00000000000000          
DEVDF_DET35  0000000FWLI_7              FWLI_7              PRIM_FWLI           21                                                                                                                                                                                                                                                                                                  00000000000000          
DEVDF_DET35  0000000FWLM_1              FWLM_1              PRIM_FWLM           21                                                                                                                                                                                                                                                                                                  00000000000000          
DEVDF_DET35  0000000GDCL_1              GDCL_1              PRIM_GDCL           21Task code                                                                                                                                                                                                                                                                                         00000000000000          
DEVDF_DET35  0000000GDCL_10             GDCL_10             PRIM_GDCL           21                                                                                                                                                                                                                                                                                                  00000000000000          
DEVDF_DET35  0000000GDCL_11             GDCL_11             PRIM_GDCL           21                                                                                                                                                                                                                                                                                                  00000000000000          
DEVDF_DET35  0000000GDCL_12             GDCL_12             PRIM_GDCL           21                                                                                                                                                                                                                                                                                                  00000000000000          
DEVDF_DET35  0000000GDCL_13             GDCL_13             PRIM_GDCL           21                                                                                                                                                                                                                                                                                                  00000000000000          
DEVDF_DET35  0000000GDCL_14             GDCL_14             PRIM_GDCL           21                                                                                                                                                                                                                                                                                                  00000000000000          
DEVDF_DET35  0000000GDCL_15             GDCL_15             PRIM_GDCL           21                                                                                                                                                                                                                                                                                                  00000000000000          
DEVDF_DET35  0000000GDCL_16             GDCL_16             PRIM_GDCL           21                                                                                                                                                                                                                                                                                                  00000000000000          
DEVDF_DET35  0000000GDCL_17             GDCL_17             PRIM_GDCL           21                                                                                                                                                                                                                                                                                                  00000000000000          
DEVDF_DET35  0000000GDCL_18             GDCL_18             PRIM_GDCL           21                                                                                                                                                                                                                                                                                                  00000000000000          
DEVDF_DET35  0000000GDCL_19             GDCL_19             PRIM_GDCL           21                                                                                                                                                                                                                                                                                                  00000000000000          
DEVDF_DET35  0000000GDCL_2              GDCL_2              PRIM_GDCL           21                                                                                                                                                                                                                                                                                                  00000000000000          
DEVDF_DET35  0000000GDCL_20             GDCL_20             PRIM_GDCL           21                                                                                                                                                                                                                                                                                                  00000000000000          
DEVDF_DET35  0000000GDCL_21             GDCL_21             PRIM_GDCL           21                                                                                                                                                                                                                                                                                                  00000000000000          
DEVDF_DET35  0000000GDCL_22             GDCL_22             PRIM_GDCL           21                                                                                                                                                                                                                                                                                                  00000000000000          
DEVDF_DET35  0000000GDCL_23             GDCL_23             PRIM_GDCL           21                                                                                                                                                                                                                                                                                                  00000000000000          
DEVDF_DET35  0000000GDCL_24             GDCL_24             PRIM_GDCL           21                                                                                                                                                                                                                                                                                                  00000000000000          
DEVDF_DET35  0000000GDCL_25             GDCL_25             PRIM_GDCL           21                                                                                                                                                                                                                                                                                                  00000000000000          
DEVDF_DET35  0000000GDCL_26             GDCL_26             PRIM_GDCL           21                                                                                                                                                                                                                                                                                                  00000000000000          
DEVDF_DET35  0000000GDCL_27             GDCL_27             PRIM_GDCL           21                                                                                                                                                                                                                                                                                                  00000000000000          
DEVDF_DET35  0000000GDCL_28             GDCL_28             PRIM_GDCL           21                                                                                                                                                                                                                                                                                                  00000000000000          
DEVDF_DET35  0000000GDCL_29             GDCL_29             PRIM_GDCL           21                                                                                                                                                                                                                                                                                                  00000000000000          
DEVDF_DET35  0000000GDCL_3              GDCL_3              PRIM_GDCL           21                                                                                                                                                                                                                                                                                                  00000000000000          
DEVDF_DET35  0000000GDCL_30             GDCL_30             PRIM_GDCL           21                                                                                                                                                                                                                                                                                                  00000000000000          
DEVDF_DET35  0000000GDCL_4              GDCL_4              PRIM_GDCL           21                                                                                                                                                                                                                                                                                                  00000000000000          
DEVDF_DET35  0000000GDCL_5              GDCL_5              PRIM_GDCL           21                                                                                                                                                                                                                                                                                                  00000000000000          
DEVDF_DET35  0000000GDCL_6              GDCL_6              PRIM_GDCL           21                                                                                                                                                                                                                                                                                                  00000000000000          
DEVDF_DET35  0000000GDCL_7              GDCL_7              PRIM_GDCL           21                                                                                                                                                                                                                                                                                                  00000000000000          
DEVDF_DET35  0000000GDCL_8              GDCL_8              PRIM_GDCL           21                                                                                                                                                                                                                                                                                                  00000000000000          
DEVDF_DET35  0000000GDCL_9              GDCL_9              PRIM_GDCL           21                                                                                                                                                                                                                                                                                                  00000000000000          
DEVDF_DET35  0000000GPBX_DETAILS        GPBX_Details        PRIM_GPBX           21                                                                                                                                                                                                                                                                                                  00000000000000          
DEVDF_DET35  0000000GRID_TITLE          Grid_Title          PRIM_LABL           21                                                                                                                                                                                                                                                                                                  00000000000000          
DEVDF_DET35  0000000HEADERNAME          HeaderName          PRIM_LABL           21                                                                                                                                                                                                                                                                                                  00000000000000          
DEVDF_DET35  0000000ICON_360            Icon_360            PRIM_ICON           23                                                                                                                                                                                                                                                                                                  00000000000000          
DEVDF_DET35  0000000ICON_361            Icon_361            PRIM_ICON           23                                                                                                                                                                                                                                                                                                  00000000000000          
DEVDF_DET35  0000000ICON_363            Icon_363            PRIM_ICON           23                                                                                                                                                                                                                                                                                                  00000000000000          
DEVDF_DET35  0000000IMGE_1              IMGE_1              PRIM_IMGE           21                                                                                                                                                                                                                                                                                                  00000000000000          
DEVDF_DET35  0000000LABL_1              LABL_1              PRIM_LABL           21                                                                                                                                                                                                                                                                                                  00000000000000          
DEVDF_DET35  0000000MAIN_PANEL          Main_Panel          PRIM_PANL           21                                                                                                                                                                                                                                                                                                  00000000000000          
DEVDF_DET35  0000000MNTHSAL             MNTHSAL             MNTHSAL   Visual    21                                                                                                                                                                                                                                                                                                  00000000000000          
DEVDF_DET35  0000000PANL_1              PANL_1              PRIM_PANL           21                                                                                                                                                                                                                                                                                                  00000000000000          
DEVDF_DET35  0000000PANL_LEFT           PANL_left           PRIM_PANL           21                                                                                                                                                                                                                                                                                                  00000000000000          
DEVDF_DET35  0000000PANL_R_BOTTOM       PANL_R_Bottom       PRIM_PANL           21                                                                                                                                                                                                                                                                                                  00000000000000          
DEVDF_DET35  0000000PANL_R_TOP          PANL_R_Top          PRIM_PANL           21                                                                                                                                                                                                                                                                                                  00000000000000          
DEVDF_DET35  0000000PANL_RIGHT          PANL_Right          PRIM_PANL           21                                                                                                                                                                                                                                                                                                  00000000000000          
DEVDF_DET35  0000000PHBN_1              PHBN_1              PRIM_PHBN           21                                                                                                                                                                                                                                                                                                  00000000000000          
DEVDF_DET35  0000000QSUMMARY            QSummary            PRIM_GRID           21                                                                                                                                                                                                                                                                                                  00000000000000          
DEVDF_DET35  0000000SPLI_3              SPLI_3              PRIM_SPLI           21                                                                                                                                                                                                                                                                                                  00000000000000          
DEVDF_DET35  0000000SPLI_4              SPLI_4              PRIM_SPLI           21                                                                                                                                                                                                                                                                                                  00000000000000          
DEVDF_DET35  0000000SPLM_2              SPLM_2              PRIM_SPLM           21                                                                                                                                                                                                                                                                                                  00000000000000          
DEVDF_DET35  0000000STARTDTE            STARTDTE            STARTDTE  Visual    21                                                                                                                                                                                                                                                                                                  00000000000000          
DEVDF_DET35  0000000TEMPGRID            TempGrid            PRIM_GRID           23                                                                                                                                                                                                                                                                                                  00000000000000          
DEVDF_DET35  0000000TIMESHEET           TimeSheet           PRIM_GRID           21                                                                                                                                                                                                                                                                                                  00000000000000          
DEVDF_DET35  0000000TREEVIEW            TreeView            PRIM_TRVW           21                                                                                                                                                                                                                                                                                                  00000000000000          
DEVDF_DET35  0000000TVCL_1              TVCL_1              PRIM_TVCL           21                                                                                                                                                                                                                                                                                                  00000000000000          
DEVDF_DET35  0000000TVCL_2              TVCL_2              PRIM_TVCL           21Quarter                                                                                                                                                                                                                                                                                           00000000000000          
DEVDF_DET35  0000000TVCL_3              TVCL_3              PRIM_TVCL           21Week number                                                                                                                                                                                                                                                                                       00000000000000          
DEVDF_DET35  0000000TVCL_4              TVCL_4              PRIM_TVCL           21                                                                                                                                                                                                                                                                                                  00000000000000          
DEVDF_DET35  0000000TVCL_5              TVCL_5              PRIM_TVCL           21                                                                                                                                                                                                                                                                                                  00000000000000          
DEVDF_DET35  0000000TVCL_6              TVCL_6              PRIM_TVCL           21                                                                                                                                                                                                                                                                                                  00000000000000          
DEVDF_DET35  0000000TVCL_7              TVCL_7              PRIM_TVCL           21                                                                                                                                                                                                                                                                                                  00000000000000          
DEVDF_DET35  0000000YYSUMMARY           YYSummary           PRIM_GRID           21                                                                                                                                                                                                                                                                                                  00000000000000          
DEVDF_DET39  0000000ATLI_2              ATLI_2              PRIM_ATLI           21                                                                                                                                                                                                                                                                                                  00000000000000          
DEVDF_DET39  0000000ATLI_3              ATLI_3              PRIM_ATLI           21                                                                                                                                                                                                                                                                                                  00000000000000          
DEVDF_DET39  0000000ATLM_1              ATLM_1              PRIM_ATLM           21                                                                                                                                                                                                                                                                                                  00000000000000          
DEVDF_DET39  0000000ATLM_2              ATLM_2              PRIM_ATLM           21                                                                                                                                                                                                                                                                                                  00000000000000          
DEVDF_DET39  0000000BODY_PANEL          BODY_PANEL          PRIM_PANL           21                                                                                                                                                                                                                                                                                                  00000000000000          
DEVDF_DET39  0000000DF_DET39            DF_DET39            DF_DET39            11Section Location - Internet Maps                                                                                                                                                                                                                                                                  00000000000000          
DEVDF_DET39  0000000WEBBROWSER          WEBBROWSER          DF_WEBAC  WebBrowser21                                                                                                                                                                                                                                                                                                  00000000000000          
DEVDF_DET40  0000000ATLI_10             ATLI_10             PRIM_ATLI           21                                                                                                                                                                                                                                                                                                  00000000000000          
DEVDF_DET40  0000000ATLI_15             ATLI_15             PRIM_ATLI           21                                                                                                                                                                                                                                                                                                  00000000000000          
DEVDF_DET40  0000000ATLI_16             ATLI_16             PRIM_ATLI           21                                                                                                                                                                                                                                                                                                  00000000000000          
DEVDF_DET40  0000000ATLI_17             ATLI_17             PRIM_ATLI           21                                                                                                                                                                                                                                                                                                  00000000000000          
DEVDF_DET40  0000000ATLI_18             ATLI_18             PRIM_ATLI           21                                                                                                                                                                                                                                                                                                  00000000000000          
DEVDF_DET40  0000000ATLI_19             ATLI_19             PRIM_ATLI           21                                                                                                                                                                                                                                                                                                  00000000000000          
DEVDF_DET40  0000000ATLI_20             ATLI_20             PRIM_ATLI           21                                                                                                                                                                                                                                                                                                  00000000000000          
DEVDF_DET40  0000000ATLI_21             ATLI_21             PRIM_ATLI           21                                                                                                                                                                                                                                                                                                  00000000000000          
DEVDF_DET40  0000000ATLI_22             ATLI_22             PRIM_ATLI           21                                                                                                                                                                                                                                                                                                  00000000000000          
DEVDF_DET40  0000000ATLI_8              ATLI_8              PRIM_ATLI           21                                                                                                                                                                                                                                                                                                  00000000000000          
DEVDF_DET40  0000000ATLI_9              ATLI_9              PRIM_ATLI           21                                                                                                                                                                                                                                                                                                  00000000000000          
DEVDF_DET40  0000000ATLM_5              ATLM_5              PRIM_ATLM           21                                                                                                                                                                                                                                                                                                  00000000000000          
DEVDF_DET40  0000000ATLM_6              ATLM_6              PRIM_ATLM           21                                                                                                                                                                                                                                                                                                  00000000000000          
DEVDF_DET40  0000000ATLM_7              ATLM_7              PRIM_ATLM           21                                                                                                                                                                                                                                                                                                  00000000000000          
DEVDF_DET40  0000000ATLM_8              ATLM_8              PRIM_ATLM           21                                                                                                                                                                                                                                                                                                  00000000000000          
DEVDF_DET40  0000000DF_DET40            DF_DET40            DF_DET40            11New Section                                                                                                                                                                                                                                                                                       00000000000000          
DEVDF_DET40  0000000DF_ELACCT           DF_ELACCT           DF_ELACCT Visual    21                                                                                                                                                                                                                                                                                                  00000000000000          
DEVDF_DET40  0000000DF_ELACCT_1         DF_ELACCT_1         DF_ELACCT Visual    21                                                                                                                                                                                                                                                                                                  00000000000000          
DEVDF_DET40  0000000DF_ELACCT_2         DF_ELACCT_2         DF_ELACCT Visual    21                                                                                                                                                                                                                                                                                                  00000000000000          
DEVDF_DET40  0000000FP_VCOMB_DEPT       FP_VCOMB_DEPT       FP_VCOMB            21                                                                                                                                                                                                                                                                                                  00000000000000          
DEVDF_DET40  0000000FWLI_1              FWLI_1              PRIM_FWLI           21                                                                                                                                                                                                                                                                                                  00000000000000          
DEVDF_DET40  0000000FWLI_10             FWLI_10             PRIM_FWLI           21                                                                                                                                                                                                                                                                                                  00000000000000          
DEVDF_DET40  0000000FWLI_11             FWLI_11             PRIM_FWLI           21                                                                                                                                                                                                                                                                                                  00000000000000          
DEVDF_DET40  0000000FWLI_12             FWLI_12             PRIM_FWLI           21                                                                                                                                                                                                                                                                                                  00000000000000          
DEVDF_DET40  0000000FWLI_14             FWLI_14             PRIM_FWLI           21                                                                                                                                                                                                                                                                                                  00000000000000          
DEVDF_DET40  0000000FWLI_15             FWLI_15             PRIM_FWLI           21                                                                                                                                                                                                                                                                                                  00000000000000          
DEVDF_DET40  0000000FWLI_16             FWLI_16             PRIM_FWLI           21                                                                                                                                                                                                                                                                                                  00000000000000          
DEVDF_DET40  0000000FWLI_17             FWLI_17             PRIM_FWLI           21                                                                                                                                                                                                                                                                                                  00000000000000          
DEVDF_DET40  0000000FWLI_19             FWLI_19             PRIM_FWLI           21                                                                                                                                                                                                                                                                                                  00000000000000          
DEVDF_DET40  0000000FWLI_2              FWLI_2              PRIM_FWLI           21                                                                                                                                                                                                                                                                                                  00000000000000          
DEVDF_DET40  0000000FWLI_20             FWLI_20             PRIM_FWLI           21                                                                                                                                                                                                                                                                                                  00000000000000          
DEVDF_DET40  0000000FWLI_21             FWLI_21             PRIM_FWLI           21                                                                                                                                                                                                                                                                                                  00000000000000          
DEVDF_DET40  0000000FWLI_22             FWLI_22             PRIM_FWLI           21                                                                                                                                                                                                                                                                                                  00000000000000          
DEVDF_DET40  0000000FWLI_23             FWLI_23             PRIM_FWLI           21                                                                                                                                                                                                                                                                                                  00000000000000          
DEVDF_DET40  0000000FWLI_24             FWLI_24             PRIM_FWLI           21                                                                                                                                                                                                                                                                                                  00000000000000          
DEVDF_DET40  0000000FWLI_25             FWLI_25             PRIM_FWLI           21                                                                                                                                                                                                                                                                                                  00000000000000          
DEVDF_DET40  0000000FWLI_3              FWLI_3              PRIM_FWLI           21                                                                                                                                                                                                                                                                                                  00000000000000          
DEVDF_DET40  0000000FWLI_4              FWLI_4              PRIM_FWLI           21                                                                                                                                                                                                                                                                                                  00000000000000          
DEVDF_DET40  0000000FWLI_5              FWLI_5              PRIM_FWLI           21                                                                                                                                                                                                                                                                                                  00000000000000          
DEVDF_DET40  0000000FWLM_1              FWLM_1              PRIM_FWLM           21                                                                                                                                                                                                                                                                                                  00000000000000          
DEVDF_DET40  0000000FWLM_10             FWLM_10             PRIM_FWLM           21                                                                                                                                                                                                                                                                                                  00000000000000          
DEVDF_DET40  0000000FWLM_11             FWLM_11             PRIM_FWLM           21                                                                                                                                                                                                                                                                                                  00000000000000          
DEVDF_DET40  0000000FWLM_12             FWLM_12             PRIM_FWLM           21                                                                                                                                                                                                                                                                                                  00000000000000          
DEVDF_DET40  0000000FWLM_8              FWLM_8              PRIM_FWLM           21                                                                                                                                                                                                                                                                                                  00000000000000          
DEVDF_DET40  0000000FWLM_9              FWLM_9              PRIM_FWLM           21                                                                                                                                                                                                                                                                                                  00000000000000          
DEVDF_DET40  0000000GDCL_1              GDCL_1              PRIM_GDCL           21                                                                                                                                                                                                                                                                                                  00000000000000          
DEVDF_DET40  0000000GDCL_2              GDCL_2              PRIM_GDCL           21                                                                                                                                                                                                                                                                                                  00000000000000          
DEVDF_DET40  0000000GDCL_3              GDCL_3              PRIM_GDCL           21                                                                                                                                                                                                                                                                                                  00000000000000          
DEVDF_DET40  0000000GDCL_4              GDCL_4              PRIM_GDCL           21                                                                                                                                                                                                                                                                                                  00000000000000          
