DEVDEPTAB    DEVMODLIB PJ0000000000000000          0000A DEPTAB01            000                                         
DEVDEPTAB    DEVMODLIB PJ0000000000100000          0000A DEPTAB02            000                                         
DEVLZ2I      DEVMODLIB ET4000000000000000LZYMD_VIR 0001YNYYMMDD  LZDATEINV YYYYMMDD                                      
DEVLZ2I      DEVMODLIB ET4000000000000001LZMDY_VIR 0001YNMMDDYY  LZDATEINV YYYYMMDD                                      
DEVLZ2I      DEVMODLIB ET4000000000000002LZDMY_VIR 0001YNDDMMYY  LZDATEINV YYYYMMDD                                      
DEVLZ2P      DEVMODLIB ET3000000000000000LZPRWTVIR 0001YNLZPRWT    2.1       *LZPRWTVIR                                  
DEVLZ2P      DEVMODLIB ET4000000000000000LZMDY_VIR 0001YNMMDDYY  LZDATEPRD YYYYMMDD                                      
DEVLZ2P      DEVMODLIB ET4000000000000001LZDMY_VIR 0001YNDDMMYY  LZDATEPRD YYYYMMDD                                      
DEVLZ2P      DEVMODLIB ET4000000000000002LZYMD_VIR 0001YNYYMMDD  LZDATEPRD YYYYMMDD                                      
DEVLZ2W      DEVMODLIB ET1000000000000000LZPHCCVIR 0001YNLZWHPH    0001                                                  
DEVLZ2W      DEVMODLIB ET1000000000000001LZPHACVIR 0001YNLZWHPH    0005                                                  
DEVLZ2W      DEVMODLIB ET1000000000000002LZPHLCVIR 0001YNLZWHPH    0009                                                  
DEVLZ2W      DEVMODLIB ET4000000000000000LZYMD_VIR 0001YNYYMMDD  LZDATEDAT YYYYMMDD                                      
DEVLZ2W      DEVMODLIB ET4000000000000001LZMDY_VIR 0001YNMMDDYY  LZDATEDAT YYYYMMDD                                      
DEVLZ2W      DEVMODLIB ET4000000000000002LZDMY_VIR 0001YNDDMMYY  LZDATEDAT YYYYMMDD                                      
DEVPSLEVENT  DEVMODLIB PJ0000000000000000          0000A PSLMST01            001                                         
DEVPSLEVENT  DEVMODLIB PJ6000000000000000PJFGIVEN  0000ANPSLMST01  GIVENAME  000                                         
DEVPSLEVENT  DEVMODLIB PJ6000000000100000PJFSURNAM 0000ANPSLMST01  SURNAME   000                                         
DEVPSLMST    DEVMODLIB ET3000000000000001MNTHSAL   0001YNSALARY    +12       /MNTHSAL                                    
DEVPSLMST    DEVMODLIB ET4000000000000000STARTDTE  0000YYSYSFMT  STARTDTER YYMMDD                                        
DEVPSLMST    DEVMODLIB ET4000000000100000TERMDATE  0000YYSYSFMT  TERMDATER YYMMDD                                        
DEVPSLMST    DEVMODLIB PJ0000000000000000          0000A PSLMST01            000                                         
DEVPSLMST    DEVMODLIB PJ0000000000100000          0000A PSLMST02            000                                         
DEVPSLMST    DEVMODLIB PJ0000000000200000          0000A PSLMST03            000                                         
DEVPSLSKL    DEVMODLIB CIN000000000000000     C*                                                                         
DEVPSLSKL    DEVMODLIB CIN000000000100000     C* SET UP FIELD GRADEDES                                                   
DEVPSLSKL    DEVMODLIB CIN000000000200000     C*                                                                         
DEVPSLSKL    DEVMODLIB CIN000000000300000     C* VC_USING ((GRADEDES GDESC) GRADE)                                       
DEVPSLSKL    DEVMODLIB CIN000000000400000     C*                                                                         
DEVPSLSKL    DEVMODLIB CIN000000000500000     C                     MOVE *BLANKS   GDESC                                 
DEVPSLSKL    DEVMODLIB CIN000000000600000     C           GRADE     IFEQ 'P'                                             
DEVPSLSKL    DEVMODLIB CIN000000000700000     C                     MOVEL'PASS'    GDESC                                 
DEVPSLSKL    DEVMODLIB CIN000000000800000     C                     ELSE                                                 
DEVPSLSKL    DEVMODLIB CIN000000000900000     C           GRADE     IFEQ 'F'                                             
DEVPSLSKL    DEVMODLIB CIN000000001000000     C                     MOVEL'FAIL'    GDESC                                 
DEVPSLSKL    DEVMODLIB CIN000000001100000     C                     ELSE                                                 
DEVPSLSKL    DEVMODLIB CIN000000001200000     C           GRADE     IFEQ 'M'                                             
DEVPSLSKL    DEVMODLIB CIN000000001300000     C                     MOVEL'MERIT'   GDESC                                 
DEVPSLSKL    DEVMODLIB CIN000000001400000     C                     ELSE                                                 
DEVPSLSKL    DEVMODLIB CIN000000001500000     C                     MOVEL'DISTINCT'GDESC                                 
DEVPSLSKL    DEVMODLIB CIN000000001600000     C                     MOVE 'ION'     GDESC                                 
DEVPSLSKL    DEVMODLIB CIN000000001700000     C                     END                                                  
DEVPSLSKL    DEVMODLIB CIN000000001800000     C                     END                                                  
DEVPSLSKL    DEVMODLIB CIN000000001900000     C                     END                                                  
DEVPSLSKL    DEVMODLIB ET4000000000000000DATEACQ   0000YYSYSFMT  DATEACQR  YYMMDD                                        
DEVPSLSKL    DEVMODLIB PJ0000000000000000          0000A PSLSKL01            000                                         
DEVPSLSKL    DEVMODLIB PJ0000000000100000          0000A PSLSKL02            000                                         
DEVSECTAB    DEVMODLIB PJ0000000000000000          0000A SECTAB01            000                                         
DEVSECTAB    DEVMODLIB PJ0000000000100000          0000A SECTAB02            000                                         
DEVXEMPLOYEE DEVMODLIB PJ0000000000000000          0000A XEMPDEPT            000                                         
DEVXEMPLOYEE DEVMODLIB PJ6000000000000000XEMPDEPT  0000ANXEMPDEPT  XDEPTDESC 000                                         
DEVXSSHPCRT  DEVMODLIB ET3000000000000001XSCRTTTL  0001YNXSCRTPRC  XSCRTTAX  +XSCRTTTL                                   
DEVXSSHPCRT  DEVMODLIB ET3000000000000002XSCRTTTL  0002YNXSCRTTTL  XSCRTSHP  +XSCRTTTL                                   
DEVXSSHPITM  DEVMODLIB RL1000000000000001* RDML Code Fragment to apply XSITMPRC to real file fields                      
DEVXSSHPITM  DEVMODLIB RL1000000000100001#XSItemTotalPrice := #XSQuantity * #XSProductPrice                              
DEVXSSHPITM  DEVMODLIB RL1000000000200001* #XSItemTotalPrice := #XSItemTotalPriceV                                       
DEVXSSHPITM  DEVMODLIB RL1000000000300001* RDML Code Fragment to apply XSITMTAX to real file fields                      
DEVXSSHPITM  DEVMODLIB RL1000000000400001#XSItemTotalTax := (#XSProductPrice * #XSProductTaxPercent) / 100 * #XSQuantity 
DEVXSSHPITM  DEVMODLIB RL1000000000500001* RDML Code Fragment to apply XSITMSHPV to real file fields                     
DEVXSSHPITM  DEVMODLIB RL1000000000600001#XSItemTotalShipping := #XSQuantity * #XSProductShipping                        
DEVXSSHPITM  DEVMODLIB RL9000000000000000XSITMPRCV 0000NY000000000000000000000000000000000003                            
DEVXSSHPITM  DEVMODLIB RL9000000000100000XSITMTAXV 0000NY000000000000000000000000003000000002                            
DEVXSSHPITM  DEVMODLIB RL9000000000200000XSITMSHPV 0000NY000000000000000000000000005000000002                            
