DEVENG CKEDITOR  HELLO               LANSA     XHTML     00000000010000100000010001F8B08000000000000009D534D4FDB40103D3712FF61EB8B4162FD151425160645A55C083D9454F4162DDE215EB1EBB5BC63ECFCFBAE3F42033489541FFC35EF3DCF9B79BEBC6E9424AF501AA1F3C409BDC02190A79A8B7C9D38BF96B774EA5C5F8D4E46975F29258FF37BD21F31F976F79D0BD4E5120C124ADA8BE510CCE0AD7432EAB08FF054EACA5621261948A90FC39742D9225385FD481484131A8C6970B10CA6F1388AC30B1A4CE22020945ED9A61A23632C596E9E75A93EDA68525971A025984A222D4A78160D98C491ADE59A3BC45E7313B78F89932116B1EFD775ED49ABC7BC542B3F0A82C8FF7DBFF07F5639DAB6E80D43B6E5D5FC002016030401433096461
DEVENG CKEDITOR  HELLO               LANSA     XHTML     000000000100002000000000020EB61E15BE31290DE8011EB7CA0BDE3D4634F976B3F9CCD667E93A1925B6DEB6B2FB0555E6E3D3B760A5FBA310855E81249666D268E41BE7A818DF16CC5F1F7635E5929986DF22830139C437E0895BE40B7C595641BBBED63825BF8079C651615120598693BDFA61D895602A9BDA31C52C94A86DD8E37603E479588DCB6898993EB1D51045548864014C3344B1CBF9B5A5F4B9994F40D90330536209D8341C0DF55D82FD9A628E66D3C0E6BEF7AEFA13DB61698D1C2BA53033003B1CE70C587F01890905A636E389B168DDB37B78F5B0B8ED967EA348A8E52516BF9C4CA1DD66D25E511527BFECB48759E323C75B57B4E0A6D44BBAFD3B373E2002016030401433096461
DEVENG CKEDITOR  HELLO               LANSA     XHTML     0000000002000000000000108AE16F31F0FF3557831194FDCB341B21FF0BB51FDDFDC89D21CBAAFA38D80D72776671BAC28E486F64134FFDEEDF062FB73D9377F0000                                                                                                                                                                                                                                                                                                                                                                                                        002016030401433096461
DEVENG CKEDITOR  HELLO               LANSA     XHTML     00001000010000100000010001F8B08000000000000009D525D4FDB30147D5E25FE83E797808493F443158D08A81AE365650FA3137BAB4C72692CFC11D93724FDF773929615B61669798813DF738EEF39BE97D78D92E405AC1346A77418C69480CE4C2EF43AA53F97B7EC825E5F0D4E06979F19230FF33BD23F09F9F2ED6B2ED0D82538248CB48BE7102CE0B57432E8B00FF0684DE5AB909002A434C7E14BA17C91ABD21F328A8753168F593C59C617C978940C272C9E26714C18BBF24D354E2668B9764FC6AAF7369A4C5639300BAE92C84A0B4FA2019752D95AAE734AFCAA5DD2FEA6B4402C9328AAEB3A945E8F879951D1288E47D1AFBB45F4A3D2E8DB62371CF98E57E747002016030401433107991
DEVENG CKEDITOR  HELLO               LANSA     XHTML     000010000100002000000000059F78BC81B9780EC069C58EB2DED0DA71E87C6AEA3E16C368B9A0295DC697B5F0781ADF272E799FA143E753108551A8BA4F03653EA305F3DC3C685BE42A3C398176E05F74D7E082C449E833E86CA9EA1BBC595E41B7FDB1F09EEE0EF709E5956481460617CBE4D1B89510299FF623964925B8EDD1D6FC0FD3DAA4468DF26A6549B3D5104554A8E4014C7AC4869D4A5D6D7322E257B0568AEC00F48E7602B10ED2B1C966CA728C9DBF138AEBDEFBD87F6D85A60C14AEF4E6D81688C7CE496120712326F29B8ADA40CFAAE0E91DAF71F466674C6F13430C139298D136D70A767E724582DE6DFEFE7ABE1643A9E06675BC9DEE99B9EFF2F00A24C0E002016030401433107991
DEVENG CKEDITOR  HELLO               LANSA     XHTML     0000100002000000000000056DDE9E8EF22EC47672F165E9672C3FA8970FF0E79BBB19B72BFF31B00                                                                                                                                                                                                                                                                                                                                                                                                                                                            002016030401433107991
DEVENG DM_DET30  UHANDLEEVENT        LANSA     XHTML     00000000010000100000010001F8B0800000000000000E5575B6FDB36147E6E81FD078ECDE0669B2CC976965A8D9CB5B1B30E48802197AEC03018B4445BC42852A0E8DB86FDF71D5117CB4E64BBC5F6342780499E0BCFF9CEC743FAE2721573B4A02A6552F8D86D3B185111C89089998F1F1FAEAD37F872F0F2AB97175F5B16FA954E104912CE02A2411F7968783B1E8E1EBA0EAA7D8634214AC75468444488EE696094875413C6D38D9E650D6A7E959C6B26A89178E8F10398723A5A645E3EF3B3F1FBC0629A6A122785C4431DC739B7E0DFED3CB867DED9B9E7F6BE731DCF71F67AACFB5DA5DCD38A88742A55BC8BDC2AE0F3905A8AA673AEAD44D1295BD1D4C73C43791962002014101700502253131
DEVENG DM_DET30  UHANDLEEVENT        LANSA     XHTML     000000000100002000000000004DF22F5B2A98F23AD13CFB697CB659B833FD20E646C43801DFBD3ED8D7D37171AC2B7864493D26E19EEB5BABFB101494EB535A4299B89C26CCB66D96D4B35B3DD7EBF6FAF221DF3D237E4D5A898797E2873C680C20B03038B13A9348A204D1FA73A1CFF41D7691B24D86ED65910C50804B95771C1A7634ED640897D5AF3C93899A7D1C4DDA7344DC60A209A1CD29910353B14FB840841D5214F318DE58E0E2492CC358AA98E24D47095C12E63A62D1859210D3851E644F9784DD3A727103111C241F0B19085D38C415E08D4C866C5342182A68881FF91FBC675AEFAC3ABDEE8AC77357AD71F75BAE7FD5EBFDF1B5DF7866ED794B034639AC6F9002014101700502253131
DEVENG DM_DET30  UHANDLEEVENT        LANSA     XHTML     0000000002000010000001000BC58084892C532B80F94E41CC240575268D8FFC2DE92D76D1684CF69A3452ECDF7B4B7372DE626769399BD955A7EDC689C70A2298A890E221FDB79FC4606A5CD3ACDE05FE94D1776DDE5F37B34F7A9266BC2B955A520484CA11F186E17B5B4EB3936275DE152641FB20502E2A4D9F96621F0A3AC2A1319D7A408222266B099A27AAE0462E947C259F84057FAB58E58FA3D6AA1D6293684F9783D1EDDDCDEFF8461B715A762A66147B7DBC128657FD262A8D709ADF62A12D9189A1AFBF82FE801AF5B5346796899A516EC536AB54EFFCE7386A421FC7CA4B36E8052BDE660BE64A18E3CE43ACE376F5144D92CD2C50CA380729E26243007A397CF002014101700502253131
DEVENG DM_DET30  UHANDLEEVENT        LANSA     XHTML     0000000002000020000000000131286E53C9DC731516B1F6334912AA4CAC74E89899EC8705D3256AB6204C37067E76E7DE3F364F5D66406CDD4C75A2618CABF841860D6C5A8580FA0DC54E1D26773D5CBE6B0517D61AE2963B0643AB2809C24DE686703C88B72A0A98F2F31B207F92D74D8DAA4330E8B7BE08B5CE4281CF651F0BE9E7085AFADC366AC7F68C63A0696715A41CCE9541F0970D6EBFF9700C3501DC3F0B33AEA5DD701DC8BF3E2B9C90AA5129A047A45FAD91F5464320B249770965E4DCDA7B1464F8E4179C2F3199B42E2D4741B68A33F5FDFBDBB1DE132B4221C73D0F3582C23F184141482C8E5D08740018C54D0D0688659A379BCBBF994751A64122E8D6A87002014101700502253131
DEVENG DM_DET30  UHANDLEEVENT        LANSA     XHTML     0000000003000010000000504787061E7D1D410AE057B14A6004ADE073A956B95C578044BAB674B9DA6CF12649B9EADC7F7E35F1EEF3FBC775B4517DD636A20D9D83E07D6C6DD69CDDFE7920D46556F8571D6CCF3F1447DCEF556BD0A7E6BB7ED1F8125AD438F98D6EF705BC9906E3DCD12C516E0B52DE161AE58486B2F853A3A41F63C59E9F232DA1567CFAD55933047B6260C2229D3F279638A11518134FCF2F0F18971E557A536F2EC99B2AED04DAB229D946115798D0F41307677126DA443E5B9DCABBD29F9F31639069BD8EA981CCBBA933A5625B576B22F5954025710691BD82349F4ED972367DAF4864828C81FB0651BFE6F1964162C397D16B827B9170BE5EF3158F9002014101700502253131
DEVENG DM_DET30  UHANDLEEVENT        LANSA     XHTML     00000000030000200000000000700                                                                                                                                                                                                                                                                                                                                                                                                                                                                                                                002014101700502253131
DEVENG DM_DET31  UHANDLEEVENT        LANSA     XHTML     00000000010000100000010003C3F786D6C2076657273696F6E3D22312E302220656E636F64696E673D225554462D38223F3E0A3C212D2D20576562206170706C69636174696F6E203A20444D5F44455433312020202020202020202020204576656E7473202020202020202020202020202020202020202020202020202020202020202020202D2D3E0A3C212D2D2057656220726F7574696E6520202020203A205548616E646C654576656E742020202020202020202020202020202020202020202020202020202020202020202020202020202020202020202020202D2D3E0A3C212D2D2054696D657374616D70202020202020203A20323030372D30372D31385431303A00201210090065559323 
DEVENG DM_DET31  UHANDLEEVENT        LANSA     XHTML     000000000100002000000000031303A32382B31303A303020202020202020202020202020202020202020202020202020202020202020202020202D2D3E0A3C78736C3A7472616E73666F726D2076657273696F6E3D22312E3022206578636C7564652D726573756C742D70726566697865733D226C786D6C207764220A202020202020202020202020202020786D6C6E733A6C786D6C3D22687474703A2F2F7777772E6C616E73612E636F6D2F323030322F584D4C2F52756E74696D652D44617461220A202020202020202020202020202020786D6C6E733A77643D22687474703A2F2F7777772E6C616E73612E636F6D2F323030322F58534C2F5765626C65742D4465736900201210090065559323 
DEVENG DM_DET31  UHANDLEEVENT        LANSA     XHTML     0000000002000010000001000676E220A202020202020202020202020202020786D6C6E733D22687474703A2F2F7777772E77332E6F72672F313939392F7868746D6C220A202020202020202020202020202020786D6C6E733A78736C3D22687474703A2F2F7777772E77332E6F72672F313939392F58534C2F5472616E73666F726D223E0A2020203C78736C3A696D706F727420687265663D227374645F6B6579732E78736C22202F3E0A2020203C78736C3A696D706F727420687265663D227374645F7661726961626C65732E78736C22202F3E0A2020203C78736C3A696D706F727420687265663D22766C665F6C61796F75745F76322E78736C22202F3E0A2020203C7800201210090065559323 
DEVENG DM_DET31  UHANDLEEVENT        LANSA     XHTML     0000000002000020000000000736C3A696D706F727420687265663D227374645F646174657069636B65722E78736C22202F3E0A2020203C78736C3A696D706F727420687265663D2275625F736176652E78736C22202F3E0A2020203C78736C3A696D706F727420687265663D2266705F72636F6D62312E78736C22202F3E0A2020203C78736C3A696D706F727420687265663D2266705F7262757474312E78736C22202F3E0A2020203C78736C3A696D706F727420687265663D227374645F74657874617265612E78736C22202F3E0A2020203C78736C3A6F7574707574206D6574686F643D22786D6C22206F6D69742D786D6C2D6465636C61726174696F6E3D227965732200201210090065559323 
DEVENG DM_DET31  UHANDLEEVENT        LANSA     XHTML     000000000300001000000100020656E636F64696E673D225554462D38220A202020202020202020202020202020696E64656E743D226E6F22202F3E0A2020203C77643A65787465726E616C2D7265736F75726365733E0A2020202020203C77643A7374796C65206E616D653D2258575430314A22202F3E0A2020202020203C77643A7374796C65206E616D653D2258575430314C22202F3E0A2020203C2F77643A65787465726E616C2D7265736F75726365733E0A0A2020203C78736C3A74656D706C617465206D617463683D222F223E0A2020202020203C78736C3A636F6D6D656E743E20576562206170706C69636174696F6E203A20444D5F444554333120202020202000201210090065559323 
DEVENG DM_DET31  UHANDLEEVENT        LANSA     XHTML     00000000030000200000000002020202020204576656E74733C2F78736C3A636F6D6D656E743E0A2020202020203C78736C3A636F6D6D656E743E2057656220726F7574696E6520202020203A205548616E646C654576656E743C2F78736C3A636F6D6D656E743E0A2020202020203C78736C3A63616C6C2D74656D706C617465206E616D653D226C61796F757422202F3E0A2020203C2F78736C3A74656D706C6174653E0A0A2020203C78736C3A74656D706C617465206D617463683D222F6C786D6C3A64617461223E0A2020202020203C64697620636C6173733D2268696464656E223E3C2F6469763E0A2020202020203C7461626C6520626F726465723D22302220636500201210090065559323 
DEVENG DM_DET31  UHANDLEEVENT        LANSA     XHTML     00000000040000100000010006C6C73706163696E673D2233222073756D6D6172793D22222063656C6C70616464696E673D2230223E0A2020202020202020203C74626F64793E3C2F74626F64793E0A2020202020203C2F7461626C653E0A2020202020203C6272202F3E0A2020202020203C78736C3A6170706C792D74656D706C617465732073656C6563743D222F6C786D6C3A646174612F6C786D6C3A6C697374732F6C786D6C3A6C6973745B406E616D653D274453505F4C495354275D223E0A2020202020202020203C78736C3A776974682D706172616D206E616D653D22616C6C6F775F736F7274222073656C6563743D2274727565282922202F3E0A20202020202000201210090065559323 
DEVENG DM_DET31  UHANDLEEVENT        LANSA     XHTML     00000000040000200000000002020203C78736C3A776974682D706172616D206E616D653D22616C6C6F775F636F6C5F726573697A65222073656C6563743D2274727565282922202F3E0A2020202020203C2F78736C3A6170706C792D74656D706C617465733E0A2020203C2F78736C3A74656D706C6174653E0A0A2020203C78736C3A74656D706C617465206D617463683D222F6C786D6C3A646174612F6C786D6C3A6C697374732F6C786D6C3A6C6973745B406E616D653D274453505F4C495354275D223E0A2020202020203C78736C3A706172616D206E616D653D22616C6C6F775F736F7274222073656C6563743D22747275652829222077643A7469705F69643D222200201210090065559323 
DEVENG DM_DET31  UHANDLEEVENT        LANSA     XHTML     00000000050000100000010000A202020202020202020202020202020202077643A747970653D227374643A626F6F6C65616E22202F3E0A2020202020203C78736C3A706172616D206E616D653D22616C6C6F775F636F6C5F726573697A65222073656C6563743D22747275652829222077643A7469705F69643D22220A202020202020202020202020202020202077643A747970653D227374643A626F6F6C65616E22202F3E0A2020202020203C78736C3A7661726961626C65206E616D653D227468656C697374220A202020202020202020202020202020202020202073656C6563743D222F6C786D6C3A646174612F6C786D6C3A6C697374732F6C786D6C3A6C6973745B00201210090065559323 
DEVENG DM_DET31  UHANDLEEVENT        LANSA     XHTML     0000000005000020000000000406E616D653D274453505F4C495354275D22202F3E0A2020202020203C736372697074206C616E67756167653D226A617661736372697074223E0A2020202020202020203C78736C3A746578742064697361626C652D6F75747075742D6573636170696E673D22796573223E2F2F266C743B215B43444154415B3C2F78736C3A746578743E0A20202020202020202020202066756E6374696F6E20696E69745F737464477269645F4453505F4C4953542829207B0A2020202020202020202020207661722067203D2072656769737465725F7374645F6772696428274453505F4C495354272C35293B0A202020202020202020202020672E616C00201210090065559323 
DEVENG DM_DET31  UHANDLEEVENT        LANSA     XHTML     00000000060000100000010006C6F77536F7274203D203C78736C3A76616C75652D6F662073656C6563743D2224616C6C6F775F736F727422202F3E3B0A202020202020202020202020672E616C6C6F77436F6C526573697A65203D203C78736C3A76616C75652D6F662073656C6563743D2224616C6C6F775F636F6C5F726573697A6522202F3E3B0A20202020202020202020202076617220636F6C203D20303B0A202020202020202020202020766172207373203D20646F63756D656E742E7374796C655368656574735B305D3B0A20202020202020202020202076617220676964203D20272E7374645F67726964234453505F4C49535420273B0A20202020202020202000201210090065559323 
DEVENG DM_DET31  UHANDLEEVENT        LANSA     XHTML     00000000060000200000000002020200A2020202020202020202020207D0A202020202020202020202020696E69745F737464477269645F4453505F4C49535428293B0A2020202020202020202020203C78736C3A746578742064697361626C652D6F75747075742D6573636170696E673D22796573223E2F2F5D5D2667743B3C2F78736C3A746578743E0A2020202020203C2F7363726970743E0A2020202020203C696E70757420747970653D2268696464656E22206E616D653D224453505F4C4953542E2E220A2020202020202020202020202076616C75653D227B636F756E74286C786D6C3A6C6973742D656E74726965732F6C786D6C3A656E7472795B315D297D222000201210090065559323 
DEVENG DM_DET31  UHANDLEEVENT        LANSA     XHTML     00000000070000100000010002F3E0A2020202020203C6469762069643D224453505F4C4953545F777261702220636C6173733D227374645F677269645F77726170706572223E0A2020202020202020203C78736C3A696620746573743D222F6C786D6C3A646174612F6C786D6C3A636F6E746578745B4064657369676E5D223E0A2020202020202020202020203C78736C3A617474726962757465206E616D653D22636C617373223E7374645F677269645F777261707065725F64657369676E74696D653C2F78736C3A6174747269627574653E0A2020202020202020203C2F78736C3A69663E0A2020202020202020203C7461626C652069643D224453505F4C495354222000201210090065559323 
DEVENG DM_DET31  UHANDLEEVENT        LANSA     XHTML     0000000007000020000000000636C6173733D227374645F67726964223E0A2020202020202020202020203C74686561643E0A2020202020202020202020202020203C747220636C6173733D226C6973742D68223E0A2020202020202020202020202020202020203C7468207374796C653D22646973706C61793A206E6F6E653B220A20202020202020202020202020202020202020202020636C6173733D227574657874205354445F464C4147207374645F677269645F736F72745F696E64696361746F72220A202020202020202020202020202020202020202020205F5F646563696D616C736570617261746F723D2222205F5F666F726D6174747970653D22616C70686100201210090065559323 
DEVENG DM_DET31  UHANDLEEVENT        LANSA     XHTML     000000000800001000000100022205F5F6D6F64653D22696E707574220A202020202020202020202020202020202020202020205F5F616C6C6F77736F72743D2274727565223E0A2020202020202020202020202020202020202020203C78736C3A666F722D656163682073656C6563743D22247468656C6973742F6C786D6C3A6C6973742D6865616465722F6C786D6C3A6865616465725B315D2F2A5B2E2F2F7465787428295B6E6F726D616C697A652D7370616365282E29213D27275D5D223E0A2020202020202020202020202020202020202020202020203C78736C3A76616C75652D6F662073656C6563743D222E22202F3E0A2020202020202020202020202020202000201210090065559323 
DEVENG DM_DET31  UHANDLEEVENT        LANSA     XHTML     000000000800002000000000020202020202020203C78736C3A696620746573743D226E6F7428706F736974696F6E2829203D206C617374282929223E0A2020202020202020202020202020202020202020202020202020203C6272202F3E0A2020202020202020202020202020202020202020202020203C2F78736C3A69663E0A2020202020202020202020202020202020202020203C2F78736C3A666F722D656163683E0A2020202020202020202020202020202020202020203C64697620636C6173733D227374645F677269645F63656C6C5F73697A6572223E0A2020202020202020202020202020202020202020202020203C78736C3A696620746573743D22626F6F00201210090065559323 
DEVENG DM_DET31  UHANDLEEVENT        LANSA     XHTML     00000000090000100000010006C65616E282F6C786D6C3A646174612F6C786D6C3A636F6E746578745B4064657369676E5D29223E0A2020202020202020202020202020202020202020202020202020203C78736C3A617474726962757465206E616D653D22636C617373223E68696464656E5F5F3C2F78736C3A6174747269627574653E0A2020202020202020202020202020202020202020202020203C2F78736C3A69663E0A2020202020202020202020202020202020202020202020203C78736C3A636F6D6D656E743E0A2020202020202020202020202020202020202020202020203C2F78736C3A636F6D6D656E743E0A20202020202020202020202020202020202000201210090065559323 
DEVENG DM_DET31  UHANDLEEVENT        LANSA     XHTML     00000000090000200000000002020203C2F6469763E0A2020202020202020202020202020202020203C2F74683E0A2020202020202020202020202020202020203C7468207374796C653D22646973706C61793A206E6F6E653B220A20202020202020202020202020202020202020202020636C6173733D2274657874205354445F5445585453207374645F677269645F736F72745F696E64696361746F72220A202020202020202020202020202020202020202020205F5F646563696D616C736570617261746F723D2222205F5F666F726D6174747970653D22616C70686122205F5F6D6F64653D22696E707574220A2020202020202020202020202020202020202020202000201210090065559323 
DEVENG DM_DET31  UHANDLEEVENT        LANSA     XHTML     00000000100000100000010005F5F616C6C6F77736F72743D2274727565223E0A2020202020202020202020202020202020202020203C78736C3A666F722D656163682073656C6563743D22247468656C6973742F6C786D6C3A6C6973742D6865616465722F6C786D6C3A6865616465725B325D2F2A5B2E2F2F7465787428295B6E6F726D616C697A652D7370616365282E29213D27275D5D223E0A2020202020202020202020202020202020202020202020203C78736C3A76616C75652D6F662073656C6563743D222E22202F3E0A2020202020202020202020202020202020202020202020203C78736C3A696620746573743D226E6F7428706F736974696F6E2829203D2000201210090065559323 
DEVENG DM_DET31  UHANDLEEVENT        LANSA     XHTML     00000000100000200000000006C617374282929223E0A2020202020202020202020202020202020202020202020202020203C6272202F3E0A2020202020202020202020202020202020202020202020203C2F78736C3A69663E0A2020202020202020202020202020202020202020203C2F78736C3A666F722D656163683E0A2020202020202020202020202020202020202020203C64697620636C6173733D227374645F677269645F63656C6C5F73697A6572223E0A2020202020202020202020202020202020202020202020203C78736C3A696620746573743D22626F6F6C65616E282F6C786D6C3A646174612F6C786D6C3A636F6E746578745B4064657369676E5D292200201210090065559323 
DEVENG DM_DET31  UHANDLEEVENT        LANSA     XHTML     00000000110000100000010003E0A2020202020202020202020202020202020202020202020202020203C78736C3A617474726962757465206E616D653D22636C617373223E68696464656E5F5F3C2F78736C3A6174747269627574653E0A2020202020202020202020202020202020202020202020203C2F78736C3A69663E0A2020202020202020202020202020202020202020202020203C78736C3A636F6D6D656E743E0A2020202020202020202020202020202020202020202020203C2F78736C3A636F6D6D656E743E0A2020202020202020202020202020202020202020203C2F6469763E0A2020202020202020202020202020202020203C2F74683E0A202020202000201210090065559323 
DEVENG DM_DET31  UHANDLEEVENT        LANSA     XHTML     0000000011000020000000000202020202020202020202020203C7468207374796C653D22646973706C61793A206E6F6E653B220A20202020202020202020202020202020202020202020636C6173733D22746578742044465F454C5458544C207374645F677269645F736F72745F696E64696361746F72220A202020202020202020202020202020202020202020205F5F646563696D616C736570617261746F723D2222205F5F666F726D6174747970653D22616C70686122205F5F6D6F64653D22696E707574220A202020202020202020202020202020202020202020205F5F616C6C6F77736F72743D2274727565223E0A2020202020202020202020202020202020202000201210090065559323 
DEVENG DM_DET31  UHANDLEEVENT        LANSA     XHTML     000000001200001000000100020203C78736C3A666F722D656163682073656C6563743D22247468656C6973742F6C786D6C3A6C6973742D6865616465722F6C786D6C3A6865616465725B335D2F2A5B2E2F2F7465787428295B6E6F726D616C697A652D7370616365282E29213D27275D5D223E0A2020202020202020202020202020202020202020202020203C78736C3A76616C75652D6F662073656C6563743D222E22202F3E0A2020202020202020202020202020202020202020202020203C78736C3A696620746573743D226E6F7428706F736974696F6E2829203D206C617374282929223E0A2020202020202020202020202020202020202020202020202020203C6200201210090065559323 
DEVENG DM_DET31  UHANDLEEVENT        LANSA     XHTML     000000001200002000000000072202F3E0A2020202020202020202020202020202020202020202020203C2F78736C3A69663E0A2020202020202020202020202020202020202020203C2F78736C3A666F722D656163683E0A2020202020202020202020202020202020202020203C64697620636C6173733D227374645F677269645F63656C6C5F73697A6572223E0A2020202020202020202020202020202020202020202020203C78736C3A696620746573743D22626F6F6C65616E282F6C786D6C3A646174612F6C786D6C3A636F6E746578745B4064657369676E5D29223E0A2020202020202020202020202020202020202020202020202020203C78736C3A617474726900201210090065559323 
DEVENG DM_DET31  UHANDLEEVENT        LANSA     XHTML     000000001300001000000100062757465206E616D653D22636C617373223E68696464656E5F5F3C2F78736C3A6174747269627574653E0A2020202020202020202020202020202020202020202020203C2F78736C3A69663E0A2020202020202020202020202020202020202020202020203C78736C3A636F6D6D656E743E0A2020202020202020202020202020202020202020202020203C2F78736C3A636F6D6D656E743E0A2020202020202020202020202020202020202020203C2F6469763E0A2020202020202020202020202020202020203C2F74683E0A2020202020202020202020202020202020203C7468207374796C653D22646973706C61793A206E6F6E653B2200201210090065559323 
DEVENG DM_DET31  UHANDLEEVENT        LANSA     XHTML     00000000130000200000000000A20202020202020202020202020202020202020202020636C6173733D226E756D6265722044465F454C44415458207374645F677269645F736F72745F696E64696361746F72220A202020202020202020202020202020202020202020205F5F646563696D616C736570617261746F723D2222205F5F666F726D6174747970653D226461746522205F5F6D6F64653D22696E707574220A202020202020202020202020202020202020202020205F5F616C6C6F77736F72743D2274727565223E0A2020202020202020202020202020202020202020203C78736C3A666F722D656163682073656C6563743D22247468656C6973742F6C786D6C3A00201210090065559323 
DEVENG DM_DET31  UHANDLEEVENT        LANSA     XHTML     00000000140000100000010006C6973742D6865616465722F6C786D6C3A6865616465725B345D2F2A5B2E2F2F7465787428295B6E6F726D616C697A652D7370616365282E29213D27275D5D223E0A2020202020202020202020202020202020202020202020203C78736C3A76616C75652D6F662073656C6563743D222E22202F3E0A2020202020202020202020202020202020202020202020203C78736C3A696620746573743D226E6F7428706F736974696F6E2829203D206C617374282929223E0A2020202020202020202020202020202020202020202020202020203C6272202F3E0A2020202020202020202020202020202020202020202020203C2F78736C3A69663E00201210090065559323 
DEVENG DM_DET31  UHANDLEEVENT        LANSA     XHTML     00000000140000200000000000A2020202020202020202020202020202020202020203C2F78736C3A666F722D656163683E0A2020202020202020202020202020202020202020203C64697620636C6173733D227374645F677269645F63656C6C5F73697A6572223E0A2020202020202020202020202020202020202020202020203C78736C3A696620746573743D22626F6F6C65616E282F6C786D6C3A646174612F6C786D6C3A636F6E746578745B4064657369676E5D29223E0A2020202020202020202020202020202020202020202020202020203C78736C3A617474726962757465206E616D653D22636C617373223E68696464656E5F5F3C2F78736C3A61747472696200201210090065559323 
DEVENG DM_DET31  UHANDLEEVENT        LANSA     XHTML     00000000150000100000010007574653E0A2020202020202020202020202020202020202020202020203C2F78736C3A69663E0A2020202020202020202020202020202020202020202020203C78736C3A636F6D6D656E743E0A2020202020202020202020202020202020202020202020203C2F78736C3A636F6D6D656E743E0A2020202020202020202020202020202020202020203C2F6469763E0A2020202020202020202020202020202020203C2F74683E0A2020202020202020202020202020202020203C7468207374796C653D22646973706C61793A206E6F6E653B220A20202020202020202020202020202020202020202020636C6173733D22757465787420444600201210090065559323 
DEVENG DM_DET31  UHANDLEEVENT        LANSA     XHTML     00000000150000200000000005F454C53544154207374645F677269645F736F72745F696E64696361746F72220A202020202020202020202020202020202020202020205F5F646563696D616C736570617261746F723D2222205F5F666F726D6174747970653D22616C70686122205F5F6D6F64653D22696E707574220A202020202020202020202020202020202020202020205F5F616C6C6F77736F72743D2274727565223E0A2020202020202020202020202020202020202020203C78736C3A666F722D656163682073656C6563743D22247468656C6973742F6C786D6C3A6C6973742D6865616465722F6C786D6C3A6865616465725B355D2F2A5B2E2F2F74657874282900201210090065559323 
DEVENG DM_DET31  UHANDLEEVENT        LANSA     XHTML     00000000160000100000010005B6E6F726D616C697A652D7370616365282E29213D27275D5D223E0A2020202020202020202020202020202020202020202020203C78736C3A76616C75652D6F662073656C6563743D222E22202F3E0A2020202020202020202020202020202020202020202020203C78736C3A696620746573743D226E6F7428706F736974696F6E2829203D206C617374282929223E0A2020202020202020202020202020202020202020202020202020203C6272202F3E0A2020202020202020202020202020202020202020202020203C2F78736C3A69663E0A2020202020202020202020202020202020202020203C2F78736C3A666F722D656163683E0A00201210090065559323 
DEVENG DM_DET31  UHANDLEEVENT        LANSA     XHTML     00000000160000200000000002020202020202020202020202020202020202020203C64697620636C6173733D227374645F677269645F63656C6C5F73697A6572223E0A2020202020202020202020202020202020202020202020203C78736C3A696620746573743D22626F6F6C65616E282F6C786D6C3A646174612F6C786D6C3A636F6E746578745B4064657369676E5D29223E0A2020202020202020202020202020202020202020202020202020203C78736C3A617474726962757465206E616D653D22636C617373223E68696464656E5F5F3C2F78736C3A6174747269627574653E0A2020202020202020202020202020202020202020202020203C2F78736C3A69663E00201210090065559323 
DEVENG DM_DET31  UHANDLEEVENT        LANSA     XHTML     00000000170000100000010000A2020202020202020202020202020202020202020202020203C78736C3A636F6D6D656E743E0A2020202020202020202020202020202020202020202020203C2F78736C3A636F6D6D656E743E0A2020202020202020202020202020202020202020203C2F6469763E0A2020202020202020202020202020202020203C2F74683E0A2020202020202020202020202020203C2F74723E0A2020202020202020202020203C2F74686561643E0A2020202020202020202020203C74626F64793E0A2020202020202020202020202020203C78736C3A666F722D656163682073656C6563743D22247468656C6973742F6C786D6C3A6C6973742D656E00201210090065559323 
DEVENG DM_DET31  UHANDLEEVENT        LANSA     XHTML     000000001700002000000000074726965732F6C786D6C3A656E747279223E0A2020202020202020202020202020202020203C78736C3A7661726961626C65206E616D653D225354445F464C4147222073656C6563743D226C786D6C3A636F6C756D6E5B315D22202F3E0A2020202020202020202020202020202020203C78736C3A7661726961626C65206E616D653D225354445F5445585453222073656C6563743D226C786D6C3A636F6C756D6E5B325D22202F3E0A2020202020202020202020202020202020203C78736C3A7661726961626C65206E616D653D2244465F454C5458544C222073656C6563743D226C786D6C3A636F6C756D6E5B335D22202F3E0A2020202000201210090065559323 
DEVENG DM_DET31  UHANDLEEVENT        LANSA     XHTML     000000001800001000000100020202020202020202020202020203C78736C3A7661726961626C65206E616D653D2244465F454C44415458222073656C6563743D226C786D6C3A636F6C756D6E5B345D22202F3E0A2020202020202020202020202020202020203C78736C3A7661726961626C65206E616D653D2244465F454C53544154222073656C6563743D226C786D6C3A636F6C756D6E5B355D22202F3E0A2020202020202020202020202020202020203C7472205F5F6576656E72633D226C6973742D6522205F5F6F646472633D226C6973742D6F223E0A2020202020202020202020202020202020202020203C78736C3A617474726962757465206E616D653D22636C00201210090065559323 
DEVENG DM_DET31  UHANDLEEVENT        LANSA     XHTML     0000000018000020000000000617373223E0A2020202020202020202020202020202020202020202020203C78736C3A63686F6F73653E0A2020202020202020202020202020202020202020202020202020203C78736C3A7768656E20746573743D22706F736974696F6E2829206D6F642032223E6C6973742D6F3C2F78736C3A7768656E3E0A2020202020202020202020202020202020202020202020202020203C78736C3A6F74686572776973653E6C6973742D653C2F78736C3A6F74686572776973653E0A2020202020202020202020202020202020202020202020203C2F78736C3A63686F6F73653E0A2020202020202020202020202020202020202020203C2F787300201210090065559323 
DEVENG DM_DET31  UHANDLEEVENT        LANSA     XHTML     00000000190000100000010006C3A6174747269627574653E0A2020202020202020202020202020202020202020203C746420636C6173733D225354445F464C4147223E0A2020202020202020202020202020202020202020202020203C78736C3A617474726962757465206E616D653D225F5F63656C6C56616C7565223E0A2020202020202020202020202020202020202020202020202020203C78736C3A76616C75652D6F662073656C6563743D22245354445F464C414722202F3E0A2020202020202020202020202020202020202020202020203C2F78736C3A6174747269627574653E0A2020202020202020202020202020202020202020202020203C78736C3A636100201210090065559323 
DEVENG DM_DET31  UHANDLEEVENT        LANSA     XHTML     00000000190000200000000006C6C2D74656D706C617465206E616D653D2266705F726275747431223E0A2020202020202020202020202020202020202020202020202020203C212D2D203C78736C3A776974682D706172616D206E616D653D2277696474685F64657369676E222073656C6563743D223F22202F3E202D2D3E0A2020202020202020202020202020202020202020202020202020203C212D2D203C78736C3A776974682D706172616D206E616D653D226865696768745F64657369676E222073656C6563743D223F22202F3E202D2D3E0A2020202020202020202020202020202020202020202020203C2F78736C3A63616C6C2D74656D706C6174653E0A202000201210090065559323 
DEVENG DM_DET31  UHANDLEEVENT        LANSA     XHTML     0000000020000010000001000202020202020202020202020202020202020203C2F74643E0A2020202020202020202020202020202020202020203C746420636C6173733D225354445F5445585453223E0A2020202020202020202020202020202020202020202020203C78736C3A617474726962757465206E616D653D225F5F63656C6C56616C7565223E0A2020202020202020202020202020202020202020202020202020203C78736C3A76616C75652D6F662073656C6563743D22245354445F544558545322202F3E0A2020202020202020202020202020202020202020202020203C2F78736C3A6174747269627574653E0A202020202020202020202020202020202000201210090065559323 
DEVENG DM_DET31  UHANDLEEVENT        LANSA     XHTML     0000000020000020000000000202020202020203C696E707574207374796C653D2277696474683A2031323770783B222069643D227B245354445F54455854532F4069647D220A20202020202020202020202020202020202020202020202020202020202020636C6173733D2274657874220A202020202020202020202020202020202020202020202020202020202020206F6E6368616E67653D2272657475726E20697356616C69645465787428746869732C2027202729220A202020202020202020202020202020202020202020202020202020202020206D61786C656E6774683D223330222073697A653D223122206E616D653D227B245354445F54455854532F40696400201210090065559323 
DEVENG DM_DET31  UHANDLEEVENT        LANSA     XHTML     00000000210000100000010007D220A2020202020202020202020202020202020202020202020202020202020202076616C75653D227B245354445F54455854537D22202F3E0A2020202020202020202020202020202020202020203C2F74643E0A2020202020202020202020202020202020202020203C746420636C6173733D2244465F454C5458544C223E0A2020202020202020202020202020202020202020202020203C78736C3A617474726962757465206E616D653D225F5F63656C6C56616C7565223E0A2020202020202020202020202020202020202020202020202020203C78736C3A76616C75652D6F662073656C6563743D222444465F454C5458544C22202F00201210090065559323 
DEVENG DM_DET31  UHANDLEEVENT        LANSA     XHTML     00000000210000200000000003E0A2020202020202020202020202020202020202020202020203C2F78736C3A6174747269627574653E0A2020202020202020202020202020202020202020202020203C78736C3A63616C6C2D74656D706C617465206E616D653D227374645F7465787461726561223E0A2020202020202020202020202020202020202020202020202020203C78736C3A776974682D706172616D206E616D653D2277696474685F64657369676E222073656C6563743D222733393270782722202F3E0A2020202020202020202020202020202020202020202020202020203C78736C3A776974682D706172616D206E616D653D226865696768745F6465736900201210090065559323 
DEVENG DM_DET31  UHANDLEEVENT        LANSA     XHTML     0000000022000010000001000676E222073656C6563743D2227313870782722202F3E0A2020202020202020202020202020202020202020202020202020203C78736C3A776974682D706172616D206E616D653D226E616D65222073656C6563743D222444465F454C5458544C2F40696422202F3E0A2020202020202020202020202020202020202020202020202020203C78736C3A776974682D706172616D206E616D653D2276616C7565222073656C6563743D222444465F454C5458544C22202F3E0A2020202020202020202020202020202020202020202020202020203C212D2D203C78736C3A776974682D706172616D206E616D653D22686964655F6966222073656C00201210090065559323 
DEVENG DM_DET31  UHANDLEEVENT        LANSA     XHTML     00000000220000200000000006563743D223F22202F3E202D2D3E0A2020202020202020202020202020202020202020202020202020203C212D2D203C78736C3A776974682D706172616D206E616D653D22706F735F6162736F6C757465222073656C6563743D223F22202F3E202D2D3E0A2020202020202020202020202020202020202020202020202020203C212D2D203C78736C3A776974682D706172616D206E616D653D22726F7773222073656C6563743D223F22202F3E202D2D3E0A2020202020202020202020202020202020202020202020202020203C212D2D203C78736C3A776974682D706172616D206E616D653D22636F6C73222073656C6563743D223F222000201210090065559323 
DEVENG DM_DET31  UHANDLEEVENT        LANSA     XHTML     00000000230000100000010002F3E202D2D3E0A2020202020202020202020202020202020202020202020202020203C78736C3A776974682D706172616D206E616D653D226D61786C656E677468222073656C6563743D22273235352722202F3E0A2020202020202020202020202020202020202020202020202020203C212D2D203C78736C3A776974682D706172616D206E616D653D226B6579626F6172645F7368696674222073656C6563743D223F22202F3E202D2D3E0A2020202020202020202020202020202020202020202020202020203C212D2D203C78736C3A776974682D706172616D206E616D653D22776F72645F77726170222073656C6563743D223F22202F00201210090065559323 
DEVENG DM_DET31  UHANDLEEVENT        LANSA     XHTML     00000000230000200000000003E202D2D3E0A2020202020202020202020202020202020202020202020202020203C212D2D203C78736C3A776974682D706172616D206E616D653D22636C617373222073656C6563743D223F22202F3E202D2D3E0A2020202020202020202020202020202020202020202020202020203C212D2D203C78736C3A776974682D706172616D206E616D653D22726561645F6F6E6C79222073656C6563743D223F22202F3E202D2D3E0A2020202020202020202020202020202020202020202020202020203C212D2D203C78736C3A776974682D706172616D206E616D653D2264697361626C6564222073656C6563743D223F22202F3E202D2D3E0A00201210090065559323 
DEVENG DM_DET31  UHANDLEEVENT        LANSA     XHTML     00000000240000100000010002020202020202020202020202020202020202020202020202020203C212D2D203C78736C3A776974682D706172616D206E616D653D227461625F696E646578222073656C6563743D223F22202F3E202D2D3E0A2020202020202020202020202020202020202020202020202020203C212D2D203C78736C3A776974682D706172616D206E616D653D226F6E6368616E67655F736372697074222073656C6563743D223F22202F3E202D2D3E0A2020202020202020202020202020202020202020202020203C2F78736C3A63616C6C2D74656D706C6174653E0A2020202020202020202020202020202020202020203C2F74643E0A20202020202000201210090065559323 
DEVENG DM_DET31  UHANDLEEVENT        LANSA     XHTML     00000000240000200000000002020202020202020202020202020203C746420636C6173733D2244465F454C44415458223E0A2020202020202020202020202020202020202020202020203C78736C3A617474726962757465206E616D653D225F5F63656C6C56616C7565223E0A2020202020202020202020202020202020202020202020202020203C78736C3A76616C75652D6F662073656C6563743D222444465F454C4441545822202F3E0A2020202020202020202020202020202020202020202020203C2F78736C3A6174747269627574653E0A2020202020202020202020202020202020202020202020203C78736C3A63616C6C2D74656D706C617465206E616D653D00201210090065559323 
DEVENG DM_DET31  UHANDLEEVENT        LANSA     XHTML     0000000025000010000001000227374645F646174657069636B6572223E0A2020202020202020202020202020202020202020202020202020203C78736C3A776974682D706172616D206E616D653D227965617252616E6765222073656C6563743D22272D34303A2B31302722202F3E0A2020202020202020202020202020202020202020202020202020203C78736C3A776974682D706172616D206E616D653D226368616E676559656172222073656C6563743D2274727565282922202F3E0A2020202020202020202020202020202020202020202020202020203C78736C3A776974682D706172616D206E616D653D22686964655F6966220A20202020202020202020202000201210090065559323 
DEVENG DM_DET31  UHANDLEEVENT        LANSA     XHTML     00000000250000200000000002020202020202020202020202020202020202020202020202020202020202073656C6563743D226B657928276669656C642D76616C7565272C202744465F454C444154582729203D206B657928277661726961626C65272C20274E554C4C272922202F3E0A2020202020202020202020202020202020202020202020202020203C78736C3A776974682D706172616D206E616D653D2273686F774F6E222073656C6563743D2227627574746F6E2722202F3E0A2020202020202020202020202020202020202020202020202020203C78736C3A776974682D706172616D206E616D653D226E616D65222073656C6563743D222444465F454C444100201210090065559323 
DEVENG DM_DET31  UHANDLEEVENT        LANSA     XHTML     000000002600001000000100054582F40696422202F3E0A2020202020202020202020202020202020202020202020202020203C78736C3A776974682D706172616D206E616D653D2276616C7565222073656C6563743D222444465F454C4441545822202F3E0A2020202020202020202020202020202020202020202020202020203C78736C3A776974682D706172616D206E616D653D22616C6C6F775F73716C6E756C6C222073656C6563743D2274727565282922202F3E0A2020202020202020202020202020202020202020202020202020203C78736C3A776974682D706172616D206E616D653D22646973706C61795F6D6F6465222073656C6563743D2227696E70757400201210090065559323 
DEVENG DM_DET31  UHANDLEEVENT        LANSA     XHTML     00000000260000200000000002722202F3E0A2020202020202020202020202020202020202020202020202020203C78736C3A776974682D706172616D206E616D653D2273697A65222073656C6563743D22313022202F3E0A2020202020202020202020202020202020202020202020203C2F78736C3A63616C6C2D74656D706C6174653E0A2020202020202020202020202020202020202020203C2F74643E0A2020202020202020202020202020202020202020203C746420636C6173733D2244465F454C53544154223E0A2020202020202020202020202020202020202020202020203C78736C3A617474726962757465206E616D653D225F5F63656C6C56616C7565223E00201210090065559323 
DEVENG DM_DET31  UHANDLEEVENT        LANSA     XHTML     00000000270000100000010000A2020202020202020202020202020202020202020202020202020203C78736C3A76616C75652D6F662073656C6563743D222444465F454C5354415422202F3E0A2020202020202020202020202020202020202020202020203C2F78736C3A6174747269627574653E0A2020202020202020202020202020202020202020202020203C78736C3A63616C6C2D74656D706C617465206E616D653D2266705F72636F6D6231223E0A2020202020202020202020202020202020202020202020202020203C212D2D203C78736C3A776974682D706172616D206E616D653D2277696474685F64657369676E222073656C6563743D223F22202F3E202D00201210090065559323 
DEVENG DM_DET31  UHANDLEEVENT        LANSA     XHTML     00000000270000200000000002D3E0A2020202020202020202020202020202020202020202020202020203C212D2D203C78736C3A776974682D706172616D206E616D653D226865696768745F64657369676E222073656C6563743D223F22202F3E202D2D3E0A2020202020202020202020202020202020202020202020202020203C78736C3A776974682D706172616D206E616D653D226E616D65222073656C6563743D222444465F454C535441542F40696422202F3E0A2020202020202020202020202020202020202020202020202020203C78736C3A776974682D706172616D206E616D653D2276616C7565222073656C6563743D222444465F454C5354415422202F3E00201210090065559323 
DEVENG DM_DET31  UHANDLEEVENT        LANSA     XHTML     00000000280000100000008420A2020202020202020202020202020202020202020202020203C2F78736C3A63616C6C2D74656D706C6174653E0A2020202020202020202020202020202020202020203C2F74643E0A2020202020202020202020202020202020203C2F74723E0A2020202020202020202020202020203C2F78736C3A666F722D656163683E0A2020202020202020202020203C2F74626F64793E0A2020202020202020203C2F7461626C653E0A2020202020203C2F6469763E0A2020202020203C78736C3A63616C6C2D74656D706C617465206E616D653D2275625F73617665223E0A2020202020202020203C212D2D203C78736C3A776974682D706172616D00201210090065559323 
DEVENG DM_DET31  UHANDLEEVENT        LANSA     XHTML     0000000028000020000000000206E616D653D2277696474685F64657369676E222073656C6563743D223F22202F3E202D2D3E0A2020202020202020203C212D2D203C78736C3A776974682D706172616D206E616D653D226865696768745F64657369676E222073656C6563743D223F22202F3E202D2D3E0A2020202020203C2F78736C3A63616C6C2D74656D706C6174653E0A2020203C2F78736C3A74656D706C6174653E0A3C2F78736C3A7472616E73666F726D3E0A                                                                                                                                                              00201210090065559323 
DEVENG DM_DET32  UHANDLEEVENT        LANSA     XHTML     00000000010000100000010003C3F786D6C2076657273696F6E3D22312E302220656E636F64696E673D225554462D38223F3E0D0A3C212D2D20576562206170706C69636174696F6E203A20444D5F44455433322020202020202020202020204E6F74657320436F6D6D616E642048616E646C6572202020202020202020202020202020202020202D2D3E0D0A3C212D2D2057656220726F7574696E6520202020203A205548616E646C654576656E742020202020202020202020202020202020202020202020202020202020202020202020202020202020202020202020202D2D3E0D0A3C212D2D2054696D657374616D70202020202020203A20323030372D30372D32345400200707250045826123 
DEVENG DM_DET32  UHANDLEEVENT        LANSA     XHTML     000000000100002000000000031373A33343A31312B31303A303020202020202020202020202020202020202020202020202020202020202020202020202D2D3E0D0A3C78736C3A7472616E73666F726D2076657273696F6E3D22312E3022206578636C7564652D726573756C742D70726566697865733D226C786D6C207764220D0A202020202020202020202020202020786D6C6E733A6C786D6C3D22687474703A2F2F7777772E6C616E73612E636F6D2F323030322F584D4C2F52756E74696D652D44617461220D0A202020202020202020202020202020786D6C6E733A77643D22687474703A2F2F7777772E6C616E73612E636F6D2F323030322F58534C2F5765626C6500200707250045826123 
DEVENG DM_DET32  UHANDLEEVENT        LANSA     XHTML     0000000002000010000001000742D44657369676E220D0A202020202020202020202020202020786D6C6E733D22687474703A2F2F7777772E77332E6F72672F313939392F7868746D6C220D0A202020202020202020202020202020786D6C6E733A78736C3D22687474703A2F2F7777772E77332E6F72672F313939392F58534C2F5472616E73666F726D223E0D0A2020203C78736C3A696D706F727420687265663D227374645F6B6579732E78736C22202F3E0D0A2020203C78736C3A696D706F727420687265663D227374645F7661726961626C65732E78736C22202F3E0D0A2020203C78736C3A696D706F727420687265663D22766C665F6C61796F75742E78736C222000200707250045826123 
DEVENG DM_DET32  UHANDLEEVENT        LANSA     XHTML     00000000020000200000000002F3E0D0A2020203C78736C3A696D706F727420687265663D2275625F7075736862312E78736C22202F3E0D0A2020203C78736C3A696D706F727420687265663D2266705F726D656D6F2E78736C22202F3E0D0A2020203C78736C3A6F7574707574206D6574686F643D22786D6C22206F6D69742D786D6C2D6465636C61726174696F6E3D227965732220656E636F64696E673D225554462D38220D0A202020202020202020202020202020696E64656E743D226E6F22202F3E0D0A0D0A2020203C78736C3A74656D706C617465206D617463683D222F223E0D0A2020202020203C78736C3A636F6D6D656E743E20576562206170706C6963617400200707250045826123 
DEVENG DM_DET32  UHANDLEEVENT        LANSA     XHTML     0000000003000010000001000696F6E203A20444D5F44455433322020202020202020202020204E6F74657320436F6D6D616E642048616E646C6572202020202020202020202020202020202020203C2F78736C3A636F6D6D656E743E0D0A2020202020203C78736C3A636F6D6D656E743E2057656220726F7574696E6520202020203A205548616E646C654576656E742020202020202020202020202020202020202020202020202020202020202020202020202020202020202020202020203C2F78736C3A636F6D6D656E743E0D0A2020202020203C78736C3A63616C6C2D74656D706C617465206E616D653D226C61796F757422202F3E0D0A2020203C2F78736C3A746500200707250045826123 
DEVENG DM_DET32  UHANDLEEVENT        LANSA     XHTML     00000000030000200000000006D706C6174653E0D0A0D0A2020203C78736C3A74656D706C617465206D617463683D222F6C786D6C3A64617461223E0D0A2020202020203C64697620636C6173733D2268696464656E223E3C2F6469763E0D0A2020202020203C7461626C65206865696768743D2231303025222063656C6C73706163696E673D2233222063656C6C70616464696E673D2230222077696474683D2231303025220D0A2020202020202020202020202073756D6D6172793D222220626F726465723D2230223E0D0A2020202020202020203C74626F64793E0D0A2020202020202020202020203C74723E0D0A2020202020202020202020202020203C74643E0D0A00200707250045826123 
DEVENG DM_DET32  UHANDLEEVENT        LANSA     XHTML     00000000040000100000010002020202020202020202020202020202020203C6272202F3E0D0A2020202020202020202020202020202020203C623E4164646974696F6E616C2044657461696C733C2F623E0D0A2020202020202020202020202020202020203C6272202F3E0D0A2020202020202020202020202020202020203C6272202F3E0D0A2020202020202020202020202020202020203C78736C3A63616C6C2D74656D706C617465206E616D653D2266705F726D656D6F223E0D0A2020202020202020202020202020202020202020203C78736C3A776974682D706172616D206E616D653D226865696768745F64657369676E222073656C6563743D2227313030252700200707250045826123 
DEVENG DM_DET32  UHANDLEEVENT        LANSA     XHTML     000000000400002000000000022202F3E0D0A2020202020202020202020202020202020202020203C78736C3A776974682D706172616D206E616D653D2277696474685F64657369676E222073656C6563743D2227313030252722202F3E0D0A2020202020202020202020202020202020202020203C212D2D203C78736C3A776974682D706172616D206E616D653D2266705F6E616D65222073656C6563743D223F22202F3E202D2D3E0D0A2020202020202020202020202020202020203C2F78736C3A63616C6C2D74656D706C6174653E0D0A2020202020202020202020202020203C2F74643E0D0A2020202020202020202020203C2F74723E0D0A2020202020202020202000200707250045826123 
DEVENG DM_DET32  UHANDLEEVENT        LANSA     XHTML     000000000500001000000100020203C74723E0D0A2020202020202020202020202020203C74643E3C2F74643E0D0A2020202020202020202020203C2F74723E0D0A2020202020202020202020203C74723E0D0A2020202020202020202020202020203C74642076616C69676E3D22626F74746F6D2220616C69676E3D227269676874223E0D0A2020202020202020202020202020202020203C78736C3A63616C6C2D74656D706C617465206E616D653D2275625F707573686231223E0D0A2020202020202020202020202020202020202020203C78736C3A776974682D706172616D206E616D653D226E616D65222073656C6563743D222755425F5055534842312722202F3E00200707250045826123 
DEVENG DM_DET32  UHANDLEEVENT        LANSA     XHTML     00000000050000200000000000D0A2020202020202020202020202020202020202020203C78736C3A776974682D706172616D206E616D653D2276616C7565220D0A2020202020202020202020202020202020202020202020202020202020202020202020202073656C6563743D226B657928276669656C642D76616C7565272C202755425F505553484231272922202F3E0D0A2020202020202020202020202020202020203C2F78736C3A63616C6C2D74656D706C6174653E0D0A2020202020202020202020202020203C2F74643E0D0A2020202020202020202020203C2F74723E0D0A2020202020202020203C2F74626F64793E0D0A2020202020203C2F7461626C653E0D00200707250045826123 
DEVENG DM_DET32  UHANDLEEVENT        LANSA     XHTML     00000000060000000000001020A2020202020203C6272202F3E0D0A2020203C2F78736C3A74656D706C6174653E0D0A3C2F78736C3A7472616E73666F726D3E                                                                                                                                                                                                                                                                                                                                                                                                              00200707250045826123 
DEVENG DM_DET33  UHANDLEEVENT        LANSA     XHTML     00000000010000100000010003C3F786D6C2076657273696F6E3D22312E30223F3E0D0A3C212D2D20576562206170706C69636174696F6E203A20444D5F444554333320456D706C6F7965652044657461696C7320616E6420536B696C6C73202D2D3E0D0A3C212D2D2057656220726F7574696E65203A205548616E646C654576656E74202D2D3E0D0A3C212D2D2054696D657374616D70203A20323030372D30372D31375431333A30323A33362B31303A3030202D2D3E0D0A3C78736C3A7472616E73666F726D2076657273696F6E3D22312E3022206578636C7564652D726573756C742D70726566697865733D226C786D6C207764220D0A2020202020202020202020202000201108190034153473 
DEVENG DM_DET33  UHANDLEEVENT        LANSA     XHTML     00000000010000200000000002020786D6C6E733A6C786D6C3D22687474703A2F2F7777772E6C616E73612E636F6D2F323030322F584D4C2F52756E74696D652D44617461220D0A202020202020202020202020202020786D6C6E733A77643D22687474703A2F2F7777772E6C616E73612E636F6D2F323030322F58534C2F5765626C65742D44657369676E220D0A202020202020202020202020202020786D6C6E733D22687474703A2F2F7777772E77332E6F72672F313939392F7868746D6C220D0A202020202020202020202020202020786D6C6E733A78736C3D22687474703A2F2F7777772E77332E6F72672F313939392F58534C2F5472616E73666F726D223E0D0A2000201108190034153473 
DEVENG DM_DET33  UHANDLEEVENT        LANSA     XHTML     000000000200001000000100020203C78736C3A696D706F727420687265663D227374645F6B6579732E78736C22202F3E0D0A2020203C78736C3A696D706F727420687265663D227374645F7661726961626C65732E78736C22202F3E0D0A2020203C78736C3A696D706F727420687265663D22766C665F6C61796F75745F76322E78736C22202F3E0D0A2020203C78736C3A696D706F727420687265663D227374645F70616E656C2E78736C22202F3E0D0A2020203C78736C3A696D706F727420687265663D2275625F736176652E78736C22202F3E0D0A2020203C78736C3A696D706F727420687265663D2266705F72636F6D62312E78736C22202F3E0D0A2020203C787300201108190034153473 
DEVENG DM_DET33  UHANDLEEVENT        LANSA     XHTML     00000000020000200000000006C3A696D706F727420687265663D2266705F7264617465322E78736C22202F3E0D0A2020203C78736C3A696D706F727420687265663D227374645F646174657069636B65722E78736C22202F3E0D0A2020203C78736C3A696D706F727420687265663D227374645F64726F70646F776E2E78736C22202F3E0D0A2020203C78736C3A6F7574707574206D6574686F643D22786D6C22206F6D69742D786D6C2D6465636C61726174696F6E3D227965732220656E636F64696E673D225554462D38220D0A202020202020202020202020202020696E64656E743D226E6F22202F3E0D0A2020203C77643A65787465726E616C2D7265736F7572636500201108190034153473 
DEVENG DM_DET33  UHANDLEEVENT        LANSA     XHTML     0000000003000010000001000733E0D0A2020202020203C77643A7374796C65206E616D653D2258575430314A22202F3E0D0A2020202020203C77643A7374796C65206E616D653D2258575430314C22202F3E0D0A2020203C2F77643A65787465726E616C2D7265736F75726365733E0D0A2020203C6C786D6C3A646174613E0D0A2020202020203C6C786D6C3A70616E65732069643D223042353431384237383345423433394439313945334636363746414244353945223E0D0A2020202020202020203C6C786D6C3A6974656D3E0D0A2020202020202020202020203C6C786D6C3A70726F706572746965733E0D0A2020202020202020202020202020203C6C786D6C3A7000201108190034153473 
DEVENG DM_DET33  UHANDLEEVENT        LANSA     XHTML     00000000030000200000000006F736974696F6E206D6F6469666965723D22706F736974696F6E3A6162736F6C7574653B6C6566743A3070743B746F703A3070743B22202F3E0D0A2020202020202020202020202020203C6C786D6C3A7769647468206D6F6469666965723D22252D30707422202F3E0D0A2020202020202020202020202020203C6C786D6C3A686569676874206D6F6469666965723D22252D30707422202F3E0D0A2020202020202020202020203C2F6C786D6C3A70726F706572746965733E0D0A2020202020202020202020203C6C786D6C3A63617074696F6E3E436F6E74656E743C2F6C786D6C3A63617074696F6E3E0D0A20202020202020202020202000201108190034153473 
DEVENG DM_DET33  UHANDLEEVENT        LANSA     XHTML     00000000040000100000010003C6C786D6C3A76616C75653E436F6E74656E743C2F6C786D6C3A76616C75653E0D0A2020202020202020203C2F6C786D6C3A6974656D3E0D0A2020202020203C2F6C786D6C3A70616E65733E0D0A2020202020203C6C786D6C3A63617074696F6E5F76616C75655F70616972732069643D223038343035444236353231333433463139393942464638374230384535393139223E0D0A2020202020202020203C6C786D6C3A6974656D2064656661756C743D2274727565223E0D0A2020202020202020202020203C6C786D6C3A63617074696F6E202F3E0D0A2020202020202020202020203C6C786D6C3A76616C7565202F3E0D0A202020202000201108190034153473 
DEVENG DM_DET33  UHANDLEEVENT        LANSA     XHTML     0000000004000020000000000202020203C2F6C786D6C3A6974656D3E0D0A2020202020202020203C6C786D6C3A6974656D3E0D0A2020202020202020202020203C6C786D6C3A63617074696F6E3E506173733C2F6C786D6C3A63617074696F6E3E0D0A2020202020202020202020203C6C786D6C3A76616C75653E503C2F6C786D6C3A76616C75653E0D0A2020202020202020203C2F6C786D6C3A6974656D3E0D0A2020202020202020203C6C786D6C3A6974656D3E0D0A2020202020202020202020203C6C786D6C3A63617074696F6E3E4661696C3C2F6C786D6C3A63617074696F6E3E0D0A2020202020202020202020203C6C786D6C3A76616C75653E463C2F6C786D6C00201108190034153473 
DEVENG DM_DET33  UHANDLEEVENT        LANSA     XHTML     00000000050000100000010003A76616C75653E0D0A2020202020202020203C2F6C786D6C3A6974656D3E0D0A2020202020202020203C6C786D6C3A6974656D3E0D0A2020202020202020202020203C6C786D6C3A63617074696F6E3E4D657269743C2F6C786D6C3A63617074696F6E3E0D0A2020202020202020202020203C6C786D6C3A76616C75653E4D3C2F6C786D6C3A76616C75653E0D0A2020202020202020203C2F6C786D6C3A6974656D3E0D0A2020202020202020203C6C786D6C3A6974656D3E0D0A2020202020202020202020203C6C786D6C3A63617074696F6E3E44697374696E6374696F6E3C2F6C786D6C3A63617074696F6E3E0D0A20202020202020202000201108190034153473 
DEVENG DM_DET33  UHANDLEEVENT        LANSA     XHTML     00000000050000200000000002020203C6C786D6C3A76616C75653E443C2F6C786D6C3A76616C75653E0D0A2020202020202020203C2F6C786D6C3A6974656D3E0D0A2020202020203C2F6C786D6C3A63617074696F6E5F76616C75655F70616972733E0D0A2020203C2F6C786D6C3A646174613E0D0A0D0A2020203C78736C3A74656D706C617465206D617463683D222F223E0D0A2020202020203C78736C3A636F6D6D656E743E20576562206170706C69636174696F6E203A20444D5F444554333320456D706C6F7965652044657461696C7320616E6420536B696C6C733C2F78736C3A636F6D6D656E743E0D0A2020202020203C78736C3A636F6D6D656E743E2057656200201108190034153473 
DEVENG DM_DET33  UHANDLEEVENT        LANSA     XHTML     000000000600001000000100020726F7574696E65203A205548616E646C654576656E743C2F78736C3A636F6D6D656E743E0D0A2020202020203C78736C3A63616C6C2D74656D706C617465206E616D653D226C61796F757422202F3E0D0A2020203C2F78736C3A74656D706C6174653E0D0A0D0A2020203C78736C3A74656D706C617465206D617463683D222F6C786D6C3A64617461223E0D0A2020202020203C64697620636C6173733D2268696464656E223E0D0A2020202020202020203C696E707574206F6E6368616E67653D2272657475726E20697356616C69644E756D62657228746869732C202736272C202730272C20272E2729220D0A2020202020202020202000201108190034153473 
DEVENG DM_DET33  UHANDLEEVENT        LANSA     XHTML     00000000060000200000000002020202020206D61786C656E6774683D223131222073697A653D2231312220747970653D2268696464656E22206E616D653D22535441525444544552220D0A2020202020202020202020202020202076616C75653D227B6B657928276669656C642D76616C7565272C202753544152544454455227297D22202F3E0D0A2020202020202020203C696E707574206F6E6368616E67653D2272657475726E20697356616C69644E756D62657228746869732C202736272C202730272C20272E2729220D0A202020202020202020202020202020206D61786C656E6774683D223131222073697A653D2231312220747970653D2268696464656E222000201108190034153473 
DEVENG DM_DET33  UHANDLEEVENT        LANSA     XHTML     00000000070000100000010006E616D653D225445524D4441544552220D0A2020202020202020202020202020202076616C75653D227B6B657928276669656C642D76616C7565272C20275445524D444154455227297D22202F3E0D0A2020202020202020203C696E7075742069643D22444550544D454E5422206F6E6368616E67653D2272657475726E20697356616C69645465787428746869732C2027202729220D0A202020202020202020202020202020206D61786C656E6774683D2234222073697A653D22342220747970653D2268696464656E22206E616D653D22444550544D454E54220D0A2020202020202020202020202020202076616C75653D227B6B65792800201108190034153473 
DEVENG DM_DET33  UHANDLEEVENT        LANSA     XHTML     0000000007000020000000000276669656C642D76616C7565272C2027444550544D454E5427297D22202F3E0D0A2020202020202020203C696E7075742069643D2253454354494F4E22206F6E6368616E67653D2272657475726E20697356616C69645465787428746869732C2027202729220D0A202020202020202020202020202020206D61786C656E6774683D2232222073697A653D22322220747970653D2268696464656E22206E616D653D2253454354494F4E220D0A2020202020202020202020202020202076616C75653D227B6B657928276669656C642D76616C7565272C202753454354494F4E27297D22202F3E0D0A2020202020202020203C696E707574206F00201108190034153473 
DEVENG DM_DET33  UHANDLEEVENT        LANSA     XHTML     00000000080000100000010006E6368616E67653D2272657475726E20697356616C69644E756D62657228746869732C202736272C202730272C20272E2729220D0A202020202020202020202020202020206D61786C656E6774683D223131222073697A653D2231312220747970653D2268696464656E22206E616D653D225354415254445445220D0A2020202020202020202020202020202076616C75653D227B6B657928276669656C642D76616C7565272C2027535441525444544527297D22202F3E0D0A2020202020202020203C696E707574206F6E6368616E67653D2272657475726E20697356616C69644E756D62657228746869732C202736272C202730272C202700201108190034153473 
DEVENG DM_DET33  UHANDLEEVENT        LANSA     XHTML     00000000080000200000000002E2729220D0A202020202020202020202020202020206D61786C656E6774683D223131222073697A653D2231312220747970653D2268696464656E22206E616D653D225445524D44415445220D0A2020202020202020202020202020202076616C75653D227B6B657928276669656C642D76616C7565272C20275445524D4441544527297D22202F3E0D0A2020202020202020203C696E707574206F6E6368616E67653D2272657475726E20697356616C69644E756D62657228746869732C20273131272C202732272C20272E2729220D0A202020202020202020202020202020206D61786C656E6774683D223138222073697A653D2231382200201108190034153473 
DEVENG DM_DET33  UHANDLEEVENT        LANSA     XHTML     000000000900001000000100020747970653D2268696464656E22206E616D653D224D4E544853414C220D0A2020202020202020202020202020202076616C75653D227B6B657928276669656C642D76616C7565272C20274D4E544853414C27297D22202F3E0D0A2020202020203C2F6469763E0D0A2020202020203C7461626C65207374796C653D2277696474683A2038313970783B223E0D0A2020202020202020203C74626F64793E0D0A2020202020202020202020203C74723E0D0A2020202020202020202020202020203C7464207374796C653D2277696474683A2032383870783B223E0D0A2020202020202020202020202020202020203C646976207374796C653D00201108190034153473 
DEVENG DM_DET33  UHANDLEEVENT        LANSA     XHTML     000000000900002000000000022666F6E742D73697A653A206C61726765723B20636F6C6F723A20233030383030303B223E42617369632044657461696C733C2F6469763E0D0A2020202020202020202020202020203C2F74643E0D0A2020202020202020202020202020203C7464207374796C653D2277696474683A2035323970783B223E0D0A2020202020202020202020202020202020203C646976207374796C653D22666F6E742D73697A653A206C61726765723B20636F6C6F723A20233030383030303B223E536B696C6C733C2F6469763E0D0A2020202020202020202020202020203C2F74643E0D0A2020202020202020202020203C2F74723E0D0A20202020202000201108190034153473 
DEVENG DM_DET33  UHANDLEEVENT        LANSA     XHTML     00000000100000100000010002020202020203C74723E0D0A2020202020202020202020202020203C7464207374796C653D226865696768743A2031363970783B2077696474683A2032383870783B222076616C69676E3D22746F70223E0D0A2020202020202020202020202020202020203C78736C3A63616C6C2D74656D706C617465206E616D653D227374645F70616E656C223E0D0A2020202020202020202020202020202020202020203C78736C3A776974682D706172616D206E616D653D22686569676874222073656C6563743D22273131352E3570742722202F3E0D0A2020202020202020202020202020202020202020203C78736C3A776974682D706172616D2000201108190034153473 
DEVENG DM_DET33  UHANDLEEVENT        LANSA     XHTML     00000000100000200000000006E616D653D227769647468222073656C6563743D22273231382E39393870742722202F3E0D0A2020202020202020202020202020202020202020203C78736C3A776974682D706172616D206E616D653D22626F726465725F7769647468222073656C6563743D22277468696E2722202F3E0D0A2020202020202020202020202020202020202020203C78736C3A776974682D706172616D206E616D653D22626F72646572222073656C6563743D22276F75747365742722202F3E0D0A2020202020202020202020202020202020202020203C78736C3A776974682D706172616D206E616D653D226E616D65220D0A20202020202020202020202000201108190034153473 
DEVENG DM_DET33  UHANDLEEVENT        LANSA     XHTML     00000000110000100000010002020202020202020202020202020202020202020202020202073656C6563743D22636F6E63617428276F272C20706F736974696F6E28292C20275F4C414E53415F39333430272922202F3E0D0A2020202020202020202020202020202020202020203C78736C3A776974682D706172616D206E616D653D2270616E6573220D0A2020202020202020202020202020202020202020202020202020202020202020202020202073656C6563743D22646F63756D656E74282727292F2A2F6C786D6C3A646174612F6C786D6C3A70616E65735B4069643D273042353431384237383345423433394439313945334636363746414244353945275D222000201108190034153473 
DEVENG DM_DET33  UHANDLEEVENT        LANSA     XHTML     00000000110000200000000002F3E0D0A2020202020202020202020202020202020202020203C212D2D203C78736C3A776974682D706172616D206E616D653D22686964655F6966222073656C6563743D223F22202F3E202D2D3E0D0A2020202020202020202020202020202020202020203C212D2D203C78736C3A776974682D706172616D206E616D653D22636C617373222073656C6563743D223F22202F3E202D2D3E0D0A2020202020202020202020202020202020202020203C212D2D203C78736C3A776974682D706172616D206E616D653D22736E61705F746F5F67726964222073656C6563743D223F22202F3E202D2D3E0D0A20202020202020202020202020202000201108190034153473 
DEVENG DM_DET33  UHANDLEEVENT        LANSA     XHTML     00000000120000100000010002020202020203C212D2D203C78736C3A776974682D706172616D206E616D653D22677269645F73697A65222073656C6563743D223F22202F3E202D2D3E0D0A2020202020202020202020202020202020202020203C212D2D203C78736C3A776974682D706172616D206E616D653D22706F735F6162736F6C757465222073656C6563743D223F22202F3E202D2D3E0D0A2020202020202020202020202020202020203C2F78736C3A63616C6C2D74656D706C6174653E0D0A2020202020202020202020202020202020203C6272202F3E0D0A2020202020202020202020202020202020203C6272202F3E0D0A202020202020202020202020202000201108190034153473 
DEVENG DM_DET33  UHANDLEEVENT        LANSA     XHTML     0000000012000020000000000202020203C646976207374796C653D22666F6E742D73697A653A206C61726765723B20636F6C6F723A20233030383030303B206865696768743A20313970783B223E4164647265737320616E6420436F6E74616374733C2F6469763E0D0A2020202020202020202020202020202020203C7461626C65207374796C653D22626F726465722D72696768743A207468696E206F75747365743B20626F726465722D746F703A207468696E206F75747365743B20626F726465722D6C6566743A207468696E206F75747365743B20626F726465722D626F74746F6D3A207468696E206F75747365743B223E0D0A20202020202020202020202020202000201108190034153473 
DEVENG DM_DET33  UHANDLEEVENT        LANSA     XHTML     00000000130000100000010002020202020203C74626F64793E0D0A2020202020202020202020202020202020202020202020203C74723E0D0A2020202020202020202020202020202020202020202020202020203C7464207374796C653D2277696474683A2031343370783B223E0D0A2020202020202020202020202020202020202020202020202020202020203C78736C3A76616C75652D6F662073656C6563743D226B657928276669656C642D63617074696F6E272C2027414444524553533127292F6C786D6C3A6465736372697074696F6E22202F3E0D0A2020202020202020202020202020202020202020202020202020203C2F74643E0D0A20202020202020202000201108190034153473 
DEVENG DM_DET33  UHANDLEEVENT        LANSA     XHTML     00000000130000200000000002020202020202020202020202020202020203C74643E0D0A2020202020202020202020202020202020202020202020202020202020203C696E7075742069643D2241444452455353312220636C6173733D227465787422206D61786C656E6774683D223235220D0A2020202020202020202020202020202020202020202020202020202020202020202020202073697A653D22323522206E616D653D224144445245535331220D0A2020202020202020202020202020202020202020202020202020202020202020202020202076616C75653D227B6B657928276669656C642D76616C7565272C2027414444524553533127297D22202F3E0D0A00201108190034153473 
DEVENG DM_DET33  UHANDLEEVENT        LANSA     XHTML     00000000140000100000010002020202020202020202020202020202020202020202020202020203C2F74643E0D0A2020202020202020202020202020202020202020202020203C2F74723E0D0A2020202020202020202020202020202020202020202020203C74723E0D0A2020202020202020202020202020202020202020202020202020203C7464207374796C653D2277696474683A2031343370783B223E0D0A2020202020202020202020202020202020202020202020202020202020203C78736C3A76616C75652D6F662073656C6563743D226B657928276669656C642D63617074696F6E272C2027414444524553533227292F6C786D6C3A6465736372697074696F00201108190034153473 
DEVENG DM_DET33  UHANDLEEVENT        LANSA     XHTML     00000000140000200000000006E22202F3E0D0A2020202020202020202020202020202020202020202020202020203C2F74643E0D0A2020202020202020202020202020202020202020202020202020203C74643E0D0A2020202020202020202020202020202020202020202020202020202020203C696E7075742069643D2241444452455353322220636C6173733D227465787422206D61786C656E6774683D223235220D0A2020202020202020202020202020202020202020202020202020202020202020202020202073697A653D22323522206E616D653D224144445245535332220D0A202020202020202020202020202020202020202020202020202020202020202000201108190034153473 
DEVENG DM_DET33  UHANDLEEVENT        LANSA     XHTML     0000000015000010000001000202020202076616C75653D227B6B657928276669656C642D76616C7565272C2027414444524553533227297D22202F3E0D0A2020202020202020202020202020202020202020202020202020203C2F74643E0D0A2020202020202020202020202020202020202020202020203C2F74723E0D0A2020202020202020202020202020202020202020202020203C74723E0D0A2020202020202020202020202020202020202020202020202020203C7464207374796C653D2277696474683A2031343370783B223E0D0A2020202020202020202020202020202020202020202020202020202020203C78736C3A76616C75652D6F662073656C65637400201108190034153473 
DEVENG DM_DET33  UHANDLEEVENT        LANSA     XHTML     00000000150000200000000003D226B657928276669656C642D63617074696F6E272C2027414444524553533327292F6C786D6C3A6465736372697074696F6E22202F3E0D0A2020202020202020202020202020202020202020202020202020203C2F74643E0D0A2020202020202020202020202020202020202020202020202020203C74643E0D0A2020202020202020202020202020202020202020202020202020202020203C696E7075742069643D2241444452455353332220636C6173733D227465787422206D61786C656E6774683D223235220D0A2020202020202020202020202020202020202020202020202020202020202020202020202073697A653D2232352200201108190034153473 
DEVENG DM_DET33  UHANDLEEVENT        LANSA     XHTML     0000000016000010000001000206E616D653D224144445245535333220D0A2020202020202020202020202020202020202020202020202020202020202020202020202076616C75653D227B6B657928276669656C642D76616C7565272C2027414444524553533327297D22202F3E0D0A2020202020202020202020202020202020202020202020202020203C2F74643E0D0A2020202020202020202020202020202020202020202020203C2F74723E0D0A2020202020202020202020202020202020202020202020203C74723E0D0A2020202020202020202020202020202020202020202020202020203C7464207374796C653D2277696474683A2031343370783B223E0D0A00201108190034153473 
DEVENG DM_DET33  UHANDLEEVENT        LANSA     XHTML     00000000160000200000000002020202020202020202020202020202020202020202020202020202020203C78736C3A76616C75652D6F662073656C6563743D226B657928276669656C642D63617074696F6E272C2027504F5354434F444527292F6C786D6C3A6465736372697074696F6E22202F3E0D0A2020202020202020202020202020202020202020202020202020203C2F74643E0D0A2020202020202020202020202020202020202020202020202020203C74643E0D0A2020202020202020202020202020202020202020202020202020202020203C696E70757420636C6173733D226E756D62657222206D61786C656E6774683D223131222073697A653D2231312200201108190034153473 
DEVENG DM_DET33  UHANDLEEVENT        LANSA     XHTML     00000000170000100000010000D0A202020202020202020202020202020202020202020202020202020202020202020202020206E616D653D22504F5354434F4445220D0A2020202020202020202020202020202020202020202020202020202020202020202020202076616C75653D227B6B657928276669656C642D76616C7565272C2027504F5354434F444527297D22202F3E0D0A2020202020202020202020202020202020202020202020202020203C2F74643E0D0A2020202020202020202020202020202020202020202020203C2F74723E0D0A2020202020202020202020202020202020202020202020203C74723E0D0A202020202020202020202020202020202000201108190034153473 
DEVENG DM_DET33  UHANDLEEVENT        LANSA     XHTML     0000000017000020000000000202020202020202020203C7464207374796C653D2277696474683A2031343370783B223E0D0A2020202020202020202020202020202020202020202020202020202020203C78736C3A76616C75652D6F662073656C6563743D226B657928276669656C642D63617074696F6E272C202750484F4E45484D4527292F6C786D6C3A6465736372697074696F6E22202F3E0D0A2020202020202020202020202020202020202020202020202020203C2F74643E0D0A2020202020202020202020202020202020202020202020202020203C74643E0D0A2020202020202020202020202020202020202020202020202020202020203C696E707574206900201108190034153473 
DEVENG DM_DET33  UHANDLEEVENT        LANSA     XHTML     0000000018000010000001000643D2250484F4E45484D452220636C6173733D22757465787422206D61786C656E6774683D223135220D0A2020202020202020202020202020202020202020202020202020202020202020202020202073697A653D22313522206E616D653D2250484F4E45484D45220D0A2020202020202020202020202020202020202020202020202020202020202020202020202076616C75653D227B6B657928276669656C642D76616C7565272C202750484F4E45484D4527297D22202F3E0D0A2020202020202020202020202020202020202020202020202020203C2F74643E0D0A2020202020202020202020202020202020202020202020203C2F7400201108190034153473 
DEVENG DM_DET33  UHANDLEEVENT        LANSA     XHTML     0000000018000020000000000723E0D0A2020202020202020202020202020202020202020202020203C74723E0D0A2020202020202020202020202020202020202020202020202020203C7464207374796C653D2277696474683A2031343370783B223E0D0A2020202020202020202020202020202020202020202020202020202020203C78736C3A76616C75652D6F662073656C6563743D226B657928276669656C642D63617074696F6E272C202750484F4E4542555327292F6C786D6C3A6465736372697074696F6E22202F3E0D0A2020202020202020202020202020202020202020202020202020203C2F74643E0D0A202020202020202020202020202020202020202000201108190034153473 
DEVENG DM_DET33  UHANDLEEVENT        LANSA     XHTML     0000000019000010000001000202020202020203C74643E0D0A2020202020202020202020202020202020202020202020202020202020203C696E7075742069643D2250484F4E454255532220636C6173733D22757465787422206D61786C656E6774683D223135220D0A2020202020202020202020202020202020202020202020202020202020202020202020202073697A653D22313522206E616D653D2250484F4E45425553220D0A2020202020202020202020202020202020202020202020202020202020202020202020202076616C75653D227B6B657928276669656C642D76616C7565272C202750484F4E4542555327297D22202F3E0D0A2020202020202020202000201108190034153473 
DEVENG DM_DET33  UHANDLEEVENT        LANSA     XHTML     000000001900002000000000020202020202020202020202020202020203C2F74643E0D0A2020202020202020202020202020202020202020202020203C2F74723E0D0A2020202020202020202020202020202020202020203C2F74626F64793E0D0A2020202020202020202020202020202020203C2F7461626C653E0D0A2020202020202020202020202020203C2F74643E0D0A2020202020202020202020202020203C7464207374796C653D2277696474683A2035323970783B222076616C69676E3D22746F70223E0D0A2020202020202020202020202020202020203C78736C3A6170706C792D74656D706C617465732073656C6563743D222F6C786D6C3A646174612F00201108190034153473 
DEVENG DM_DET33  UHANDLEEVENT        LANSA     XHTML     00000000200000100000010006C786D6C3A6C697374732F6C786D6C3A6C6973745B406E616D653D27534B494C4C4C495354275D223E0D0A2020202020202020202020202020202020202020203C78736C3A776974682D706172616D206E616D653D22616C6C6F775F736F7274222073656C6563743D2274727565282922202F3E0D0A2020202020202020202020202020202020202020203C78736C3A776974682D706172616D206E616D653D22616C6C6F775F636F6C5F726573697A65222073656C6563743D2274727565282922202F3E0D0A2020202020202020202020202020202020203C2F78736C3A6170706C792D74656D706C617465733E0D0A20202020202020202000201108190034153473 
DEVENG DM_DET33  UHANDLEEVENT        LANSA     XHTML     00000000200000200000000002020202020203C2F74643E0D0A2020202020202020202020203C2F74723E0D0A2020202020202020202020203C74723E0D0A2020202020202020202020202020203C7464207374796C653D2277696474683A2032383870783B206865696768743A203970783B222076616C69676E3D22746F70223E3C2F74643E0D0A2020202020202020202020202020203C7464207374796C653D2277696474683A2035323970783B2220616C69676E3D227269676874223E0D0A2020202020202020202020202020202020203C78736C3A63616C6C2D74656D706C617465206E616D653D2275625F73617665223E0D0A20202020202020202020202020202000201108190034153473 
DEVENG DM_DET33  UHANDLEEVENT        LANSA     XHTML     00000000210000100000010002020202020203C212D2D203C78736C3A776974682D706172616D206E616D653D2277696474685F64657369676E222073656C6563743D223F22202F3E202D2D3E0D0A2020202020202020202020202020202020202020203C212D2D203C78736C3A776974682D706172616D206E616D653D226865696768745F64657369676E222073656C6563743D223F22202F3E202D2D3E0D0A2020202020202020202020202020202020203C2F78736C3A63616C6C2D74656D706C6174653E0D0A2020202020202020202020202020203C2F74643E0D0A2020202020202020202020203C2F74723E0D0A2020202020202020203C2F74626F64793E0D0A202000201108190034153473 
DEVENG DM_DET33  UHANDLEEVENT        LANSA     XHTML     0000000021000020000000000202020203C2F7461626C653E0D0A2020202020203C6272202F3E0D0A2020202020203C64697620636C6173733D2268696464656E5F5F223E0D0A2020202020202020203C78736C3A6170706C792D74656D706C617465732073656C6563743D222F6C786D6C3A646174612F6C786D6C3A6C697374732F6C786D6C3A6C6973745B406E616D653D27414C4C534B494C4C53275D22202F3E0D0A2020202020203C2F6469763E0D0A2020203C2F78736C3A74656D706C6174653E0D0A0D0A2020203C78736C3A74656D706C617465206D617463683D222A22206D6F64653D225F3042353431384237383345423433394439313945334636363746414200201108190034153473 
DEVENG DM_DET33  UHANDLEEVENT        LANSA     XHTML     0000000022000010000001000443539455F312E6F76657272696465223E0D0A2020202020203C212D2D207374645F70616E656C204C6566742070616E65202D2D3E0D0A2020202020203C78736C3A706172616D206E616D653D22636F6E7465787422202F3E0D0A2020202020203C78736C3A706172616D206E616D653D22696E64657822202F3E0D0A2020202020203C7461626C65207374796C653D226865696768743A2031333270783B2077696474683A2032373770783B2220626F726465723D2230222063656C6C73706163696E673D2233220D0A2020202020202020202020202073756D6D6172793D22222063656C6C70616464696E673D2230223E0D0A202020202000201108190034153473 
DEVENG DM_DET33  UHANDLEEVENT        LANSA     XHTML     0000000022000020000000000202020203C74626F64793E0D0A2020202020202020202020203C74723E0D0A2020202020202020202020202020203C7464207374796C653D2277696474683A2031343370783B2220636C6173733D2263617074696F6E223E0D0A2020202020202020202020202020202020203C78736C3A76616C75652D6F662073656C6563743D226B657928276669656C642D63617074696F6E272C2027454D504E4F27292F6C786D6C3A6465736372697074696F6E22202F3E0D0A2020202020202020202020202020203C2F74643E0D0A2020202020202020202020202020203C7464207374796C653D2277696474683A20333970783B223E0D0A2020202000201108190034153473 
DEVENG DM_DET33  UHANDLEEVENT        LANSA     XHTML     000000002300001000000100020202020202020202020202020203C78736C3A76616C75652D6F662073656C6563743D226B657928276669656C642D76616C7565272C2027454D504E4F272922202F3E0D0A2020202020202020202020202020203C2F74643E0D0A2020202020202020202020203C2F74723E0D0A2020202020202020202020203C74723E0D0A2020202020202020202020202020203C7464207374796C653D2277696474683A2031343370783B2220636C6173733D2263617074696F6E223E0D0A2020202020202020202020202020202020203C78736C3A76616C75652D6F662073656C6563743D226B657928276669656C642D63617074696F6E272C20275300201108190034153473 
DEVENG DM_DET33  UHANDLEEVENT        LANSA     XHTML     000000002300002000000000055524E414D4527292F6C786D6C3A6465736372697074696F6E22202F3E0D0A2020202020202020202020202020203C2F74643E0D0A2020202020202020202020202020203C7464207374796C653D2277696474683A20333970783B223E0D0A2020202020202020202020202020202020203C696E7075742069643D225355524E414D452220636C6173733D22757465787422206D61786C656E6774683D223230220D0A202020202020202020202020202020202020202020202020206E616D653D225355524E414D45222076616C75653D227B6B657928276669656C642D76616C7565272C20275355524E414D4527297D22202F3E0D0A20202000201108190034153473 
DEVENG DM_DET33  UHANDLEEVENT        LANSA     XHTML     00000000240000100000010002020202020202020202020203C2F74643E0D0A2020202020202020202020203C2F74723E0D0A2020202020202020202020203C74723E0D0A2020202020202020202020202020203C7464207374796C653D2277696474683A2031343370783B2220636C6173733D2263617074696F6E223E0D0A2020202020202020202020202020202020203C78736C3A76616C75652D6F662073656C6563743D226B657928276669656C642D63617074696F6E272C2027474956454E414D4527292F6C786D6C3A6465736372697074696F6E22202F3E0D0A2020202020202020202020202020203C2F74643E0D0A2020202020202020202020202020203C746400201108190034153473 
DEVENG DM_DET33  UHANDLEEVENT        LANSA     XHTML     0000000024000020000000000207374796C653D2277696474683A20333970783B223E0D0A2020202020202020202020202020202020203C696E7075742069643D22474956454E414D452220636C6173733D22757465787422206D61786C656E6774683D223230220D0A202020202020202020202020202020202020202020202020206E616D653D22474956454E414D45220D0A2020202020202020202020202020202020202020202020202076616C75653D227B6B657928276669656C642D76616C7565272C2027474956454E414D4527297D22202F3E0D0A2020202020202020202020202020203C2F74643E0D0A2020202020202020202020203C2F74723E0D0A2020202000201108190034153473 
DEVENG DM_DET33  UHANDLEEVENT        LANSA     XHTML     000000002500001000000100020202020202020203C74723E0D0A2020202020202020202020202020203C7464207374796C653D2277696474683A2031343370783B2220636C6173733D2263617074696F6E223E0D0A2020202020202020202020202020202020203C78736C3A76616C75652D6F662073656C6563743D226B657928276669656C642D63617074696F6E272C202753414C41525927292F6C786D6C3A6465736372697074696F6E22202F3E0D0A2020202020202020202020202020203C2F74643E0D0A2020202020202020202020202020203C7464207374796C653D2277696474683A20333970783B223E0D0A2020202020202020202020202020202020203C6900201108190034153473 
DEVENG DM_DET33  UHANDLEEVENT        LANSA     XHTML     00000000250000200000000006E70757420636C6173733D226E756D62657222206D61786C656E6774683D223138222073697A653D22313822206E616D653D2253414C415259220D0A2020202020202020202020202020202020202020202020202076616C75653D227B6B657928276669656C642D76616C7565272C202753414C41525927297D22202F3E0D0A2020202020202020202020202020203C2F74643E0D0A2020202020202020202020203C2F74723E0D0A2020202020202020202020203C74723E0D0A2020202020202020202020202020203C7464207374796C653D2277696474683A2031343370783B206865696768743A20333170783B2220636C6173733D226300201108190034153473 
DEVENG DM_DET33  UHANDLEEVENT        LANSA     XHTML     0000000026000010000001000617074696F6E223E0D0A2020202020202020202020202020202020203C78736C3A76616C75652D6F662073656C6563743D226B657928276669656C642D63617074696F6E272C202753544152544441545827292F6C786D6C3A6465736372697074696F6E22202F3E0D0A2020202020202020202020202020203C2F74643E0D0A2020202020202020202020202020203C7464207374796C653D2277696474683A20333070783B206865696768743A20333170783B2220616C69676E3D226C656674223E0D0A2020202020202020202020202020202020203C78736C3A63616C6C2D74656D706C617465206E616D653D227374645F64617465706900201108190034153473 
DEVENG DM_DET33  UHANDLEEVENT        LANSA     XHTML     0000000026000020000000000636B6572223E0D0A2020202020202020202020202020202020202020203C212D2D203C78736C3A776974682D706172616D206E616D653D2264617465466F726D6174222073656C6563743D223F22202F3E202D2D3E0D0A2020202020202020202020202020202020202020203C78736C3A776974682D706172616D206E616D653D227769647468222073656C6563743D222731303470782722202F3E0D0A2020202020202020202020202020202020202020203C78736C3A776974682D706172616D206E616D653D226368616E676559656172222073656C6563743D2274727565282922202F3E0D0A202020202020202020202020202020202000201108190034153473 
DEVENG DM_DET33  UHANDLEEVENT        LANSA     XHTML     0000000027000010000001000202020203C78736C3A776974682D706172616D206E616D653D2273686F774F6E222073656C6563743D2227627574746F6E2722202F3E0D0A2020202020202020202020202020202020202020203C78736C3A776974682D706172616D206E616D653D227965617252616E6765222073656C6563743D22272D34303A2B31302722202F3E0D0A2020202020202020202020202020202020202020203C78736C3A776974682D706172616D206E616D653D2273697A65222073656C6563743D222731302722202F3E0D0A2020202020202020202020202020202020202020203C78736C3A776974682D706172616D206E616D653D2276616C7565220D00201108190034153473 
DEVENG DM_DET33  UHANDLEEVENT        LANSA     XHTML     00000000270000200000000000A2020202020202020202020202020202020202020202020202020202020202020202020202073656C6563743D226B657928276669656C642D76616C7565272C2027535441525444415458272922202F3E0D0A2020202020202020202020202020202020202020203C78736C3A776974682D706172616D206E616D653D226E616D65222073656C6563743D22275374617274446174782722202F3E0D0A2020202020202020202020202020202020202020203C212D2D203C78736C3A776974682D706172616D206E616D653D22646973706C61795F6D6F6465222073656C6563743D223F22202F3E202D2D3E0D0A20202020202020202020202000201108190034153473 
DEVENG DM_DET33  UHANDLEEVENT        LANSA     XHTML     00000000280000100000010002020202020202020203C212D2D203C78736C3A776974682D706172616D206E616D653D22686964655F6966222073656C6563743D223F22202F3E202D2D3E0D0A2020202020202020202020202020202020202020203C212D2D203C78736C3A776974682D706172616D206E616D653D22616C6C6F775F73716C6E756C6C222073656C6563743D223F22202F3E202D2D3E0D0A2020202020202020202020202020202020202020203C212D2D203C78736C3A776974682D706172616D206E616D653D226669727374446179222073656C6563743D223F22202F3E202D2D3E0D0A2020202020202020202020202020202020202020203C212D2D203C00201108190034153473 
DEVENG DM_DET33  UHANDLEEVENT        LANSA     XHTML     000000002800002000000000078736C3A776974682D706172616D206E616D653D226368616E67654D6F6E7468222073656C6563743D223F22202F3E202D2D3E0D0A2020202020202020202020202020202020202020203C212D2D203C78736C3A776974682D706172616D206E616D653D2273686F774F746865724D6F6E746873222073656C6563743D223F22202F3E202D2D3E0D0A2020202020202020202020202020202020202020203C212D2D203C78736C3A776974682D706172616D206E616D653D2273656C6563744F746865724D6F6E746873222073656C6563743D223F22202F3E202D2D3E0D0A2020202020202020202020202020202020202020203C212D2D203C00201108190034153473 
DEVENG DM_DET33  UHANDLEEVENT        LANSA     XHTML     000000002900001000000100078736C3A776974682D706172616D206E616D653D226D696E44617465222073656C6563743D223F22202F3E202D2D3E0D0A2020202020202020202020202020202020202020203C212D2D203C78736C3A776974682D706172616D206E616D653D226D617844617465222073656C6563743D223F22202F3E202D2D3E0D0A2020202020202020202020202020202020202020203C212D2D203C78736C3A776974682D706172616D206E616D653D2273686F7274596561724375746F6666222073656C6563743D223F22202F3E202D2D3E0D0A2020202020202020202020202020202020202020203C212D2D203C78736C3A776974682D706172616D00201108190034153473 
DEVENG DM_DET33  UHANDLEEVENT        LANSA     XHTML     0000000029000020000000000206E616D653D2273686F77496E6C696E65222073656C6563743D223F22202F3E202D2D3E0D0A2020202020202020202020202020202020202020203C212D2D203C78736C3A776974682D706172616D206E616D653D227461625F696E646578222073656C6563743D223F22202F3E202D2D3E0D0A2020202020202020202020202020202020202020203C212D2D203C78736C3A776974682D706172616D206E616D653D227469746C65222073656C6563743D223F22202F3E202D2D3E0D0A2020202020202020202020202020202020202020203C212D2D203C78736C3A776974682D706172616D206E616D653D22627574746F6E496D6167652200201108190034153473 
DEVENG DM_DET33  UHANDLEEVENT        LANSA     XHTML     00000000300000100000010002073656C6563743D223F22202F3E202D2D3E0D0A2020202020202020202020202020202020202020203C212D2D203C78736C3A776974682D706172616D206E616D653D22627574746F6E54657874222073656C6563743D223F22202F3E202D2D3E0D0A2020202020202020202020202020202020202020203C212D2D203C78736C3A776974682D706172616D206E616D653D2273686F774D6F6E7468416674657259656172222073656C6563743D223F22202F3E202D2D3E0D0A2020202020202020202020202020202020202020203C212D2D203C78736C3A776974682D706172616D206E616D653D2264697361626C6564222073656C65637400201108190034153473 
DEVENG DM_DET33  UHANDLEEVENT        LANSA     XHTML     00000000300000200000000003D223F22202F3E202D2D3E0D0A2020202020202020202020202020202020202020203C212D2D203C78736C3A776974682D706172616D206E616D653D22706F735F6162736F6C757465222073656C6563743D223F22202F3E202D2D3E0D0A2020202020202020202020202020202020202020203C212D2D203C78736C3A776974682D706172616D206E616D653D226175746F53697A65222073656C6563743D223F22202F3E202D2D3E0D0A2020202020202020202020202020202020202020203C212D2D203C78736C3A776974682D706172616D206E616D653D2273686F77416E696D222073656C6563743D223F22202F3E202D2D3E0D0A202000201108190034153473 
DEVENG DM_DET33  UHANDLEEVENT        LANSA     XHTML     0000000031000010000001000202020202020202020202020202020202020203C212D2D203C78736C3A776974682D706172616D206E616D653D226475726174696F6E222073656C6563743D223F22202F3E202D2D3E0D0A2020202020202020202020202020202020202020203C212D2D203C78736C3A776974682D706172616D206E616D653D226F6E6368616E67655F736372697074222073656C6563743D223F22202F3E202D2D3E0D0A2020202020202020202020202020202020202020203C212D2D2D2D3E0D0A2020202020202020202020202020202020202020203C212D2D204E4F54453A20556E636F6D6D656E74203C78736C3A776974682D706172616D3E20746100201108190034153473 
DEVENG DM_DET33  UHANDLEEVENT        LANSA     XHTML     000000003100002000000000067732061626F766520616E64207265706C61636520225265706C6163655F576974685F4669656C645F4E616D6522202D2D3E0D0A2020202020202020202020202020202020202020203C212D2D20202020202020706C616365686F6C64657273207769746820746865206E616D65206F6620746865206669656C6420796F75207769736820746F2075736520666F722074686973205765626C65742E202D2D3E0D0A2020202020202020202020202020202020202020203C212D2D20202020202020526566657220746F204669656C6420566965772070616E6520666F7220617661696C61626C65206669656C64732E202D2D3E0D0A2020202000201108190034153473 
DEVENG DM_DET33  UHANDLEEVENT        LANSA     XHTML     000000003200001000000100020202020202020202020202020202020203C212D2D20202020202020416C736F2070726F76696465206F7468657220706172616D657465722076616C7565732C20696620616E792E202D2D3E0D0A2020202020202020202020202020202020202020203C212D2D2D2D3E0D0A2020202020202020202020202020202020203C2F78736C3A63616C6C2D74656D706C6174653E0D0A2020202020202020202020202020203C2F74643E0D0A2020202020202020202020203C2F74723E0D0A2020202020202020203C2F74626F64793E0D0A2020202020203C2F7461626C653E0D0A2020203C2F78736C3A74656D706C6174653E0D0A0D0A2020203C00201108190034153473 
DEVENG DM_DET33  UHANDLEEVENT        LANSA     XHTML     000000003200002000000000078736C3A74656D706C617465206D617463683D226C786D6C3A6974656D5B2E2E2F4069643D273042353431384237383345423433394439313945334636363746414244353945275D220D0A20202020202020202020202020202020206D6F64653D227374645F70616E656C2E707269766174652E6F76657272696465223E0D0A2020202020203C78736C3A706172616D206E616D653D22636F6E7465787422202F3E0D0A2020202020203C78736C3A706172616D206E616D653D22696E64657822202F3E0D0A2020202020203C78736C3A63686F6F73653E0D0A2020202020202020203C78736C3A7768656E20746573743D2224696E6465783D00201108190034153473 
DEVENG DM_DET33  UHANDLEEVENT        LANSA     XHTML     000000003300001000000100031223E0D0A2020202020202020202020203C78736C3A6170706C792D74656D706C617465732073656C6563743D2224636F6E74657874220D0A2020202020202020202020202020202020202020202020202020202020202020206D6F64653D225F30423534313842373833454234333944393139453346363637464142443539455F312E6F76657272696465223E0D0A2020202020202020202020202020203C78736C3A776974682D706172616D206E616D653D22636F6E74657874222073656C6563743D222E22202F3E0D0A2020202020202020202020202020203C78736C3A776974682D706172616D206E616D653D22696E64657822207300201108190034153473 
DEVENG DM_DET33  UHANDLEEVENT        LANSA     XHTML     0000000033000020000000000656C6563743D2224696E64657822202F3E0D0A2020202020202020202020203C2F78736C3A6170706C792D74656D706C617465733E0D0A2020202020202020203C2F78736C3A7768656E3E0D0A2020202020203C2F78736C3A63686F6F73653E0D0A2020203C2F78736C3A74656D706C6174653E0D0A0D0A2020203C78736C3A74656D706C617465206D617463683D222F6C786D6C3A646174612F6C786D6C3A6C697374732F6C786D6C3A6C6973745B406E616D653D27534B494C4C4C495354275D223E0D0A2020202020203C78736C3A706172616D206E616D653D22616C6C6F775F736F7274222073656C6563743D2274727565282922207700201108190034153473 
DEVENG DM_DET33  UHANDLEEVENT        LANSA     XHTML     0000000034000010000001000643A7469705F69643D22220D0A202020202020202020202020202020202077643A747970653D227374643A626F6F6C65616E22202F3E0D0A2020202020203C78736C3A706172616D206E616D653D22616C6C6F775F636F6C5F726573697A65222073656C6563743D22747275652829222077643A7469705F69643D22220D0A202020202020202020202020202020202077643A747970653D227374643A626F6F6C65616E22202F3E0D0A2020202020203C78736C3A7661726961626C65206E616D653D227468656C697374220D0A202020202020202020202020202020202020202073656C6563743D222F6C786D6C3A646174612F6C786D6C3A00201108190034153473 
DEVENG DM_DET33  UHANDLEEVENT        LANSA     XHTML     00000000340000200000000006C697374732F6C786D6C3A6C6973745B406E616D653D27534B494C4C4C495354275D22202F3E0D0A2020202020203C736372697074206C616E67756167653D226A617661736372697074223E0D0A2020202020202020203C78736C3A746578742064697361626C652D6F75747075742D6573636170696E673D22796573223E2F2F266C743B215B43444154415B3C2F78736C3A746578743E0D0A20202020202020202020202066756E6374696F6E20696E69745F737464477269645F534B494C4C4C4953542829207B0D0A2020202020202020202020207661722067203D2072656769737465725F7374645F677269642827534B494C4C4C495300201108190034153473 
DEVENG DM_DET33  UHANDLEEVENT        LANSA     XHTML     000000003500001000000100054272C39293B0D0A202020202020202020202020672E616C6C6F77536F7274203D203C78736C3A76616C75652D6F662073656C6563743D2224616C6C6F775F736F727422202F3E3B0D0A202020202020202020202020672E616C6C6F77436F6C526573697A65203D203C78736C3A76616C75652D6F662073656C6563743D2224616C6C6F775F636F6C5F726573697A6522202F3E3B0D0A20202020202020202020202076617220636F6C203D20303B0D0A202020202020202020202020766172207373203D20646F63756D656E742E7374796C655368656574735B305D3B0D0A20202020202020202020202076617220676964203D20272E737400201108190034153473 
DEVENG DM_DET33  UHANDLEEVENT        LANSA     XHTML     0000000035000020000000000645F6772696423534B494C4C4C49535420273B0D0A2020202020202020202020200D0A20202020202020202061646443535352756C652873732C20676964202B202774642E534B494C434F4445272C2027646973706C61793A6E6F6E653B27293B0D0A20202020202020202061646443535352756C652873732C20676964202B202774682E534B494C434F4445272C2027646973706C61793A6E6F6E653B27293B0D0A2020202020200D0A20202020202020202061646443535352756C652873732C20676964202B202774642E4752414445272C2027646973706C61793A6E6F6E653B27293B0D0A20202020202020202061646443535352756C00201108190034153473 
DEVENG DM_DET33  UHANDLEEVENT        LANSA     XHTML     0000000036000010000001000652873732C20676964202B202774682E4752414445272C2027646973706C61793A6E6F6E653B27293B0D0A2020202020200D0A20202020202020202061646443535352756C652873732C20676964202B202774642E434F4D4D454E54272C2027646973706C61793A6E6F6E653B27293B0D0A20202020202020202061646443535352756C652873732C20676964202B202774682E434F4D4D454E54272C2027646973706C61793A6E6F6E653B27293B0D0A2020202020200D0A20202020202020202061646443535352756C652873732C20676964202B202774642E4441544541435152272C2027646973706C61793A6E6F6E653B27293B0D0A2000201108190034153473 
DEVENG DM_DET33  UHANDLEEVENT        LANSA     XHTML     0000000036000020000000000202020202020202061646443535352756C652873732C20676964202B202774682E4441544541435152272C2027646973706C61793A6E6F6E653B27293B0D0A2020202020200D0A20202020202020202061646443535352756C652873732C20676964202B202774642E50524946494C52524E272C2027646973706C61793A6E6F6E653B27293B0D0A20202020202020202061646443535352756C652873732C20676964202B202774682E50524946494C52524E272C2027646973706C61793A6E6F6E653B27293B0D0A2020202020200D0A2020202020202020202020207D0D0A202020202020202020202020696E69745F737464477269645F5300201108190034153473 
DEVENG DM_DET33  UHANDLEEVENT        LANSA     XHTML     00000000370000100000010004B494C4C4C49535428293B0D0A2020202020202020202020203C78736C3A746578742064697361626C652D6F75747075742D6573636170696E673D22796573223E2F2F5D5D2667743B3C2F78736C3A746578743E0D0A2020202020203C2F7363726970743E0D0A2020202020203C696E70757420747970653D2268696464656E22206E616D653D22534B494C4C4C4953542E2E220D0A2020202020202020202020202076616C75653D227B636F756E74286C786D6C3A6C6973742D656E74726965732F6C786D6C3A656E7472795B315D297D22202F3E0D0A2020202020203C646976207374796C653D22626F726465722D72696768743A20746800201108190034153473 
DEVENG DM_DET33  UHANDLEEVENT        LANSA     XHTML     0000000037000020000000000696E206F75747365743B20626F726465722D746F703A207468696E206F75747365743B20626F726465722D6C6566743A207468696E206F75747365743B20626F726465722D626F74746F6D3A207468696E206F75747365743B2077696474683A2035313570783B220D0A202020202020202020202069643D22534B494C4C4C4953545F777261702220636C6173733D227374645F677269645F77726170706572223E0D0A2020202020202020203C78736C3A696620746573743D222F6C786D6C3A646174612F6C786D6C3A636F6E746578745B4064657369676E5D223E0D0A2020202020202020202020203C78736C3A6174747269627574652000201108190034153473 
DEVENG DM_DET33  UHANDLEEVENT        LANSA     XHTML     00000000380000100000010006E616D653D22636C617373223E7374645F677269645F777261707065725F64657369676E74696D653C2F78736C3A6174747269627574653E0D0A2020202020202020203C2F78736C3A69663E0D0A2020202020202020203C7461626C652069643D22534B494C4C4C4953542220636C6173733D227374645F67726964222077696474683D22353030223E0D0A2020202020202020202020203C74686561643E0D0A2020202020202020202020202020203C747220636C6173733D226C6973742D68223E0D0A2020202020202020202020202020202020203C7468207374796C653D2277696474683A2031383070783B220D0A202020202020202000201108190034153473 
DEVENG DM_DET33  UHANDLEEVENT        LANSA     XHTML     00000000380000200000000002020202020202020202020202020636C6173733D2275746578742056534B494C434F4445207374645F677269645F736F72745F696E64696361746F72220D0A202020202020202020202020202020202020202020205F5F646563696D616C736570617261746F723D2222205F5F666F726D6174747970653D22616C706861220D0A202020202020202020202020202020202020202020205F5F6D6F64653D226F757470757422205F5F616C6C6F77736F72743D2274727565223E0D0A2020202020202020202020202020202020202020203C64697620636C6173733D227374645F677269645F63656C6C5F73697A6572223E0D0A20202020202000201108190034153473 
DEVENG DM_DET33  UHANDLEEVENT        LANSA     XHTML     00000000390000100000010002020202020202020202020202020202020203C78736C3A696620746573743D22626F6F6C65616E282F6C786D6C3A646174612F6C786D6C3A636F6E746578745B4064657369676E5D29223E0D0A2020202020202020202020202020202020202020202020202020203C78736C3A617474726962757465206E616D653D22636C617373223E68696464656E5F5F3C2F78736C3A6174747269627574653E0D0A2020202020202020202020202020202020202020202020203C2F78736C3A69663E0D0A2020202020202020202020202020202020202020202020203C78736C3A636F6D6D656E743E0D0A20202020202020202020202020202020202000201108190034153473 
DEVENG DM_DET33  UHANDLEEVENT        LANSA     XHTML     00000000390000200000000002020202020203C2F78736C3A636F6D6D656E743E0D0A2020202020202020202020202020202020202020203C2F6469763E0D0A2020202020202020202020202020202020203C2F74683E0D0A2020202020202020202020202020202020203C7468207374796C653D2277696474683A20373770783B220D0A20202020202020202020202020202020202020202020636C6173733D22757465787420564752414445207374645F677269645F736F72745F696E64696361746F72220D0A202020202020202020202020202020202020202020205F5F646563696D616C736570617261746F723D2222205F5F666F726D6174747970653D22616C706800201108190034153473 
DEVENG DM_DET33  UHANDLEEVENT        LANSA     XHTML     000000004000001000000100061220D0A202020202020202020202020202020202020202020205F5F6D6F64653D226F757470757422205F5F616C6C6F77736F72743D2274727565223E0D0A2020202020202020202020202020202020202020203C64697620636C6173733D227374645F677269645F63656C6C5F73697A6572223E0D0A2020202020202020202020202020202020202020202020203C78736C3A696620746573743D22626F6F6C65616E282F6C786D6C3A646174612F6C786D6C3A636F6E746578745B4064657369676E5D29223E0D0A2020202020202020202020202020202020202020202020202020203C78736C3A617474726962757465206E616D653D2200201108190034153473 
DEVENG DM_DET33  UHANDLEEVENT        LANSA     XHTML     0000000040000020000000000636C617373223E68696464656E5F5F3C2F78736C3A6174747269627574653E0D0A2020202020202020202020202020202020202020202020203C2F78736C3A69663E0D0A2020202020202020202020202020202020202020202020203C78736C3A636F6D6D656E743E0D0A2020202020202020202020202020202020202020202020203C2F78736C3A636F6D6D656E743E0D0A2020202020202020202020202020202020202020203C2F6469763E0D0A2020202020202020202020202020202020203C2F74683E0D0A2020202020202020202020202020202020203C746820636C6173733D22746578742056434F4D4D454E54207374645F677200201108190034153473 
DEVENG DM_DET33  UHANDLEEVENT        LANSA     XHTML     000000004100001000000100069645F736F72745F696E64696361746F72220D0A202020202020202020202020202020202020202020205F5F646563696D616C736570617261746F723D2222205F5F666F726D6174747970653D22616C70686122205F5F6D6F64653D22696E707574220D0A202020202020202020202020202020202020202020205F5F616C6C6F77736F72743D2274727565223E0D0A2020202020202020202020202020202020202020203C78736C3A666F722D656163682073656C6563743D22247468656C6973742F6C786D6C3A6C6973742D6865616465722F6C786D6C3A6865616465725B335D2F2A5B2E2F2F7465787428295B6E6F726D616C697A652D00201108190034153473 
DEVENG DM_DET33  UHANDLEEVENT        LANSA     XHTML     00000000410000200000000007370616365282E29213D27275D5D223E0D0A2020202020202020202020202020202020202020202020203C78736C3A696620746573743D226E6F7428706F736974696F6E2829203D206C617374282929223E0D0A2020202020202020202020202020202020202020202020202020203C6272202F3E0D0A2020202020202020202020202020202020202020202020203C2F78736C3A69663E0D0A2020202020202020202020202020202020202020203C2F78736C3A666F722D656163683E0D0A2020202020202020202020202020202020202020203C64697620636C6173733D227374645F677269645F63656C6C5F73697A6572223E0D0A202000201108190034153473 
DEVENG DM_DET33  UHANDLEEVENT        LANSA     XHTML     0000000042000010000001000202020202020202020202020202020202020202020203C78736C3A696620746573743D22626F6F6C65616E282F6C786D6C3A646174612F6C786D6C3A636F6E746578745B4064657369676E5D29223E0D0A2020202020202020202020202020202020202020202020202020203C78736C3A617474726962757465206E616D653D22636C617373223E68696464656E5F5F3C2F78736C3A6174747269627574653E0D0A2020202020202020202020202020202020202020202020203C2F78736C3A69663E0D0A2020202020202020202020202020202020202020202020203C78736C3A636F6D6D656E743E0D0A202020202020202020202020202000201108190034153473 
DEVENG DM_DET33  UHANDLEEVENT        LANSA     XHTML     0000000042000020000000000202020202020202020203C2F78736C3A636F6D6D656E743E0D0A2020202020202020202020202020202020202020203C2F6469763E0D0A2020202020202020202020202020202020203C2F74683E0D0A2020202020202020202020202020202020203C7468207374796C653D2277696474683A2031333070783B220D0A20202020202020202020202020202020202020202020636C6173733D226E756D62657220564441544541435152207374645F677269645F736F72745F696E64696361746F72220D0A202020202020202020202020202020202020202020205F5F646563696D616C736570617261746F723D2222205F5F666F726D61747400201108190034153473 
DEVENG DM_DET33  UHANDLEEVENT        LANSA     XHTML     00000000430000100000010007970653D226461746522205F5F6D6F64653D22696E707574220D0A202020202020202020202020202020202020202020205F5F616C6C6F77736F72743D2274727565223E0D0A2020202020202020202020202020202020202020203C64697620636C6173733D227374645F677269645F63656C6C5F73697A6572223E0D0A2020202020202020202020202020202020202020202020203C78736C3A696620746573743D22626F6F6C65616E282F6C786D6C3A646174612F6C786D6C3A636F6E746578745B4064657369676E5D29223E0D0A2020202020202020202020202020202020202020202020202020203C78736C3A61747472696275746500201108190034153473 
DEVENG DM_DET33  UHANDLEEVENT        LANSA     XHTML     0000000043000020000000000206E616D653D22636C617373223E68696464656E5F5F3C2F78736C3A6174747269627574653E0D0A2020202020202020202020202020202020202020202020203C2F78736C3A69663E0D0A2020202020202020202020202020202020202020202020203C78736C3A636F6D6D656E743E0D0A2020202020202020202020202020202020202020202020203C2F78736C3A636F6D6D656E743E0D0A2020202020202020202020202020202020202020203C2F6469763E0D0A2020202020202020202020202020202020203C2F74683E0D0A2020202020202020202020202020202020203C746820636C6173733D22757465787420534B494C434F4400201108190034153473 
