DEVDF_DDDEP  0000000CBCL_1              Parent              0000910#CMBX_DEPT          0004597850000000          
DEVDF_DDDEP  0000000CBCL_1              Source              0000909#DEPTMENT           0006563970000000          
DEVDF_DDDEP  0000000CBCL_1              Visible             0000905False               0000668180000000          
DEVDF_DDDEP  0000000CBCL_1              Width               000090220                  0000660500000000          
DEVDF_DDDEP  0000000CBCL_2              DisplayPosition     00009011                   0000660500000000          
DEVDF_DDDEP  0000000CBCL_2              Parent              0000910#CMBX_DEPT          0004597850000000          
DEVDF_DDDEP  0000000CBCL_2              Source              0000909#DEPTDESC           0006563970000000          
DEVDF_DDDEP  0000000CBCL_2              Width               000090220                  0000660500000000          
DEVDF_DDDEP  0000000CMBX_DEPT           ComboBoxStyle       0000912DropDownList        0000668180000000          
DEVDF_DDDEP  0000000CMBX_DEPT           DisplayPosition     00009011                   0000660500000000          
DEVDF_DDDEP  0000000CMBX_DEPT           Height              000090218                  0000660500000000          
DEVDF_DDDEP  0000000CMBX_DEPT           Left                0000903128                 0000660500000000          
DEVDF_DDDEP  0000000CMBX_DEPT           Parent              0000910#COM_OWNER          0003287130000000          
DEVDF_DDDEP  0000000CMBX_DEPT           TabPosition         00009011                   0000660500000000          
DEVDF_DDDEP  0000000CMBX_DEPT           Top                 00009010                   0000660500000000          
DEVDF_DDDEP  0000000CMBX_DEPT           Value               0001020'ABCDEFGHIJKLMNOPQRS0000657930000000          
DEVDF_DDDEP  0000000CMBX_DEPT           Value               0002902T'                  0000657930000000          
DEVDF_DDDEP  0000000CMBX_DEPT           Width               0000903185                 0000660500000000          
DEVDF_DDDEP  0000000DF_DDDEP            DisplayPosition     00009011                   0000660500000000          
DEVDF_DDDEP  0000000DF_DDDEP            Height              000090220                  0000660500000000          
DEVDF_DDDEP  0000000DF_DDDEP            Left                00009010                   0000660500000000          
DEVDF_DDDEP  0000000DF_DDDEP            TabPosition         00009011                   0000660500000000          
DEVDF_DDDEP  0000000DF_DDDEP            Top                 00009010                   0000660500000000          
DEVDF_DDDEP  0000000DF_DDDEP            Width               0000903313                 0000660500000000          
DEVDF_DDDEP  0000000LABL_1              Caption             0000918*MTXTDF_DEPARTMENT  0005900920000000          
DEVDF_DDDEP  0000000LABL_1              DisplayPosition     00009012                   0000660500000000          
DEVDF_DDDEP  0000000LABL_1              Height              000090217                  0000660500000000          
DEVDF_DDDEP  0000000LABL_1              Left                00009010                   0000660500000000          
DEVDF_DDDEP  0000000LABL_1              Parent              0000910#COM_OWNER          0003287130000000          
DEVDF_DDDEP  0000000LABL_1              TabPosition         00009012                   0000660500000000          
DEVDF_DDDEP  0000000LABL_1              TabStop             0000905False               0000668180000000          
DEVDF_DDDEP  0000000LABL_1              Top                 00009010                   0000660500000000          
DEVDF_DDDEP  0000000LABL_1              Width               0000903121                 0000660500000000          
DEVDF_DET15  0000000ATLI_1              Attachment          0000903Top                 0000668180000000          
DEVDF_DET15  0000000ATLI_1              Manage              0000912#TOP_MESSAGE        0004597850000000          
DEVDF_DET15  0000000ATLI_1              Parent              0000907#ATLM_1             0004597850000000          
DEVDF_DET15  0000000ATLI_2              Attachment          0000906Center              0000668180000000          
DEVDF_DET15  0000000ATLI_2              Manage              0000910#SELECTION          0004597850000000          
DEVDF_DET15  0000000ATLI_2              Parent              0000907#ATLM_1             0004597850000000          
DEVDF_DET15  0000000ATLI_3              Attachment          0000903Top                 0000668180000000          
DEVDF_DET15  0000000ATLI_3              Manage              0000912#MID_MESSAGE        0004597850000000          
DEVDF_DET15  0000000ATLI_3              Parent              0000907#ATLM_1             0004597850000000          
DEVDF_DET15  0000000DF_DET15            Height              0000903316                 0000660500000000          
DEVDF_DET15  0000000DF_DET15            LayoutManager       0000907#ATLM_1             0004597850000000          
DEVDF_DET15  0000000DF_DET15            Width               0000903492                 0000660500000000          
DEVDF_DET15  0000000LVCL_1              CaptionType         0000905Label               0000668180000000          
DEVDF_DET15  0000000LVCL_1              DisplayPosition     00009011                   0000660500000000          
DEVDF_DET15  0000000LVCL_1              Parent              0000910#SELECTION          0004597850000000          
DEVDF_DET15  0000000LVCL_1              Source              0000906#EMPNO              0006563970000000          
DEVDF_DET15  0000000LVCL_1              Width               000090215                  0000660500000000          
DEVDF_DET15  0000000LVCL_2              CaptionType         0000905Label               0000668180000000          
DEVDF_DET15  0000000LVCL_2              DisplayPosition     00009012                   0000660500000000          
DEVDF_DET15  0000000LVCL_2              Parent              0000910#SELECTION          0004597850000000          
DEVDF_DET15  0000000LVCL_2              Source              0000908#SURNAME            0006563970000000          
DEVDF_DET15  0000000LVCL_2              Width               000090225                  0000660500000000          
DEVDF_DET15  0000000LVCL_3              CaptionType         0000905Label               0000668180000000          
DEVDF_DET15  0000000LVCL_3              DisplayPosition     00009013                   0000660500000000          
DEVDF_DET15  0000000LVCL_3              Parent              0000910#SELECTION          0004597850000000          
DEVDF_DET15  0000000LVCL_3              Source              0000909#GIVENAME           0006563970000000          
DEVDF_DET15  0000000LVCL_3              Width               000090225                  0000660500000000          
DEVDF_DET15  0000000LVCL_4              DisplayPosition     00009014                   0000660500000000          
DEVDF_DET15  0000000LVCL_4              Parent              0000910#SELECTION          0004597850000000          
DEVDF_DET15  0000000LVCL_4              Source              0000909#ADDRESS1           0006563970000000          
DEVDF_DET15  0000000LVCL_4              WidthType           0000909Remainder           0000668180000000          
DEVDF_DET15  0000000MID_MESSAGE         Caption             0000916*MTXTDF_CURR_SEL    0005900920000000          
DEVDF_DET15  0000000MID_MESSAGE         DisplayPosition     00009012                   0000660500000000          
DEVDF_DET15  0000000MID_MESSAGE         Height              000090225                  0000660500000000          
DEVDF_DET15  0000000MID_MESSAGE         Hint                0000913*MTXTDF_DET15       0005900920000000          
DEVDF_DET15  0000000MID_MESSAGE         Left                00009010                   0000660500000000          
DEVDF_DET15  0000000MID_MESSAGE         Parent              0000910#COM_OWNER          0003287130000000          
DEVDF_DET15  0000000MID_MESSAGE         TabPosition         00009011                   0000660500000000          
DEVDF_DET15  0000000MID_MESSAGE         TabStop             0000905False               0000691220000000          
DEVDF_DET15  0000000MID_MESSAGE         Top                 000090225                  0000660500000000          
DEVDF_DET15  0000000MID_MESSAGE         VerticalAlignment   0000906Center              0000668180000000          
DEVDF_DET15  0000000MID_MESSAGE         Width               0000903492                 0000660500000000          
DEVDF_DET15  0000000SELECTION           DisplayPosition     00009013                   0000660500000000          
DEVDF_DET15  0000000SELECTION           FullRowSelect       0000904True                0000691220000000          
DEVDF_DET15  0000000SELECTION           Height              0000903266                 0000660500000000          
DEVDF_DET15  0000000SELECTION           Hint                0000913*MTXTDF_DET15       0005900920000000          
DEVDF_DET15  0000000SELECTION           Left                00009010                   0000660500000000          
DEVDF_DET15  0000000SELECTION           Parent              0000910#COM_OWNER          0003287130000000          
DEVDF_DET15  0000000SELECTION           TabPosition         00009013                   0000660500000000          
DEVDF_DET15  0000000SELECTION           Top                 000090250                  0000660500000000          
DEVDF_DET15  0000000SELECTION           Width               0000903492                 0000660500000000          
DEVDF_DET15  0000000TOP_MESSAGE         Caption             0000915*MTXTDF_INFOCUS     0005900920000000          
DEVDF_DET15  0000000TOP_MESSAGE         DisplayPosition     00009011                   0000660500000000          
DEVDF_DET15  0000000TOP_MESSAGE         Height              000090225                  0000660500000000          
DEVDF_DET15  0000000TOP_MESSAGE         Hint                0000913*MTXTDF_DET15       0005900920000000          
DEVDF_DET15  0000000TOP_MESSAGE         Left                00009010                   0000660500000000          
DEVDF_DET15  0000000TOP_MESSAGE         Parent              0000910#COM_OWNER          0003287130000000          
DEVDF_DET15  0000000TOP_MESSAGE         TabPosition         00009012                   0000660500000000          
DEVDF_DET15  0000000TOP_MESSAGE         TabStop             0000905False               0000691220000000          
DEVDF_DET15  0000000TOP_MESSAGE         Top                 00009010                   0000660500000000          
DEVDF_DET15  0000000TOP_MESSAGE         VerticalAlignment   0000906Center              0000668180000000          
DEVDF_DET15  0000000TOP_MESSAGE         Width               0000903492                 0000660500000000          
DEVDF_DET17  0000000ATLI_1              Attachment          0000903Top                 0000668180000000          
DEVDF_DET17  0000000ATLI_1              Manage              0000910#TOP_PANEL          0004597850000000          
DEVDF_DET17  0000000ATLI_1              Parent              0000907#ATLM_1             0004597850000000          
DEVDF_DET17  0000000ATLI_2              Attachment          0000906Center              0000668180000000          
DEVDF_DET17  0000000ATLI_2              Manage              0000913#CENTER_PANEL       0004597850000000          
DEVDF_DET17  0000000ATLI_2              Parent              0000907#ATLM_1             0004597850000000          
DEVDF_DET17  0000000ATLI_3              Attachment          0000906Center              0000668180000000          
DEVDF_DET17  0000000ATLI_3              Manage              0000909#EMP_LIST           0004597850000000          
DEVDF_DET17  0000000ATLI_3              Parent              0000907#ATLM_2             0004597850000000          
DEVDF_DET17  0000000CENTER_PANEL        DisplayPosition     00009012                   0000724500000000          
DEVDF_DET17  0000000CENTER_PANEL        Height              0000903250                 0000724500000000          
DEVDF_DET17  0000000CENTER_PANEL        LayoutManager       0000907#SPLM_1             0004597850000000          
DEVDF_DET17  0000000CENTER_PANEL        Left                00009010                   0000724500000000          
DEVDF_DET17  0000000CENTER_PANEL        Parent              0000910#COM_OWNER          0003287130000000          
DEVDF_DET17  0000000CENTER_PANEL        TabPosition         00009012                   0000724500000000          
DEVDF_DET17  0000000CENTER_PANEL        TabStop             0000905False               0000691220000000          
DEVDF_DET17  0000000CENTER_PANEL        Top                 000090225                  0000724500000000          
DEVDF_DET17  0000000CENTER_PANEL        Width               0000903554                 0000724500000000          
DEVDF_DET17  0000000DETAILS_BUTTON      Caption             0000915*MTXTDF_DETAILS     0005900920000000          
DEVDF_DET17  0000000DETAILS_BUTTON      DisplayPosition     00009011                   0000724500000000          
DEVDF_DET17  0000000DETAILS_BUTTON      Enabled             0000905False               0000691220000000          
DEVDF_DET17  0000000DETAILS_BUTTON      Left                00009013                   0000724500000000          
DEVDF_DET17  0000000DETAILS_BUTTON      Parent              0000912#RIGHT_PANEL        0004597850000000          
DEVDF_DET17  0000000DETAILS_BUTTON      TabPosition         00009011                   0000724500000000          
DEVDF_DET17  0000000DETAILS_BUTTON      Top                 00009010                   0000724500000000          
DEVDF_DET17  0000000DETAILS_BUTTON      Width               0000903109                 0000724500000000          
DEVDF_DET17  0000000DF_DET17            Height              0000903275                 0000724500000000          
DEVDF_DET17  0000000DF_DET17            LayoutManager       0000907#ATLM_1             0004597850000000          
DEVDF_DET17  0000000DF_DET17            Width               0000903554                 0000724500000000          
DEVDF_DET17  0000000EMP_LIST            DisplayPosition     00009011                   0000724500000000          
DEVDF_DET17  0000000EMP_LIST            Height              0000903250                 0000724500000000          
DEVDF_DET17  0000000EMP_LIST            Left                00009010                   0000724500000000          
DEVDF_DET17  0000000EMP_LIST            Parent              0000911#LEFT_PANEL         0004597850000000          
DEVDF_DET17  0000000EMP_LIST            SelectionStyle      0000908Multiple            0000668180000000          
DEVDF_DET17  0000000EMP_LIST            ShowButtonSelection 0000904True                0000691220000000          
DEVDF_DET17  0000000EMP_LIST            ShowSelection       0000904True                0000691220000000          
DEVDF_DET17  0000000EMP_LIST            ShowSelectionHilight0000905False               0000691220000000          
DEVDF_DET17  0000000EMP_LIST            ShowSortArrow       0000904True                0000691220000000          
DEVDF_DET17  0000000EMP_LIST            TabPosition         00009011                   0000724500000000          
DEVDF_DET17  0000000EMP_LIST            Top                 00009010                   0000724500000000          
DEVDF_DET17  0000000EMP_LIST            Width               0000903435                 0000724500000000          
DEVDF_DET17  0000000FWLI_1              Manage              0000915#DETAILS_BUTTON     0004597850000000          
DEVDF_DET17  0000000FWLI_1              Parent              0000907#FWLM_1             0004597850000000          
DEVDF_DET17  0000000FWLM_1              FlowOperationHor    0000906Center              0000668180000000          
DEVDF_DET17  0000000FWLM_1              FlowOperationVer    0000908Decrease            0000668180000000          
DEVDF_DET17  0000000GDCL_1              DisplayPosition     00009011                   0000724500000000          
DEVDF_DET17  0000000GDCL_1              Parent              0000909#EMP_LIST           0004597850000000          
DEVDF_DET17  0000000GDCL_1              SortOnClick         0000904True                0000691220000000          
DEVDF_DET17  0000000GDCL_1              Source              0000906#EMPNO              0006563970000000          
DEVDF_DET17  0000000GDCL_1              Width               000090223                  0000724500000000          
DEVDF_DET17  0000000GDCL_2              DisplayPosition     00009012                   0000724500000000          
DEVDF_DET17  0000000GDCL_2              Parent              0000909#EMP_LIST           0004597850000000          
DEVDF_DET17  0000000GDCL_2              SortOnClick         0000904True                0000691220000000          
DEVDF_DET17  0000000GDCL_2              Source              0000908#SURNAME            0006563970000000          
DEVDF_DET17  0000000GDCL_2              Width               000090235                  0000724500000000          
DEVDF_DET17  0000000GDCL_22             Parent              0000909#EMP_LIST           0004597850000000          
DEVDF_DET17  0000000GDCL_22             Source              0000909#DEPTMENT           0006563970000000          
DEVDF_DET17  0000000GDCL_22             Visible             0000905False               0000691220000000          
DEVDF_DET17  0000000GDCL_23             Parent              0000909#EMP_LIST           0004597850000000          
DEVDF_DET17  0000000GDCL_23             Source              0000908#SECTION            0006563970000000          
DEVDF_DET17  0000000GDCL_23             Visible             0000905False               0000691220000000          
DEVDF_DET17  0000000GDCL_3              DisplayPosition     00009013                   0000724500000000          
DEVDF_DET17  0000000GDCL_3              Parent              0000909#EMP_LIST           0004597850000000          
DEVDF_DET17  0000000GDCL_3              SortOnClick         0000904True                0000691220000000          
DEVDF_DET17  0000000GDCL_3              Source              0000909#GIVENAME           0006563970000000          
DEVDF_DET17  0000000GDCL_3              Width               000090238                  0000724500000000          
DEVDF_DET17  0000000GDCL_3              WidthType           0000909Remainder           0000668180000000          
DEVDF_DET17  0000000LEFT_PANEL          DisplayPosition     00009011                   0000724500000000          
DEVDF_DET17  0000000LEFT_PANEL          Height              0000903250                 0000724500000000          
DEVDF_DET17  0000000LEFT_PANEL          LayoutManager       0000907#ATLM_2             0004597850000000          
DEVDF_DET17  0000000LEFT_PANEL          Left                00009010                   0000724500000000          
DEVDF_DET17  0000000LEFT_PANEL          Parent              0000913#CENTER_PANEL       0004597850000000          
DEVDF_DET17  0000000LEFT_PANEL          TabPosition         00009011                   0000724500000000          
DEVDF_DET17  0000000LEFT_PANEL          TabStop             0000905False               0000691220000000          
DEVDF_DET17  0000000LEFT_PANEL          Top                 00009010                   0000724500000000          
DEVDF_DET17  0000000LEFT_PANEL          Width               0000903435                 0000724500000000          
DEVDF_DET17  0000000RIGHT_PANEL         DisplayPosition     00009012                   0000724500000000          
DEVDF_DET17  0000000RIGHT_PANEL         Height              0000903250                 0000724500000000          
DEVDF_DET17  0000000RIGHT_PANEL         LayoutManager       0000907#FWLM_1             0004597850000000          
DEVDF_DET17  0000000RIGHT_PANEL         Left                0000903439                 0000724500000000          
DEVDF_DET17  0000000RIGHT_PANEL         Parent              0000913#CENTER_PANEL       0004597850000000          
DEVDF_DET17  0000000RIGHT_PANEL         TabPosition         00009012                   0000724500000000          
DEVDF_DET17  0000000RIGHT_PANEL         TabStop             0000905False               0000691220000000          
DEVDF_DET17  0000000RIGHT_PANEL         Top                 00009010                   0000724500000000          
DEVDF_DET17  0000000RIGHT_PANEL         Width               0000903115                 0000724500000000          
DEVDF_DET17  0000000SPLI_1              Manage              0000911#LEFT_PANEL         0004597850000000          
DEVDF_DET17  0000000SPLI_1              Parent              0000907#SPLM_1             0004597850000000          
DEVDF_DET17  0000000SPLI_1              Weight              00009011                   0000724500000000          
DEVDF_DET17  0000000SPLI_2              Manage              0000912#RIGHT_PANEL        0004597850000000          
DEVDF_DET17  0000000SPLI_2              Parent              0000907#SPLM_1             0004597850000000          
DEVDF_DET17  0000000SPLM_1              DividerStyle        0000903Gap                 0000668180000000          
DEVDF_DET17  0000000SPLM_1              Orientation         0000908Vertical            0000668180000000          
DEVDF_DET17  0000000TOP_PANEL           DisplayPosition     00009011                   0000724500000000          
DEVDF_DET17  0000000TOP_PANEL           Height              000090225                  0000724500000000          
DEVDF_DET17  0000000TOP_PANEL           Hint                0000913*MTXTDF_DET17       0005900920000000          
DEVDF_DET17  0000000TOP_PANEL           Left                00009010                   0000724500000000          
DEVDF_DET17  0000000TOP_PANEL           Parent              0000910#COM_OWNER          0003287130000000          
DEVDF_DET17  0000000TOP_PANEL           TabPosition         00009011                   0000724500000000          
DEVDF_DET17  0000000TOP_PANEL           TabStop             0000905False               0000691220000000          
DEVDF_DET17  0000000TOP_PANEL           Top                 00009010                   0000724500000000          
DEVDF_DET17  0000000TOP_PANEL           Width               0000903554                 0000724500000000          
DEVDF_DET17  0000000TOTAL_EMPLOYEES     Caption             0000918*MTXTDF_TOTAL_EMPS  0005900920000000          
DEVDF_DET17  0000000TOTAL_EMPLOYEES     DisplayPosition     00009011                   0000724500000000          
DEVDF_DET17  0000000TOTAL_EMPLOYEES     Height              000090218                  0000724500000000          
DEVDF_DET17  0000000TOTAL_EMPLOYEES     Hint                0000913*MTXTDF_DET17       0005900920000000          
DEVDF_DET17  0000000TOTAL_EMPLOYEES     LabelType           0000907Caption             0000668180000000          
DEVDF_DET17  0000000TOTAL_EMPLOYEES     Left                00009015                   0000724500000000          
DEVDF_DET17  0000000TOTAL_EMPLOYEES     MarginLeft          0000903270                 0000724500000000          
DEVDF_DET17  0000000TOTAL_EMPLOYEES     Parent              0000910#TOP_PANEL          0004597850000000          
DEVDF_DET17  0000000TOTAL_EMPLOYEES     PrompterPosition    0000904None                0000668180000000          
DEVDF_DET17  0000000TOTAL_EMPLOYEES     ReadOnly            0000904True                0000691220000000          
DEVDF_DET17  0000000TOTAL_EMPLOYEES     TabPosition         00009011                   0000724500000000          
DEVDF_DET17  0000000TOTAL_EMPLOYEES     TabStop             0000905False               0000691220000000          
DEVDF_DET17  0000000TOTAL_EMPLOYEES     Top                 00009013                   0000724500000000          
DEVDF_DET17  0000000TOTAL_EMPLOYEES     UsePicklist         0000905False               0000691220000000          
DEVDF_DET17  0000000TOTAL_EMPLOYEES     Width               0000903308                 0000724500000000          
DEVDF_DET21  0000000BODY_ATTACH         Attachment          0000906Center              0000668180000000          
DEVDF_DET21  0000000BODY_ATTACH         Manage              0000910#BODY_HEAD          1346775130000000          
DEVDF_DET21  0000000BODY_ATTACH         Parent              0000912#MAIN_LAYOUT        1346775130000000          
DEVDF_DET21  0000000BODY_HEAD           DisplayPosition     00009011                   2685079060000000          
DEVDF_DET21  0000000BODY_HEAD           Height              0000903240                 2685079060000000          
DEVDF_DET21  0000000BODY_HEAD           Hint                0000913*MTXTDF_DET21       0005900920000000          
DEVDF_DET21  0000000BODY_HEAD           LayoutManager       0000915#BODY_HEAD_FLOW     1346775130000000          
DEVDF_DET21  0000000BODY_HEAD           Left                00009010                   2685079060000000          
DEVDF_DET21  0000000BODY_HEAD           Parent              0000910#COM_OWNER          0003287130000000          
DEVDF_DET21  0000000BODY_HEAD           TabPosition         00009011                   2685079060000000          
DEVDF_DET21  0000000BODY_HEAD           TabStop             0000905False               0000691220000000          
DEVDF_DET21  0000000BODY_HEAD           Top                 00009010                   2685079060000000          
DEVDF_DET21  0000000BODY_HEAD           VerticalScroll      0000904True                0000691220000000          
DEVDF_DET21  0000000BODY_HEAD           Width               0000903472                 2685079060000000          
DEVDF_DET21  0000000BODY_HEAD_FLOW      Direction           0000911TopToBottom         0000668180000000          
DEVDF_DET21  0000000BODY_HEAD_FLOW      MarginBottom        00009014                   2685079060000000          
DEVDF_DET21  0000000BODY_HEAD_FLOW      MarginLeft          00009014                   2685079060000000          
DEVDF_DET21  0000000BODY_HEAD_FLOW      MarginRight         00009014                   2685079060000000          
DEVDF_DET21  0000000BODY_HEAD_FLOW      MarginTop           00009014                   2685079060000000          
DEVDF_DET21  0000000BODY_HEAD_FLOW      Spacing             00009014                   2685079060000000          
DEVDF_DET21  0000000BODY_HEAD_FLOW      SpacingItems        00009014                   2685079060000000          
DEVDF_DET21  0000000BUTTON_ATTACH       Attachment          0000905Right               0000668180000000          
DEVDF_DET21  0000000BUTTON_ATTACH       Manage              0000913#BUTTON_PANEL       1346775130000000          
DEVDF_DET21  0000000BUTTON_ATTACH       Parent              0000912#MAIN_LAYOUT        1346775130000000          
DEVDF_DET21  0000000BUTTON_FLOW         Direction           0000911TopToBottom         0000668180000000          
DEVDF_DET21  0000000BUTTON_FLOW         FlowOperation       0000906Center              0000668180000000          
DEVDF_DET21  0000000BUTTON_FLOW         MarginBottom        00009014                   2685079060000000          
DEVDF_DET21  0000000BUTTON_FLOW         MarginLeft          00009014                   2685079060000000          
DEVDF_DET21  0000000BUTTON_FLOW         MarginRight         00009014                   2685079060000000          
DEVDF_DET21  0000000BUTTON_FLOW         MarginTop           00009014                   2685079060000000          
DEVDF_DET21  0000000BUTTON_FLOW         Spacing             00009014                   2685079060000000          
DEVDF_DET21  0000000BUTTON_FLOW         SpacingItems        00009014                   2685079060000000          
DEVDF_DET21  0000000BUTTON_PANEL        DisplayPosition     00009012                   2685079060000000          
DEVDF_DET21  0000000BUTTON_PANEL        Height              0000903240                 2685079060000000          
DEVDF_DET21  0000000BUTTON_PANEL        Hint                0000913*MTXTDF_DET21       0005900920000000          
DEVDF_DET21  0000000BUTTON_PANEL        LayoutManager       0000912#BUTTON_FLOW        1346775130000000          
DEVDF_DET21  0000000BUTTON_PANEL        Left                0000903472                 2685079060000000          
DEVDF_DET21  0000000BUTTON_PANEL        Parent              0000910#COM_OWNER          0003287130000000          
DEVDF_DET21  0000000BUTTON_PANEL        TabPosition         00009012                   2685079060000000          
DEVDF_DET21  0000000BUTTON_PANEL        TabStop             0000905False               0000691220000000          
DEVDF_DET21  0000000BUTTON_PANEL        Top                 00009010                   2685079060000000          
DEVDF_DET21  0000000BUTTON_PANEL        Width               0000903128                 2685079060000000          
DEVDF_DET21  0000000DEPTDESC            DisplayPosition     00009012                   2685079060000000          
DEVDF_DET21  0000000DEPTDESC            Height              000090219                  2685079060000000          
DEVDF_DET21  0000000DEPTDESC            Left                00009014                   2685079060000000          
DEVDF_DET21  0000000DEPTDESC            Parent              0000910#BODY_HEAD          1346775130000000          
DEVDF_DET21  0000000DEPTDESC            TabPosition         00009012                   2685079060000000          
DEVDF_DET21  0000000DEPTDESC            Top                 000090227                  2685079060000000          
DEVDF_DET21  0000000DEPTDESC            UsePicklist         0000905False               0000691220000000          
DEVDF_DET21  0000000DEPTDESC            Width               0000903324                 2685079060000000          
DEVDF_DET21  0000000DEPTMENT            DisplayPosition     00009011                   2685079060000000          
DEVDF_DET21  0000000DEPTMENT            Height              000090219                  2685079060000000          
DEVDF_DET21  0000000DEPTMENT            Left                00009014                   2685079060000000          
DEVDF_DET21  0000000DEPTMENT            Parent              0000910#BODY_HEAD          1346775130000000          
DEVDF_DET21  0000000DEPTMENT            TabPosition         00009011                   2685079060000000          
DEVDF_DET21  0000000DEPTMENT            Top                 00009014                   2685079060000000          
DEVDF_DET21  0000000DEPTMENT            UsePicklist         0000905False               0000691220000000          
DEVDF_DET21  0000000DEPTMENT            Width               0000903201                 2685079060000000          
DEVDF_DET21  0000000DF_DET21            01                  0000908PRIM_EVP            0000000010000000          
DEVDF_DET21  0000000DF_DET21            02                  000090201                  0000000030000000          
DEVDF_DET21  0000000DF_DET21            Height              0000903240                 2685079060000000          
DEVDF_DET21  0000000DF_DET21            LayoutManager       0000912#MAIN_LAYOUT        1346775130000000          
DEVDF_DET21  0000000DF_DET21            Width               0000903600                 2685079060000000          
DEVDF_DET21  0000000FWLI_DEPTDESC       Manage              0000909#DEPTDESC           0004597850000000          
DEVDF_DET21  0000000FWLI_DEPTDESC       Parent              0000915#BODY_HEAD_FLOW     1346775130000000          
DEVDF_DET21  0000000FWLI_DEPTMENT       Manage              0000909#DEPTMENT           0004597850000000          
DEVDF_DET21  0000000FWLI_DEPTMENT       Parent              0000915#BODY_HEAD_FLOW     1346775130000000          
DEVDF_DET21  0000000FWLI_PUSHB1_BUTTON  Manage              0000914#PUSHB1_BUTTON      1346775130000000          
DEVDF_DET21  0000000FWLI_PUSHB1_BUTTON  Parent              0000912#BUTTON_FLOW        1346775130000000          
DEVDF_DET21  0000000PUSHB1_BUTTON       ButtonDefault       0000904True                0000691220000000          
DEVDF_DET21  0000000PUSHB1_BUTTON       Caption             0000911'Undefined'         0000657930000000          
DEVDF_DET21  0000000PUSHB1_BUTTON       DisplayPosition     00009011                   2685079060000000          
DEVDF_DET21  0000000PUSHB1_BUTTON       Left                000090212                  2685079060000000          
DEVDF_DET21  0000000PUSHB1_BUTTON       Parent              0000913#BUTTON_PANEL       1346775130000000          
DEVDF_DET21  0000000PUSHB1_BUTTON       TabPosition         00009011                   2685079060000000          
DEVDF_DET21  0000000PUSHB1_BUTTON       Top                 00009014                   2685079060000000          
DEVDF_DET21  0000000PUSHB1_BUTTON       Width               0000903103                 2685079060000000          
DEVDF_DET22  0000000ATLI_2              Attachment          0000906Center              0000668180000000          
DEVDF_DET22  0000000ATLI_2              Manage              0000910#SELECTION          0004597850000000          
DEVDF_DET22  0000000ATLI_2              Parent              0000907#ATLM_1             0004597850000000          
DEVDF_DET22  0000000ATLI_3              Attachment          0000903Top                 0000668180000000          
DEVDF_DET22  0000000ATLI_3              Manage              0000912#MID_MESSAGE        0004597850000000          
DEVDF_DET22  0000000ATLI_3              Parent              0000907#ATLM_1             0004597850000000          
DEVDF_DET22  0000000DF_DET22            Height              0000903316                 0000660500000000          
DEVDF_DET22  0000000DF_DET22            LayoutManager       0000907#ATLM_1             0004597850000000          
DEVDF_DET22  0000000DF_DET22            Width               0000903492                 0000660500000000          
DEVDF_DET22  0000000LVCL_1              CaptionType         0000905Label               0000668180000000          
DEVDF_DET22  0000000LVCL_1              DisplayPosition     00009011                   0000660500000000          
DEVDF_DET22  0000000LVCL_1              Parent              0000910#SELECTION          0004597850000000          
DEVDF_DET22  0000000LVCL_1              Source              0000906#EMPNO              0006563970000000          
DEVDF_DET22  0000000LVCL_1              Width               000090215                  0000660500000000          
DEVDF_DET22  0000000LVCL_2              CaptionType         0000905Label               0000668180000000          
DEVDF_DET22  0000000LVCL_2              DisplayPosition     00009012                   0000660500000000          
DEVDF_DET22  0000000LVCL_2              Parent              0000910#SELECTION          0004597850000000          
DEVDF_DET22  0000000LVCL_2              Source              0000908#SURNAME            0006563970000000          
DEVDF_DET22  0000000LVCL_2              Width               000090225                  0000660500000000          
DEVDF_DET22  0000000LVCL_3              CaptionType         0000905Label               0000668180000000          
DEVDF_DET22  0000000LVCL_3              DisplayPosition     00009013                   0000660500000000          
DEVDF_DET22  0000000LVCL_3              Parent              0000910#SELECTION          0004597850000000          
DEVDF_DET22  0000000LVCL_3              Source              0000909#GIVENAME           0006563970000000          
DEVDF_DET22  0000000LVCL_3              Width               000090225                  0000660500000000          
DEVDF_DET22  0000000LVCL_4              DisplayPosition     00009014                   0000660500000000          
DEVDF_DET22  0000000LVCL_4              Parent              0000910#SELECTION          0004597850000000          
DEVDF_DET22  0000000LVCL_4              Source              0000909#ADDRESS1           0006563970000000          
DEVDF_DET22  0000000LVCL_4              WidthType           0000909Remainder           0000668180000000          
DEVDF_DET22  0000000MID_MESSAGE         Caption             0000916*MTXTDF_ALL_EMPS    0005900920000000          
DEVDF_DET22  0000000MID_MESSAGE         DisplayPosition     00009011                   0000660500000000          
DEVDF_DET22  0000000MID_MESSAGE         Height              000090225                  0000660500000000          
DEVDF_DET22  0000000MID_MESSAGE         Hint                0000913*MTXTDF_DET15       0005900920000000          
DEVDF_DET22  0000000MID_MESSAGE         Left                00009010                   0000660500000000          
DEVDF_DET22  0000000MID_MESSAGE         Parent              0000910#COM_OWNER          0003287130000000          
DEVDF_DET22  0000000MID_MESSAGE         TabPosition         00009011                   0000660500000000          
DEVDF_DET22  0000000MID_MESSAGE         TabStop             0000905False               0000691220000000          
DEVDF_DET22  0000000MID_MESSAGE         Top                 00009010                   0000660500000000          
DEVDF_DET22  0000000MID_MESSAGE         VerticalAlignment   0000906Center              0000668180000000          
DEVDF_DET22  0000000MID_MESSAGE         Width               0000903492                 0000660500000000          
DEVDF_DET22  0000000SELECTION           DisplayPosition     00009012                   0000660500000000          
DEVDF_DET22  0000000SELECTION           FullRowSelect       0000904True                0000691220000000          
DEVDF_DET22  0000000SELECTION           Height              0000903291                 0000660500000000          
DEVDF_DET22  0000000SELECTION           Hint                0000913*MTXTDF_DET15       0005900920000000          
DEVDF_DET22  0000000SELECTION           Left                00009010                   0000660500000000          
DEVDF_DET22  0000000SELECTION           Parent              0000910#COM_OWNER          0003287130000000          
DEVDF_DET22  0000000SELECTION           TabPosition         00009012                   0000660500000000          
DEVDF_DET22  0000000SELECTION           Top                 000090225                  0000660500000000          
DEVDF_DET22  0000000SELECTION           Width               0000903492                 0000660500000000          
DEVDF_DET32  0000000ATLI_1              Attachment          0000906Center              0000668180000000          
DEVDF_DET32  0000000ATLI_1              Manage              0000907#GPBX_1             0004597850000000          
DEVDF_DET32  0000000ATLI_1              Parent              0000907#ATLM_1             0004597850000000          
DEVDF_DET32  0000000ATLI_2              Attachment          0000906Center              0000668180000000          
DEVDF_DET32  0000000ATLI_2              Manage              0000907#MEMO_1             0004597850000000          
DEVDF_DET32  0000000ATLI_2              Parent              0000907#ATLM_2             0004597850000000          
DEVDF_DET32  0000000ATLM_1              MarginLeft          00009015                   0000724500000000          
DEVDF_DET32  0000000ATLM_1              MarginRight         00009015                   0000724500000000          
DEVDF_DET32  0000000ATLM_1              MarginTop           00009015                   0000724500000000          
DEVDF_DET32  0000000ATLM_2              MarginBottom        00009013                   0000724500000000          
DEVDF_DET32  0000000ATLM_2              MarginLeft          00009013                   0000724500000000          
DEVDF_DET32  0000000ATLM_2              MarginRight         00009013                   0000724500000000          
DEVDF_DET32  0000000ATLM_2              MarginTop           00009013                   0000724500000000          
DEVDF_DET32  0000000BODY_ATTACH         Attachment          0000906Center              0000668180000000          
DEVDF_DET32  0000000BODY_ATTACH         Manage              0000910#BODY_HEAD          0004597850000000          
DEVDF_DET32  0000000BODY_ATTACH         Parent              0000912#MAIN_LAYOUT        0004597850000000          
DEVDF_DET32  0000000BODY_HEAD           DisplayPosition     00009011                   0000724500000000          
DEVDF_DET32  0000000BODY_HEAD           Height              0000903211                 0000724500000000          
DEVDF_DET32  0000000BODY_HEAD           LayoutManager       0000907#ATLM_1             0004597850000000          
DEVDF_DET32  0000000BODY_HEAD           Left                00009010                   0000724500000000          
DEVDF_DET32  0000000BODY_HEAD           Parent              0000910#COM_OWNER          0003287130000000          
DEVDF_DET32  0000000BODY_HEAD           TabPosition         00009011                   0000724500000000          
DEVDF_DET32  0000000BODY_HEAD           TabStop             0000905False               0000691220000000          
DEVDF_DET32  0000000BODY_HEAD           Top                 00009010                   0000724500000000          
DEVDF_DET32  0000000BODY_HEAD           VerticalScroll      0000904True                0000691220000000          
DEVDF_DET32  0000000BODY_HEAD           Width               0000903600                 0000724500000000          
DEVDF_DET32  0000000BUTTON_ATTACH       Attachment          0000906Bottom              0000668180000000          
DEVDF_DET32  0000000BUTTON_ATTACH       Manage              0000913#BUTTON_PANEL       0004597850000000          
DEVDF_DET32  0000000BUTTON_ATTACH       Parent              0000912#MAIN_LAYOUT        0004597850000000          
DEVDF_DET32  0000000BUTTON_FLOW         Direction           0000911RightToLeft         0000668180000000          
DEVDF_DET32  0000000BUTTON_FLOW         MarginBottom        00009014                   0000724500000000          
DEVDF_DET32  0000000BUTTON_FLOW         MarginLeft          00009014                   0000724500000000          
DEVDF_DET32  0000000BUTTON_FLOW         MarginRight         00009014                   0000724500000000          
DEVDF_DET32  0000000BUTTON_FLOW         MarginTop           00009014                   0000724500000000          
DEVDF_DET32  0000000BUTTON_FLOW         Spacing             00009014                   0000724500000000          
DEVDF_DET32  0000000BUTTON_FLOW         SpacingItems        00009014                   0000724500000000          
DEVDF_DET32  0000000BUTTON_PANEL        DisplayPosition     00009012                   0000724500000000          
DEVDF_DET32  0000000BUTTON_PANEL        Height              000090229                  0000724500000000          
DEVDF_DET32  0000000BUTTON_PANEL        LayoutManager       0000912#BUTTON_FLOW        0004597850000000          
DEVDF_DET32  0000000BUTTON_PANEL        Left                00009010                   0000724500000000          
DEVDF_DET32  0000000BUTTON_PANEL        Parent              0000910#COM_OWNER          0003287130000000          
DEVDF_DET32  0000000BUTTON_PANEL        TabPosition         00009012                   0000724500000000          
DEVDF_DET32  0000000BUTTON_PANEL        TabStop             0000905False               0000691220000000          
DEVDF_DET32  0000000BUTTON_PANEL        Top                 0000903211                 0000724500000000          
DEVDF_DET32  0000000BUTTON_PANEL        Width               0000903600                 0000724500000000          
DEVDF_DET32  0000000DF_DET32            Height              0000903240                 0000724500000000          
DEVDF_DET32  0000000DF_DET32            LayoutManager       0000912#MAIN_LAYOUT        0004597850000000          
DEVDF_DET32  0000000DF_DET32            Width               0000903600                 0000724500000000          
DEVDF_DET32  0000000FWLI_1              Manage              0000910#PHBN_Save          0004597850000000          
DEVDF_DET32  0000000FWLI_1              Parent              0000912#BUTTON_FLOW        0004597850000000          
DEVDF_DET32  0000000GPBX_1              Caption             0001020' Additional Details0000657930000000          
DEVDF_DET32  0000000GPBX_1              Caption             0002902 '                  0000657930000000          
DEVDF_DET32  0000000GPBX_1              DisplayPosition     00009011                   0000724500000000          
DEVDF_DET32  0000000GPBX_1              Height              0000903206                 0000724500000000          
DEVDF_DET32  0000000GPBX_1              LayoutManager       0000907#ATLM_2             0004597850000000          
DEVDF_DET32  0000000GPBX_1              Left                00009015                   0000724500000000          
DEVDF_DET32  0000000GPBX_1              Parent              0000910#BODY_HEAD          0004597850000000          
DEVDF_DET32  0000000GPBX_1              TabPosition         00009011                   0000724500000000          
DEVDF_DET32  0000000GPBX_1              TabStop             0000905False               0000691220000000          
DEVDF_DET32  0000000GPBX_1              Top                 00009015                   0000724500000000          
DEVDF_DET32  0000000GPBX_1              Width               0000903590                 0000724500000000          
DEVDF_DET32  0000000MECL_1              ColumnRole          0000904Data                0000668180000000          
DEVDF_DET32  0000000MECL_1              DisplayPosition     00009011                   0000724500000000          
DEVDF_DET32  0000000MECL_1              Parent              0000907#MEMO_1             0004597850000000          
DEVDF_DET32  0000000MECL_1              Source              0000910#DF_ELTXTL          0006563970000000          
DEVDF_DET32  0000000MECL_2              ColumnRole          0000910LineNumber          0000668180000000          
DEVDF_DET32  0000000MECL_2              DisplayPosition     00009012                   0000724500000000          
DEVDF_DET32  0000000MECL_2              Parent              0000907#MEMO_1             0004597850000000          
DEVDF_DET32  0000000MECL_2              Source              0000910#DF_ELLINE          0006563970000000          
DEVDF_DET32  0000000MECL_3              ColumnRole          0000916LineContinuation    0000668180000000          
DEVDF_DET32  0000000MECL_3              DisplayPosition     00009013                   0000724500000000          
DEVDF_DET32  0000000MECL_3              Parent              0000907#MEMO_1             0004597850000000          
DEVDF_DET32  0000000MECL_3              Source              0000910#DF_ELLICT          0006563970000000          
DEVDF_DET32  0000000MEMO_1              AddEntryMode        0000915MultiplePerLine     0000668180000000          
DEVDF_DET32  0000000MEMO_1              ComponentVersion    00009011                   0000724500000000          
DEVDF_DET32  0000000MEMO_1              CurrentLine         00009011                   0000724500000000          
DEVDF_DET32  0000000MEMO_1              DisplayPosition     00009011                   0000724500000000          
DEVDF_DET32  0000000MEMO_1              Height              0000903183                 0000724500000000          
DEVDF_DET32  0000000MEMO_1              Left                00009017                   0000724500000000          
DEVDF_DET32  0000000MEMO_1              MaximumLineLength   000090510000               0000724500000000          
DEVDF_DET32  0000000MEMO_1              Parent              0000907#GPBX_1             0004597850000000          
DEVDF_DET32  0000000MEMO_1              ShowSelectionHilight0000905False               0000691220000000          
DEVDF_DET32  0000000MEMO_1              TabPosition         00009011                   0000724500000000          
DEVDF_DET32  0000000MEMO_1              Top                 000090216                  0000724500000000          
DEVDF_DET32  0000000MEMO_1              Width               0000903576                 0000724500000000          
DEVDF_DET32  0000000MEMO_1              WordWrap            0000904True                0000691220000000          
DEVDF_DET32  0000000PHBN_Save           Caption             0000912'Save Notes'        0000657930000000          
DEVDF_DET32  0000000PHBN_Save           DisplayPosition     00009011                   0000724500000000          
DEVDF_DET32  0000000PHBN_Save           Enabled             0000905False               0000691220000000          
DEVDF_DET32  0000000PHBN_Save           Left                0000903516                 0000724500000000          
DEVDF_DET32  0000000PHBN_Save           Parent              0000913#BUTTON_PANEL       0004597850000000          
DEVDF_DET32  0000000PHBN_Save           TabPosition         00009011                   0000724500000000          
DEVDF_DET32  0000000PHBN_Save           Top                 00009014                   0000724500000000          
DEVDF_DET34  0000000ATLI_1              Attachment          0000906Center              0000668180000000          
DEVDF_DET34  0000000ATLI_1              Manage              0000912#EXPLOR_GPBX        0004597850000000          
DEVDF_DET34  0000000ATLI_1              Parent              0000907#ATLM_1             0004597850000000          
DEVDF_DET34  0000000ATLI_2              Manage              0000907#DirExp             0004597850000000          
DEVDF_DET34  0000000ATLI_2              Parent              0000907#ATLM_1             0004597850000000          
DEVDF_DET34  0000000ATLI_3              Attachment          0000906Center              0000668180000000          
DEVDF_DET34  0000000ATLI_3              Manage              0000907#DirExp             0004597850000000          
DEVDF_DET34  0000000ATLI_3              Parent              0000907#ATLM_2             0004597850000000          
DEVDF_DET34  0000000ATLM_2              MarginBottom        00009014                   2685079060000000          
DEVDF_DET34  0000000ATLM_2              MarginLeft          00009014                   2685079060000000          
DEVDF_DET34  0000000ATLM_2              MarginRight         00009014                   2685079060000000          
DEVDF_DET34  0000000ATLM_2              MarginTop           00009014                   2685079060000000          
DEVDF_DET34  0000000DF_DET34            Height              0000903328                 2685079060000000          
DEVDF_DET34  0000000DF_DET34            LayoutManager       0000907#SPLM_1             0004597850000000          
DEVDF_DET34  0000000DF_DET34            Width               0000903661                 2685079060000000          
DEVDF_DET34  0000000DirExp              DisplayPosition     00009011                   2685079060000000          
DEVDF_DET34  0000000DirExp              Height              0000903214                 2685079060000000          
DEVDF_DET34  0000000DirExp              Left                00009018                   2685079060000000          
DEVDF_DET34  0000000DirExp              Parent              0000912#EXPLOR_GPBX        0004597850000000          
DEVDF_DET34  0000000DirExp              TabPosition         00009011                   2685079060000000          
DEVDF_DET34  0000000DirExp              Top                 000090217                  2685079060000000          
DEVDF_DET34  0000000DirExp              Width               0000903645                 2685079060000000          
DEVDF_DET34  0000000EXPLOR_GPBX         Caption             0000916*MTXTDF_EMP_DOCS    0005900920000000          
DEVDF_DET34  0000000EXPLOR_GPBX         DisplayPosition     00009011                   2685079060000000          
DEVDF_DET34  0000000EXPLOR_GPBX         Height              0000903239                 2685079060000000          
DEVDF_DET34  0000000EXPLOR_GPBX         LayoutManager       0000907#ATLM_2             0004597850000000          
DEVDF_DET34  0000000EXPLOR_GPBX         Left                00009010                   2685079060000000          
DEVDF_DET34  0000000EXPLOR_GPBX         Parent              0000912#EXPLOR_PANL        0004597850000000          
DEVDF_DET34  0000000EXPLOR_GPBX         TabPosition         00009011                   2685079060000000          
DEVDF_DET34  0000000EXPLOR_GPBX         TabStop             0000905False               0000691220000000          
DEVDF_DET34  0000000EXPLOR_GPBX         Top                 00009010                   2685079060000000          
DEVDF_DET34  0000000EXPLOR_GPBX         Width               0000903661                 2685079060000000          
DEVDF_DET34  0000000EXPLOR_PANL         DisplayPosition     00009012                   2685079060000000          
DEVDF_DET34  0000000EXPLOR_PANL         Height              0000903239                 2685079060000000          
DEVDF_DET34  0000000EXPLOR_PANL         LayoutManager       0000907#ATLM_1             0004597850000000          
DEVDF_DET34  0000000EXPLOR_PANL         Left                00009010                   2685079060000000          
DEVDF_DET34  0000000EXPLOR_PANL         Parent              0000910#COM_OWNER          0003287130000000          
DEVDF_DET34  0000000EXPLOR_PANL         TabPosition         00009012                   2685079060000000          
DEVDF_DET34  0000000EXPLOR_PANL         TabStop             0000905False               0000691220000000          
DEVDF_DET34  0000000EXPLOR_PANL         Top                 000090289                  2685079060000000          
DEVDF_DET34  0000000EXPLOR_PANL         Width               0000903661                 2685079060000000          
DEVDF_DET34  0000000FWLI_3              Manage              0000910#INFO_LABL          0004597850000000          
DEVDF_DET34  0000000FWLI_3              Parent              0000907#FWLM_2             0004597850000000          
DEVDF_DET34  0000000FWLI_4              Manage              0000911#INFO_LABL2         0004597850000000          
DEVDF_DET34  0000000FWLI_4              Parent              0000907#FWLM_2             0004597850000000          
DEVDF_DET34  0000000FWLI_5              Manage              0000911#INFO_LABL3         0004597850000000          
DEVDF_DET34  0000000FWLI_5              Parent              0000907#FWLM_2             0004597850000000          
DEVDF_DET34  0000000FWLM_2              Direction           0000911RightToLeft         0000668180000000          
DEVDF_DET34  0000000FWLM_2              MarginBottom        00009014                   2685079060000000          
DEVDF_DET34  0000000FWLM_2              MarginLeft          00009014                   2685079060000000          
DEVDF_DET34  0000000FWLM_2              MarginRight         00009014                   2685079060000000          
DEVDF_DET34  0000000FWLM_2              MarginTop           00009014                   2685079060000000          
DEVDF_DET34  0000000FWLM_2              SizingRuleHor       0000908Maximize            0000668180000000          
DEVDF_DET34  0000000FWLM_2              Spacing             00009015                   2685079060000000          
DEVDF_DET34  0000000FWLM_2              SpacingItems        00009015                   2685079060000000          
DEVDF_DET34  0000000INFO_LABL           Caption             0000908'<text>'            0000657930000000          
DEVDF_DET34  0000000INFO_LABL           DisplayPosition     00009011                   2685079060000000          
DEVDF_DET34  0000000INFO_LABL           Height              000090220                  2685079060000000          
DEVDF_DET34  0000000INFO_LABL           Left                00009014                   2685079060000000          
DEVDF_DET34  0000000INFO_LABL           Parent              0000910#INFO_PANL          0004597850000000          
DEVDF_DET34  0000000INFO_LABL           TabPosition         00009011                   2685079060000000          
DEVDF_DET34  0000000INFO_LABL           TabStop             0000905False               0000691220000000          
DEVDF_DET34  0000000INFO_LABL           Top                 00009014                   2685079060000000          
DEVDF_DET34  0000000INFO_LABL           Width               0000903653                 2685079060000000          
DEVDF_DET34  0000000INFO_LABL2          Caption             0000908'<text>'            0000657930000000          
DEVDF_DET34  0000000INFO_LABL2          DisplayPosition     00009012                   2685079060000000          
DEVDF_DET34  0000000INFO_LABL2          Height              000090230                  2685079060000000          
DEVDF_DET34  0000000INFO_LABL2          Left                00009014                   2685079060000000          
DEVDF_DET34  0000000INFO_LABL2          Parent              0000910#INFO_PANL          0004597850000000          
DEVDF_DET34  0000000INFO_LABL2          TabPosition         00009012                   2685079060000000          
DEVDF_DET34  0000000INFO_LABL2          TabStop             0000905False               0000691220000000          
DEVDF_DET34  0000000INFO_LABL2          Top                 000090229                  2685079060000000          
DEVDF_DET34  0000000INFO_LABL2          Width               0000903653                 2685079060000000          
DEVDF_DET34  0000000INFO_LABL3          Caption             0000908'<text>'            0000657930000000          
DEVDF_DET34  0000000INFO_LABL3          DisplayPosition     00009013                   2685079060000000          
DEVDF_DET34  0000000INFO_LABL3          Left                00009014                   2685079060000000          
DEVDF_DET34  0000000INFO_LABL3          Parent              0000910#INFO_PANL          0004597850000000          
DEVDF_DET34  0000000INFO_LABL3          TabPosition         00009013                   2685079060000000          
DEVDF_DET34  0000000INFO_LABL3          TabStop             0000905False               0000691220000000          
DEVDF_DET34  0000000INFO_LABL3          Top                 000090264                  2685079060000000          
DEVDF_DET34  0000000INFO_LABL3          Width               0000903653                 2685079060000000          
DEVDF_DET34  0000000INFO_PANL           DisplayPosition     00009011                   2685079060000000          
DEVDF_DET34  0000000INFO_PANL           Height              000090285                  2685079060000000          
DEVDF_DET34  0000000INFO_PANL           LayoutManager       0000907#FWLM_2             0004597850000000          
DEVDF_DET34  0000000INFO_PANL           Left                00009010                   2685079060000000          
DEVDF_DET34  0000000INFO_PANL           Parent              0000910#COM_OWNER          0003287130000000          
DEVDF_DET34  0000000INFO_PANL           TabPosition         00009011                   2685079060000000          
DEVDF_DET34  0000000INFO_PANL           TabStop             0000905False               0000691220000000          
DEVDF_DET34  0000000INFO_PANL           Top                 00009010                   2685079060000000          
DEVDF_DET34  0000000INFO_PANL           Width               0000903661                 2685079060000000          
DEVDF_DET34  0000000SPLI_3              Manage              0000912#EXPLOR_PANL        0004597850000000          
DEVDF_DET34  0000000SPLI_3              Parent              0000907#SPLM_1             0004597850000000          
DEVDF_DET34  0000000SPLI_3              Weight              00009011                   2685079060000000          
DEVDF_DET34  0000000SPLI_4              Manage              0000910#INFO_PANL          0004597850000000          
DEVDF_DET34  0000000SPLI_4              Parent              0000907#SPLM_1             0004597850000000          
DEVDF_DET34  0000000SPLM_1              DividerStyle        0000903Gap                 0000668180000000          
DEVDF_DET35  0000000ATLI_1              Attachment          0000906Center              0000668180000000          
DEVDF_DET35  0000000ATLI_1              Parent              0000907#ATLM_1             1346775130000000          
DEVDF_DET35  0000000ATLI_10             Attachment          0000903Top                 0000668180000000          
DEVDF_DET35  0000000ATLI_10             Manage              0000911#Grid_Title         1346775130000000          
DEVDF_DET35  0000000ATLI_10             Parent              0000907#ATLM_2             1346775130000000          
DEVDF_DET35  0000000ATLI_11             Attachment          0000905Right               0000668180000000          
DEVDF_DET35  0000000ATLI_11             Manage              0000907#PHBN_1             1346775130000000          
DEVDF_DET35  0000000ATLI_11             Parent              0000907#ATLM_2             1346775130000000          
DEVDF_DET35  0000000ATLI_12             Attachment          0000903Top                 0000668180000000          
DEVDF_DET35  0000000ATLI_12             Manage              0000907#PANL_1             1346775130000000          
DEVDF_DET35  0000000ATLI_12             Parent              0000907#ATLM_2             1346775130000000          
DEVDF_DET35  0000000ATLI_13             Attachment          0000906Center              0000668180000000          
DEVDF_DET35  0000000ATLI_13             Manage              0000907#PANL_1             1346775130000000          
DEVDF_DET35  0000000ATLI_13             Parent              0000907#ATLM_4             1346775130000000          
DEVDF_DET35  0000000ATLI_14             Attachment          0000906Center              0000668180000000          
DEVDF_DET35  0000000ATLI_14             Manage              0000907#LABL_1             1346775130000000          
DEVDF_DET35  0000000ATLI_14             Parent              0000907#ATLM_5             1346775130000000          
DEVDF_DET35  0000000ATLI_2              Attachment          0000906Center              0000668180000000          
DEVDF_DET35  0000000ATLI_2              Manage              0000910#TimeSheet          1346775130000000          
DEVDF_DET35  0000000ATLI_2              Parent              0000907#ATLM_2             1346775130000000          
DEVDF_DET35  0000000ATLI_3              Attachment          0000906Bottom              0000668180000000          
DEVDF_DET35  0000000ATLI_3              Manage              0000914#PANL_R_Bottom      1346775130000000          
DEVDF_DET35  0000000ATLI_3              Parent              0000907#ATLM_2             1346775130000000          
DEVDF_DET35  0000000ATLI_4              Attachment          0000903Top                 0000668180000000          
DEVDF_DET35  0000000ATLI_4              Manage              0000911#PANL_R_Top         1346775130000000          
DEVDF_DET35  0000000ATLI_4              Parent              0000907#ATLM_2             1346775130000000          
DEVDF_DET35  0000000ATLI_5              Attachment          0000906Center              0000668180000000          
DEVDF_DET35  0000000ATLI_5              Manage              0000913#GPBX_Details       1346775130000000          
DEVDF_DET35  0000000ATLI_5              Parent              0000907#ATLM_3             1346775130000000          
DEVDF_DET35  0000000ATLI_6              Attachment          0000906Center              0000668180000000          
DEVDF_DET35  0000000ATLI_6              Manage              0000909#TreeView           1346775130000000          
DEVDF_DET35  0000000ATLI_6              Parent              0000907#ATLM_1             1346775130000000          
DEVDF_DET35  0000000ATLI_7              Attachment          0000906Center              0000668180000000          
DEVDF_DET35  0000000ATLI_7              Manage              0000911#Main_Panel         1346775130000000          
DEVDF_DET35  0000000ATLI_7              Parent              0000907#ATLM_4             1346775130000000          
DEVDF_DET35  0000000ATLI_8              Attachment          0000906Center              0000668180000000          
DEVDF_DET35  0000000ATLI_8              Manage              0000910#YYSummary          1346775130000000          
DEVDF_DET35  0000000ATLI_8              Parent              0000907#ATLM_2             1346775130000000          
DEVDF_DET35  0000000ATLI_9              Attachment          0000906Center              0000668180000000          
DEVDF_DET35  0000000ATLI_9              Manage              0000909#QSummary           1346775130000000          
DEVDF_DET35  0000000ATLI_9              Parent              0000907#ATLM_2             1346775130000000          
DEVDF_DET35  0000000ATLM_2              MarginBottom        00009013                   2685079060000000          
DEVDF_DET35  0000000ATLM_2              MarginLeft          00009013                   2685079060000000          
DEVDF_DET35  0000000ATLM_2              MarginRight         00009013                   2685079060000000          
DEVDF_DET35  0000000ATLM_2              MarginTop           00009013                   2685079060000000          
DEVDF_DET35  0000000ATLM_3              MarginTop           0000902-3                  2685079060000000          
DEVDF_DET35  0000000ATLM_4              MarginBottom        00009012                   2685079060000000          
DEVDF_DET35  0000000ATLM_4              MarginLeft          00009012                   2685079060000000          
DEVDF_DET35  0000000ATLM_4              MarginRight         00009012                   2685079060000000          
DEVDF_DET35  0000000ATLM_4              MarginTop           00009012                   2685079060000000          
DEVDF_DET35  0000000ButtonPanel         DisplayPosition     00009015                   2685079060000000          
DEVDF_DET35  0000000ButtonPanel         Height              0000903104                 2685079060000000          
DEVDF_DET35  0000000ButtonPanel         Left                0000903399                 2685079060000000          
DEVDF_DET35  0000000ButtonPanel         Parent              0000913#GPBX_Details       1346775130000000          
DEVDF_DET35  0000000ButtonPanel         TabPosition         00009015                   2685079060000000          
DEVDF_DET35  0000000ButtonPanel         TabStop             0000905False               0000691220000000          
DEVDF_DET35  0000000ButtonPanel         Top                 000090215                  2685079060000000          
DEVDF_DET35  0000000ButtonPanel         Width               0000903274                 2685079060000000          
DEVDF_DET35  0000000DF_DET35            Height              0000903506                 2685079060000000          
DEVDF_DET35  0000000DF_DET35            LayoutManager       0000907#ATLM_4             1346775130000000          
DEVDF_DET35  0000000DF_DET35            Width               0000903906                 2685079060000000          
DEVDF_DET35  0000000FWLI_1              Manage              0000907#IMGE_1             1346775130000000          
DEVDF_DET35  0000000FWLI_1              Parent              0000907#FWLM_1             1346775130000000          
DEVDF_DET35  0000000FWLI_2              Manage              0000911#Grid_Title         1346775130000000          
DEVDF_DET35  0000000FWLI_2              Parent              0000907#FWLM_1             1346775130000000          
DEVDF_DET35  0000000FWLI_3              Manage              0000909#STARTDTE           0004597850000000          
DEVDF_DET35  0000000FWLI_3              Parent              0000907#FWLM_1             1346775130000000          
DEVDF_DET35  0000000FWLI_4              Manage              0000908#MNTHSAL            0004597850000000          
DEVDF_DET35  0000000FWLI_4              Parent              0000907#FWLM_1             1346775130000000          
DEVDF_DET35  0000000FWLI_5              Manage              0000907#PHBN_1             1346775130000000          
DEVDF_DET35  0000000FWLI_5              Parent              0000907#FWLM_1             1346775130000000          
DEVDF_DET35  0000000FWLI_6              Manage              0000911#HeaderName         1346775130000000          
DEVDF_DET35  0000000FWLI_6              Parent              0000907#FWLM_1             1346775130000000          
DEVDF_DET35  0000000FWLI_7              Manage              0000912#ButtonPanel        1346775130000000          
DEVDF_DET35  0000000FWLI_7              Parent              0000907#FWLM_1             1346775130000000          
DEVDF_DET35  0000000FWLM_1              Direction           0000911TopToBottom         0000668180000000          
DEVDF_DET35  0000000FWLM_1              FlowOperationVer    0000906Center              0000668180000000          
DEVDF_DET35  0000000FWLM_1              MarginBottom        00009012                   2685079060000000          
DEVDF_DET35  0000000FWLM_1              MarginLeft          00009017                   2685079060000000          
DEVDF_DET35  0000000FWLM_1              MarginRight         00009012                   2685079060000000          
DEVDF_DET35  0000000FWLM_1              MarginTop           00009012                   2685079060000000          
DEVDF_DET35  0000000FWLM_1              Spacing             000090214                  2685079060000000          
DEVDF_DET35  0000000GDCL_1              Parent              0000910#TimeSheet          1346775130000000          
DEVDF_DET35  0000000GDCL_1              Source              0000910#STD_DESCS          0006563970000000          
DEVDF_DET35  0000000GDCL_1              Visible             0000905False               0000691220000000          
DEVDF_DET35  0000000GDCL_10             Caption             0000906'Task'              0000657930000000          
DEVDF_DET35  0000000GDCL_10             CaptionType         0000907Caption             0000668180000000          
DEVDF_DET35  0000000GDCL_10             DisplayPosition     00009011                   2685079060000000          
DEVDF_DET35  0000000GDCL_10             Parent              0000910#TimeSheet          1346775130000000          
DEVDF_DET35  0000000GDCL_10             Source              0000909#STD_DESC           0006563970000000          
DEVDF_DET35  0000000GDCL_10             Width               000090212                  2685079060000000          
DEVDF_DET35  0000000GDCL_11             Caption             0000904'Q1'                0000657930000000          
DEVDF_DET35  0000000GDCL_11             CaptionType         0000907Caption             0000668180000000          
DEVDF_DET35  0000000GDCL_11             DisplayPosition     00009012                   2685079060000000          
DEVDF_DET35  0000000GDCL_11             Parent              0000910#YYSummary          1346775130000000          
DEVDF_DET35  0000000GDCL_11             Source              0000910#DF_ELQ1HS          0006563970000000          
DEVDF_DET35  0000000GDCL_12             Caption             0000904'Q2'                0000657930000000          
DEVDF_DET35  0000000GDCL_12             CaptionType         0000907Caption             0000668180000000          
DEVDF_DET35  0000000GDCL_12             DisplayPosition     00009013                   2685079060000000          
DEVDF_DET35  0000000GDCL_12             Parent              0000910#YYSummary          1346775130000000          
DEVDF_DET35  0000000GDCL_12             Source              0000910#DF_ELQ2HS          0006563970000000          
DEVDF_DET35  0000000GDCL_13             Caption             0000904'Q3'                0000657930000000          
DEVDF_DET35  0000000GDCL_13             CaptionType         0000907Caption             0000668180000000          
DEVDF_DET35  0000000GDCL_13             DisplayPosition     00009014                   2685079060000000          
DEVDF_DET35  0000000GDCL_13             Parent              0000910#YYSummary          1346775130000000          
DEVDF_DET35  0000000GDCL_13             Source              0000910#DF_ELQ3HS          0006563970000000          
DEVDF_DET35  0000000GDCL_14             Caption             0000904'Q4'                0000657930000000          
DEVDF_DET35  0000000GDCL_14             CaptionType         0000907Caption             0000668180000000          
DEVDF_DET35  0000000GDCL_14             DisplayPosition     00009015                   2685079060000000          
DEVDF_DET35  0000000GDCL_14             Parent              0000910#YYSummary          1346775130000000          
DEVDF_DET35  0000000GDCL_14             Source              0000910#DF_ELQ4HS          0006563970000000          
DEVDF_DET35  0000000GDCL_14             WidthType           0000909Remainder           0000668180000000          
DEVDF_DET35  0000000GDCL_15             Parent              0000910#YYSummary          1346775130000000          
DEVDF_DET35  0000000GDCL_15             Source              0000910#STD_DESCS          0006563970000000          
DEVDF_DET35  0000000GDCL_15             Visible             0000905False               0000691220000000          
DEVDF_DET35  0000000GDCL_16             Caption             0000906'Task'              0000657930000000          
DEVDF_DET35  0000000GDCL_16             CaptionType         0000907Caption             0000668180000000          
DEVDF_DET35  0000000GDCL_16             DisplayPosition     00009011                   2685079060000000          
DEVDF_DET35  0000000GDCL_16             Parent              0000909#QSummary           1346775130000000          
DEVDF_DET35  0000000GDCL_16             Source              0000909#STD_DESC           0006563970000000          
DEVDF_DET35  0000000GDCL_16             Width               000090212                  2685079060000000          
DEVDF_DET35  0000000GDCL_17             Caption             0000908'Week 1'            0000657930000000          
DEVDF_DET35  0000000GDCL_17             CaptionType         0000907Caption             0000668180000000          
DEVDF_DET35  0000000GDCL_17             DisplayPosition     00009012                   2685079060000000          
DEVDF_DET35  0000000GDCL_17             Parent              0000909#QSummary           1346775130000000          
DEVDF_DET35  0000000GDCL_17             Source              0000910#DF_ELWK01          0006563970000000          
DEVDF_DET35  0000000GDCL_17             Width               00009017                   2685079060000000          
DEVDF_DET35  0000000GDCL_18             Caption             0000908'Week 2'            0000657930000000          
DEVDF_DET35  0000000GDCL_18             CaptionType         0000907Caption             0000668180000000          
DEVDF_DET35  0000000GDCL_18             DisplayPosition     00009013                   2685079060000000          
DEVDF_DET35  0000000GDCL_18             Parent              0000909#QSummary           1346775130000000          
DEVDF_DET35  0000000GDCL_18             Source              0000910#DF_ELWK02          0006563970000000          
DEVDF_DET35  0000000GDCL_18             Width               00009017                   2685079060000000          
DEVDF_DET35  0000000GDCL_19             CaptionType         0000907Caption             0000668180000000          
DEVDF_DET35  0000000GDCL_19             DisplayPosition     00009014                   2685079060000000          
DEVDF_DET35  0000000GDCL_19             Parent              0000909#QSummary           1346775130000000          
DEVDF_DET35  0000000GDCL_19             Source              0000910#DF_ELWK03          0006563970000000          
DEVDF_DET35  0000000GDCL_19             Width               00009017                   2685079060000000          
DEVDF_DET35  0000000GDCL_2              Caption             0000908'Monday'            0000657930000000          
DEVDF_DET35  0000000GDCL_2              CaptionType         0000907Caption             0000668180000000          
DEVDF_DET35  0000000GDCL_2              DisplayPosition     00009012                   2685079060000000          
DEVDF_DET35  0000000GDCL_2              Parent              0000910#TimeSheet          1346775130000000          
DEVDF_DET35  0000000GDCL_2              ReadOnly            0000905False               0000691220000000          
DEVDF_DET35  0000000GDCL_2              Source              0000910#EMPTSTMON          0006563970000000          
DEVDF_DET35  0000000GDCL_2              Width               000090212                  2685079060000000          
DEVDF_DET35  0000000GDCL_20             CaptionType         0000907Caption             0000668180000000          
DEVDF_DET35  0000000GDCL_20             DisplayPosition     00009015                   2685079060000000          
DEVDF_DET35  0000000GDCL_20             Parent              0000909#QSummary           1346775130000000          
DEVDF_DET35  0000000GDCL_20             Source              0000910#DF_ELWK04          0006563970000000          
DEVDF_DET35  0000000GDCL_20             Width               00009017                   2685079060000000          
DEVDF_DET35  0000000GDCL_21             CaptionType         0000907Caption             0000668180000000          
DEVDF_DET35  0000000GDCL_21             DisplayPosition     00009016                   2685079060000000          
DEVDF_DET35  0000000GDCL_21             Parent              0000909#QSummary           1346775130000000          
DEVDF_DET35  0000000GDCL_21             Source              0000910#DF_ELWK05          0006563970000000          
DEVDF_DET35  0000000GDCL_21             Width               00009017                   2685079060000000          
DEVDF_DET35  0000000GDCL_22             CaptionType         0000907Caption             0000668180000000          
DEVDF_DET35  0000000GDCL_22             DisplayPosition     00009017                   2685079060000000          
DEVDF_DET35  0000000GDCL_22             Parent              0000909#QSummary           1346775130000000          
DEVDF_DET35  0000000GDCL_22             Source              0000910#DF_ELWK06          0006563970000000          
DEVDF_DET35  0000000GDCL_22             Width               00009017                   2685079060000000          
DEVDF_DET35  0000000GDCL_23             CaptionType         0000907Caption             0000668180000000          
DEVDF_DET35  0000000GDCL_23             DisplayPosition     00009018                   2685079060000000          
DEVDF_DET35  0000000GDCL_23             Parent              0000909#QSummary           1346775130000000          
DEVDF_DET35  0000000GDCL_23             Source              0000910#DF_ELWK07          0006563970000000          
DEVDF_DET35  0000000GDCL_23             Width               00009017                   2685079060000000          
DEVDF_DET35  0000000GDCL_24             CaptionType         0000907Caption             0000668180000000          
DEVDF_DET35  0000000GDCL_24             DisplayPosition     00009019                   2685079060000000          
DEVDF_DET35  0000000GDCL_24             Parent              0000909#QSummary           1346775130000000          
DEVDF_DET35  0000000GDCL_24             Source              0000910#DF_ELWK08          0006563970000000          
DEVDF_DET35  0000000GDCL_24             Width               00009017                   2685079060000000          
DEVDF_DET35  0000000GDCL_25             CaptionType         0000907Caption             0000668180000000          
DEVDF_DET35  0000000GDCL_25             DisplayPosition     000090210                  2685079060000000          
DEVDF_DET35  0000000GDCL_25             Parent              0000909#QSummary           1346775130000000          
DEVDF_DET35  0000000GDCL_25             Source              0000910#DF_ELWK09          0006563970000000          
DEVDF_DET35  0000000GDCL_25             Width               00009017                   2685079060000000          
DEVDF_DET35  0000000GDCL_26             CaptionType         0000907Caption             0000668180000000          
DEVDF_DET35  0000000GDCL_26             DisplayPosition     000090211                  2685079060000000          
DEVDF_DET35  0000000GDCL_26             Parent              0000909#QSummary           1346775130000000          
DEVDF_DET35  0000000GDCL_26             Source              0000910#DF_ELWK10          0006563970000000          
DEVDF_DET35  0000000GDCL_26             Width               00009017                   2685079060000000          
DEVDF_DET35  0000000GDCL_27             CaptionType         0000907Caption             0000668180000000          
DEVDF_DET35  0000000GDCL_27             DisplayPosition     000090212                  2685079060000000          
DEVDF_DET35  0000000GDCL_27             Parent              0000909#QSummary           1346775130000000          
DEVDF_DET35  0000000GDCL_27             Source              0000910#DF_ELWK11          0006563970000000          
DEVDF_DET35  0000000GDCL_27             Width               00009017                   2685079060000000          
DEVDF_DET35  0000000GDCL_28             CaptionType         0000907Caption             0000668180000000          
DEVDF_DET35  0000000GDCL_28             DisplayPosition     000090213                  2685079060000000          
DEVDF_DET35  0000000GDCL_28             Parent              0000909#QSummary           1346775130000000          
DEVDF_DET35  0000000GDCL_28             Source              0000910#DF_ELWK12          0006563970000000          
DEVDF_DET35  0000000GDCL_28             Width               00009017                   2685079060000000          
DEVDF_DET35  0000000GDCL_29             CaptionType         0000907Caption             0000668180000000          
DEVDF_DET35  0000000GDCL_29             DisplayPosition     000090214                  2685079060000000          
DEVDF_DET35  0000000GDCL_29             Parent              0000909#QSummary           1346775130000000          
DEVDF_DET35  0000000GDCL_29             Source              0000910#DF_ELWK13          0006563970000000          
DEVDF_DET35  0000000GDCL_29             Width               00009017                   2685079060000000          
DEVDF_DET35  0000000GDCL_3              Caption             0000909'Tuesday'           0000657930000000          
DEVDF_DET35  0000000GDCL_3              CaptionType         0000907Caption             0000668180000000          
DEVDF_DET35  0000000GDCL_3              DisplayPosition     00009013                   2685079060000000          
DEVDF_DET35  0000000GDCL_3              Parent              0000910#TimeSheet          1346775130000000          
DEVDF_DET35  0000000GDCL_3              ReadOnly            0000905False               0000691220000000          
DEVDF_DET35  0000000GDCL_3              Source              0000910#EMPTSTTUE          0006563970000000          
DEVDF_DET35  0000000GDCL_3              Width               000090212                  2685079060000000          
DEVDF_DET35  0000000GDCL_3              WidthType           0000905Fixed               0000668180000000          
DEVDF_DET35  0000000GDCL_30             Parent              0000909#QSummary           1346775130000000          
DEVDF_DET35  0000000GDCL_30             Source              0000910#STD_DESCS          0006563970000000          
DEVDF_DET35  0000000GDCL_30             Visible             0000905False               0000691220000000          
DEVDF_DET35  0000000GDCL_4              Caption             0000911'Wednesday'         0000657930000000          
DEVDF_DET35  0000000GDCL_4              CaptionType         0000907Caption             0000668180000000          
DEVDF_DET35  0000000GDCL_4              DisplayPosition     00009014                   2685079060000000          
DEVDF_DET35  0000000GDCL_4              Parent              0000910#TimeSheet          1346775130000000          
DEVDF_DET35  0000000GDCL_4              ReadOnly            0000905False               0000691220000000          
DEVDF_DET35  0000000GDCL_4              Source              0000910#EMPTSTWED          0006563970000000          
DEVDF_DET35  0000000GDCL_4              Width               000090212                  2685079060000000          
DEVDF_DET35  0000000GDCL_4              WidthType           0000905Fixed               0000668180000000          
DEVDF_DET35  0000000GDCL_5              Caption             0000910'Thursday'          0000657930000000          
DEVDF_DET35  0000000GDCL_5              CaptionType         0000907Caption             0000668180000000          
DEVDF_DET35  0000000GDCL_5              DisplayPosition     00009015                   2685079060000000          
DEVDF_DET35  0000000GDCL_5              Parent              0000910#TimeSheet          1346775130000000          
DEVDF_DET35  0000000GDCL_5              ReadOnly            0000905False               0000691220000000          
DEVDF_DET35  0000000GDCL_5              Source              0000910#EMPTSTTHU          0006563970000000          
DEVDF_DET35  0000000GDCL_5              Width               000090212                  2685079060000000          
DEVDF_DET35  0000000GDCL_5              WidthType           0000905Fixed               0000668180000000          
DEVDF_DET35  0000000GDCL_6              Caption             0000908'Friday'            0000657930000000          
DEVDF_DET35  0000000GDCL_6              CaptionType         0000907Caption             0000668180000000          
DEVDF_DET35  0000000GDCL_6              DisplayPosition     00009016                   2685079060000000          
DEVDF_DET35  0000000GDCL_6              Parent              0000910#TimeSheet          1346775130000000          
DEVDF_DET35  0000000GDCL_6              ReadOnly            0000905False               0000691220000000          
DEVDF_DET35  0000000GDCL_6              Source              0000910#EMPTSTFRI          0006563970000000          
DEVDF_DET35  0000000GDCL_6              Width               000090212                  2685079060000000          
DEVDF_DET35  0000000GDCL_6              WidthType           0000905Fixed               0000668180000000          
DEVDF_DET35  0000000GDCL_7              Caption             0000910'Saturday'          0000657930000000          
DEVDF_DET35  0000000GDCL_7              CaptionType         0000907Caption             0000668180000000          
DEVDF_DET35  0000000GDCL_7              DisplayPosition     00009017                   2685079060000000          
DEVDF_DET35  0000000GDCL_7              Parent              0000910#TimeSheet          1346775130000000          
DEVDF_DET35  0000000GDCL_7              ReadOnly            0000905False               0000691220000000          
DEVDF_DET35  0000000GDCL_7              Source              0000910#EMPTSTSAT          0006563970000000          
DEVDF_DET35  0000000GDCL_7              Width               000090212                  2685079060000000          
DEVDF_DET35  0000000GDCL_7              WidthType           0000905Fixed               0000668180000000          
DEVDF_DET35  0000000GDCL_8              Caption             0000908'Sunday'            0000657930000000          
DEVDF_DET35  0000000GDCL_8              CaptionType         0000907Caption             0000668180000000          
DEVDF_DET35  0000000GDCL_8              DisplayPosition     00009018                   2685079060000000          
DEVDF_DET35  0000000GDCL_8              Parent              0000910#TimeSheet          1346775130000000          
DEVDF_DET35  0000000GDCL_8              ReadOnly            0000905False               0000691220000000          
DEVDF_DET35  0000000GDCL_8              Source              0000910#EMPTSTSUN          0006563970000000          
DEVDF_DET35  0000000GDCL_8              Width               000090212                  2685079060000000          
DEVDF_DET35  0000000GDCL_8              WidthType           0000905Fixed               0000668180000000          
DEVDF_DET35  0000000GDCL_9              Caption             0000906'Task'              0000657930000000          
DEVDF_DET35  0000000GDCL_9              CaptionType         0000907Caption             0000668180000000          
DEVDF_DET35  0000000GDCL_9              DisplayPosition     00009011                   2685079060000000          
DEVDF_DET35  0000000GDCL_9              Parent              0000910#YYSummary          1346775130000000          
DEVDF_DET35  0000000GDCL_9              Source              0000909#STD_DESC           0006563970000000          
DEVDF_DET35  0000000GDCL_9              Width               000090212                  2685079060000000          
DEVDF_DET35  0000000GPBX_Details        DisplayPosition     00009011                   2685079060000000          
DEVDF_DET35  0000000GPBX_Details        Height              0000903128                 2685079060000000          
DEVDF_DET35  0000000GPBX_Details        LayoutManager       0000907#FWLM_1             1346775130000000          
DEVDF_DET35  0000000GPBX_Details        Left                00009010                   2685079060000000          
DEVDF_DET35  0000000GPBX_Details        Parent              0000911#PANL_R_Top         1346775130000000          
DEVDF_DET35  0000000GPBX_Details        TabPosition         00009011                   2685079060000000          
DEVDF_DET35  0000000GPBX_Details        TabStop             0000905False               0000691220000000          
DEVDF_DET35  0000000GPBX_Details        Top                 0000902-3                  2685079060000000          
DEVDF_DET35  0000000GPBX_Details        Width               0000903695                 2685079060000000          
DEVDF_DET35  0000000Grid_Title          Alignment           0000906Center              0000668180000000          
DEVDF_DET35  0000000Grid_Title          Caption             0000908'<text>'            0000657930000000          
DEVDF_DET35  0000000Grid_Title          DisplayPosition     00009014                   2685079060000000          
DEVDF_DET35  0000000Grid_Title          Left                00009013                   2685079060000000          
DEVDF_DET35  0000000Grid_Title          Parent              0000911#PANL_Right         1346775130000000          
DEVDF_DET35  0000000Grid_Title          TabPosition         00009014                   2685079060000000          
DEVDF_DET35  0000000Grid_Title          TabStop             0000905False               0000691220000000          
DEVDF_DET35  0000000Grid_Title          Top                 0000903128                 2685079060000000          
DEVDF_DET35  0000000Grid_Title          VerticalAlignment   0000906Center              0000668180000000          
DEVDF_DET35  0000000Grid_Title          VisualStyle         0000909#VS_TITLE           0010496090000000          
DEVDF_DET35  0000000Grid_Title          Width               0000903695                 2685079060000000          
DEVDF_DET35  0000000HeaderName          Caption             0000908'<text>'            0000657930000000          
DEVDF_DET35  0000000HeaderName          DisplayPosition     00009012                   2685079060000000          
DEVDF_DET35  0000000HeaderName          Height              000090219                  2685079060000000          
DEVDF_DET35  0000000HeaderName          Left                0000903106                 2685079060000000          
DEVDF_DET35  0000000HeaderName          Parent              0000913#GPBX_Details       1346775130000000          
DEVDF_DET35  0000000HeaderName          TabPosition         00009012                   2685079060000000          
DEVDF_DET35  0000000HeaderName          TabStop             0000905False               0000691220000000          
DEVDF_DET35  0000000HeaderName          Top                 000090229                  2685079060000000          
DEVDF_DET35  0000000HeaderName          VerticalAlignment   0000906Center              0000668180000000          
DEVDF_DET35  0000000HeaderName          Width               0000903279                 2685079060000000          
DEVDF_DET35  0000000IMGE_1              AutoSize            0000905False               0000691220000000          
DEVDF_DET35  0000000IMGE_1              DisplayPosition     00009011                   2685079060000000          
DEVDF_DET35  0000000IMGE_1              Height              000090281                  2685079060000000          
DEVDF_DET35  0000000IMGE_1              Left                000090211                  2685079060000000          
DEVDF_DET35  0000000IMGE_1              Parent              0000913#GPBX_Details       1346775130000000          
DEVDF_DET35  0000000IMGE_1              TabPosition         00009011                   2685079060000000          
DEVDF_DET35  0000000IMGE_1              Top                 000090227                  2685079060000000          
DEVDF_DET35  0000000IMGE_1              Width               000090281                  2685079060000000          
DEVDF_DET35  0000000LABL_1              Caption             0001020'There is no data in0000657930000000          
DEVDF_DET35  0000000LABL_1              Caption             0002020 file PSLTIMES. Use 0000657930000000          
DEVDF_DET35  0000000LABL_1              Caption             0003020function PSLINC in p0000657930000000          
DEVDF_DET35  0000000LABL_1              Caption             0004020rocess PSLUTL to ins0000657930000000          
DEVDF_DET35  0000000LABL_1              Caption             0005020tall demonstration d0000657930000000          
DEVDF_DET35  0000000LABL_1              Caption             0006020ata. Note that the p0000657930000000          
DEVDF_DET35  0000000LABL_1              Caption             0007020artition must be RDM0000657930000000          
DEVDF_DET35  0000000LABL_1              Caption             0008912LX enabled.'        0000657930000000          
DEVDF_DET35  0000000LABL_1              DisplayPosition     00009011                   2685079060000000          
DEVDF_DET35  0000000LABL_1              Height              0000903502                 2685079060000000          
DEVDF_DET35  0000000LABL_1              Left                00009010                   2685079060000000          
DEVDF_DET35  0000000LABL_1              Parent              0000907#PANL_1             1346775130000000          
DEVDF_DET35  0000000LABL_1              TabPosition         00009011                   2685079060000000          
DEVDF_DET35  0000000LABL_1              TabStop             0000905False               0000691220000000          
DEVDF_DET35  0000000LABL_1              Top                 00009010                   2685079060000000          
DEVDF_DET35  0000000LABL_1              VerticalAlignment   0000906Center              0000668180000000          
DEVDF_DET35  0000000LABL_1              Width               0000903902                 2685079060000000          
DEVDF_DET35  0000000Main_Panel          DisplayPosition     00009011                   2685079060000000          
DEVDF_DET35  0000000Main_Panel          Height              0000903502                 2685079060000000          
DEVDF_DET35  0000000Main_Panel          LayoutManager       0000907#SPLM_2             1346775130000000          
DEVDF_DET35  0000000Main_Panel          Left                00009012                   2685079060000000          
DEVDF_DET35  0000000Main_Panel          Parent              0000910#COM_OWNER          0003287130000000          
DEVDF_DET35  0000000Main_Panel          TabPosition         00009011                   2685079060000000          
DEVDF_DET35  0000000Main_Panel          TabStop             0000905False               0000691220000000          
DEVDF_DET35  0000000Main_Panel          Top                 00009012                   2685079060000000          
DEVDF_DET35  0000000Main_Panel          Width               0000903902                 2685079060000000          
DEVDF_DET35  0000000MNTHSAL             DisplayPosition     00009014                   2685079060000000          
DEVDF_DET35  0000000MNTHSAL             Height              000090219                  2685079060000000          
DEVDF_DET35  0000000MNTHSAL             Left                0000903106                 2685079060000000          
DEVDF_DET35  0000000MNTHSAL             MarginLeft          0000903100                 2685079060000000          
DEVDF_DET35  0000000MNTHSAL             Parent              0000913#GPBX_Details       1346775130000000          
DEVDF_DET35  0000000MNTHSAL             ReadOnly            0000904True                0000691220000000          
DEVDF_DET35  0000000MNTHSAL             TabPosition         00009014                   2685079060000000          
DEVDF_DET35  0000000MNTHSAL             Top                 000090287                  2685079060000000          
DEVDF_DET35  0000000MNTHSAL             UsePicklist         0000905False               0000691220000000          
DEVDF_DET35  0000000MNTHSAL             Width               0000903279                 2685079060000000          
DEVDF_DET35  0000000PANL_1              DisplayPosition     00009012                   2685079060000000          
DEVDF_DET35  0000000PANL_1              Height              0000903502                 2685079060000000          
DEVDF_DET35  0000000PANL_1              LayoutManager       0000907#ATLM_5             1346775130000000          
DEVDF_DET35  0000000PANL_1              Left                00009012                   2685079060000000          
DEVDF_DET35  0000000PANL_1              Parent              0000910#COM_OWNER          0003287130000000          
DEVDF_DET35  0000000PANL_1              TabPosition         00009012                   2685079060000000          
DEVDF_DET35  0000000PANL_1              TabStop             0000905False               0000691220000000          
DEVDF_DET35  0000000PANL_1              Top                 00009012                   2685079060000000          
DEVDF_DET35  0000000PANL_1              Width               0000903902                 2685079060000000          
DEVDF_DET35  0000000PANL_left           DisplayPosition     00009011                   2685079060000000          
DEVDF_DET35  0000000PANL_left           Height              0000903502                 2685079060000000          
DEVDF_DET35  0000000PANL_left           LayoutManager       0000907#ATLM_1             1346775130000000          
DEVDF_DET35  0000000PANL_left           Left                00009010                   2685079060000000          
DEVDF_DET35  0000000PANL_left           Parent              0000911#Main_Panel         1346775130000000          
DEVDF_DET35  0000000PANL_left           TabPosition         00009011                   2685079060000000          
DEVDF_DET35  0000000PANL_left           TabStop             0000905False               0000691220000000          
DEVDF_DET35  0000000PANL_left           Top                 00009010                   2685079060000000          
DEVDF_DET35  0000000PANL_left           Width               0000903197                 2685079060000000          
DEVDF_DET35  0000000PANL_R_Bottom       DisplayPosition     00009011                   2685079060000000          
DEVDF_DET35  0000000PANL_R_Bottom       Height              000090235                  2685079060000000          
DEVDF_DET35  0000000PANL_R_Bottom       Left                00009013                   2685079060000000          
DEVDF_DET35  0000000PANL_R_Bottom       Parent              0000911#PANL_Right         1346775130000000          
DEVDF_DET35  0000000PANL_R_Bottom       TabPosition         00009012                   2685079060000000          
DEVDF_DET35  0000000PANL_R_Bottom       TabStop             0000905False               0000691220000000          
DEVDF_DET35  0000000PANL_R_Bottom       Top                 0000903464                 2685079060000000          
DEVDF_DET35  0000000PANL_R_Bottom       Width               0000903695                 2685079060000000          
