DEVHTM     DW_PROC   DWDET15SEL_LIST  0000001EMPNO     BA         500000                    &T0001+0211+0218    &T0002+0219+0226    FE                                                                              0001200003                                  0N                         00N                                                                         
DEVHTM     DW_T00    DWT0008REPORT    0000001VF_ELURL  BA       25600000                    &T0001+0001+0020    &T0002+0021+0040    FE  LC                                                                          0000500002                                  0N                         00N                                                                         
DEVHTM     DW_T00    DWT0010WEB_LIST  0000001EMPNO     BA         500000                    &T0002+0019+0038    &T0003+0039+0058    FE                                                                              0000900009                                  0N                         00N                                                                         
DEVHTM     DW_PROC   DWDET17WEB_LIST  0000001EMPNO     BA         500000                    &T0002+0019+0026    &T0003+0027+0034    FE                                                                              0000800003                                  0N                         00N                                                                         
DEVHTM     DW_T00    DWT0018W0018_LST 0000001EMPNO     BA         500000                    &T0001+0051+0070    &T0002+0071+0090    FE                                                                              0000800009                                  0N                         00N                                                                         
DEVHTM     DW_T00    DWT0021REPORT    0000001VF_ELURL  BA       25600000                                        &T0001+0001+0020    FE  LC                                                                          0000400002                                  0N                         00N                                                                         
DEVHTM     DW_T01    DWT0103W0103_LST 0000001OCCURENCE BP         700000                                        &T0001+0026+0042    FE  RB                                                                          0000800008A                                11N A                       11N                                                                         
DEVHTM     DW_T02    DWT0203W0203_LST 0000001OCCURENCE BP         700000                                        &T0001+0026+0042    FE  RB                                                                          0000700008A                                11N A                       11N                                                                         
DEVHTM     DW_T00    DWT0019W0019_LST 0000001EMPNO     BA         500000                    &T0001+0001+0020    &T0002+0021+0040    FE                                                                              0000500009                                  0N                         00N                                                                         
DEVHTM     DW_T03    DWT0303W0303_LST 0000001FP_RLINK  IA         100000                                        &T0003+0053+0058    FE                                                                              0000700004                                  0N                         00N                                                                         
DEVHTM     DW_T04    DWT0403W0403_LST 0000001EMPNO     OA         500000                    &T0001+0001+0020    &T0002+0021+0040    FE                                                                              0000500009                                  0N                         00N                                                                         
DEVHTM     DW_T04    DWT0405W0405_LST 0000001EMPNO     OA         500000                    &T0001+0026+0045    &T0002+0046+0065    FE                                                                              0000700009                                  0N                         00N                                                                         
DEVHTM     DW_T05    DWT0503W0503_LST 0000001FP_RIMAG  IA         100000                                        &T0003+0053+0058    FE                                                                              0000700004                                  0N                         00N                                                                         
DEVHTM     DW_T06    DWT0603W0603_LST 0000001OCCURENCE OP         700000                                        &T0001+0026+0031    FE  RB                                                                          0000800002A                                11N A                       11N                                                                         
DEVHTM     DW_T07    DWT0703W0703_LST 0000001EMPNO     OA         500000                    &T0001+0001+0020    &T0002+0021+0040    FE                                                                              0000500009                                  0N                         00N                                                                         
DEVHTM     DW_T07    DWT0705WEB_LIST  0000001EMPNO     OA         500000                    &T0001+0026+0045    &T0002+0046+0065    FE                                                                              0000700009                                  0N                         00N                                                                         
DEVHTM     DW_T08    DWT0801SEL_SKILS 0000001SKILDESC  BA        2000000                                        &T0001+0026+0039    FE                                                                              0000700002                                  0N                         00N                                                                         
DEVHTM     DW_T08    DWT0803EMPLOYEES 0000001COL_1     BA        4100000                                        &T0007+0108+0116    FE                                                                              0000700002                                  0N                         00N                                                                         
DEVHTM     DW_T08    DWT0806EMPLOYEES 0000001COL_2     BA        4100000                                        &T0003+0055+0063    FE                                                                              0000700002                                  0N                         00N                                                                         
DEVHTM     DW_T09    DWT0903DWT0903   0000001SKILDESC  BA        2000000                    &T0014+0546+0557    &T0015+0558+0569    FE                                                                              0002100002                                  0N                         00N                                                                         
DEVHTM     DW_T09    DWT0904DWT0904   0000001SKILDESC  BA        2000000                    &T0013+0506+0517    &T0014+0518+0529    FE                                                                              0002000002                                  0N                         00N                                                                         
DEVHTM     DW_T09    DWT0907DWT0907   0000001EMPNO     OA         500000                    &T0008+0141+0160    &T0009+0161+0180    FE                                                                              0001200009                                  0N                         00N                                                                         
DEVHTM     DW_T10    DWT1003MEMO_LINE 0000001LINE_NEW  BA         500000                                        &T0002+0075+0081    FE                                                                              0000800003                                  0N                         00N                                                                         
DEVHTM     DW_T12    DWT1208W1208_LST 0000001CELLLABEL BA        5000000                                        &T0001+0001+0005    LC                                                                              0000600002                                  0N                         00N                                                                         
DEVHTM     DW_T13    DWT1301LIST_1301 0000001FULLNAME  BA        4100000                    &T0011+0175+0189    &T0012+0190+0204    FE                                                                              0000800002                                  0N                         00N                                                                         
DEVHTM     DW_T13    DWT1302LIST_1302 0000001COL1      BA        4100000                                        &T0007+0071+0077    FE                                                                              0000600002                                  0N                         00N                                                                         
DEVHTM     DW_T13    DWT1303EMP_1303  0000001EMPNO     BA         500000                    &T0001+0001+0020    &T0002+0021+0040    FE                                                                              0000900009                                  0N                         00N                                                                         
DEVHTM     DW_T13    DWT1304EMP_1304  0000001EMPNO     BA         500000                    &T0001+0001+0020    &T0002+0021+0040    FE                                                                              0000900009                                  0N                         00N                                                                         
DEVHTM     DW_T13    DWT1305DEPT_1305 0000001DEPTMENT  BA         400000                    &T0001+0001+0020    &T0002+0021+0040    FE                                                                              0000600010                                  0N                         00N                                                                         
DEVHTM     DW_T14    DWT1401WEB_LIST  0000001UTIME     OP         600000                    &T0006+0087+0092    &T0007+0093+0098    FE  RB                                                                          0001200002                                  0N                         00N                                                                         
DEVHTM     DW_T15    DWT1501LIST_1501 0000001FULLNAME  BA        4100000                    &T0011+0175+0189    &T0012+0190+0204    FE                                                                              0000900002                                  0N                         00N                                                                         
DEVHTM     DW_T15    DWT1502LIST_1502 0000001COL1      BA        4100000                                        &T0007+0071+0077    FE                                                                              0000600002                                  0N                         00N                                                                         
DEVHTM     DW_T15    DWT1503LIST_1501 0000001FULLNAME  BA        4100000                    &T0011+0175+0189    &T0012+0190+0204    FE                                                                              0000900002                                  0N                         00N                                                                         
DEVHTM     DW_T16    DWT1603W1603_LST 0000001SURNAME   IA        2000000                                        &T0001+0001+0020    FE                                                                              0000600002                                  0N                         00N                                                                         
DEVHTM     DW_T17    DWT1703WEB_LIST  0000001STD_TEXTS IA        3000000                                        &T0005+0030+0041    LC                                                                              0000800002                                  0N                         00N                                                                         
DEVHTM     DW_T22    DWT2205WEB_LIST  0000001FP_RQIKP1 IA         100000                                        &T0001+0026+0033    FE                                                                              0000700005                                  0N                         00N                                                                         
DEVHTM     DW_T25    DWT2504W2504_LST 0000001EMPNO     OA         500000                    &T0001+0001+0020    &T0002+0021+0040    FE                                                                              0000800009                                  0N                         00N                                                                         
DEVHTM     UF_SYSWB  UFU0002UF_HELP   0000001HLPTXT    BA        7700000                                                            FE                                                                              0000300002                                  0N                         00N                                                                         
DEVHTM     VF_PR002  VFU0201XX_LIST   0000001XX_ELNM01 IA       10800000&T0005+0031+0039    &T0006+0040+0048    &T0007+0049+0057    FE                                                                              0000600002                                  0N                         00N                                                                         
DEVHTM     VF_PR002  VFU0207XX_LIST   0000001XX_ELNM01 IA       10800000&T0005+0031+0039    &T0006+0040+0048    &T0007+0049+0057    FE                                                                              0000600002                                  0N                         00N                                                                         
DEVHTM     VF_PR004  VFU0408SPOOL     0000001LIST_LINE BA       16000000                                        &T0001+0079+0091    FE                                                                              0000600002                                  0N                         00N                                                                         
DEVHTM     VF_PR004  VFU0411GUESSREAL 0000001VF_ELTXTL BA       25500000&T0004+0046+0053    &T0005+0054+0061    &T0006+0062+0069    FE                                                                              0001600002                                  0N                         00N                                                                         
DEVHTM     VF_PR002  VFU0207XX_LIST   0000002XX_ELXA01 IA       25600000&T0001+0001+0005    &T0002+0006+0010    &T0003+0011+0015    LC  FE                                                                          0000700047                                  0N                         00N                                                                         
DEVHTM     VF_PR002  VFU0201XX_LIST   0000002XX_ELXA01 IA       25600000&T0001+0001+0005    &T0002+0006+0010    &T0003+0011+0015    LC  FE                                                                          0000700047                                  0N                         00N                                                                         
DEVHTM     DW_T25    DWT2504W2504_LST 0000002FP_RHTML  IA         100000&T0003+0041+0049    &T0004+0050+0058    &T0005+0059+0067    FE                                                                              0000800027                                  0N                         00N                                                                         
DEVHTM     DW_T22    DWT2205WEB_LIST  0000002DEPTMENT  OA         400000                    &T0002+0034+0053    &T0003+0054+0073    FE                                                                              0000700019                                  0N                         00N                                                                         
DEVHTM     DW_T17    DWT1703WEB_LIST  0000002STD_TEXT  IA        5000000                                        &T0001+0001+0010    LC                                                                              0000900007                                  0N                         00N                                                                         
DEVHTM     DW_T16    DWT1603W1603_LST 0000002FP_RCOMB  IA         100000                                        &T0002+0021+0030    FE                                                                              0000600027                                  0N                         00N                                                                         
DEVHTM     DW_T15    DWT1503LIST_1501 0000002ADDRESS1  BA        2500000&T0013+0205+0219    &T0014+0220+0234    &T0015+0235+0249    FE  LC                                                                          0000900044                                  0N                         00N                                                                         
DEVHTM     DW_T15    DWT1502LIST_1502 0000002COL2      BA        2500000                                        &T0008+0078+0084    FE  LC                                                                          0000600044                                  0N                         00N                                                                         
DEVHTM     DW_T15    DWT1501LIST_1501 0000002ADDRESS1  BA        2500000&T0013+0205+0219    &T0014+0220+0234    &T0015+0235+0249    FE  LC                                                                          0000900044                                  0N                         00N                                                                         
DEVHTM     DW_T14    DWT1401WEB_LIST  0000002STD_TEXTL OA        7500000                                        &T0001+0001+0004    LC                                                                              0001200014                                  0N                         00N                                                                         
DEVHTM     DW_T13    DWT1305DEPT_1305 0000002DEPTDESC  BA        2000000                    &T0003+0041+0052    &T0004+0053+0064    FE                                                                              0000600023                                  0N                         00N                                                                         
DEVHTM     DW_T13    DWT1304EMP_1304  0000002FULLNAME  BA        4100000                    &T0003+0041+0055    &T0004+0056+0070    FE                                                                              0000900023                                  0N                         00N                                                                         
DEVHTM     DW_T13    DWT1303EMP_1303  0000002FULLNAME  BA        4100000                    &T0003+0041+0055    &T0004+0056+0070    FE                                                                              0000900023                                  0N                         00N                                                                         
DEVHTM     DW_T13    DWT1302LIST_1302 0000002COL2      BA        2500000                                        &T0008+0078+0084    FE  LC                                                                          0000600044                                  0N                         00N                                                                         
DEVHTM     DW_T13    DWT1301LIST_1301 0000002ADDRESS1  BA        2500000&T0013+0205+0219    &T0014+0220+0234    &T0015+0235+0249    FE  LC                                                                          0000800044                                  0N                         00N                                                                         
DEVHTM     DW_T12    DWT1208W1208_LST 0000002FP_RWEBP  IA         100000                                        &T0002+0006+0014    FE                                                                              0000600057                                  0N                         00N                                                                         
DEVHTM     DW_T10    DWT1003MEMO_LINE 0000002LINE_TEXT BA        5000000                                        &T0003+0082+0090    LC                                                                              0000800010                                  0N                         00N                                                                         
DEVHTM     DW_T09    DWT0907DWT0907   0000002SALARY    BP        1100002                                        &T0010+0181+0189    FE  RB                                                                          00012000231                                14N 1                       14N                                                                         
DEVHTM     DW_T09    DWT0904DWT0904   0000002GRADEDES  BA        1100000                    &T0015+0530+0541    &T0016+0542+0553    FE                                                                              0002000023                                  0N                         00N                                                                         
DEVHTM     DW_T09    DWT0903DWT0903   0000002GRADEDES  BA        1100000                    &T0016+0570+0581    &T0017+0582+0593    FE                                                                              0002100023                                  0N                         00N                                                                         
DEVHTM     DW_T08    DWT0806EMPLOYEES 0000002COL_3     BA        2500000                                        &T0004+0064+0080    FE  LC                                                                          0000700044                                  0N                         00N                                                                         
DEVHTM     DW_T08    DWT0803EMPLOYEES 0000002COL_2     BA        2500000                                        &T0008+0117+0133    FE  LC                                                                          0000700044                                  0N                         00N                                                                         
DEVHTM     DW_T07    DWT0705WEB_LIST  0000002DEPTDESC  OA        2000000                    &T0003+0066+0077    &T0004+0078+0089    FE                                                                              0000700023                                  0N                         00N                                                                         
DEVHTM     DW_T07    DWT0703W0703_LST 0000002DEPTDESC  OA        2000000                    &T0003+0041+0052    &T0004+0053+0064    FE                                                                              0000500023                                  0N                         00N                                                                         
DEVHTM     DW_T06    DWT0603W0603_LST 0000002FP_RCHCK  IA         100000&T0002+0032+0038    &T0003+0039+0045    &T0004+0046+0052    FE                                                                              0000800017                                  0N                         00N                                                                         
DEVHTM     DW_T05    DWT0503W0503_LST 0000002DEPTDESC  OA        2000000                                        &T0004+0059+0068    FE                                                                              0000700009                                  0N                         00N                                                                         
DEVHTM     DW_T04    DWT0405W0405_LST 0000002DEPTDESC  OA        2000000                    &T0003+0066+0077    &T0004+0078+0089    FE                                                                              0000700023                                  0N                         00N                                                                         
DEVHTM     DW_T04    DWT0403W0403_LST 0000002DEPTDESC  OA        2000000                    &T0003+0041+0052    &T0004+0053+0064    FE                                                                              0000500023                                  0N                         00N                                                                         
DEVHTM     DW_T03    DWT0303W0303_LST 0000002DEPTDESC  OA        2000000                                        &T0004+0059+0068    FE                                                                              0000700009                                  0N                         00N                                                                         
DEVHTM     DW_T00    DWT0019W0019_LST 0000002SURNAME   BA        2000000                                        &T0003+0041+0050    FE                                                                              0000500023                                  0N                         00N                                                                         
DEVHTM     DW_T02    DWT0203W0203_LST 0000002FP_RDATE1 IA         100000                    &T0002+0043+0051    &T0003+0052+0060    FE                                                                              0000700024                                  0N                         00N                                                                         
DEVHTM     DW_T01    DWT0103W0103_LST 0000002STR_TIME  OP         600000                                        &T0002+0043+0057    FE  RB                                                                          0000800029                                  0N                         00N                                                                         
DEVHTM     DW_T00    DWT0018W0018_LST 0000002SURNAME   BA        2000000                                        &T0003+0091+0100    FE                                                                              0000800023                                  0N                         00N                                                                         
DEVHTM     DW_PROC   DWDET17WEB_LIST  0000002GIVENAME  BA        2000000                                        &T0004+0035+0047    FE                                                                              0000800011                                  0N                         00N                                                                         
DEVHTM     DW_T00    DWT0010WEB_LIST  0000002GIVENAME  BA        2000000                                        &T0004+0059+0071    FE                                                                              0000900023                                  0N                         00N                                                                         
DEVHTM     DW_PROC   DWDET15SEL_LIST  0000002GIVENAME  BA        2000000                                        &T0003+0227+0239    FE                                                                              0001200011                                  0N                         00N                                                                         
DEVHTM     DW_PROC   DWDET15SEL_LIST  0000003SURNAME   BA        2000000                                        &T0004+0240+0246    FE                                                                              0001200032                                  0N                         00N                                                                         
DEVHTM     DW_T00    DWT0010WEB_LIST  0000003SURNAME   BA        2000000                                        &T0005+0072+0081    FE                                                                              0000900044                                  0N                         00N                                                                         
DEVHTM     DW_PROC   DWDET17WEB_LIST  0000003SURNAME   BA        2000000                                        &T0005+0048+0054    FE                                                                              0000800032                                  0N                         00N                                                                         
DEVHTM     DW_T01    DWT0103W0103_LST 0000003STR_AMPM  OA         200000                                        &T0003+0058+0072    FE                                                                              0000800042                                  0N                         00N                                                                         
DEVHTM     DW_T02    DWT0203W0203_LST 0000003STR_DATE  OP         800000                                        &T0004+0061+0075    FE  RB                                                                          0000700037                                  0N                         00N                                                                         
DEVHTM     DW_T04    DWT0403W0403_LST 0000003FP_RCOMB  IA         100000                                        &T0005+0065+0074    FE                                                                              0000500048                                  0N                         00N                                                                         
DEVHTM     DW_T04    DWT0405W0405_LST 0000003FP_RCOMB  IA         100000                                        &T0005+0090+0099    FE                                                                              0000700048                                  0N                         00N                                                                         
DEVHTM     DW_T06    DWT0603W0603_LST 0000003STD_TEXTS OA        3000000                                        &T0005+0053+0064    LC                                                                              0000800022                                  0N                         00N                                                                         
DEVHTM     DW_T07    DWT0703W0703_LST 0000003FP_RRADB  IA         100000                                        &T0005+0065+0074    FE                                                                              0000500048                                  0N                         00N                                                                         
DEVHTM     DW_T07    DWT0705WEB_LIST  0000003FP_RRADB  IA         100000                                        &T0005+0090+0099    FE                                                                              0000700048                                  0N                         00N                                                                         
DEVHTM     DW_T08    DWT0803EMPLOYEES 0000003COL_3     BA        2500000                                        &T0001+0026+0038    FE  LC                                                                          0000800018                                  0N                         00N                                                                         
DEVHTM     DW_T08    DWT0806EMPLOYEES 0000003FP_RCHCK  IA         100000                                        &T0005+0081+0084    FE                                                                              0000700071                                  0N                         00N                                                                         
DEVHTM     DW_T09    DWT0903DWT0903   0000003COMMENT   BA        2000000                                        &T0018+0594+0613    FE  LC                                                                          0002100036                                  0N                         00N                                                                         
DEVHTM     DW_T09    DWT0904DWT0904   0000003COMMENT   BA        2000000                                        &T0017+0554+0573    FE  LC                                                                          0002000036                                  0N                         00N                                                                         
DEVHTM     DW_T09    DWT0907DWT0907   0000003GIVENAME  BA        2000000                                        &T0011+0190+0202    FE                                                                              0001200038                                  0N                         00N                                                                         
DEVHTM     DW_T13    DWT1301LIST_1301 0000003ADDRESS2  BA        2500000&T0001+0001+0020    &T0002+0021+0040    &T0003+0041+0060    FE  LC                                                                          0000900018                                  0N                         00N                                                                         
DEVHTM     DW_T13    DWT1302LIST_1302 0000003COL3      BA        2500000                                        &T0001+0001+0007    FE  LC                                                                          0000700018                                  0N                         00N                                                                         
DEVHTM     DW_T13    DWT1305DEPT_1305 0000003FP_RCLIP1 IA         100000&T0005+0065+0071    &T0006+0072+0078    &T0007+0079+0085    FE                                                                              0000600047                                  0N                         00N                                                                         
DEVHTM     DW_T15    DWT1501LIST_1501 0000003ADDRESS2  BA        2500000&T0001+0001+0020    &T0002+0021+0040    &T0003+0041+0060    FE  LC                                                                          0001000018                                  0N                         00N                                                                         
DEVHTM     DW_T15    DWT1502LIST_1502 0000003COL3      BA        2500000                                        &T0001+0001+0007    FE  LC                                                                          0000700018                                  0N                         00N                                                                         
DEVHTM     DW_T15    DWT1503LIST_1501 0000003ADDRESS2  BA        2500000&T0001+0001+0020    &T0002+0021+0040    &T0003+0041+0060    FE  LC                                                                          0001000018                                  0N                         00N                                                                         
DEVHTM     DW_T16    DWT1603W1603_LST 0000003FP_RDATE  IA         100000                                        &T0003+0031+0040    FE                                                                              0000600038                                  0N                         00N                                                                         
DEVHTM     DW_T17    DWT1703WEB_LIST  0000003STD_TEXTL IA        7500000                                        &T0003+0015+0025    LC                                                                              0000900063                                  0N                         00N                                                                         
DEVHTM     DW_T22    DWT2205WEB_LIST  0000003DEPTDESC  OA        2000000                    &T0004+0074+0085    &T0005+0086+0097    FE                                                                              0000700032                                  0N                         00N                                                                         
DEVHTM     DW_T15    DWT1503LIST_1501 0000004ADDRESS3  BA        2500000&T0005+0076+0095    &T0006+0096+0115    &T0007+0116+0135    FE  LC                                                                          0001100018                                  0N                         00N                                                                         
DEVHTM     DW_T15    DWT1502LIST_1502 0000004COL4      BA        2500000                                        &T0003+0023+0029    FE  LC                                                                          0000800018                                  0N                         00N                                                                         
DEVHTM     DW_T15    DWT1501LIST_1501 0000004ADDRESS3  BA        2500000&T0005+0076+0095    &T0006+0096+0115    &T0007+0116+0135    FE  LC                                                                          0001100018                                  0N                         00N                                                                         
DEVHTM     DW_T13    DWT1302LIST_1302 0000004COL4      BA        2500000                                        &T0003+0023+0029    FE  LC                                                                          0000800018                                  0N                         00N                                                                         
DEVHTM     DW_T13    DWT1301LIST_1301 0000004ADDRESS3  BA        2500000&T0005+0076+0095    &T0006+0096+0115    &T0007+0116+0135    FE  LC                                                                          0001000018                                  0N                         00N                                                                         
DEVHTM     DW_T09    DWT0907DWT0907   0000004POSTCODE  OS         600000                    &T0012+0203+0222    &T0013+0223+0242    FE                                                                              00012000733                                 6N 3                       06N                                                                         
DEVHTM     DW_T09    DWT0904DWT0904   0000004DATEACQ   BS         600000&T0018+0574+0586    &T0019+0587+0599    &T0020+0600+0612    FE  RB                                                                          0002000062Y                                 8N Y                       08N                                                                         
DEVHTM     DW_T09    DWT0903DWT0903   0000004DATEACQ   BS         600000&T0019+0614+0626    &T0020+0627+0639    &T0021+0640+0652    FE  RB                                                                          0002100062Y                                 8N Y                       08N                                                                         
DEVHTM     DW_T08    DWT0806EMPLOYEES 0000004COL_5     BP        1100002                                        &T0001+0026+0039    FE  RB                                                                          00008000181                                14N 1                       14N                                                                         
DEVHTM     DW_T08    DWT0803EMPLOYEES 0000004COL_4     BP        1100002                                        &T0003+0054+0067    FE  RB                                                                          00008000601                                14N 1                       14N                                                                         
DEVHTM     DW_T02    DWT0203W0203_LST 0000004FP_RDATE2 IA         100000                    &T0005+0076+0088    &T0006+0089+0101    FE                                                                              0000700052                                  0N                         00N                                                                         
DEVHTM     DW_T01    DWT0103W0103_LST 0000004FP_RTIME1 IA         100000&T0004+0073+0081    &T0005+0082+0090    &T0006+0091+0099    FE                                                                              0000800056                                  0N                         00N                                                                         
DEVHTM     DW_PROC   DWDET15SEL_LIST  0000004ADDRESS1  BA        2500000&T0005+0247+0261    &T0006+0262+0276    &T0007+0277+0291    FE  LC                                                                          0001200053                                  0N                         00N                                                                         
DEVHTM     DW_T08    DWT0803EMPLOYEES 0000005COL_5     BP        1100002                                        &T0005+0083+0092    FE  RB                                                                          00009000181                                14N 1                       14N                                                                         
DEVHTM     DW_T09    DWT0907DWT0907   0000005SURNAME   BA        2000000                                        &T0001+0026+0035    FE                                                                              0001300018                                  0N                         00N                                                                         
DEVHTM     DW_T13    DWT1301LIST_1301 0000005SALARY    BP        1100002                                        &T0009+0151+0159    FE  RB                                                                          00010000601                                14N 1                       14N                                                                         
DEVHTM     DW_T13    DWT1302LIST_1302 0000005COL5      BP        1100002                                        &T0005+0045+0055    FE  RB                                                                          00008000601                                14N 1                       14N                                                                         
DEVHTM     DW_T15    DWT1501LIST_1501 0000005SALARY    BP        1100002                                        &T0009+0151+0159    FE  RB                                                                          00011000601                                14N 1                       14N                                                                         
DEVHTM     DW_T15    DWT1502LIST_1502 0000005COL5      BP        1100002                                        &T0005+0045+0055    FE  RB                                                                          00008000601                                14N 1                       14N                                                                         
DEVHTM     DW_T15    DWT1503LIST_1501 0000005SALARY    BP        1100002                                        &T0009+0151+0159    FE  RB                                                                          00011000601                                14N 1                       14N                                                                         
